:0400000007EF00F016
:100008007E8299ED14F048EF1FF0020E0001FC19F2
:10001800D8A475D0010ED4EC22F0680E0001C46F8C
:10002800E40EE82EFED7C42FFCD700F0800ED4ECE7
:1000380022F0CB0E00018E6FFB0E00018F6F010EB8
:100048000001FD250001906F0001916B000E9123C6
:100058009CEC08F0C00ED4EC22F00E0E0001836F69
:10006800100E826FF8C080F0F9C081F047EC1BF0E9
:1000780080C0C6F081C0C7F02D0E00018E6FFF0E44
:1000880000018F6F0E0E0001836F100E826FF8C093
:1000980080F0F9C081F047EC1BF080C086F081C089
:1000A80087F0000E0001896F3C0E886F35EC1AF05E
:1000B80086C090F087C091F0C6C080F0C7C081F0BC
:1000C800000E0001836F3C0E826F47EC1BF080C06E
:1000D80092F081C093F09CEC08F0000E0001FC6FD8
:1000E80081A2FED70C0E0001DE190001DF11D8A491
:1000F80003D042EC20F0D5D326EC20F0D2D3000177
:10010800DE510001DF11D8A4CCD3000E0001C86F66
:10011800630E0001C86501D00CD0680E0001C46FE1
:10012800E40EE82EFED7C42FFCD700F00001C82B40
:10013800EFD70001DE510001DF11D8A4B2D3E7ECFC
:100148000DF0AFD30001E8510001E911D8A441D066
:10015800010ED4EC22F0680E0001C46FE40EE82E04
:10016800FED7C42FFCD700F0800ED4EC22F0B90ED5
:1001780000018E6FFB0E00018F6FE6C090F0E7C0A4
:1001880091F09CEC08F0C00ED4EC22F0500E000167
:100198008E6FFE0E00018F6F9CEC08F0000E0001C0
:1001A800C96F630E0001C96501D00CD0680E00014B
:1001B800C46FE40EE82EFED7C42FFCD700F0000170
:1001C800C92BEFD70001F6510001F711D8B412007E
:1001D800E5D7010ED4EC22F0680E0001C46FE40EDE
:1001E800E82EFED7C42FFCD700F0800ED4EC22F006
:1001F800B90E00018E6FFB0E00018F6FE6C090F004
:10020800E7C091F09CEC08F0C00ED4EC22F00E0E82
:1002180000018E6FFE0E00018F6F9CEC08F0000E3F
:100228000001CA6F630E0001CA6501D00CD0680EC8
:100238000001C46FE40EE82EFED7C42FFCD700F0EF
:100248000001CA2BEFD70001F6510001F711D8B40D
:100258001200000E0001CB6F630E0001CB6501D0C8
:100268000CD0680E0001C46FE40EE82EFED7C42F30
:10027800FCD700F00001CB2BEFD70001F6510001AD
:10028800F711D8B41200010ED4EC22F0680E000168
:10029800C46FE40EE82EFED7C42FFCD700F0800E02
:1002A800D4EC22F0C30E00018E6FFF0E00018F6F99
:1002B8009CEC08F0C00ED4EC22F02DC1D6F02EC173
:1002C800D7F02FC1D8F030C1D9F0C3D0D60E000175
:1002D800806F000E0001816FDA0E0001826FFF0E41
:1002E8000001836F5EEC20F0E6D0D60E0001806F2F
:1002F800000E0001816FCA0E0001826FFF0E00011F
:10030800836F5EEC20F0D7D0D60E0001806F000E10
:100318000001816FE60E0001826FFF0E0001836FFE
:100328005EEC20F0C8D0D60E0001806F000E0001F0
:10033800816FEA0E0001826FFF0E0001836F5EEC91
:1003480020F0B9D0D60E0001806F000E0001816F39
:10035800FA0E0001826FFF0E0001836F5EEC20F041
:10036800AAD0D60E0001806F000E0001816FDE0E4C
:100378000001826FFF0E0001836F5EEC20F09BD0BE
:10038800D60E0001806F000E0001816FD60E0001AD
:10039800826FFF0E0001836F5EEC20F08CD0D60ECA
:1003A8000001806F000E0001816FD20E0001826F84
:1003B800FF0E0001836F5EEC20F07DD0D60E0001A9
:1003C800806F000E0001816FE20E0001826FFF0E48
:1003D8000001836F5EEC20F06ED0D60E0001806FB6
:1003E800000E0001816FF20E0001826FFF0E000106
:1003F800836F5EEC20F05FD0D60E0001806F000E98
:100408000001816FF60E0001826FFF0E0001836FFD
:100418005EEC20F050D0D60E0001806F000E000177
:10042800816FCE0E0001826FFF0E0001836F5EECBC
:1004380020F041D0D60E0001806F000E0001816FC0
:10044800EE0E0001826FFF0E0001836F5EEC20F05C
:1004580032D021EE0AF0DECFC4F0DDCFC5F00001C6
:10046800C551000AD8A4E6D70001C451010AD8B47E
:100478002DD7030AD8B439D7010AD8B445D7070A03
:10048800D8B451D7010AD8B45DD7030AD8B469D70C
:10049800010AD8B475D70F0AD8B481D7010AD8B4DD
:1004A8008DD7030AD8B499D7010AD8B4A5D7070AB3
:1004B800D8B4B1D7BFD7420E00018E6FFB0E000132
:1004C8008F6F08C190F009C191F0D60E0001926FAC
:1004D800000E0001936F04C194F005C195F002C1AC
:1004E80096F003C197F000C198F001C199F09CEC17
:1004F80008F0000E0001CC6F630E0001CC6501D03E
:100508000CD0680E0001C46FE40EE82EFED7C42F8D
:10051800FCD700F00001CC2BEFD70001F651000109
:10052800F711D8B41200000E0001CD6F630E000160
:10053800CD6501D00CD0680E0001C46FE40EE82E22
:10054800FED7C42FFCD700F00001CD2BEFD7000158
:10055800F6510001F711D8B41200010ED4EC22F0C4
:10056800680E0001C46FE40EE82EFED7C42FFCD736
:1005780000F0800ED4EC22F0A30E00018E6FFF0E67
:1005880000018F6F9CEC08F0C00ED4EC22F00E0E28
:100598000001836F100E826FF4C080F0F5C081F007
:1005A80047EC1BF080C0C6F081C0C7F01F0E0001E9
:1005B8008E6FFF0E00018F6F0E0E0001836F100EFD
:1005C800826FF4C080F0F5C081F047EC1BF080C06A
:1005D80086F081C087F0000E0001896F3C0E886F9D
:1005E80035EC1AF086C090F087C091F0C6C080F054
:1005F800C7C081F0000E0001836F3C0E826F47EC8C
:100608001BF080C092F081C093F09CEC08F0000EC3
:100618000001CE6F630E0001CE6501D00CD0680ECC
:100628000001C46FE40EE82EFED7C42FFCD700F0FB
:100638000001CE2BEFD70001F6510001F711D8B415
:100648001200000E0001CF6F630E0001CF6501D0CC
:100658000CD0680E0001C46FE40EE82EFED7C42F3C
:10066800FCD700F00001CF2BEFD70001F6510001B5
:10067800F711D8B41200010ED4EC22F0680E000174
:10068800C46FE40EE82EFED7C42FFCD700F0800E0E
:10069800D4EC22F0640E00018E6FFD0E00018F6F06
:1006A8009CEC08F0C00ED4EC22F0820E00018E6F94
:1006B800FB0E00018F6FEEC090F0EFC091F0F0C01C
:1006C80092F0F1C093F09CEC08F0000E0001D06F9E
:1006D800630E0001D06501D00CD0680E0001C46F14
:1006E800E40EE82EFED7C42FFCD700F00001D02B73
:1006F800EFD70001F6510001F711D8B41200000E2F
:100708000001D16F630E0001D16501D00CD0680ED5
:100718000001C46FE40EE82EFED7C42FFCD700F00A
:100728000001D12BEFD70001F6510001F711D8B421
:100738001200010ED4EC22F0680E0001C46FE40E22
:10074800E82EFED7C42FFCD700F0800ED4EC22F0A0
:10075800750E00018E6FFD0E00018F6F9CEC08F086
:10076800C00ED4EC22F06F0E00018E6FFB0E00015C
:100778008F6FEAC090F0EBC091F0ECC092F0EDC042
:1007880093F09CEC08F0000E0001D26F630E00019C
:10079800D26501D00CD0680E0001C46FE40EE82EBB
:1007A800FED7C42FFCD700F00001D22BEFD70001F1
:1007B800F6510001F711D8B41200000E0001D36FF2
:1007C800630E0001D36501D00CD0680E0001C46F20
:1007D800E40EE82EFED7C42FFCD700F00001D32B7F
:1007E800EFD70001F6510001F711D8B41200010E3D
:1007F800D4EC22F0680E0001C46FE40EE82EFED798
:10080800C42FFCD700F0800ED4EC22F0860E000135
:100818008E6FFD0E00018F6F9CEC08F0C00ED4ECBB
:1008280022F07F0E00018E6FFB0E00018F6FF2C069
:1008380090F0F3C091F09CEC08F0000E0001D46F2A
:10084800630E0001D46501D00CD0680E0001C46F9E
:10085800E40EE82EFED7C42FFCD700F00001D42BFD
:10086800EFD70001F6510001F711D8B41200000EBD
:100878000001D56F630E0001D56501D00CD0680E5C
:100888000001C46FE40EE82EFED7C42FFCD700F099
:100898000001D52BEFD70001F6510001F711D8B4AC
:1008A80012000001F6510001F711D8B412004AD421
:1008B800000E0001C56F000EC46FF28E010ED4EC5D
:1008C80022F0680E0001AB6FE40EE82EFED7AB2FC6
:1008D800FCD700F0800ED4EC22F0990E00018E6F48
:1008E800FF0E00018F6F9CEC08F0C00ED4EC22F0D4
:1008F800110E00018E6FFF0E00018F6F9CEC08F047
:10090800050E0001AC6F0F0E0001AB6FF10EE82E63
:10091800FED7AB2FFCD7AC2FFAD781A2FED781B276
:10092800FED7010ED4EC22F0680E0001AB6FE40E86
:10093800E82EFED7AB2FFCD700F0800ED4EC22F0C7
:10094800C90E00018E6FFE0E00018F6F9CEC08F03F
:10095800C00ED4EC22F0E70E00018E6FFE0E0001EF
:100968008F6F9CEC08F0898A000E0001C56F000E9D
:10097800C46F0001C5BF08D00001C55123E1050EB1
:100988000001C45DD8B01ED0000E0001AD6F630E2B
:100998000001AD6501D00CD0680E0001AB6FE40E0C
:1009A800E82EFED7AB2FFCD700F00001AD2BEFD718
:1009B8000001C44BC52B0001C5BFE6D70001C551D6
:1009C80001E1DDD7899A010ED4EC22F0680E00010E
:1009D800AB6FE40EE82EFED7AB2FFCD700F0800EED
:1009E800D4EC22F0A90E00018E6FFC0E00018F6F6F
:1009F8009CEC08F0C00ED4EC22F06E0E00018E6F55
:100A0800FF0E00018F6F9CEC08F0000E0001C56F0F
:100A1800000EC46F0001C5BF08D00001C5512CE10C
:100A2800050E0001C45DD8B027D089860D0E0001DF
:100A3800AC6F2D0E0001AB6FD70EE82EFED7AB2F93
:100A4800FCD7AC2FFAD700D089961D0E0001AC6FE9
:100A5800690E0001AB6FA50EE82EFED7AB2FFCD7B1
:100A6800AC2FFAD70001C44BC52B0001C5BFDDD799
:100A78000001C55101E1D4D78996010ED4EC22F0CA
:100A8800680E0001AB6FE40EE82EFED7AB2FFCD743
:100A980000F0800ED4EC22F0BA0E00018E6FFC0E2E
:100AA80000018F6F9CEC08F0C00ED4EC22F0790E98
:100AB80000018E6FFF0E00018F6F9CEC08F0000E96
:100AC8000001C56F000EC46F0001C5BF08D000014A
:100AD800C5512CE1050E0001C45DD8B027D0898826
:100AE8000D0E0001AC6F2D0E0001AB6FD70EE82E76
:100AF800FED7AB2FFCD7AC2FFAD700D089981D0EA4
:100B08000001AC6F690E0001AB6FA50EE82EFED791
:100B1800AB2FFCD7AC2FFAD70001C44BC52B000173
:100B2800C5BFDDD70001C55101E1D4D78998010EB1
:100B3800D4EC22F0680E0001AB6FE40EE82EFED76D
:100B4800AB2FFCD700F0800ED4EC22F0010E000190
:100B5800FC6F000E7A6E000E796E000E7A6E000E33
:100B6800796EAB0E00018E6FFE0E00018F6F9CEC4C
:100B780008F0C00ED4EC22F0320E00018E6FFC0E8D
:100B880000018F6F9CEC08F0040E0001816FB00E1D
:100B9800806F000E0001836F010E826F2EEC1DF036
:100BA800CD80000E0001AE6F630E0001AE6501D06E
:100BB8000CD0680E0001AB6FE40EE82EFED7AB2F09
:100BC800FCD700F00001AE2BEFD7000E0001AF6F8D
:100BD800630E0001AF6501D00CD0680E0001AB6F49
:100BE800E40EE82EFED7AB2FFCD700F00001AF2BA8
:100BF800EFD7800ED4EC22F0C00ED4EC22F0210EF8
:100C080000018E6FFC0E00018F6F9CEC08F0010E46
:100C18000001816FF40E806F000E0001836F010EDA
:100C2800826F2EEC1DF0000E0001B06F630E000104
:100C3800B06501D00CD0680E0001AB6FE40EE82E51
:100C4800FED7AB2FFCD700F00001B02BEFD7000E7A
:100C58000001B16F630E0001B16501D00CD0680EC0
:100C68000001AB6FE40EE82EFED7AB2FFCD700F0E7
:100C78000001B12BEFD7800ED4EC22F0C00ED4ECDB
:100C880022F0FF0E00018E6FFB0E00018F6F9CECAF
:100C980008F0070E0001816FD00E806F000E000172
:100CA800836F010E826F2EEC1DF0000E0001B26FF3
:100CB800630E0001B26501D00CD0680E0001AB6F65
:100CC800E40EE82EFED7AB2FFCD700F00001B22BC4
:100CD800EFD7000E0001B36F630E0001B36501D0BA
:100CE8000CD0680E0001AB6FE40EE82EFED7AB2FD8
:100CF800FCD700F00001B32BEFD7800ED4EC22F024
:100D0800C00ED4EC22F0540E00018E6FFC0E0001D0
:100D18008F6F9CEC08F0060E0001816FA40E806FA7
:100D2800000E0001836F010E826F2EEC1DF0000E85
:100D38000001B46F630E0001B46501D00CD0680ED9
:100D48000001AB6FE40EE82EFED7AB2FFCD700F006
:100D58000001B42BEFD7000E0001B56F630E000140
:100D6800B56501D00CD0680E0001AB6FE40EE82E1B
:100D7800FED7AB2FFCD700F00001B52BEFD7800EC4
:100D8800D4EC22F0C00ED4EC22F0650E00018E6F78
:100D9800FC0E00018F6F9CEC08F0020E0001816FC1
:100DA800EE0E806F000E0001836F010E826F2EEC35
:100DB8001DF0000E0001B66F630E0001B66501D08C
:100DC8000CD0680E0001AB6FE40EE82EFED7AB2FF7
:100DD800FCD700F00001B62BEFD7000E0001B76F6B
:100DE800630E0001B76501D00CD0680E0001AB6F2F
:100DF800E40EE82EFED7AB2FFCD700F00001B72B8E
:100E0800EFD7800ED4EC22F0C00ED4EC22F0DD0E29
:100E180000018E6FFB0E00018F6F9CEC08F0040E32
:100E28000001816FB00E806F000E0001836F010E0C
:100E3800826F2EEC1DF0000E0001B86F630E0001EA
:100E4800B86501D00CD0680E0001AB6FE40EE82E37
:100E5800FED7AB2FFCD700F00001B82BEFD7000E60
:100E68000001B96F630E0001B96501D00CD0680E9E
:100E78000001AB6FE40EE82EFED7AB2FFCD700F0D5
:100E88000001B92BEFD7CD90400E00018E6FFE0EFA
:100E980000018F6F9CEC08F0C00ED4EC22F0100E0D
:100EA80000018E6FFC0E00018F6F9CEC08F0040EA1
:100EB8000001816FA60E806F000E0001836F030E84
:100EC800826F2EEC1DF0B180000E0001BA6F630E28
:100ED8000001BA6501D00CD0680E0001AB6FE40EBA
:100EE800E82EFED7AB2FFCD700F00001BA2BEFD7C6
:100EF800000E0001BB6F630E0001BB6501D00CD072
:100F0800680E0001AB6FE40EE82EFED7AB2FFCD7BE
:100F180000F00001BB2BEFD7800ED4EC22F0C00EFE
:100F2800D4EC22F0EE0E00018E6FFB0E00018F6FE5
:100F38009CEC08F0050E0001816F460E806F000ED4
:100F48000001836F030E826F2EEC1DF0000E00016E
:100F5800BC6F630E0001BC6501D00CD0680E0001A7
:100F6800AB6FE40EE82EFED7AB2FFCD700F00001E4
:100F7800BC2BEFD7000E0001BD6F630E0001BD65ED
:100F880001D00CD0680E0001AB6FE40EE82EFED73E
:100F9800AB2FFCD700F00001BD2BEFD7800ED4ECAF
:100FA80022F0C00ED4EC22F0100E00018E6FFC0E61
:100FB80000018F6F9CEC08F0040E0001816FA60EF3
:100FC800806F000E0001836F030E826F2EEC1DF000
:100FD800000E0001BE6F630E0001BE6501D00CD08B
:100FE800680E0001AB6FE40EE82EFED7AB2FFCD7DE
:100FF80000F00001BE2BEFD7000E0001BF6F630E9B
:101008000001BF6501D00CD0680E0001AB6FE40E83
:10101800E82EFED7AB2FFCD700F00001BF2BEFD78F
:10102800B190F29E010ED4EC22F0680E0001AB6F75
:10103800E40EE82EFED7AB2FFCD700F0800ED4ECE0
:1010480022F09C0E00018E6FFE0E00018F6F9CEC4B
:1010580008F0C00ED4EC22F07E0E00018E6FFE0E5A
:1010680000018F6F9CEC08F08B90000E0001C06FA0
:10107800630E0001C06501D00CD0680E0001AB6F93
:10108800E40EE82EFED7AB2FFCD700F00001C02BF2
:10109800EFD7000E0001C16F630E0001C16501D0DA
:1010A8000CD0680E0001AB6FE40EE82EFED7AB2F14
:1010B800FCD700F00001C12BEFD7800ED4EC22F052
:1010C800C00ED4EC22F08B806F0E00018E6FFE0EE6
:1010D80000018F6F9CEC08F0000E0001C26F630ED8
:1010E8000001C26501D00CD0680E0001AB6FE40EA0
:1010F800E82EFED7AB2FFCD700F00001C22BEFD7AC
:10110800000E0001C36F630E0001C36501D00CD04F
:10111800680E0001AB6FE40EE82EFED7AB2FFCD7AC
:1011280000F00001C32BEFD7030E0001FC6F120083
:10113800900E0001A16F000E0001A26F05D2250ECE
:101148000001A819D8B405D00001A851CCEC22F0B0
:10115800FBD1000E0001AA6F000EA96F000E00015E
:10116800A76F05D00001A78500018E4B8F2B8EC07D
:10117800F6FF8FC0F7FFF86A0800F550300AD8B4B8
:10118800F1D78EC0F6FF8FC0F7FFF86A0800F55058
:10119800DFEC21F0D8A0D2D0000E0001AA6F000E1B
:1011A800A96FA9C080F0AAC081F0000E0001836F6A
:1011B8000A0E826F79EC20F080C0A9F081C0AAF0F5
:1011C800D00E00019A6FFF0E00019B6F8EC0F6FFD4
:1011D8008FC0F7FFF86A0800F55000019C6F9D6BFF
:1011E80000019A5100019C2700019B5100019D2399
:1011F80000019C510001A92700019D510001AA236B
:1012080000018E4B8F2B8EC0F6FF8FC0F7FFF86A58
:101218000800F550DFEC21F0D8A090D0C2D7A1C0CB
:10122800D9FFA2C0DAFFDECF9FF0DDCFA0F0020E1B
:101238000001A127000EA22300019F510001A01167
:10124800D8A406D0B50E00019F6FFF0E0001A06F55
:10125800000E0001A46F000EA36F03D00001A34B82
:10126800A42B0001A35100019F2500019A6F0001E2
:10127800A4510001A02100019B6F9AC0F6FF9BC0FA
:10128800F7FF000EF86E0F0EF76403D00800F55054
:1012980005D0F6CFE9FFF7CFEAFFEF500009D8A451
:1012A800DDD70001A9510001A35D0001AA51000189
:1012B800A459D8B009D00001A3510001A95F0001C9
:1012C800A4510001AA5B09D0000E0001AA6F000E0C
:1012D800A96F03D0200ECCEC22F00001A907D8A0FA
:1012E800AA070001A929F6E10001AA29D8B417D054
:1012F800F1D79FC0F6FFA0C0F7FF000EF86E0F0EE3
:10130800F76403D00800F55005D0F6CFE9FFF7CF12
:10131800EAFFEF50CCEC22F000019F4BA02B00011C
:10132800A307D8A0A4070001A329E3E10001A42989
:10133800D8B40AD1DED70001A78D1DD08EC0F6FF24
:101348008FC0F7FF00018E4B8F2BF86A0800F5CF8E
:10135800A8F00001A851000AD8B41200640AD8B451
:101368000AD00D0AD8B407D01A0AD8B458D7060A32
:10137800D8B4E1D7E9D00001A7BD19D0A1C0D9FFE1
:10138800A2C0DAFFDECFA5F0DDCFA6F0020E000185
:10139800A127000EA2230001A6AF16D0030E00015C
:1013A800A7130001A56DA61FD8B0A62B0DD0A1C00C
:1013B800D9FFA2C0DAFFDECFA5F0DDCFA6F0020E7E
:1013C8000001A127000EA223010E0001A86F050E3F
:1013D8000001A819D8B419D00001A851020D380E7F
:1013E800F324F66EFB0EF420F76EF86A000EF8226E
:1013F8000900F5500001A55D0900F5500001A65946
:10140800D8A003D00001A82BE2D70001A951000100
:10141800AA11D8B40BD0A7C09AF0030E00019A17EE
:10142800D8B404D00001A907D8A0AA07800E0001EB
:10143800A8BF7F0E00019A6F0001A9510001A85DA5
:101448000001AA51800A00019A59D8B00BD00001B6
:10145800A8510001A95F000E0001A8BFFF0E0001FE
:10146800AA5B05D0000E0001AA6F000EA96F00014B
:10147800A7A518D0A7C09AF0030E00019A17D8B4F0
:1014880003D02D0ECCEC22F00001A9510001AA11C5
:10149800D8B425D0300ECCEC22F00001A907D8A092
:1014A800AA07F2D70001A9510001AA11D8B40DD09A
:1014B800200ECCEC22F00001A907D8A0AA07000151
:1014C800A9510001AA11D8A4F3D7A7C09AF0030E16
:1014D80000019A17D8B403D02D0ECCEC22F0A8C086
:1014E8009EF02CD000019E51020D380EF324F66EAA
:1014F800FB0EF420F76EF86A000EF8220900F5CF0B
:1015080082F00A00F5CF83F0A5C080F0A6C081F074
:10151800F2EC1CF080C087F081C088F0000E00015A
:101528008A6F0A0E896F0AEC1EF000018751300F8E
:101538000001A86F0001A851CCEC22F000019E0721
:1015480000019E29D8A4CED78EC0F6FF8FC0F7FF22
:1015580000018E4B8F2BF86A0800F5CFA8F0000128
:10156800A851D8B41200EBD50F0E206E000E216ED4
:10157800A4D1250E2718D8B404D02750DCEC22F0CB
:101588009CD1000E296E000E286E000E266E03D028
:1015980026840D4A0E2A0DC0F6FF0EC0F7FFF86A22
:1015A8000800F550300AD8B4F3D70DC0F6FF0EC0C6
:1015B800F7FFF86A0800F55088EC22F0D8A0A6D00A
:1015C800000E296E000E286E28C001F029C002F016
:1015D800000E046E0A0E036E1CEC22F001C028F007
:1015E80002C029F0D00E196EFF0E1A6E0DC0F6FF5C
:1015F8000EC0F7FFF86A0800F5501B6E1C6A1950F8
:101608001B261A501C221B5028261C5029220D4A22
:101618000E2A0DC0F6FF0EC0F7FFF86A0800F55055
:1016280088EC22F0D8A072D0CFD720C0D9FF21C033
:10163800DAFFDECF1EF0DDCF1FF0020E2026000EEF
:1016480021221E501F10D8A404D0B50E1E6EFF0E06
:101658001F6E000E236E000E226E02D0224A232A2D
:1016680022501E24196E23501F201A6E19C0F6FF2F
:101678001AC0F7FF000EF86E0F0EF76403D00800CB
:10168800F55005D0F6CFE9FFF7CFEAFFEF50000994
:10169800D8A4E4D72850225C29502358D8B005D0C4
:1016A8002250285E2350295A08D0000E296E000EB9
:1016B800286E03D0200EDCEC22F02806D8A02906DC
:1016C8002828F8E12928D8B416D0F4D71EC0F6FF88
:1016D8001FC0F7FF000EF86E0F0EF76403D0080066
:1016E800F55005D0F6CFE9FFF7CFEAFFEF50DCEC75
:1016F80022F01E4A1F2A2206D8A023062228E6E145
:101708002328D8B4DAD0E2D7268C1BD00DC0F6FF38
:101718000EC0F7FF0D4A0E2AF86A0800F5CF27F029
:101728002750000AD8B41200640AD8B40AD00D0AA7
:10173800D8B407D01A0AD8B478D7060AD8B4E4D7E8
:10174800BCD026BC15D020C0D9FF21C0DAFFDECF1F
:1017580024F0DDCF25F0020E2026000E212225AE32
:1017680013D0030E2612246C251ED8B0252A0CD0BF
:1017780020C0D9FF21C0DAFFDECF24F0DDCF25F06D
:10178800020E2026000E2122010E276E050E2718B4
:10179800D8B415D02750020D380EF324F66EFB0E80
:1017A800F420F76EF86A000EF8220900F550245C60
:1017B8000900F5502558D8A002D0272AE7D7285085
:1017C8002910D8B409D026C019F0030E1916D8B4B8
:1017D80003D02806D8A02906800E27BE7F0E196ED2
:1017E8002850275C2950800A1958D8B007D02750AC
:1017F800285E000E27BEFF0E295A04D0000E296E5F
:10180800000E286E26A414D026C019F0030E19164F
:10181800D8B403D02D0EDCEC22F028502910D8B40F
:101828001ED0300EDCEC22F02806D8A02906F5D709
:1018380028502910D8B40AD0200EDCEC22F0280653
:10184800D8A0290628502910D8A4F6D726C019F000
:10185800030E1916D8B403D02D0EDCEC22F027C0E5
:101868001DF027D01D50020D380EF324F66EFB0E26
:10187800F420F76EF86A000EF8220900F5CF08F098
:101888000A00F5CF09F024C006F025C007F01FECC8
:101898001FF006C001F007C002F0000E046E0A0E29
:1018A800036E05EC20F00150300F276E2750DCEC5A
:1018B80022F01D061D28D8A4D5D70DC0F6FF0EC0EE
:1018C800F7FF0D4A0E2AF86A0800F5CF27F02750CF
:1018D800D8B412004ED6010ED4EC22F0680E0001E6
:1018E800AB6FE40EE82EFED7AB2FFCD700F0800ECE
:1018F800D4EC22F0DC0E00018E6FFC0E00018F6F1D
:101908009CEC08F0CD80B180010E0001FC6F000E48
:101918007A6E000E796E000E7A6E000E796EC7EC44
:101928001EF03D0E0001AC6FE10E0001AB6F3F0EE3
:10193800E82EFED7AB2FFCD7AC2FFAD700D0010E7C
:101948000001816FF40E806F000E0001836F010E9D
:10195800826F2EEC1DF0050E0001816F460E806F20
:10196800000E0001836F030E826F2EEC1DF03D0EFA
:101978000001AC6FE10E0001AB6F3F0EE82EFED701
:10198800AB2FFCD7AC2FFAD700D0040E0001816F23
:10199800A60E806F000E0001836F030E826F2EEC7F
:1019A8001DF01F0E0001AC6F710E0001AB6F1E0E13
:1019B800E82EFED7AB2FFCD7AC2FFAD700F0020EDB
:1019C8000001816FEE0E806F000E0001836F010E23
:1019D800826F2EEC1DF0050E0001816F460E806FA0
:1019E800000E0001836F030E826F2EEC1DF03D0E7A
:1019F8000001AC6FE10E0001AB6F3F0EE82EFED781
:101A0800AB2FFCD7AC2FFAD700D0040E0001816FA2
:101A1800A60E806F000E0001836F030E826F2EECFE
:101A28001DF01F0E0001AC6F710E0001AB6F1E0E92
:101A3800E82EFED7AB2FFCD7AC2FFAD700F0040E58
:101A48000001816FB00E806F000E0001836F010EE0
:101A5800826F2EEC1DF0050E0001816F460E806F1F
:101A6800000E0001836F030E826F2EEC1DF03D0EF9
:101A78000001AC6FE10E0001AB6F3F0EE82EFED700
:101A8800AB2FFCD7AC2FFAD700D0040E0001816F22
:101A9800A60E806F000E0001836F030E826F2EEC7E
:101AA8001DF01F0E0001AC6F710E0001AB6F1E0E12
:101AB800E82EFED7AB2FFCD7AC2FFAD700F0060ED6
:101AC8000001816FA40E806F000E0001836F010E6C
:101AD800826F2EEC1DF0050E0001816F460E806F9F
:101AE800000E0001836F030E826F2EEC1DF03D0E79
:101AF8000001AC6FE10E0001AB6F3F0EE82EFED780
:101B0800AB2FFCD7AC2FFAD700D0040E0001816FA1
:101B1800A60E806F000E0001836F030E826F2EECFD
:101B28001DF01F0E0001AC6F710E0001AB6F1E0E91
:101B3800E82EFED7AB2FFCD7AC2FFAD700F0070E54
:101B48000001816FD00E806F000E0001836F010EBF
:101B5800826F2EEC1DF0050E0001816F460E806F1E
:101B6800000E0001836F030E826F2EEC1DF03D0EF8
:101B78000001AC6FE10E0001AB6F3F0EE82EFED7FF
:101B8800AB2FFCD7AC2FFAD700D0040E0001816F21
:101B9800A60E806F000E0001836F030E826F2EEC7D
:101BA8001DF01F0E0001AC6F710E0001AB6F1E0E11
:101BB800E82EFED7AB2FFCD7AC2FFAD700F0CD908C
:101BC800B190F29E12006DEC1CF031C1BEF032C132
:101BD800BFF033C1C0F034C1C1F0000E0001C36FC3
:101BE800000EC26F0001C3BF08D00001C35146E117
:101BF800070E0001C25DD8B041D0240E0001C225F5
:101C0800D96E010E0001C321DA6EDF500001AB6FFF
:101C18000001AB3B0F0EAB170F0E0001AB17000115
:101C2800AB510A0D240E0001C225D96E010E000128
:101C3800C321DA6EDF500F0B0001AC6FAD6BF350B0
:101C48000001AC27F4500001AD23D8900001C23543
:101C5800D96E0001C335DA6EAE0ED926000EDA222F
:101C6800ACC0DEFFADC0DDFF0001C24BC32B0001DD
:101C7800C3BFC3D70001C35101E1BAD7B8C0BCF094
:101C8800B9C0BDF0B4D0BE0E0001806F000E0001D7
:101C9800816FDA0E0001826FFF0E0001836F5EEC28
:101CA80020F0D4D0BE0E0001806F000E0001816FBD
:101CB800CA0E0001826FFF0E0001836F5EEC20F0F8
:101CC800C5D0BE0E0001806F000E0001816FE60EC8
:101CD8000001826FFF0E0001836F5EEC20F0B6D02A
:101CE800BE0E0001806F000E0001816FEA0E000138
:101CF800826FFF0E0001836F5EEC20F0A7D0BE0E4E
:101D08000001806F000E0001816FFA0E0001826FE2
:101D1800FF0E0001836F5EEC20F098D0BE0E00012C
:101D2800806F000E0001816FDE0E0001826FFF0ED2
:101D38000001836F5EEC20F089D0BE0E0001806F39
:101D4800000E0001816FD60E0001826FFF0E0001A8
:101D5800836F5EEC20F07AD0BE0E0001806F000E1B
:101D68000001816FD20E0001826FFF0E0001836FA8
:101D78005EEC20F06BD0BE0E0001806F000E0001FB
:101D8800816FE20E0001826FFF0E0001836F5EEC2F
:101D980020F05CD0BE0E0001806F000E0001816F44
:101DA800F20E0001826FFF0E0001836F5EEC20F0DF
:101DB8004DD0BE0E0001806F000E0001816FF60E3F
:101DC8000001826FFF0E0001836F5EEC20F03ED0B1
:101DD800BE0E0001806F000E0001816FCE0E000163
:101DE800826FFF0E0001836F5EEC20F02FD0BCC025
:101DF800ABF0BDC0ACF00001AC51000AD8A426D0AD
:101E08000001AB51010AD8B43ED7030AD8B44AD767
:101E1800010AD8B456D7070AD8B462D7010AD8B489
:101E28006ED7030AD8B47AD7010AD8B486D70F0A6E
:101E3800D8B492D7010AD8B49ED7030AD8B4AAD77F
:101E4800010AD8B4B6D7070AD8B4C2D7800ED4ECE2
:101E580022F0420E00018E6FFB0E00018F6FB6C09C
:101E680090F0B7C091F0BE0E0001926F000E000115
:101E7800936FB2C094F0B3C095F0B0C096F0B1C003
:101E880097F0AEC098F0AFC099F09CEC08F0120043
:101E9800000E786E000E776E000E686E000E676E8C
:101EA800000E6A6E000E696E000E5C6E000E5B6EB0
:101EB800F29EC0EC12F02A502B10D8A412D146D1B1
:101EC800F5EC20F043D177507810D8B403D0DDEC8E
:101ED80020F03CD167506810D8B403D0C5EC20F08E
:101EE80035D169506A10D8B431D108EC22F02ED11E
:101EF80077507810D8B403D0F5EC20F027D167508C
:101F08006810D8B411D0DDEC20F020D177507810CB
:101F1800D8B403D0F5EC20F019D167506810D8B4C4
:101F280003D0DDEC20F012D169506A10D8B40ED17C
:101F3800010E0001FC6F0AD177507810D8B403D095
:101F4800ADEC20F003D167506810D8B403D0F5EC9D
:101F580020F0FCD069506A10D8B4F8D06DEC21F0AC
:101F6800F5D077507810D8B403D00DEC21F0EED02E
:101F780067506810D8B403D055EC21F0E7D0695009
:101F88006A10D8B407D0000E136E010E126E54EC0E
:101F980022F0DCD05B505C10D8B4D8D0DDEC20F057
:101FA800D5D077507810D8B403D06DEC21F0CED0CE
:101FB80067506810D8B403D09CEC21F0C7D06950A2
:101FC8006A10D8B407D0000E136E020E126E54ECCD
:101FD80022F0BCD05B505C10D8B4B8D0DDEC20F057
:101FE800B5D077507810D8B403D06DEC21F0AED0CE
:101FF80067506810D8B403D09CEC21F0A7D0695082
:102008006A10D8B407D0000E136E020E126E54EC8C
:1020180022F09CD05B505C10D8B498D0DDEC20F056
:1020280095D077507810D8B403D03DEC21F08ED0FD
:1020380067506810D8B403D00DEC21F087D06950F0
:102048006A10D8B407D0000E136E030E126E54EC4B
:1020580022F07CD05B505C10D8B478D0DDEC20F056
:1020680075D077507810D8B403D03DEC21F06ED0FD
:1020780067506810D8B403D00DEC21F067D06950D0
:102088006A10D8B407D0000E136E030E126E54EC0B
:1020980022F05CD05B505C10D8B458D0DDEC20F056
:1020A80055D077507810D8B403D025EC21F04ED015
:1020B80067506810D8B403D06DEC21F047D0695050
:1020C8006A10D8B407D0000E136E040E126E54ECCA
:1020D80022F03CD05B505C10D8B438D0DDEC20F056
:1020E80035D0DEC043F0DFC044F04450000AD8B415
:1020F80007D0030AD8B415D0070AD8B420D026D000
:102108004350000AD8B4DCD60B0AD8B4DCD6070A88
:10211800D8B4EED61A0AD8B4F9D6010AD8B40CD76E
:1021280015D04350F30AD8B41CD7070AD8B439D706
:102138000A0AD8B456D7010AD8B473D707D043507F
:10214800090AD8B48ED7030AD8B4ABD7F28E1200D6
:1021580069EC1DF031C13DF032C13EF033C13FF0B2
:1021680034C140F0000E426E000E416E42BE06D0F1
:10217800425035E1070E415CD8B031D0240E4124DD
:10218800D96E010E4220DA6EDF502A6E2A3A0F0EFF
:102198002A160F0E2A162A500A0D240E4124D96E2B
:1021A800010E4220DA6EDF500F0B2B6E2C6AF350B3
:1021B8002B26F4502C22D8904134D96E4234DA6E52
:1021C8002D0ED926000EDA222BC0DEFF2CC0DDFF33
:1021D800414A422A42BED2D7425001E1CBD737C04A
:1021E8003BF038C03CF084D03D0E016E000E026E0C
:1021F800DA0E036EFF0E046E94EC20F0A6D03D0EAE
:10220800016E000E026ECA0E036EFF0E046E94EC91
:1022180020F09BD03D0E016E000E026EE60E036E9E
:10222800FF0E046E94EC20F090D03D0E016E000E6F
:10223800026EEA0E036EFF0E046E94EC20F085D059
:102248003D0E016E000E026EFA0E036EFF0E046E56
:1022580094EC20F07AD03D0E016E000E026EDE0E78
:10226800036EFF0E046E94EC20F06FD03D0E016EED
:10227800000E026ED60E036EFF0E046E94EC20F074
:1022880064D03D0E016E000E026ED20E036EFF0E7C
:10229800046E94EC20F059D03D0E016E000E026ED3
:1022A800E20E036EFF0E046E94EC20F04ED03D0E4D
:1022B800016E000E026EF20E036EFF0E046E94ECB9
:1022C80020F043D03D0E016E000E026EF60E036E36
:1022D800FF0E046E94EC20F038D03D0E016E000E17
:1022E800026ECE0E036EFF0E046E94EC20F02DD01D
:1022F8003BC02AF03CC02BF02B50000AD8A425D0B4
:102308002A50010AD8B470D7030AD8B478D7010A7A
:10231800D8B480D7070AD8B488D7010AD8B490D7D8
:10232800030AD8B498D7010AD8B4A0D70F0AD8B4EA
:10233800A8D7010AD8B4B0D7030AD8B4B8D7010AC5
:10234800D8B4C0D7070AD8B4C8D7800EE2EC22F0B8
:10235800420E0D6EFB0E0E6E35C00FF036C010F03B
:102368003D0E116E000E126E31C013F032C014F023
:102378002FC015F030C016F02DC017F02EC018F081
:10238800B8EC0AF0120069EC1DF0000E4A6E000E5F
:10239800496E4ABE06D04A5031E1070E495CD8B0B2
:1023A8002DD0240E4924D96E010E4A20DA6EDF5052
:1023B8002A6E2A3A0F0E2A160F0E2A162A500A0DCE
:1023C800240E4924D96E010E4A20DA6EDF500F0B15
:1023D8002B6E2C6AF3502B26F4502C22D8904934BB
:1023E800D96E4A34DA6E2F0ED926000EDA222BC0A7
:1023F800DEFF2CC0DDFF494A4A2ACBD710C101F0C5
:1024080011C102F0000E046E3C0E036E1CEC22F0AB
:1024180001C02AF002C02BF012C101F013C102F072
:102428000E0E046E100E036E1CEC22F001502A26CC
:1024380002502B2201010E512A243D6E01010F5139
:102448002B203E6E31C001F032C002F0000E046E47
:102458003C0E036E1CEC22F001C02AF002C02BF0E7
:1024680033C001F034C002F00E0E046E100E036E7D
:102478001CEC22F001502A2602502B222F502A242D
:102488003F6E30502B20406E3DC02AF03EC02BF0EE
:102498002A1E2B1E2A4A2B2A3F502A24476E4050B8
:1024A8002B20486E47C0F8F048C0F9F0485004E1C6
:1024B8000A0E475CD8A003D0020E0001FC6F47C08B
:1024C80006F048C007F00E0E096E100E086E1FECDD
:1024D8001FF006C02DF007C02EF00E0E046E100E71
:1024E800036E47C001F048C002F005EC20F001C0BF
:1024F80006F002C007F0000E096E3C0E086E1FECD5
:102508001FF006C041F007C042F00E0E046E100E18
:10251800036E47C001F048C002F005EC20F001C08E
:1025280045F002C046F045C001F046C002F0000E7A
:10253800046E3C0E036E05EC20F001C043F002C0AF
:1025480044F0800EE2EC22F0840E0D6EFF0E0E6E4B
:10255800B8EC0AF0C00EE2EC22F0550E0D6EFF0E3C
:102568000E6E41C00FF042C010F043C011F044C0DD
:1025780012F0B8EC0AF0120075507610D8B40BD0EF
:10258800F5EC20F0000E766E000E756E000E2B6EC8
:10259800000E2A6E12000001F6510001F711D8B49E
:1025A800C7D0430E7D18D8A412D081B209D00FD05D
:1025B800680E2C6EE40EE82EFED72C2EFCD700D029
:1025C80081B2F6D7000E2B6E000E2A6E1200440E52
:1025D8007D18D8A4F7D7000E0001F76F000EF66F2C
:1025E80012D06DEC21F0EED755EC21F0EBD73DEC95
:1025F80021F0E8D79CEC21F0E5D725EC21F0E2D7D3
:102608000DEC21F0DFD7DEC02CF0DFC02DF02D500F
:10261800030AD8B404D0070AD8B40FD0D3D72C50A3
:10262800F30AD8B4DED7070AD8B4DED70A0AD8B472
:10263800DED7010AD8B4DED7C5D72C50090AD8B4DA
:10264800DCD7030AD8B4DCD7BDD70B0E0001DE19DE
:102658000001DF11D8A405D0000E2B6E000E2A6EE3
:102668001200F5EC20F0000E2B6E000E2A6E120000
:10267800160E0001DE190001DF11D8B407D00C0EC8
:102688000001DE190001DF11D8A405D0000E2B6E61
:10269800000E2A6E1200170E0001DE190001DF116C
:1026A800D8A403D0ADEC20F002D0C5EC20F0000E89
:1026B8002B6E000E2A6E1200170E0001DE190001A3
:1026C800DF11D8A405D0000E2B6E000E2A6E120062
:1026D800DDEC20F0000E2B6E000E2A6E1200000EAC
:1026E800786E010E776E000E2B6E010E2A6E1200A8
:1026F800000E686E010E676E000E2B6E010E2A6EBC
:102708001200000E6A6E010E696E000E2B6E010E2D
:102718002A6E1200000E5C6E010E5B6E000E2B6EB0
:10272800010E2A6E1200000E2B6E010E2A6E120088
:102738007D50310AD8B489D7030AD8B499D7010A89
:10274800D8B4BAD7720AD8B4CAD7030AD8B4D0D77B
:10275800010AD8B4D6D7070AD8B4DCD7E4D7010E13
:10276800D4EC22F0680E0001AB6FE40EE82EFED721
:10277800AB2FFCD700F0800ED4EC22F0AD0E000198
:102788008E6FFF0E00018F6F9CEC08F0C00ED4EC2A
:1027980022F0110E00018E6FFF0E00018F6F9CEC6E
:1027A80008F0050E0001AC6F0F0E0001AB6FF10EC3
:1027B800E82EFED7AB2FFCD7AC2FFAD781A2FED7D5
:1027C80081B2FED7010ED4EC22F0680E0001AB6F87
:1027D800E40EE82EFED7AB2FFCD700F0800ED4EC29
:1027E80022F03B0E00018E6FFF0E00018F6F9CECF4
:1027F80008F0050E0001AC6F0F0E0001AB6FF10E73
:10280800E82EFED7AB2FFCD7AC2FFAD78B8A50D047
:10281800000EC9EC21F0C350C4CFABF00001AC6B83
:10282800ABC0ACF00001AB6B0001AB110001AD6FA8
:102838000001AC510001AE6F0001AEBF0AD0850E99
:102848000001AD5D030E0001AE59D8A002D0010E03
:1028580001D0000E0001DA6FDB6B800ED4EC22F0A1
:10286800600E00018E6FFE0E00018F6FDAC090F0CF
:10287800DBC091F09CEC08F0C00ED4EC22F07F0E87
:1028880000018E6FFB0E00018F6FADC090F0AEC0DF
:1028980091F09CEC08F0050E0001AC6F0F0E0001E2
:1028A800AB6FF10EE82EFED7AB2FFCD7AC2FFAD7C3
:1028B80081A2AED78B9A8D0E00018E6FFE0E00019D
:1028C8008F6F9CEC08F0050E0001AC6F0F0E000135
:1028D800AB6FF10EE82EFED7AB2FFCD7AC2FFAD793
:1028E80021D0BCEC1FF0800ED4EC22F0C00ED4EC4A
:1028F80022F0300E00018E6FFE0E00018F6FDCC0DB
:1029080090F0DDC091F09CEC08F0050E0001AC6F72
:102918000F0E0001AB6FF10EE82EFED7AB2FFCD7E0
:10292800AC2FFAD781B21200DCD70600FACF4DF0EF
:10293800FBCF4EF0E9CF4FF0EACF50F0E1CF51F0A6
:10294800E2CF52F0D9CF53F0DACF54F0F3CF55F0AD
:10295800F4CF56F0F6CF57F0F7CF58F0F8CF59F03C
:10296800F5CF5AF0F0A020D0F0900001FC51D8A487
:102978001BD081380F0B0F0B4B6E4C6A270E4B2464
:10298800F66EFB0E4C20F76EF86A000EF82208006F
:10299800F5CF7DF02A0E7D18D8A404D0030E0001CF
:1029A800FC6F02D04CEC0FF0F2A40CD0F2940001B2
:1029B800FC05D8A407D0C7EC11F0850ED76EEE0E33
:1029C800D66ED58E9EA024D09E90CD900001FC0599
:1029D800D8A41ED079507A10D8B40AD08B82000EB1
:1029E8007A6E000E796E1CC1CFFF1EC1CEFF0FD0CC
:1029F8008B92000E7A6E010E796E01011C5100084F
:102A0800200FCF6E01011E510008200FCE6ECD8021
:102A1800A1A224D0A192B1900001FC05D8A41ED097
:102A28007B507C10D8B40AD08B84000E7C6E000ECC
:102A38007B6E20C1B3FF22C1B2FF0FD08B94000E72
:102A48007C6E010E7B6E010120510008200FB36ED1
:102A5800010122510008200FB26EB1805AC0F5FF63
:102A680059C0F8FF58C0F7FF57C0F6FF56C0F4FF2B
:102A780055C0F3FF54C0DAFF53C0D9FF52C0E2FF7C
:102A880051C0E1FF50C0EAFF4FC0E9FF4EC0FBFF55
:102A98004DC0FAFF7E9211000001E4510001E511DA
:102AA800D8B466D0A2EC1DF0010ED4EC22F0680E6A
:102AB8000001B16FE40EE82EFED7B12FFCD700F06D
:102AC800F2EC1AF08B8A000E0001816F000E806F05
:102AD80097EC22F00001FD6F0001FD510B0D010E76
:102AE800F3240001B36F000EF4200001B46F7F0ED1
:102AF8000001B56FB3C0ABF0B4C0ACF0B5C0ADF079
:102B080056EC19F0899A000E0001B76F000EB66FE7
:102B18000001B7BF08D00001B75126E12E0E000111
:102B2800B65DD8B021D089BA04D00001B16BB12B01
:102B380002D00001B16B0001B13BB14789500001DF
:102B4800B119DF0BB119896E0001B65100082D0FBC
:102B5800F4EC21F00001B64BB72B0001B7BFE3D767
:102B68000001B75101E1DAD7898AC7EC1EF01200DB
:102B78000001E2510001E311D8A417D06FEC1FF057
:102B88000001E2510001E311D8B412000001FE4B2C
:102B9800FF2B0C0E0001FE190001FF11D8A4120032
:102BA800000E746E010E736E12006B506C10D8B468
:102BB8001200000E0001E36F000EE26F8988000E1C
:102BC8006E6E010E6D6E0D0E0001B26F2D0E0001BE
:102BD800B16FD70EE82EFED7B12FFCD7B22FFAD798
:102BE80000D0899812006F507010D8B4120034D0F9
:102BF800010E0001816FF40E806F000E0001836FDB
:102C0800010E826F2EEC1DF03ED0020E0001816F86
:102C1800EE0E806F000E0001836F010E826F2EECA6
:102C28001DF031D0060E0001816FA40E806F000EDA
:102C38000001836F010E826F2EEC1DF024D0070E69
:102C48000001816FD00E806F000E0001836F010EAE
:102C5800826F2EEC1DF017D065C088F066C089F031
:102C680000018951000AD8A40ED000018851000A39
:102C7800D8B4BED7010AD8B4C8D7030AD8B4D2D7B3
:102C8800010AD8B4DCD7150E0001896F4B0E00017C
:102C9800886FBE0EE82EFED7882FFCD7892FFAD76B
:102CA80000F0050E0001816F460E806F000E0001D6
:102CB800836F030E826F2EEC1DF0150E0001896FD5
:102CC8004B0E0001886FBE0EE82EFED7882FFCD76A
:102CD800892FFAD700F0040E0001816FB00E806FC3
:102CE800000E0001836F010E826F2EEC1DF0040EA2
:102CF8000001816FA60E806F000E0001836F030E26
:102D0800826F2EEC1DF0000E706E000E6F6E000EBE
:102D1800726E010E716E73047410D8A41200020E44
:102D28000001FC6F1200000E0001816F000E806F21
:102D380097EC22F00001FD6F0001FD510B0D010E13
:102D4800F3240001B96F000EF4200001BA6F030EDE
:102D58000001FD610ED00001FD290001B16F000ED8
:102D68000001AC6F000EAB6FB1C0ADF056EC19F0BE
:102D78000AD0000E0001AC6F000EAB6F000E000110
:102D8800AD6F56EC19F00001FE5180090001B26FD9
:102D9800B9C0ABF0BAC0ACF0B2C0ADF056EC19F0A7
:102DA8000001B94BBA2B6138F00B63100001B36F07
:102DB800B9C0ABF0BAC0ACF0B3C0ADF056EC19F086
:102DC8000001B94BBA2B5F38F00B5D100001B46FEE
:102DD800B9C0ABF0BAC0ACF0B4C0ADF056EC19F065
:102DE8000001B94BBA2B000E0001B86F000EB76F87
:102DF8000001B8BF08D00001B85128E1070E000152
:102E0800B75DD8B023D0D8900001B735D96E00018E
:102E1800B835DA6E0E0ED926010EDA22DF5000011F
:102E2800B56FB9C0ABF0BAC0ACF0B5C0ADF056ECF8
:102E380019F00001B94BBA2B0001B74BB82B0001B0
:102E4800B8BFE1D70001B85101E1D8D7F8C0B6F052
:102E5800B9C0ABF0BAC0ACF0B6C0ADF056EC19F0E2
:102E680012006D506E10D8B41200150E0001876F55
:102E78004B0E0001866FBE0EE82EFED7862FFCD7BC
:102E8800872FFAD700F080A404D00001866B862B28
:102E980002D00001866B000186510001886F896BA2
:102EA8000001885100018911D8A429D0BCEC1FF079
:102EB800DCC08AF0DDC08BF000018A5100018B1163
:102EC800D8A41DD089860D0E0001876F2D0E000134
:102ED800866FD70EE82EFED7862FFCD7872FFAD716
:102EE80000D080A404D00001866B862B02D000019C
:102EF800866B0001865100018C6F8D6B89960001ED
:102F0800885100018911D8A41ED000018A510001FE
:102F18008B11D8A412D000018C5100018D11D8A4B6
:102F280006D0614A622A000E666E000E11D0634A0E
:102F3800642A000E666E010E0BD05F4A602A000EEE
:102F4800666E020E05D05D4A5E2A000E666E030E9E
:102F5800656E8B80000E706E010E6F6E150E00018F
:102F6800876F4B0E0001866FBE0EE82EFED7862FA8
:102F7800FCD7872FFAD700F08B90000E6E6E000EEC
:102F88006D6E120007C001F008C002F0000E046E5A
:102F98000B0E036E1CEC22F0010E0124106E000EC5
:102FA8000220116E10C001F011C002F0AEEC22F048
:102FB8000B6E0BC009F0800E091609500001E86F6E
:102FC800E96B0BC009F00F0E091609500001F26FEA
:102FD800F36B104A112A10C001F011C002F0AEECD8
:102FE80022F00C6E0CC009F0F00E09160950000111
:102FF800EE6FEF6B0CC009F00F0E091609500001B7
:10300800F06FF16B104A112A10C001F011C002F0E4
:10301800AEEC22F00D6E0DC009F0F00E0916095045
:103028000001EC6FED6B0DC009F00F0E0916095089
:103038000001EA6FEB6B104A112A000E0F6E000EAA
:103048000E6E0FBE06D00F501EE1070E0E5CD8B0F4
:103058001AD010C001F011C002F0AEEC22F0096ED7
:103068000A6AD8900E34D96E0F34DA6E000ED9265B
:10307800010EDA2209C0DEFF0AC0DDFF104A112A5C
:103088000E4A0F2ADED710C001F011C002F0AEECD4
:1030980022F0096E09500001F46FF56B1200010E61
:1030A800D4EC22F0680E0001C66FE40EE82EFED7BD
:1030B800C62FFCD700F0800ED4EC22F0980E000149
:1030C8008E6FFC0E00018F6F9CEC08F0C00ED4ECE4
:1030D80022F0CB0E00018E6FFC0E00018F6F9CEC6E
:1030E80008F0050E0001C76F0F0E0001C66FF10E44
:1030F800E82EFED7C62FFCD7C72FFAD781A2FED756
:1031080081CFC6F00001C63B0F0EC6170001C6519D
:103118000001FA6FFB6B0001FA4BFB2B81A21CD05C
:10312800FDD7CAEC19F0BBD7B3EC13F0B8D75CECF9
:1031380004F0B5D799EC1EF0B2D729EC1CF0AFD744
:1031480006EC23F0ACD7D7EC18F0A9D7B0EC1CF0FC
:10315800A6D76FEC0CF0A3D7FAC0C6F0FBC0C7F037
:103168000001C751000AD8A49AD70001C651010A24
:10317800D8B4D7D7030AD8B4D7D7010AD8B4D7D781
:10318800060AD8B4D7D7030AD8B4D7D7010AD8B40F
:10319800D7D70F0AD8B4D7D7010AD8B4D7D7030AD4
:1031A800D8B4D7D77CD7010ED4EC22F0680E000132
:1031B800AB6FE40EE82EFED7AB2FFCD700F0800EE5
:1031C800D4EC22F0480E00018E6FFF0E00018F6FC5
:1031D8009CEC08F0C00ED4EC22F081A2FED7000EC1
:1031E8000001AE6F000EAD6F0001AEBF08D0000148
:1031F800AE512DE1030E0001AD5DD8B028D0000E10
:103208000001AF6F630E0001AF6501D00CD0680EEE
:103218000001AB6FE40EE82EFED7AB2FFCD700F011
:103228000001AF2BEFD7898A070E0001AC6F170E8C
:103238000001AB6F6A0EE82EFED7AB2FFCD7AC2F80
:10324800FAD700F0899A0001AD4BAE2BCDD7010E0D
:10325800D4EC22F0680E0001AB6FE40EE82EFED726
:10326800AB2FFCD700F0800ED4EC22F08F0E0001BB
:103278008E6FFF0E00018F6F9CEC08F0000E0001AE
:10328800B06F630E0001B06501D08DD7680E0001E4
:10329800AB6FE40EE82EFED7AB2FFCD700F0000191
:1032A800B02BEFD7A6840001AC51AA6EABC0A9FF22
:1032B800ADC0A8FFA69EA69CF29E550EA76EAA0EAC
:1032C800A76EA682F28EA1A8FED7A198A6940001A7
:1032D800E0510001E111D8B41200010ED4EC22F043
:1032E800680E0001AE6FE40EE82EFED7AE2FFCD7B5
:1032F80000F0800ED4EC22F0ABC080F0ACC081F0BE
:1033080097EC22F00001AD19D8A424D05A0E000180
:103318008E6FFB0E00018F6FADC090F00001916BB6
:10332800ABC092F0ACC093F09CEC08F0000E00012A
:10333800AF6F630E0001AF6501D01200680E000187
:10334800AE6FE40EE82EFED7AE2FFCD700F00001DA
:10335800AF2BEFD7BC0E00018E6FFF0E00018F6FF1
:103368009CEC08F0000E0001B06F630E0001B06520
:1033780001D01200680E0001AE6FE40EE82EFED7F1
:10338800AE2FFCD700F00001B02BEFD7010ED4EC24
:1033980022F0680E0001AB6FE40EE82EFED7AB2FCB
:1033A800FCD700F0800ED4EC22F0D80E00018E6F0E
:1033B800FE0E00018F6F9CEC08F0C00ED4EC22F0DA
:1033C800110E00018E6FFF0E00018F6F9CEC08F04C
:1033D800050E0001AC6F0F0E0001AB6FF10EE82E69
:1033E800FED7AB2FFCD7AC2FFAD781A2FED781B27C
:1033F800FED7010ED4EC22F0680E0001AB6FE40E8C
:10340800E82EFED7AB2FFCD700F0800ED4EC22F0CC
:10341800870E00018E6FFC0E00018F6F9CEC08F088
:10342800F50E00018E6FFE0E00018F6F9CEC08F008
:10343800620E00018E6FFF0E00018F6F9CEC08F08A
:10344800BA0E00018E6FFE0E00018F6F9CEC08F023
:10345800030E00018E6FFF0E00018F6F9CEC08F0C9
:103468001200000E00018B6F000189AF08D0000127
:10347800886D891FD8B0892B010E00018B6F000160
:1034880087AF08D00001866D871FD8B0872B010E43
:1034980000018B1B000E00018D6F000E8C6F000168
:1034A800885100018911D8B42CD0010E00018A6F0F
:1034B80006D00001D8908837893700018A2B00018F
:1034C80089AFF7D70001D8908C378D370001885124
:1034D8000001865D0001895100018759D8A00AD0F2
:1034E800000188510001865F000189510001875B56
:1034F80000018C810001D8908933883300018A2F1C
:10350800E1D700018B510001D8B405D000018C6DC2
:103518008D1FD8B08D2B8CC086F08DC087F012001F
:10352800000E0001886F000E896F000E8A6F000E72
:103538008B6F000184510001851100018611000183
:103548008711D8B442D0010E00018C6F08D0000159
:10355800D890843785378637873700018C2B000150
:1035680087AFF5D70001D890883789378A378B37E6
:10357800000184510001805D0001855100018159DD
:1035880000018651000182590001875100018359C9
:10359800D8A012D0000184510001805F000185513C
:1035A8000001815B000186510001825B00018751A7
:1035B8000001835B000188810001D890873386333E
:1035C8008533843300018C2FCDD788C080F089C023
:1035D80081F08AC082F08BC083F012006DEC1CF081
:1035E800000E0001896F000E886F000189BF08D0A6
:1035F8000001895140E1070E0001885DD8B03BD039
:10360800240E00018825D96E010E00018921DA6E89
:10361800DF500001856F0001853B0F0E85170F0EE7
:1036280000018517000185510A0D240E0001882527
:10363800D96E010E00018921DA6EDF500F0B0001EF
:10364800866F876BF35000018627F45000018723AB
:10365800D89000018835D96E00018935DA6E0E0ED2
:10366800D926010EDA2286C0DEFF87C0DDFF000101
:10367800884B892BBAD7170ED56E850ED76EEE0EEE
:10368800D66ED58E1200000E0001856F000181AF45
:1036980008D00001806D811FD8B0812B010E000178
:1036A800856F000183AF05D00001826D831FD8B0FC
:1036B800832B0001825100018311D8B426D0010E5A
:1036C8000001846F06D00001D8908237833700014B
:1036D800842B000183AFF7D7000182510001805D80
:1036E8000001835100018159D8A008D000018251FE
:1036F8000001805F000183510001815B0001D890C7
:10370800833382330001842FE7D7000185510001FC
:10371800D8B405D00001806D811FD8B0812B80C03E
:1037280080F081C081F012006BEC1EF0E2EC1FF01B
:10373800250E0001806F130E0001816F040E000139
:10374800826F150E0001836F030E0001846F170E40
:103758000001856F420E77EC22F042EC22F0000E59
:103768000001E56F010EE46F18D009EC00F015D0E8
:1037780066EC22F012D0A3EC22F097EC16F0000EC3
:103788000001E56F010EE46F09EC00F006D053EC80
:1037980018F003D0A3EC22F0FFD70001FC51000A77
:1037A800D8B4E3D7010AD8B4E3D7030AD8B4E3D727
:1037B800010AD8B4ECD7070AD8B4ECD7EED7100E64
:1037C80000018D6F270E8E6F000E8F6F000E906FA9
:1037D8003BEC1EF0F29EFAEC22F0000E0001826F24
:1037E800D00E816FE8EC22F0000E0001826F000E0F
:1037F800816FE8EC22F0000E0001976F000E966FC3
:10380800000197BF08D0000197511BE1070E000186
:10381800965DD8B016D0240E00019625D96E010EFB
:1038280000019721DA6EDF500001956F0001955174
:103838000001816F826BE8EC22F00001964B972B18
:10384800DFD7F6EC22F0F28E1200010ED4EC22F053
:10385800680E0001AB6FE40EE82EFED7AB2FFCD745
:1038680000F0800ED4EC22F0430E00018E6FFC0EA7
:1038780000018F6F9CEC08F0C00ED4EC22F0760E9D
:1038880000018E6FFC0E00018F6F9CEC08F0000E9B
:103898000001AD6F000EAC6F81A2FED781380F0B0F
:1038A8000F0AD8B412000001AC510001AD11D8A420
:1038B80007D0000E0001AD6F010EAC6F898A06D0EB
:1038C800000E0001AD6F000EAC6F899A81A2E4D79B
:1038D800FDD7FAEC22F0000E0001826FD00E816F46
:1038E800E8EC22F0000E0001826F000E816FE8EC18
:1038F80022F0F6EC22F0FAEC22F0000E0001826FC2
:10390800D10E816FE8EC22F0000E0001846F000EEA
:10391800836F000184BF08D00001845115E1060EB1
:103928000001835DD8B010D0240E00018325D96E24
:10393800010E00018421DA6E010E85EC21F0DF6EA4
:103948000001834B842BE5D7000E85EC21F00101A3
:103958002A6FF6EC22F0120081A2FED781CF80F008
:103968000001803B0F0E8017000180510001FA6FA3
:10397800FB6B0CD08D8027D08D8225D08C8023D0F6
:10398800898621D089881FD0898A1DD0FAC080F005
:10399800FBC081F000018151000AD8A414D00001B5
:1039A8008051000AD8B4E6D7010AD8B4E5D7030A8B
:1039B800D8B4E4D7010AD8B4E3D7070AD8B4E2D711
:1039C800010AD8B4E1D781B2FED700F000F0000EAA
:1039D800896E000E8D6E000E8C6EBED7000E000133
:1039E800856F000E846F0001825100018311D8B4E5
:1039F8002CD0010E0001866F06D00001D8908237C6
:103A080083370001862B000183AFF7D70001D890D8
:103A180084378537000182510001805D00018351A0
:103A280000018159D8A00AD0000182510001805FAD
:103A3800000183510001815B000184810001D8905D
:103A4800833382330001862FE1D784C080F085C09C
:103A580081F0120080C084F081C085F00001841FCD
:103A6800851F844B852BFF0E000184250001866F7E
:103A7800FF0E000185210001876F15D000018751D5
:103A880001011C6F1D6B0001865101011E6F1F6B28
:103A9800000187510101206F216B0001865101014E
:103AA800226F236B120082C084F083C085F000016E
:103AB8008551000AD8A4120000018451010AD8B423
:103AC800DDD7020AD8A41200E3D702EC23F0000ED7
:103AD800036ED00E026EEDEC22F0000E036E000EA7
:103AE800026EEDEC22F0FEEC22F002EC23F0000E68
:103AF800036ED10E026EEDEC22F0000E056E000E84
:103B0800046E05BE06D0055011E1060E045CD8B05F
:103B18000DD0240E0424D96E010E0520DA6E010E94
:103B28002FEC22F0DF6E044A052AEBD7000E2FECAB
:103B380022F001012A6FFEEC22F01200000E0001B3
:103B4800E56F000EE46F000E0001E36F000EE26FF8
:103B5800000E746E000E736E000E6C6E010E6B6EAE
:103B6800000E6E6E000E6D6E000E706E000E6F6EA3
:103B7800000E726E000E716E000E0001FF6F000ED7
:103B8800FE6F000E626E000E616E000E646E000E17
:103B9800636E000E606E000E5F6E000E5E6E000EAD
:103BA8005D6E12000001816F00018151F00B000170
:103BB800806F8C500F0B8C6E000180518C108C6EB6
:103BC8008C86420EE82EFED700D08C96420EE82E48
:103BD800FED700D000018139F00B0001816F000190
:103BE8008151F00B0001806F8C500F0B8C6E00011F
:103BF80080518C108C6E8C86420EE82EFED700D039
:103C08008C96420EE82EFED700D012000001895192
:103C180000018A11D8B426D0010E00018B6F06D09E
:103C28000001D89089378A3700018B2B00018AAFB1
:103C3800F7D7000189510001875D00018A51000111
:103C48008859D8A008D0000189510001875F000178
:103C58008A510001885B0001D8908A3389330001BA
:103C68008B2FE7D787C087F088C088F01200000E36
:103C7800C76E280EC66E000EC56E000E0001806F5E
:103C8800480E816FE80E826F010E836F8DC091F030
:103C98008EC092F08FC093F090C094F0020ED8902E
:103CA80000019137923793379437E82EF8D791C0AF
:103CB80084F092C085F093C086F094C087F094ECAD
:103CC8001AF000018005C86E948694881200F00EE0
:103CD800D36E9B8C070E926EF20E936E000E946E4E
:103CE800000E956E000E966E000E896E000E8A6E9E
:103CF800000E8B6E000E8C6E000E8D6EF19E000E07
:103D0800C26E0D0EC16E000EB56EB496B10EC06EC9
:103D1800F086F28A9D80B00ECD6EB00EB16E9D8297
:103D2800A082F28C9D9CF29E1200010ED4EC22F02F
:103D3800680E0001AB6FE40EE82EFED7AB2FFCD760
:103D480000F0800ED4EC22F0950E00018E6FFB0E71
:103D580000018F6F9CEC08F0C00ED4EC22F0A70E87
:103D680000018E6FFB0E00018F6F9CEC08F081A2A2
:103D7800FED781380F0B0F0AD8B41200898A81B296
:103D8800FED7899AF4D7040E0001816FB00E806FB8
:103D9800000E0001836F010E826F2EEC1DF0040EE1
:103DA8000001816FA60E806F000E0001836F030E65
:103DB800826F2EEC1DF0CD80000E7A6E000E796EAB
:103DC800340E0001886FF10EE82EFED7882FFCD73D
:103DD80000D0B180000E7C6E000E7B6E8B901200BE
:103DE800026E0250F00B016E8C500F0B8C6E01505E
:103DF8008C108C6E8C86420EE82EFED700D08C96E6
:103E0800420EE82EFED700D00238F00B026E0250A8
:103E1800F00B016E8C500F0B8C6E01508C108C6E59
:103E28008C86420EE82EFED700D08C96420EE82EE5
:103E3800FED700D01200000E0B6E000E0A6E08505E
:103E48000910D8B41CD0010E0C6E04D0D8900836D6
:103E580009360C2A09AEFAD7D8900A360B3608501C
:103E6800065C09500758D8A005D00850065E0950CE
:103E7800075A0A80D890093208320C2EEDD70AC0AA
:103E880006F00BC007F01200E40EF66E450EF76E52
:103E9800000EF86E01EE2DF010EE08F00900F5CFD7
:103EA800EEFFE550E150FAE101EE00F02D0EEE6A6A
:103EB800E806FDE100EEDAF0260EEE6AE806FDE11E
:103EC80000EE5BF0230EEE6AE806FDE17E907E923E
:103ED800000198EF1BF096EC1FF00001DA050001D5
:103EE800DB11D8A41200050E0001876F0F0E000128
:103EF800866FF10EE82EFED7862FFCD7872FFAD7CC
:103F08000001DA050001DB11D8A406D0000E00017B
:103F1800E36F010EE26F1200000E0001E36F000E66
:103F2800E26F1200000EC9EC21F0C350C4CF82F03A
:103F38000001836B82C083F00001826B0001821153
:103F48000001846F000183510001856F000185BF66
:103F58000AD0850E0001845D030E00018559D8A0A2
:103F680002D0010E01D0000E0001DA6FDB6B1200E7
:103F7800010EC9EC21F0C350C4CF82F00001836B5D
:103F880082C083F00001826B000182110001846FFE
:103F9800000183510001856F000185BF08D0000131
:103FA800855107E1960E0001845DD8B002D0010E5C
:103FB80001D0000E0001DC6FDD6B12009C0E0001C9
:103FC800836FD70EE82EFED7832FFCD7330ED4ECA1
:103FD80022F0320ED4EC22F0280ED4EC22F00C0E93
:103FE800D4EC22F0060ED4EC22F0010ED4EC22F030
:103FF8009C0E0001836FD70EE82EFED7832FFCD7C7
:10400800120003500410D8B418D0010E056E04D065
:10401800D89003360436052A04AEFAD70350015C5B
:1040280004500258D8A004D00350015E0450025A2C
:10403800D89004320332052EF1D701C001F002C036
:1040480002F01200000E0001DF6F160EDE6F800E08
:10405800D4EC22F0EC0E00018E6FFD0E00018F6F84
:104068009CEC08F0C00ED4EC22F0310E00018E6FEB
:10407800FD0E00018F6F9CEC08F01200000E00018D
:10408800DF6F0C0EDE6F800ED4EC22F0530E0001B1
:104098008E6FFD0E00018F6F9CEC08F0C00ED4EC03
:1040A80022F0EC0E00018E6FFD0E00018F6F9CEC6C
:1040B80008F0120080C084F081C085F006D00001AD
:1040C800844B852B0001824B832B82C0F6FF83C073
:1040D800F7FFF86A84C0D9FF85C0DAFF0800F5CF7A
:1040E800DFFFDF50D8B41200EAD700018051000189
:1040F8008203F3CF84F0F4CF85F0000180510001F2
:104108008303F350000185270001815100018203D8
:10411800F3500001852784C080F085C081F012002B
:1041280001C005F002C006F004D0054A062A034A79
:10413800042A03C0F6FF04C0F7FFF86A05C0D9FFD8
:1041480006C0DAFF0800F5CFDFFFDF50D8B4120051
:10415800ECD7000E0001DF6F160EDE6F800EE2EC6A
:1041680022F0EC0E0D6EFD0E0E6EB8EC0AF0C00ECD
:10417800E2EC22F0310E0D6EFD0E0E6EB8EC0AF078
:104188001200000E0001DF6F0C0EDE6F800EE2ECF5
:1041980022F0530E0D6EFD0E0E6EB8EC0AF0C00E36
:1041A800E2EC22F0EC0E0D6EFD0E0E6EB8EC0AF08D
:1041B8001200000E0001DF6F170EDE6F800EE2ECBA
:1041C80022F0420E0D6EFD0E0E6EB8EC0AF0C00E17
:1041D800E2EC22F0DB0E0D6EFD0E0E6EB8EC0AF06E
:1041E8001200000E0001DF6F0B0EDE6F800EE2EC96
:1041F80022F0FD0E0D6EFD0E0E6EB8EC0AF0C00E2C
:10420800E2EC22F0420E0D6EFD0E0E6EB8EC0AF0D6
:104218001200040E0001DF6F0A0EDE6F800EE2EC62
:1042280022F00F0E0D6EFD0E0E6EB8EC0AF0C00EE9
:10423800E2EC22F0CA0E0D6EFD0E0E6EB8EC0AF01E
:104248001200040E0001DF6F090EDE6F800EE2EC33
:1042580022F0B90E0D6EFD0E0E6EB8EC0AF0C00E0F
:10426800E2EC22F0200E0D6EFD0E0E6EB8EC0AF098
:104278001200030E0001DF6FFE0EDE6F800EE2EC0F
:1042880022F0A80E0D6EFD0E0E6EB8EC0AF0C00EF0
:10429800E2EC22F00F0E0D6EFD0E0E6EB8EC0AF079
:1042A8001200030E0001DF6FF40EDE6F800EE2ECE9
:1042B80022F0ED0E0D6EFC0E0E6EB8EC0AF0C00E7C
:1042C800E2EC22F0A80E0D6EFD0E0E6EB8EC0AF0B0
:1042D8001200030E0001DF6FF30EDE6F800EE2ECBA
:1042E80022F0970E0D6EFD0E0E6EB8EC0AF0C00EA1
:1042F800E2EC22F0FE0E0D6EFC0E0E6EB8EC0AF02B
:1043080012000001816FB9EC22F0C586B9EC22F0E9
:10431800C9CF82F0B9EC22F0000181510001D8A484
:1043280002D0C58A01D0C59AC58800018251120001
:10433800030E0001DF6FDE69800EE2EC22F0FE0E54
:104348000D6EFC0E0E6EB8EC0AF0C00EE2EC22F018
:10435800B90E0D6EFD0E0E6EB8EC0AF01200000ECE
:104368000001DF6F000EDE6F800ED4EC22F0E7EC68
:104378000DF0C00ED4EC22F01F0E00018E6FFE0E61
:1043880000018F6F9CEC08F012000001816F0001A2
:104398008145E846FC0BC26EC280C28209D0340E49
:1043A8000001806FF10EE82EFED7802FFCD700D0D9
:1043B800C2A21200F4D70001826F000E0001816FC3
:1043C8003A0E0001826107D02F0E0001826503D0EA
:1043D800010E0001816F81C080F000018031120060
:1043E8000001816F0BD0000181070B0E0001806F67
:1043F800470EE82EFED7802FFCD700D00001815150
:104408000001D8B41200EFD7000E0001DF6F000ED4
:10441800DE6F800EE2EC22F0ACEC10F0C00EE2ECA5
:1044280022F01F0E0D6EFE0E0E6EB8EC0AF0120092
:1044380001500302F3CF05F0F4CF06F00150040257
:10444800F350062602500302F350062605C001F079
:1044580006C002F01200026EC3EC22F0C586C3EC5F
:1044680022F0C9CF03F0C3EC22F00250D8A402D046
:10447800C58A01D0C59AC58803501200F28E000E75
:104488000001FC6F000E0001F76F000EF66FE3EC01
:104498001BF0B3EC21F0000E766E010E756E120063
:1044A800000E0001F76F010EF66F12C0E6F013C0A0
:1044B800E7F0FF0E1224076EFF0E1320086EC6ECFD
:1044C80017F012000001FC05D8B450EC15F00001FB
:1044D800FC05D8B435EC17F00001FC05D8A412008F
:1044E800F7EC15F012000001866F86C024F180C039
:1044F80025F181C026F182C027F183C028F184C04C
:1045080029F185C02AF11200036E000E026E3A0EE0
:10451800036005D02F0E036402D0010E026E02C0A4
:1045280001F00130120000018151AA6E80C0A9FF7C
:10453800A69EA69CA680A6B0FED7A8501200000E84
:10454800896E000E8A6E000E8B6E000E8C6E000E49
:104558008D6E12000250AA6E01C0A9FFA69EA69CED
:10456800A680A6B0FED7A8501200C7B4FED7C5CF04
:1045780080F01F0E00018017D8B41200F6D7C7B418
:10458800FED7C5CF01F01F0E0116D8B41200F7D719
:104598000001826F8C8400018251D6EC1DF012005C
:1045A8000001826F8C9400018251D6EC1DF012003C
:1045B800036E8C840350F4EC1EF01200036E8C948E
:1045C8000350F4EC1EF01200B9EC22F081C0C9FFD0
:1045D8001200C3EC22F002C0C9FF12004D4D4D007D
:1045E8004D4D4D00B9EC22F0C5841200B9EC22F013
:1045F800C5801200C3EC22F0C5841200C3EC22F07F
:06460800C5801200120043
:10FB2600003132334134353642373839432A3023AF
:10FB3600440001000A006400E803102725303264FF
:10FB46002573207C20253032643A253032643A25EC
:10FB56003032640028646174613A2025752C206176
:10FB66006464723A20257529004E4F204C41423A72
:10FB76002025647C4C41423A202564004E4F205497
:10FB860041423A2025647C5441423A20256400448F
:10FB96002057494C4C2052455455524E2020202087
:10FBA600004F544845522053455453205241352066
:10FBB6002020002D2D204C4F47202532642048451B
:10FBC60052452D2D00524553554C545320494E2035
:10FBD6004C4F47202564004D4944202D2D2032737B
:10FBE600202020202020200044524F50202D2D2060
:10FBF6003273202020202020004C454654202D2DF5
:10FC0600203273202020202020004C4556454C20D1
:10FC16002D2D2032732020202020005249474854A1
:10FC2600202D2D2032732020202020004D494444D1
:10FC36004C45202D2D2032732020202000442057B3
:10FC4600494C4C2052455455524E202020004D49D7
:10FC5600442D4C454654202D2D2032732020004D36
:10FC660049442D5249474854202D2D2032732000F7
:10FC7600454C534520544F47474C45532052413538
:10FC860000414C47313A203920504F504E4F544195
:10FC96004200312E414C477C322E534E527C332E3D
:10FCA6004143005453543A20434F4E4420534F4C43
:10FCB6004E2744005453543A205055534820534F2E
:10FCC6004C4E274400342E48497C352E544F477CF1
:10FCD600362E454550005453543A20424F5448203E
:10FCE600534552564F53004C4F4720312020202079
:10FCF60020202020202020004C4F4720322020208A
:10FD06002020202020202020004C4F472033202078
:10FD1600202020202020202020004C4F4720342067
:10FD26002020202020202020202000332E204C4F71
:10FD3600475320202020202020202000322E205330
:10FD46004F525420202020202020202000312E2019
:10FD5600444154452F54494D452020202000202D54
:10FD66002D20504F50202043414E202D2D20002085
:10FD76002D2D20534F55502043414E202D2D200030
:10FD86002D2D20544F54414C2043414E53202D2DB0
:10FD9600004C4F47203120202020202020202020EA
:10FDA6003C004C4F472032202020202020202020BD
:10FDB600203C004C4F4720332020202020202020AC
:10FDC60020203C004C4F472034202020202020209B
:10FDD6002020203C00332E204C4F4753202020204B
:10FDE600202020203C00322E20534F525420202029
:10FDF60020202020203C00312E20444154452F5401
:10FE0600494D452020203C005041555345203C207B
:10FE16007C204241434B203E005055534820544FCE
:10FE260020434F4E54494E5545004D41475F736937
:10FE3600676E616C3A20256420005453543A20546E
:10FE4600494C5420534552564F004449444E27547A
:10FE560020434F4D504C4554450049525F736967E6
:10FE66006E616C3A202564200043414D2044574E74
:10FE7600207C5243303D300043414D2055502020D8
:10FE86007C5243303D31005453543A204D41474E45
:10FE9600455449534D005453543A2043414D205341
:10FEA6004552564F005453543A2050414E20534524
:10FEB60052564F00414C47343A20414C4C20434166
:10FEC6004E53005453543A204443204D4F544F52FE
:10FED6005300414C474F524954484D2054455354C2
:10FEE6000050494E2052413520484947482E00418E
:10FEF6004C47323A2031322043414E5300414C4761
:10FF0600353A204E4F2043414E530050555348201A
:10FF1600544F205354415254002564204D494E20DD
:10FF26002564205345430054494D453A2025643AFB
:10FF360025303264005453543A20495220534E53CC
:10FF46005200534F4C454E4F49442054535400548D
:10FF5600494D452025643A2530326400414C4733EB
:10FF66003A20312043414E0050494E205241332E13
:10FF76002E2E0050494E205241342E2E2E00534F25
:10FF86005254494E472E2E2E005055534820444F6A
:10FF96004E45004143545541544F52530044555227
:10FFA6004154494F4E3A0053454E534F5253002841
:10FFB6006E756C6C29004641494C454400535441CA
:10FFC60052543A00464542004445430041554700D5
:10FFD6004A554C004A414E004A554E005345500082
:10FFE6004D41520041505200455252004F43540079
:09FFF6004E4F56004D4159000028
:020000040020DA
:08000000FFFFFFFFFFFFFFFF00
:020000040030CA
:0E000000FF081F1EFF8381FF0F400FE00F401F
:00000001FF
