:0400000007EF00F016
:100008007F8233ED0CF0A4EF10F0020E0001F2191C
:10001800D8A471D0010E27EC15F0680E0001C46F4A
:10002800E40EE82EFED7C42FFCD700F0800E27EC94
:1000380015F0BA0E00018E6FFE0E00018F6FBBEC3B
:1000480002F0C00E27EC15F00E0E0001836F100EA3
:10005800826FEFC080F0F0C081F055EC0EF080C0E8
:10006800C5F081C0C6F0E80E00018E6FFD0E0001DC
:100078008F6F000E0001916F000E906F0E0E000141
:10008800836F100E826FEFC080F0F0C081F055ECE6
:100098000EF080C086F081C087F0000E0001896FE5
:1000A8003C0E886F43EC0DF086C092F087C093F049
:1000B800C5C080F0C6C081F0000E0001836F3C0E01
:1000C800826F55EC0EF080C094F081C095F0BBECC7
:1000D80002F0000E0001F26F81A2FED70C0E0001A3
:1000E800DF190001E011D8A403D063EC12F038D274
:1000F80047EC12F035D20001DF510001E011D8A41D
:100108002FD2000E0001C76F630E0001C76501D032
:100118000CD0680E0001C46FE40EE82EFED7C42F81
:10012800FCD700F00001C72BEFD70001DF51000119
:10013800E011D8A415D263EC06F012D2010E27EC18
:1001480015F0680E0001C46FE40EE82EFED7C42F28
:10015800FCD700F0800E27EC15F0FD0E00018E6F25
:10016800FD0E00018F6FEBC090F0ECC091F0BBEC7E
:1001780002F0C00E27EC15F0860E00018E6FFF0E00
:1001880000018F6FBBEC02F0000E0001C86F630E18
:100198000001C86501D00CD0680E0001C46FE40EE0
:1001A800E82EFED7C42FFCD700F00001C82BEFD7EC
:1001B8000001ED510001EE11D8B41200000E00014B
:1001C800C96F630E0001C96501D00CD0680E00012B
:1001D800C46FE40EE82EFED7C42FFCD700F0000150
:1001E800C92BEFD70001ED510001EE11D8B4120070
:1001F800010E27EC15F0680E0001C46FE40EE82E1E
:10020800FED7C42FFCD700F0800E27EC15F0C40EE3
:1002180000018E6FFF0E00018F6FBBEC02F0C00E65
:1002280027EC15F0FE0E00018E6FFE0E00018F6F99
:10023800BBEC02F0000E0001CA6F630E0001CA6534
:1002480001D00CD0680E0001C46FE40EE82EFED772
:10025800C42FFCD700F00001CA2BEFD70001ED51E5
:100268000001EE11D8B41200000E0001CB6F630E2E
:100278000001CB6501D00CD0680E0001C46FE40EFC
:10028800E82EFED7C42FFCD700F00001CB2BEFD708
:100298000001ED510001EE11D8B41200010E27EC57
:1002A80015F0680E0001C46FE40EE82EFED7C42FC7
:1002B800FCD700F0800E27EC15F0B30E00018E6F0E
:1002C800FF0E00018F6FBBEC02F0C00E27EC15F09B
:1002D8000F0E00018E6FFE0E00018F6F000E0001E1
:1002E800916F020E906F000E0001936F2A0E926FAD
:1002F800BBEC02F0000E0001CC6F630E0001CC6570
:1003080001D00CD0680E0001C46FE40EE82EFED7B1
:10031800C42FFCD700F00001CC2BEFD70001ED5122
:100328000001EE11D8B41200000E0001CD6F630E6B
:100338000001CD6501D00CD0680E0001C46FE40E39
:10034800E82EFED7C42FFCD700F00001CD2BEFD745
:100358000001ED510001EE11D8B41200010E27EC96
:1003680015F0680E0001C46FE40EE82EFED7C42F06
:10037800FCD700F0800E27EC15F0980E00018E6F68
:10038800FE0E00018F6FBBEC02F0C00E27EC15F0DB
:10039800DC0E00018E6FFE0E00018F6FBBEC02F0C9
:1003A800000E0001CE6F630E0001CE6501D00CD0A7
:1003B800680E0001C46FE40EE82EFED7C42FFCD7E8
:1003C80000F00001CE2BEFD70001ED510001EE1136
:1003D800D8B41200000E0001CF6F630E0001CF6584
:1003E80001D00CD0680E0001C46FE40EE82EFED7D1
:1003F800C42FFCD700F00001CF2BEFD70001ED513F
:100408000001EE11D8B41200010E27EC15F0680EA9
:100418000001C46FE40EE82EFED7C42FFCD700F00D
:10042800800E27EC15F0A90E00018E6FFE0E00015C
:100438008F6FBBEC02F0C00E27EC15F0ED0E00013B
:100448008E6FFE0E00018F6FBBEC02F0000E0001F4
:10045800D06F630E0001D06501D00CD0680E00018A
:10046800C46FE40EE82EFED7C42FFCD700F00001BD
:10047800D02BEFD70001ED510001EE11D8B41200D6
:10048800000E0001D16F630E0001D16501D00CD0C0
:10049800680E0001C46FE40EE82EFED7C42FFCD707
:1004A80000F00001D12BEFD70001ED510001EE1152
:1004B800D8B41200010E27EC15F0680E0001C46FC5
:1004C800E40EE82EFED7C42FFCD700F0800E27ECF0
:1004D80015F0CB0E00018E6FFE0E00018F6FBBEC86
:1004E80002F0C00E27EC15F0FB0E00018E6FFF0E18
:1004F80000018F6FBBEC02F0000E0001D26F630E9B
:100508000001D26501D00CD0680E0001C46FE40E62
:10051800E82EFED7C42FFCD700F00001D22BEFD76E
:100528000001ED510001EE11D8B41200000E0001D7
:10053800D36F630E0001D36501D00CD0680E0001A3
:10054800C46FE40EE82EFED7C42FFCD700F00001DC
:10055800D32BEFD70001ED510001EE11D8B41200F2
:100568000001ED510001EE11D8B41200E7D5900E4C
:1005780000019F6F000E0001A06FEED1250E000153
:10058800A819D8B405D00001A8511FEC15F0E4D182
:10059800000E0001AA6F000EA96F000E0001A76FE0
:1005A80005D00001A78500018E4B8F2B8EC0F6FF6A
:1005B8008FC0F7FFF86A0800F550300AD8B4F1D7B1
:1005C8008EC0F6FF8FC0F7FFF86A0800F5504DECB3
:1005D80014F0D8A0CFD0000E0001AA6F000EA96FAA
:1005E800A9C080F0AAC081F0000E0001836F0A0E36
:1005F800826FB5EC12F080C0A9F081C0AAF0D00ECD
:1006080000019A6FFF0E00019B6F8EC0F6FF8FC02E
:10061800F7FFF86A0800F55000019C6F9D6B000118
:100628009A5100019C2700019B5100019D23000164
:100638009C510001A92700019D510001AA23000136
:100648008E4B8F2B8EC0F6FF8FC0F7FFF86A08001D
:10065800F5504DEC14F0D8A08DD0C2D79FC0D9FF6B
:10066800A0C0DAFFDECFA1F0DDCFA2F0020E0001BC
:100678009F27000EA0230001A1510001A211D8A4B8
:1006880006D0BD0E0001A16FFF0E0001A26F000E83
:100698000001A66F000EA56F03D00001A54BA62B85
:1006A8000001A5510001A12500019A6F0001A65182
:1006B8000001A22100019B6F9AC0F6FF9BC0F7FFC3
:1006C800000EF86E0F0EF76403D00800F55005D041
:1006D800F6CFE9FFF7CFEAFFEF500009D8A4DDD73E
:1006E8000001A9510001A55D0001AA510001A65908
:1006F800D8B009D00001A5510001A95F0001A65199
:100708000001AA5B09D0000E0001AA6F000EA96FB4
:1007180003D0200E1FEC15F00001A907D8A0AA07E6
:100728000001A929F6E10001AA29D8B417D0F1D708
:10073800A1C0F6FFA2C0F7FF000EF86E0F0EF76417
:1007480003D00800F55005D0F6CFE9FFF7CFEAFF50
:10075800EF501FEC15F00001A14BA22B0001A507DB
:10076800D8A0A6070001A529E3E10001A629D8B46D
:10077800F3D0DED78EC0F6FF8FC0F7FF00018E4B97
:100788008F2BF86A0800F5CFA8F00001A851000ADD
:10079800D8B41200640AD8B407D00D0AD8B404D06B
:1007A8001A0AD8B45BD7D8D09FC0D9FFA0C0DAFF47
:1007B800DECFA3F0DDCFA4F0020E00019F27000ECC
:1007C800A0230001A4AF08D0030E0001A713000165
:1007D800A36DA41FD8B0A42B010E0001A86F050EAD
:1007E8000001A819D8B419D00001A851020DC60EED
:1007F800F324F66EFD0EF420F76EF86A000EF82268
:100808000900F5500001A35D0900F5500001A45945
:10081800D8A003D00001A82BE2D70001A9510001FC
:10082800AA11D8B40BD0A7C09AF0030E00019A17EA
:10083800D8B404D00001A907D8A0AA07800E0001E7
:10084800A8BF7F0E00019A6F0001A9510001A85DA1
:100858000001AA51800A00019A59D8B00BD00001B2
:10086800A8510001A95F000E0001A8BFFF0E0001FA
:10087800AA5B05D0000E0001AA6F000EA96F000147
:10088800A7A518D0A7C09AF0030E00019A17D8B4EC
:1008980003D02D0E1FEC15F00001A9510001AA117B
:1008A800D8B425D0300E1FEC15F00001A907D8A048
:1008B800AA07F2D70001A9510001AA11D8B40DD096
:1008C800200E1FEC15F00001A907D8A0AA07000107
:1008D800A9510001AA11D8A4F3D7A7C09AF0030E12
:1008E80000019A17D8B403D02D0E1FEC15F0A8C03C
:1008F8009EF02CD000019E51020DC60EF324F66E18
:10090800FD0EF420F76EF86A000EF8220900F5CF04
:1009180082F00A00F5CF83F0A3C080F0A4C081F074
:10092800C2EC0FF080C087F081C088F0000E000193
:100938008A6F0A0E896FD7EC10F000018751300FCB
:100948000001A86F0001A8511FEC15F000019E07D7
:1009580000019E29D8A4CED78EC0F6FF8FC0F7FF1E
:1009680000018E4B8F2BF86A0800F5CFA8F0000124
:10097800A851D8B4120002D60F0E1E6E000E1F6EBC
:1009880090D1250E2718D8B404D027502FEC15F095
:1009980088D1000E296E000E286E000E266E03D038
:1009A80026840D4A0E2A0DC0F6FF0EC0F7FFF86A1E
:1009B8000800F550300AD8B4F3D70DC0F6FF0EC0C2
:1009C800F7FFF86A0800F550D2EC14F0D8A0A4D0CC
:1009D800000E296E000E286E28C001F029C002F012
:1009E800000E046E0A0E036E8AEC14F001C028F0A3
:1009F80002C029F0D00E196EFF0E1A6E0DC0F6FF58
:100A08000EC0F7FFF86A0800F5501B6E1C6A1950F3
:100A18001B261A501C221B5028261C5029220D4A1E
:100A28000E2A0DC0F6FF0EC0F7FFF86A0800F55051
:100A3800D2EC14F0D8A070D0CFD71EC0D9FF1FC0F9
:100A4800DAFFDECF20F0DDCF21F0020E1E26000EE9
:100A58001F2220502110D8A404D0BD0E206EFF0EF6
:100A6800216E000E256E000E246E02D0244A252A1F
:100A780024502024196E255021201A6E19C0F6FF23
:100A88001AC0F7FF000EF86E0F0EF76403D00800C7
:100A9800F55005D0F6CFE9FFF7CFEAFFEF50000990
:100AA800D8A4E4D72850245C29502558D8B005D0BC
:100AB8002450285E2550295A08D0000E296E000EB1
:100AC800286E03D0200E2FEC15F02806D8A0290692
:100AD8002828F8E12928D8B416D0F4D720C0F6FF82
:100AE80021C0F7FF000EF86E0F0EF76403D0080060
:100AF800F55005D0F6CFE9FFF7CFEAFFEF502FEC1E
:100B080015F0204A212A2406D8A025062428E6E143
:100B18002528D8B4C6D0E2D70DC0F6FF0EC0F7FF1F
:100B28000D4A0E2AF86A0800F5CF27F02750000A68
:100B3800D8B41200640AD8B407D00D0AD8B404D0C7
:100B48001A0AD8B47AD7ADD01EC0D9FF1FC0DAFFB1
:100B5800DECF22F0DDCF23F0020E1E26000E1F226C
:100B680023AE06D0030E2612226C231ED8B0232AE9
:100B7800010E276E050E2718D8B415D02750020D80
:100B8800C60EF324F66EFD0EF420F76EF86A000E1A
:100B9800F8220900F550225C0900F5502358D8A026
:100BA80002D0272AE7D728502910D8B409D026C060
:100BB80019F0030E1916D8B403D02806D8A02906B0
:100BC800800E27BE7F0E196E2850275C2950800A98
:100BD8001958D8B007D02750285E000E27BEFF0E40
:100BE800295A04D0000E296E000E286E26A414D0AF
:100BF80026C019F0030E1916D8B403D02D0E2FEC09
:100C080015F028502910D8B41ED0300E2FEC15F04E
:100C18002806D8A02906F5D728502910D8B40AD014
:100C2800200E2FEC15F02806D8A0290628502910E8
:100C3800D8A4F6D726C019F0030E1916D8B403D0D5
:100C48002D0E2FEC15F027C01DF027D01D50020DDA
:100C5800C60EF324F66EFD0EF420F76EF86A000E49
:100C6800F8220900F5CF08F00A00F5CF09F022C0F4
:100C780006F023C007F0BBEC11F006C001F007C076
:100C880002F0000E046E0A0E036E07EC12F001501B
:100C9800300F276E27502FEC15F01D061D28D8A4FD
:100CA800D5D70DC0F6FF0EC0F7FF0D4A0E2AF86A19
:100CB8000800F5CF27F02750D8B4120062D67FEC91
:100CC8000FF0F3C0BEF0F4C0BFF0F5C0C0F0F6C03E
:100CD800C1F0000E0001C36F000EC26F0001C3BF58
:100CE80008D00001C35146E1070E0001C25DD8B02B
:100CF80041D0D40E0001C225D96E000E0001C321D7
:100D0800DA6EDF500001AB6F0001AB3B0F0EAB1783
:100D18000F0E0001AB170001AB510A0DD40E0001F4
:100D2800C225D96E000E0001C321DA6EDF500F0B09
:100D38000001AC6FAD6BF3500001AC27F45000011B
:100D4800AD23D8900001C235D96E0001C335DA6EE3
:100D5800AE0ED926000EDA22ACC0DEFFADC0DDFF34
:100D68000001C24BC32B0001C3BFC3D70001C3514D
:100D780001E1BAD7B8C0BCF0B9C0BDF0B4D0BE0E5E
:100D88000001806F000E0001816FDB0E0001826F91
:100D9800FF0E0001836F9AEC12F0D4D0BE0E000152
:100DA800806F000E0001816FCB0E0001826FFF0E75
:100DB8000001836F9AEC12F0C5D0BE0E0001806F5F
:100DC800000E0001816FE70E0001826FFF0E000127
:100DD800836F9AEC12F0B6D0BE0E0001806F000E41
:100DE8000001816FEB0E0001826FFF0E0001836F1F
:100DF8009AEC12F0A7D0BE0E0001806F000E000121
:100E0800816FF70E0001826FFF0E0001836F9AEC6D
:100E180012F098D0BE0E0001806F000E0001816FA5
:100E2800DF0E0001826FFF0E0001836F9AEC12F053
:100E380089D0BE0E0001806F000E0001816FD70EB1
:100E48000001826FFF0E0001836F9AEC12F07AD0D6
:100E5800BE0E0001806F000E0001816FD30E0001ED
:100E6800826FFF0E0001836F9AEC12F06BD0BE0EFA
:100E78000001806F000E0001816FE30E0001826F98
:100E8800FF0E0001836F9AEC12F05CD0BE0E0001D9
:100E9800806F000E0001816FEF0E0001826FFF0E60
:100EA8000001836F9AEC12F04DD0BE0E0001806FE6
:100EB800000E0001816FF30E0001826FFF0E00012A
:100EC800836F9AEC12F03ED0BE0E0001806F000EC8
:100ED8000001816FCF0E0001826FFF0E0001836F4A
:100EE8009AEC12F02FD0BCC0ABF0BDC0ACF0000142
:100EF800AC51000AD8A426D00001AB51010AD8B4DD
:100F08003ED7030AD8B44AD7010AD8B456D7070A35
:100F1800D8B462D7010AD8B46ED7030AD8B47AD73E
:100F2800010AD8B486D70F0AD8B492D7010AD8B420
:100F38009ED7030AD8B4AAD7010AD8B4B6D7070AE5
:100F4800D8B4C2D7800E27EC15F0D00E00018E6FF2
:100F5800FD0E00018F6FB6C090F0B7C091F0BE0EC5
:100F68000001926F000E0001936FB2C094F0B3C0FD
:100F780095F0B0C096F0B1C097F0AEC098F0AFC091
:100F880099F0BBEC02F01200000E786E000E776E3E
:100F9800000E6E6E000E6D6E000E706E000E6F6E9F
:100FA800000E646E000E636EF29E40EC0BF02A5049
:100FB8002B10D8A412D146D163EC13F043D177504B
:100FC8007810D8B403D04BEC13F03CD16D506E10B0
:100FD800D8B403D033EC13F035D16F507010D8B4B7
:100FE80031D176EC14F02ED177507810D8B403D0E4
:100FF80063EC13F027D16D506E10D8B411D04BECC0
:1010080013F020D177507810D8B403D063EC13F0E4
:1010180019D16D506E10D8B403D04BEC13F012D127
:101028006F507010D8B40ED1010E0001F26F0AD1C2
:1010380077507810D8B403D01BEC13F003D16D505F
:101048006E10D8B403D063EC13F0FCD06F5070105E
:10105800D8B4F8D0DBEC13F0F5D077507810D8B4CA
:1010680003D07BEC13F0EED06D506E10D8B403D0E3
:10107800C3EC13F0E7D06F507010D8B407D0000E4F
:10108800026E010E016E03EC15F0DCD063506410A3
:10109800D8B4D8D04BEC13F0D5D077507810D8B45A
:1010A80003D0DBEC13F0CED06D506E10D8B403D063
:1010B8000AEC14F0C7D06F507010D8B407D0000EE7
:1010C800026E020E016E03EC15F0BCD06350641082
:1010D800D8B4B8D04BEC13F0B5D077507810D8B45A
:1010E80003D0DBEC13F0AED06D506E10D8B403D043
:1010F8000AEC14F0A7D06F507010D8B407D0000EC7
:10110800026E020E016E03EC15F09CD06350641061
:10111800D8B498D04BEC13F095D077507810D8B459
:1011280003D0ABEC13F08ED06D506E10D8B403D052
:101138007BEC13F087D06F507010D8B407D0000E36
:10114800026E030E016E03EC15F07CD06350641040
:10115800D8B478D04BEC13F075D077507810D8B459
:1011680003D0ABEC13F06ED06D506E10D8B403D032
:101178007BEC13F067D06F507010D8B407D0000E16
:10118800026E030E016E03EC15F05CD06350641020
:10119800D8B458D04BEC13F055D077507810D8B459
:1011A80003D093EC13F04ED06D506E10D8B403D02A
:1011B800DBEC13F047D06F507010D8B407D0000E96
:1011C800026E040E016E03EC15F03CD063506410FF
:1011D800D8B438D04BEC13F035D0DFC043F0E0C0C2
:1011E80044F04450000AD8B407D0030AD8B415D044
:1011F800070AD8B420D026D04350000AD8B4DCD689
:101208000B0AD8B4DCD6070AD8B4EED61A0AD8B472
:10121800F9D6010AD8B40CD715D04350F30AD8B47C
:101228001CD7070AD8B439D70A0AD8B456D7010A3E
:10123800D8B473D707D04350090AD8B48ED7030A55
:10124800D8B4ABD7F28E120037EC10F0F3C03DF0F3
:10125800F4C03EF0F5C03FF0F6C040F0000E426E1C
:10126800000E416E42BE06D0425035E1070E415C89
:10127800D8B031D0D40E4124D96E000E4220DA6E97
:10128800DF502A6E2A3A0F0E2A160F0E2A162A50F7
:101298000A0DD40E4124D96E000E4220DA6EDF50BA
:1012A8000F0B2B6E2C6AF3502B26F4502C22D8905F
:1012B8004134D96E4234DA6E2D0ED926000EDA2268
:1012C8002BC0DEFF2CC0DDFF414A422A42BED2D7E6
:1012D800425001E1CBD737C03BF038C03CF084D056
:1012E8003D0E016E000E026EDB0E036EFF0E046EE5
:1012F800EAEC12F0A6D03D0E016E000E026ECB0E87
:10130800036EFF0E046EEAEC12F09BD03D0E016EE8
:10131800000E026EE70E036EFF0E046EEAEC12F08A
:1013280090D03D0E016E000E026EEB0E036EFF0EA6
:10133800046EEAEC12F085D03D0E016E000E026ECE
:10134800F70E036EFF0E046EEAEC12F07AD03D0E33
:10135800016E000E026EDF0E036EFF0E046EEAECE5
:1013680012F06FD03D0E016E000E026ED70E036EA6
:10137800FF0E046EEAEC12F064D03D0E016E000E12
:10138800026ED30E036EFF0E046EEAEC12F059D013
:101398003D0E016E000E026EE30E036EFF0E046E2C
:1013A800EAEC12F04ED03D0E016E000E026EEF0E0A
:1013B800036EFF0E046EEAEC12F043D03D0E016E90
:1013C800000E026EF30E036EFF0E046EEAEC12F0CE
:1013D80038D03D0E016E000E026ECF0E036EFF0E6A
:1013E800046EEAEC12F02DD03BC02AF03CC02BF082
:1013F8002B50000AD8A425D02A50010AD8B470D797
:10140800030AD8B478D7010AD8B480D7070AD8B461
:1014180088D7010AD8B490D7030AD8B498D7010A54
:10142800D8B4A0D70F0AD8B4A8D7010AD8B4B0D76F
:10143800030AD8B4B8D7010AD8B4C0D7070AD8B4B1
:10144800C8D7800E35EC15F0D00E0D6EFD0E0E6E61
:1014580035C00FF036C010F03D0E116E000E126E42
:1014680031C013F032C014F02FC015F030C016F0A0
:101478002DC017F02EC018F0C0EC04F0120037ECA5
:1014880010F0000E4A6E000E496E4ABE06D04A5051
:1014980031E1070E495CD8B02DD0D40E4924D96E5D
:1014A800000E4A20DA6EDF502A6E2A3A0F0E2A16EC
:1014B8000F0E2A162A500A0DD40E4924D96E000E92
:1014C8004A20DA6EDF500F0B2B6E2C6AF3502B2656
:1014D800F4502C22D8904934D96E4A34DA6E2D0E45
:1014E800D926000EDA222BC0DEFF2CC0DDFF494AC8
:1014F8004A2ACBD702C101F003C102F0000E046EE4
:101508003C0E036E8AEC14F001C02AF002C02BF0E6
:1015180004C101F005C102F00E0E046E100E036E38
:101528008AEC14F001502A2602502B2201010051A6
:101538002A243B6E010101512B203C6E2FC001F083
:1015480030C002F0000E046E3C0E036E8AEC14F0FC
:1015580001C02AF002C02BF031C001F032C002F005
:101568000E0E046E100E036E8AEC14F001502A263B
:1015780002502B222D502A243D6E2E502B203E6ED9
:101588003BC02AF03CC02BF02A1E2B1E2A4A2B2ACD
:101598003D502A24476E3E502B20486E47C0EFF03E
:1015A80048C0F0F0485004E10A0E475CD8A003D0C8
:1015B800020E0001F26F47C006F048C007F00E0E99
:1015C800096E100E086EBBEC11F006C03FF007C0A4
:1015D80040F00E0E046E100E036E47C001F048C0B6
:1015E80002F007EC12F001C006F002C007F0000E8E
:1015F800096E3C0E086EBBEC11F006C041F007C046
:1016080042F00E0E046E100E036E47C001F048C083
:1016180002F007EC12F001C045F002C046F045C0E8
:1016280001F046C002F0000E046E3C0E036E07EC9B
:1016380012F001C043F002C044F0800E35EC15F002
:10164800A80E0D6EFF0E0E6EC0EC04F0C00E35EC49
:1016580015F0E80E0D6EFD0E0E6E3FC00FF040C087
:1016680010F041C011F042C012F043C013F044C062
:1016780014F0C0EC04F0120071507210D8B40BD002
:1016880063EC13F0000E726E000E716E000E2B6E7E
:10169800000E2A6E12000001ED510001EE11D8B4BF
:1016A800C7D0430E7C18D8A412D081B209D00FD06D
:1016B800680E2C6EE40EE82EFED72C2EFCD700D038
:1016C80081B2F6D7000E2B6E000E2A6E1200440E61
:1016D8007C18D8A4F7D7000E0001EE6F000EED6F4E
:1016E80012D0DBEC13F0EED7C3EC13F0EBD7ABEC76
:1016F80013F0E8D70AEC14F0E5D793EC13F0E2D72F
:101708007BEC13F0DFD7DFC02CF0E0C02DF02D50BC
:10171800030AD8B404D0070AD8B40FD0D3D72C50B2
:10172800F30AD8B4DED7070AD8B4DED70A0AD8B481
:10173800DED7010AD8B4DED7C5D72C50090AD8B4E9
:10174800DCD7030AD8B4DCD7BDD70B0E0001DF19EC
:101758000001E011D8A405D0000E2B6E000E2A6EF1
:10176800120063EC13F0000E2B6E000E2A6E1200AE
:10177800160E0001DF190001E011D8B407D00C0ED5
:101788000001DF190001E011D8A405D0000E2B6E6E
:10179800000E2A6E1200170E0001DF190001E01179
:1017A800D8A403D01BEC13F002D033EC13F0000ED6
:1017B8002B6E000E2A6E1200170E0001DF190001B1
:1017C800E011D8A405D0000E2B6E000E2A6E120070
:1017D8004BEC13F0000E2B6E000E2A6E1200000E5A
:1017E800786E010E776E000E2B6E010E2A6E1200B7
:1017F800000E6E6E010E6D6E000E2B6E010E2A6EBF
:101808001200000E706E010E6F6E000E2B6E010E30
:101818002A6E1200000E646E010E636E000E2B6EAF
:10182800010E2A6E1200000E2B6E010E2A6E120097
:101838007C50310AD8B489D7030AD8B499D7010A99
:10184800D8B4BAD7720AD8B4CAD7030AD8B4D0D78A
:10185800010AD8B4D6D7070AD8B4DCD7E4D706002B
:10186800FACF4DF0FBCF4EF0E9CF4FF0EACF50F072
:10187800E1CF51F0E2CF52F0D9CF53F0DACF54F0A4
:10188800F3CF55F0F4CF56F0F6CF57F0F7CF58F026
:10189800F8CF59F0F5CF5AF0F0A018D0F090000129
:1018A800F251D8A413D081380F0B0F0B4B6E4C6A32
:1018B800B50E4B24F66EFD0E4C20F76EF86A000E3E
:1018C800F8220800F5CF7CF0C8EC07F0F2A40CD0A1
:1018D800F2940001F205D8A407D043EC0AF0850E73
:1018E800D76EEE0ED66ED58E9EA023D09E90CD904C
:1018F8000001F205D8A41DD079507A10D8B40DD0C3
:101908008B828B84000E7A6E000E796E050E026E45
:10191800DC0E016E62EC14F00CD08B928B94000EEE
:101928007A6E010E796E480E026E440E016E62ECFC
:1019380014F0A1A217D0A192B1905F4A602A0A0EB2
:101948005F186010D8A409D0000E606E000E5F6E9C
:10195800000E5E6E010E5D6E05D03C0EB36EB00ECD
:10196800B26EB1805AC0F5FF59C0F8FF58C0F7FFF2
:1019780057C0F6FF56C0F4FF55C0F3FF54C0DAFF56
:1019880053C0D9FF52C0E2FF51C0E1FF50C0EAFF87
:101998004FC0E9FF4EC0FBFF4DC0FAFF7F92110018
:1019A8000001E1510001E211D8B41200150E000146
:1019B800876F4B0E0001866FBE0EE82EFED7862F6E
:1019C800FCD7872FFAD700F0000E00018B6F000EAE
:1019D8008A6F000E00018D6F000E8C6F000E0001E3
:1019E800896F000E886F80A404D00001866B862B57
:1019F80002D00001866B0001865100018A6F8B6B53
:101A080000018A5100018B11D8A428D065EC11F08F
:101A1800DBC08CF0DCC08DF000018C5100018D1111
:101A2800D8A41CD08986050E0001876F0F0E00010F
:101A3800866FF10EE82EFED7862FFCD7872FFAD7B0
:101A480080A404D00001866B862B02D00001866B2F
:101A5800000186510001886F896B8996010E7FEC21
:101A680012F0000E0001E46F010EE36F000E7FEC30
:101A780012F0000E0001E26F000EE16F1200000E7E
:101A880000018B6F000189AF08D00001886D891FA4
:101A9800D8B0892B010E00018B6F000187AF08D0E9
:101AA8000001866D871FD8B0872B010E00018B1BA4
:101AB800000E00018D6F000E8C6F0001885100012F
:101AC8008911D8B42CD0010E00018A6F06D000010C
:101AD800D8908837893700018A2B000189AFF7D75A
:101AE8000001D8908C378D37000188510001865D40
:101AF8000001895100018759D8A00AD000018851F6
:101B08000001865F000189510001875B00018C811B
:101B18000001D8908933883300018A2FE1D700016A
:101B28008B510001D8B405D000018C6D8D1FD8B041
:101B38008D2B8CC086F08DC087F01200000E00013E
:101B4800886F000E896F000E8A6F000E8B6F000180
:101B58008451000185110001861100018711D8B454
:101B680042D0010E00018C6F08D00001D890843754
:101B780085378637873700018C2B000187AFF5D76B
:101B88000001D890883789378A378B37000184510C
:101B98000001805D000185510001815900018651D5
:101BA800000182590001875100018359D8A012D041
:101BB800000184510001805F000185510001815BB3
:101BC800000186510001825B000187510001835B9F
:101BD800000188810001D8908733863385338433A8
:101BE80000018C2FCDD788C080F089C081F08AC0D1
:101BF80082F08BC083F012007FEC0FF0000E000122
:101C0800896F000E886F000189BF08D000018951D3
:101C180040E1070E0001885DD8B03BD0D40E00012A
:101C28008825D96E000E00018921DA6EDF50000187
:101C3800856F0001853B0F0E85170F0E0001851774
:101C4800000185510A0DD40E00018825D96E000EB9
:101C580000018921DA6EDF500F0B0001866F876B58
:101C6800F35000018627F45000018723D890000123
:101C78008835D96E00018935DA6E000ED926010E35
:101C8800DA2286C0DEFF87C0DDFF0001884B892B82
:101C9800BAD7170ED56E850ED76EEE0ED66ED58EC8
:101CA8001200000E0001856F000181AF08D000010D
:101CB800806D811FD8B0812B010E0001856F000156
:101CC80083AF05D00001826D831FD8B0832B00013C
:101CD800825100018311D8B426D0010E0001846F0F
:101CE80006D00001D890823783370001842B000189
:101CF80083AFF7D7000182510001805D0001835155
:101D080000018159D8A008D0000182510001805FEC
:101D1800000183510001815B0001D8908333823335
:101D28000001842FE7D7000185510001D8B405D000
:101D38000001806D811FD8B0812B80C080F081C0E8
:101D480081F012000001FB510001FC11D8B41AD037
:101D5800000E0001FC6F000EFB6F28EC12F0010E64
:101D680027EC15F0680E00018A6FE40EE82EFED706
:101D78008A2FFCD700F000EC0EF0898A010EFEECE9
:101D88000FF012000001E9510001EA11D8A416D0A1
:101D98000001E9510001EA11D8B412000001DD4B3D
:101DA800DE2B0C0E0001DD190001DE11D8A4120093
:101DB800000E0001E86F010EE76F12000001F951F3
:101DC8000001FA11D8B41200000E0001EA6F000EEB
:101DD800E96F8988000E0001E26F010EE16F8998B2
:101DE8001200100E00018D6F270E8E6F000E8F6F80
:101DF800000E906F08EC11F0F29E4EEC15F0000EFC
:101E08000001826FD00E816F40EC15F0000E0001CA
:101E1800826F000E816F40EC15F0000E0001976F85
:101E2800000E966F000197BF08D0000197511BE183
:101E3800070E0001965DD8B016D0D40E0001962585
:101E4800D96E000E00019721DA6EDF500001956F00
:101E5800000195510001816F826B40EC15F0000183
:101E6800964B972BDFD74AEC15F0F28E120038EC20
:101E780011F0E4EC11F0440E0001806F190E00011E
:101E8800816F060E0001826F240E0001836F020E1F
:101E98000001846F170E0001856F420EC1EC14F02B
:101EA800E1EC14F016D009EC00F013D0B0EC14F00B
:101EB80010D0EEEC14F0000E0001FC6F010EFB6F69
:101EC80009EC00F006D00DEC15F003D0EEEC14F0A0
:101ED800FFD70001F251000AD8B4E5D7010AD8B4F7
:101EE800E5D7030AD8B4E5D7010AD8B4ECD7070A6E
:101EF800D8B4ECD7EED74EEC15F0000E0001826F87
:101F0800D00E816F40EC15F0000E0001826F000EBC
:101F1800816F40EC15F04AEC15F04EEC15F0000E10
:101F28000001826FD10E816F40EC15F0000E0001A8
:101F3800846F000E836F000184BF08D000018451B4
:101F480015E1060E0001835DD8B010D0D40E000153
:101F58008325D96E000E00018421DA6E010EF3ECA0
:101F680013F0DF6E0001834B842BE5D7000EF3ECF2
:101F780013F00001DA6F4AEC15F01200000E0001B0
:101F8800856F000E846F0001825100018311D8B45F
:101F98002CD0010E0001866F06D00001D890823740
:101FA80083370001862B000183AFF7D70001D89053
:101FB80084378537000182510001805D000183511B
:101FC80000018159D8A00AD0000182510001805F28
:101FD800000183510001815B000184810001D890D8
:101FE800833382330001862FE1D784C080F085C017
:101FF80081F012000001866F1AD0050E0001886F6B
:10200800DC0E13D0030E0001886FE80E0ED0050E0B
:102018000001886F350E09D0060E0001886F820E08
:1020280004D0070E0001886FD00E876F11D0000111
:102038008651000AD8B4E1D7010AD8B4E3D7030A15
:10204800D8B4E5D7010AD8B4E7D7070AD8B4E9D78E
:1020580087C080F088C081F0D0EC12F0000E7A6E54
:10206800000E796E120056EC15F0000E036ED00EBD
:10207800026E45EC15F0000E036E000E026E45EC84
:1020880015F052EC15F056EC15F0000E036ED10E5B
:10209800026E45EC15F0000E056E000E046E05BECE
:1020A80006D0055011E1060E045CD8B00DD0D40E50
:1020B8000424D96E000E0520DA6E010E9DEC14F092
:1020C800DF6E044A052AEBD7000E9DEC14F00001E0
:1020D800DA6F52EC15F012000001816F0001815196
:1020E800F00B0001806F8C500F0B8C6E000180513B
:1020F8008C108C6E8C86420EE82EFED700D08C9603
:10210800420EE82EFED700D000018139F00B000105
:10211800816F00018151F00B0001806F8C500F0B13
:102128008C6E000180518C108C6E8C86420EE82ECD
:10213800FED700D08C96420EE82EFED700D01200B3
:10214800760EF66E2A0EF76E000EF86E00EEF3F0BD
:1021580010EE0AF00900F5CFEEFFE550E150FAE184
:10216800B40EF66E2A0EF76E000EF86E0900F5CF63
:102178007DF00900F5CF7EF001EE00F00E0EEE6A5C
:10218800E806FDE100EED4F01F0EEE6AE806FDE178
:1021980000EE5BF0220EEE6AE806FDE17F907F928A
:1021A80000013BEF0FF00001895100018A11D8B4FA
:1021B80026D0010E00018B6F06D00001D890893718
:1021C8008A3700018B2B00018AAFF7D700018951AC
:1021D8000001875D00018A5100018859D8A008D004
:1021E800000189510001875F00018A510001885B65
:1021F8000001D8908A33893300018B2FE7D787C035
:1022080087F088C088F01200000EC76E280EC66ED0
:10221800000EC56E000E0001806F480E816FE80E3B
:10222800826F010E836F8DC091F08EC092F08FC0C7
:1022380093F090C094F0020ED89000019137923735
:1022480093379437E82EF8D791C084F092C085F080
:1022580093C086F094C087F0A2EC0DF000018005D1
:10226800C86E948694881200F00ED36E9B8C470E2D
:10227800926EF20E936E000E946E000E956E000E26
:10228800966E000E896E000E8A6E000E8B6E000E22
:102298008C6E000E8D6E000EC26E0D0EC16EC19A50
:1022A800C198000EB56EB496C08EF19EF086F28A83
:1022B8009D80B00ECD6E9D82A082F28C9D8CF29E88
:1022C8001200010E21EC14F0C350C4CF82F00001BB
:1022D800836B82C083F00001826B000182110001D0
:1022E800846F000183510001856F0001F7510001DF
:1022F800845D00018551800A0001826F0001F85158
:10230800800A00018259D8B002D0010E01D0000E17
:102318000001DB6FDC6B1200026E0250F00B016EE5
:102328008C500F0B8C6E01508C108C6E8C86420E6C
:10233800E82EFED700D08C96420EE82EFED700D0AD
:102348000238F00B026E0250F00B016E8C500F0B2E
:102358008C6E01508C108C6E8C86420EE82EFED747
:1023680000D08C96420EE82EFED700D01200000E48
:102378000B6E000E0A6E08500910D8B41CD0010E5E
:102388000C6E04D0D890083609360C2A09AEFAD754
:10239800D8900A360B360850065C09500758D8A062
:1023A80005D00850065E0950075A0A80D8900932AD
:1023B80008320C2EEDD70AC006F00BC007F0120049
:1023C8009C0E0001836FD70EE82EFED7832FFCD713
:1023D800330E27EC15F0320E27EC15F0280E27ECFB
:1023E80015F00C0E27EC15F0060E27EC15F0010E73
:1023F80027EC15F09C0E0001836FD70EE82EFED750
:10240800832FFCD7120003500410D8B418D0010E43
:10241800056E04D0D89003360436052A04AEFAD7E0
:102428000350015C04500258D8A004D00350015E48
:102438000450025AD89004320332052EF1D701C055
:1024480001F002C002F01200000E0001EA6F000E57
:10245800E96F000E0001E86F000EE76F000E000143
:10246800FA6F010EF96F000E0001E26F000EE16FC6
:10247800000E0001E46F000EE36F000E0001E66F2E
:10248800000EE56F1200000E0001E06F160EDF6F00
:10249800800E27EC15F0640E00018E6FFF0E000110
:1024A8008F6FBBEC02F0C00E27EC15F0650E000133
:1024B8008E6FFE0E00018F6FBBEC02F01200000E53
:1024C8000001E06F0C0EDF6F800E27EC15F0870E11
:1024D80000018E6FFE0E00018F6FBBEC02F0C00E84
:1024E80027EC15F0640E00018E6FFF0E00018F6F50
:1024F800BBEC02F012000001826F0BD0070E000146
:10250800816FD00E04D0030E0001816FE80E806F3A
:1025180008D000018251000AD8B4F0D7010AD8B413
:10252800F2D7000E7A6E000E796E120080C084F029
:1025380081C085F006D00001844B852B0001824BB9
:10254800832B82C0F6FF83C0F7FFF86A84C0D9FFE7
:1025580085C0DAFF0800F5CFDFFFDF50D8B41200DE
:10256800EAD70001805100018203F3CF84F0F4CF51
:1025780085F00001805100018303F3500001852795
:102588000001815100018203F3500001852784C0B6
:1025980080F085C081F0120080C082F081C083F095
:1025A8000001821F831F824B832BFF0E00018225AF
:1025B8000001846FFF0E000183210001856F000177
:1025C8008551CF6E84C0CEFFCD80120001C005F0CA
:1025D80002C006F004D0054A062A034A042A03C0AA
:1025E800F6FF04C0F7FFF86A05C0D9FF06C0DAFF96
:1025F8000800F5CFDFFFDF50D8B41200ECD7000198
:10260800E3510001E411D8B412000001F151FEECCD
:102618000FF0000EFEEC0FF0000E0001E46F000E4C
:10262800E36F000E0001E66F010EE56F1200000E69
:102638000001E06F160EDF6F800E35EC15F0640EAA
:102648000D6EFF0E0E6EC0EC04F0C00E35EC15F0EA
:10265800650E0D6EFE0E0E6EC0EC04F01200000E3C
:102668000001E06F0C0EDF6F800E35EC15F0870E61
:102678000D6EFE0E0E6EC0EC04F0C00E35EC15F0BB
:10268800640E0D6EFF0E0E6EC0EC04F01200000E0C
:102698000001E06F170EDF6F800E35EC15F0760E37
:1026A8000D6EFE0E0E6EC0EC04F0C00E35EC15F08B
:1026B800530E0D6EFF0E0E6EC0EC04F01200000EED
:1026C8000001E06F0B0EDF6F800E35EC15F0750E14
:1026D8000D6EFF0E0E6EC0EC04F0C00E35EC15F05A
:1026E800760E0D6EFE0E0E6EC0EC04F01200040E97
:1026F8000001E06F0A0EDF6F800E35EC15F0430E17
:102708000D6EFE0E0E6EC0EC04F0C00E35EC15F02A
:10271800420E0D6EFF0E0E6EC0EC04F01200040E99
:102728000001E06F090EDF6F800E35EC15F0310EF9
:102738000D6EFF0E0E6EC0EC04F0C00E35EC15F0F9
:10274800540E0D6EFE0E0E6EC0EC04F01200030E59
:102758000001E06FFE0EDF6F800E35EC15F0200EE5
:102768000D6EFF0E0E6EC0EC04F0C00E35EC15F0C9
:10277800430E0D6EFE0E0E6EC0EC04F01200030E3A
:102788000001E06FF40EDF6F800E35EC15F0210EBE
:102798000D6EFE0E0E6EC0EC04F0C00E35EC15F09A
:1027A800200E0D6EFF0E0E6EC0EC04F01200030E2C
:1027B8000001E06FF30EDF6F800E35EC15F00F0EA1
:1027C8000D6EFF0E0E6EC0EC04F0C00E35EC15F069
:1027D800320E0D6EFE0E0E6EC0EC04F012000001FB
:1027E800816FF9EC14F0C586F9EC14F0C9CF82F0CA
:1027F800F9EC14F0000181510001D8A402D0C58A77
:1028080001D0C59AC588000182511200030E00014B
:10281800E06FDF69800E35EC15F0320E0D6EFE0E9E
:102828000E6EC0EC04F0C00E35EC15F0310E0D6ED6
:10283800FF0E0E6EC0EC04F012000001816F000163
:102848008145E846FC0BC26EC280C28209D0340EB4
:102858000001806FF10EE82EFED7802FFCD700D044
:10286800C2A21200F4D7000E0001E06F000EDF6F65
:10287800800E27EC15F063EC06F0C00E27EC15F07F
:10288800970E00018E6FFF0E00018F6FBBEC02F0F8
:1028980012000001826F000E0001816F3A0E0001E4
:1028A800826107D02F0E0001826503D0010E00015E
:1028B800816F81C080F000018031120001C003F0F7
:1028C80002C004F0031E041E034A042AFF0E032458
:1028D800056EFF0E0420066E0650CF6E05C0CEFFB3
:1028E800CD801200000E0001E06F000EDF6F800E39
:1028F80035EC15F028EC09F0C00E35EC15F0970E04
:102908000D6EFF0E0E6EC0EC04F0120001500302B3
:10291800F3CF05F0F4CF06F001500402F350062679
:1029280002500302F350062605C001F006C002F06B
:102938001200026E16EC15F0C58616EC15F0C9CF1C
:1029480003F016EC15F00250D8A402D0C58A01D0C5
:10295800C59AC588035012000001F205D8B4A6EC48
:102968000EF00001F205D8B4D4EC0CF00001F20529
:10297800D8A4120003EC13F012000001866F86C081
:10298800D4F080C0D5F081C0D6F082C0D7F083C023
:10299800D8F084C0D9F085C0DAF01200036E000EBA
:1029A800026E3A0E036005D02F0E036402D0010EAA
:1029B800026E02C001F001301200F28E000E00011A
:1029C800F26FF5EC0EF037EC14F0000E726E010E9B
:1029D800716E1200000E896E000E8A6E000E8B6EEC
:1029E800000E8C6E000E8D6E1200C7B4FED7C5CFD8
:1029F80080F01F0E00018017D8B41200F6D7000E21
:102A08000001EE6F010EED6F01C0EBF002C0ECF0BB
:102A1800120081A2FED7898A81B2FED700F000F0A9
:102A2800899A1200C7B4FED7C5CF01F01F0E011650
:102A3800D8B41200F7D70001826F8C84000182514C
:102A480070EC10F012000001826F8C94000182512A
:102A580070EC10F01200036E8C84035090EC11F0AF
:102A68001200036E8C94035090EC11F012004D4D3F
:102A78004D00FF0001000100F9EC14F081C0C9FF0E
:102A8800120016EC15F002C0C9FF1200F9EC14F0A0
:102A9800C5841200F9EC14F0C580120016EC15F08C
:0E2AA800C584120016EC15F0C5801200FF0068
:10FDB400003132334134353642373839432A30231F
:10FDC400440001000A006400E8031027253032646F
:10FDD4002573207C20253032643A253032643A255C
:10FDE4003032640054696D653A20253032643A2516
:10FDF4003032643A25303264002D2D204C6F672058
:10FE040025326420686572652D2D002564206D6996
:10FE14006E2873292025642073656373004C4F4753
:10FE240020312020202020202020202020004C4F82
:10FE34004720322020202020202020202020004C79
:10FE44004F47203320202020202020202020200065
:10FE54004C4F472034202020202020202020202008
:10FE640000332E204C4F47532020202020202020D8
:10FE74002000322E20534F525420202020202020B6
:10FE8400202000312E20444154452F54494D452013
:10FE940020202000202D2D20506F70202063616EC3
:10FEA400202D2D2000202D2D20536F75702063618F
:10FEB4006E202D2D200021534F525420434F4E438A
:10FEC4004C5544454421002D2D20546F74616C2001
:10FED40063616E73202D2D004E6F207461623A2091
:10FEE400397C5461623A2031004E6F206C626C3A66
:10FEF40020317C6C626C3A203100303646656220D9
:10FF04007C2030313A30383A3536004C4F47203176
:10FF1400202020202020202020203C004C4F47205F
:10FF240032202020202020202020203C004C4F473D
:10FF34002033202020202020202020203C004C4F53
:10FF4400472034202020202020202020203C003363
:10FF54002E204C4F475320202020202020203C00DE
:10FF6400322E20534F525420202020202020203C89
:10FF740000312E20444154452F54494D4520202022
:10FF84003C0050617573653A3C207C204261636B90
:10FF94003A3E005055534820544F20434F4E544945
:10FFA4004E554500536F7274696E672E2E2E0044B1
:10FFB40075726174696F6E3A00286E756C6C2900F5
:10FFC40053746172743A004665620044656300418B
:10FFD4007567004A756C004A616E004A756E00537D
:10FFE4006570004D617200417072004F6374004E81
:0BFFF4006F76004D6179003132000093
:020000040020DA
:08000000FFFFFFFFFFFFFFFF00
:020000040030CA
:0E000000FF081F1EFF8381FF0FC00FE00F409F
:00000001FF
