:0400000007EF00F016
:100008007E8295ED1CF0C4EF29F0020E0001FC1968
:10001800D8A486D0010EC9EC2DF0680E0001C46F7B
:10002800E40EE82EFED7C42FFCD700F0800EC9ECF2
:100038002DF0520E00018E6FFB0E00018F6F010E26
:100048000001FD250001906F0001916B000E9123C6
:100058008DEC0DF0C00EC9EC2DF00E0E0001836F73
:10006800100E826FFAC080F0FBC081F098EC25F08A
:1000780080C0C6F081C0C7F0490E00018E6FFF0E28
:1000880000018F6F0E0E0001836F100E826FFAC091
:1000980080F0FBC081F098EC25F080C086F081C02C
:1000A80087F0000E0001896F3C0E886F86EC24F003
:1000B80086C090F087C091F0C6C080F0C7C081F0BC
:1000C800000E0001836F3C0E826F98EC25F080C013
:1000D80092F081C093F08DEC0DF081B2FED781A231
:1000E800FED70C0E0001E6190001E711D8A403D0D1
:1000F800FCEC2AF002D0E0EC2AF081B2FED7050E23
:100108000001C56F0F0E0001C46FF10EE82EFED777
:10011800C42FFCD7C52FFAD7000E0001FC6FD2D32D
:100128000001E6510001E711D8A4CCD3000E00016C
:10013800C86F630E0001C86501D00CD0680E0001BD
:10014800C46FE40EE82EFED7C42FFCD700F00001E0
:10015800C82BEFD70001E6510001E711D8A4B2D3AC
:1001680061EC16F0AFD30001F2510001F311D8A4ED
:1001780041D0010EC9EC2DF0680E0001C46FE40EE9
:10018800E82EFED7C42FFCD700F0800EC9EC2DF066
:10019800400E00018E6FFB0E00018F6FF0C090F0D3
:1001A800F1C091F08DEC0DF0C00EC9EC2DF05D0E94
:1001B80000018E6FFE0E00018F6F8DEC0DF0000EAA
:1001C8000001C96F630E0001C96501D00CD0680E2B
:1001D8000001C46FE40EE82EFED7C42FFCD700F050
:1001E8000001C92BEFD70001F8510001F911D8B46B
:1001F8001200E5D7010EC9EC2DF0680E0001C46F9E
:10020800E40EE82EFED7C42FFCD700F0800EC9EC10
:100218002DF0400E00018E6FFB0E00018F6FF0C0B5
:1002280090F0F1C091F08DEC0DF0C00EC9EC2DF0FE
:10023800D90E00018E6FFD0E00018F6F8DEC0DF051
:10024800000E0001CA6F630E0001CA6501D00CD010
:10025800680E0001C46FE40EE82EFED7C42FFCD749
:1002680000F00001CA2BEFD70001F8510001F91185
:10027800D8B41200000E0001CB6F630E0001CB65ED
:1002880001D00CD0680E0001C46FE40EE82EFED732
:10029800C42FFCD700F00001CB2BEFD70001F85199
:1002A8000001F911D8B41200010EC9EC2DF0680E46
:1002B8000001C46FE40EE82EFED7C42FFCD700F06F
:1002C800800EC9EC2DF0C30E00018E6FFF0E0001E9
:1002D8008F6F8DEC0DF0C00EC9EC2DF049C1D6F032
:1002E8004AC1D7F04BC1D8F04CC1D9F0C3D0D60E13
:1002F8000001806F000E0001816FDA0E0001826F2D
:10030800FF0E0001836F18EC2BF0E6D0D60E00012B
:10031800806F000E0001816FCA0E0001826FFF0E10
:100328000001836F18EC2BF0D7D0D60E0001806F38
:10033800000E0001816FE60E0001826FFF0E0001C2
:10034800836F18EC2BF0C8D0D60E0001806F000E1A
:100358000001816FEA0E0001826FFF0E0001836FBA
:1003680018EC2BF0B9D0D60E0001806F000E0001FA
:10037800816FFA0E0001826FFF0E0001836F18EC87
:100388002BF0AAD0D60E0001806F000E0001816FFD
:10039800DE0E0001826FFF0E0001836F18EC2BF058
:1003A8009BD0D60E0001806F000E0001816FD60E23
:1003B8000001826FFF0E0001836F18EC2BF08CD0C8
:1003C800D60E0001806F000E0001816FD20E000171
:1003D800826FFF0E0001836F18EC2BF07DD0D60ED4
:1003E8000001806F000E0001816FE20E0001826F34
:1003F800FF0E0001836F18EC2BF06ED0D60E0001B3
:10040800806F000E0001816FF20E0001826FFF0EF7
:100418000001836F18EC2BF05FD0D60E0001806FBF
:10042800000E0001816FF60E0001826FFF0E0001C1
:10043800836F18EC2BF050D0D60E0001806F000EA1
:100448000001816FCE0E0001826FFF0E0001836FE5
:1004580018EC2BF041D0D60E0001806F000E000181
:10046800816FEE0E0001826FFF0E0001836F18ECA2
:100478002BF032D021EE0AF0DECFC4F0DDCFC5F08C
:100488000001C551000AD8A4E6D70001C451010AE9
:10049800D8B42DD7030AD8B439D7010AD8B445D768
:1004A800070AD8B451D7010AD8B45DD7030AD8B41B
:1004B80069D7010AD8B475D70F0AD8B481D7010A09
:1004C800D8B48DD7030AD8B499D7010AD8B4A5D718
:1004D800070AD8B4B1D7BFD7A60E00018E6FFA0E9F
:1004E80000018F6F08C190F009C191F0D60E00018C
:1004F800926F000E0001936F04C194F005C195F04E
:1005080002C196F003C197F000C198F001C199F0BB
:100518008DEC0DF0000E0001CC6F630E0001CC6570
:1005280001D00CD0680E0001C46FE40EE82EFED78F
:10053800C42FFCD700F00001CC2BEFD70001F851F5
:100548000001F911D8B41200000E0001CD6F630E3E
:100558000001CD6501D00CD0680E0001C46FE40E17
:10056800E82EFED7C42FFCD700F00001CD2BEFD723
:100578000001F8510001F911D8B41200010EC9ECBC
:100588002DF0680E0001C46FE40EE82EFED7C42FCC
:10059800FCD700F0800EC9EC2DF09A0E00018E6F8A
:1005A800FF0E00018F6F8DEC0DF0C00EC9EC2DF021
:1005B8000E0E0001836F100E826FF6C080F0F7C038
:1005C80081F098EC25F080C0C6F081C0C7F03B0EE2
:1005D80000018E6FFF0E00018F6F0E0E0001836FFA
:1005E800100E826FF6C080F0F7C081F098EC25F00D
:1005F80080C086F081C087F0000E0001896F3C0E34
:10060800886F86EC24F086C090F087C091F0C6C051
:1006180080F0C7C081F0000E0001836F3C0E826F2E
:1006280098EC25F080C092F081C093F08DEC0DF02D
:10063800000E0001CE6F630E0001CE6501D00CD014
:10064800680E0001C46FE40EE82EFED7C42FFCD755
:1006580000F00001CE2BEFD70001F8510001F9118D
:10066800D8B41200000E0001CF6F630E0001CF65F1
:1006780001D00CD0680E0001C46FE40EE82EFED73E
:10068800C42FFCD700F00001CF2BEFD70001F851A1
:100698000001F911D8B41200010EC9EC2DF0680E52
:1006A8000001C46FE40EE82EFED7C42FFCD700F07B
:1006B800800EC9EC2DF02F0E00018E6FFD0E00018B
:1006C8008F6F8DEC0DF0C00EC9EC2DF00C0E0001F3
:1006D8008E6FFE0E00018F6FF4C090F0F5C091F0A0
:1006E80041C192F042C193F08DEC0DF0000E000173
:1006F800D06F630E0001D06501D00CD0680E0001E8
:10070800C46FE40EE82EFED7C42FFCD700F000011A
:10071800D02BEFD70001F8510001F911D8B412001D
:10072800000E0001D16F630E0001D16501D00CD01D
:10073800680E0001C46FE40EE82EFED7C42FFCD764
:1007480000F00001D12BEFD70001F8510001F91199
:10075800D8B41200010EC9EC2DF0680E0001C46F68
:10076800E40EE82EFED7C42FFCD700F0800EC9ECAB
:100778002DF0400E00018E6FFD0E00018F6F8DEC85
:100788000DF0C00EC9EC2DF0FB0E00018E6FFD0EB2
:1007980000018F6F3DC190F03EC191F03FC192F0D2
:1007A80040C193F08DEC0DF0000E0001D26F630E86
:1007B8000001D26501D00CD0680E0001C46FE40EB0
:1007C800E82EFED7C42FFCD700F00001D22BEFD7BC
:1007D8000001F8510001F911D8B41200000E00010F
:1007E800D36F630E0001D36501D00CD0680E0001F1
:1007F800C46FE40EE82EFED7C42FFCD700F000012A
:10080800D32BEFD70001F8510001F911D8B4120029
:10081800010EC9EC2DF0680E0001C46FE40EE82E3D
:10082800FED7C42FFCD700F0800EC9EC2DF0510E76
:1008380000018E6FFD0E00018F6F8DEC0DF0C00E64
:10084800C9EC2DF0090E00018E6FFE0E00018F6FAE
:1008580043C190F044C191F08DEC0DF0000E000101
:10086800D46F630E0001D46501D00CD0680E00016E
:10087800C46FE40EE82EFED7C42FFCD700F00001A9
:10088800D42BEFD70001F8510001F911D8B41200A8
:10089800000E0001D56F630E0001D56501D00CD0A4
:1008A800680E0001C46FE40EE82EFED7C42FFCD7F3
:1008B80000F00001D52BEFD70001F8510001F91124
:1008C800D8B412000001F8510001F911D8B412008F
:1008D8004AD4000E0001C56F000EC46FF28E010EDF
:1008E800C9EC2DF0680E0001AB6FE40EE82EFED7C0
:1008F800AB2FFCD700F0800EC9EC2DF0900E000154
:100908008E6FFF0E00018F6F8DEC0DF0C00EC9ECDD
:100918002DF02D0E00018E6FFF0E00018F6F8DECF4
:100928000DF0050E0001AC6F0F0E0001AB6FF10E5C
:10093800E82EFED7AB2FFCD7AC2FFAD781A2FED773
:1009480081B2FED7010EC9EC2DF0680E0001AB6F25
:10095800E40EE82EFED7AB2FFCD700F0800EC9ECD2
:100968002DF0E50E00018E6FFE0E00018F6F8DECED
:100978000DF0C00EC9EC2DF0030E00018E6FFF0EB6
:1009880000018F6F8DEC0DF08A84000E0001C56F99
:10099800000EC46F0001C5BF08D00001C55123E196
:1009A800050E0001C45DD8B01ED0000E0001AD6F69
:1009B800630E0001AD6501D00CD0680E0001AB6F6D
:1009C800E40EE82EFED7AB2FFCD700F00001AD2BCC
:1009D800EFD70001C44BC52B0001C5BFE6D7000106
:1009E800C55101E1DDD78A94010EC9EC2DF0680EDE
:1009F8000001AB6FE40EE82EFED7AB2FFCD700F05A
:100A0800800EC9EC2DF0520E00018E6FFC0E000115
:100A18008F6F8DEC0DF0C00EC9EC2DF0700E00013B
:100A28008E6FFF0E00018F6F8DEC0DF0000E000130
:100A3800C56F000EC46F0001C5BF08D00001C551C5
:100A48002CE1050E0001C45DD8B027D089860D0EB3
:100A58000001AC6F2D0E0001AB6FD70EE82EFED74C
:100A6800AB2FFCD7AC2FFAD700D089961D0E00010A
:100A7800AC6F690E0001AB6FA50EE82EFED7AB2F49
:100A8800FCD7AC2FFAD70001C44BC52B0001C5BF5A
:100A9800DDD70001C55101E1D4D78996010EC9EC13
:100AA8002DF0680E0001AB6FE40EE82EFED7AB2FD9
:100AB800FCD700F0800EC9EC2DF0630E00018E6F9C
:100AC800FC0E00018F6F8DEC0DF0C00EC9EC2DF0FF
:100AD8007B0E00018E6FFF0E00018F6F8DEC0DF005
:100AE800000E0001C56F000EC46F0001C5BF08D01D
:100AF8000001C5512CE1050E0001C45DD8B027D016
:100B080089880D0E0001AC6F2D0E0001AB6FD70E5A
:100B1800E82EFED7AB2FFCD7AC2FFAD700D0899898
:100B28001D0E0001AC6F690E0001AB6FA50EE82E1B
:100B3800FED7AB2FFCD7AC2FFAD70001C44BC52B7F
:100B48000001C5BFDDD70001C55101E1D4D789989F
:100B5800010EC9EC2DF0680E0001AB6FE40EE82E13
:100B6800FED7AB2FFCD700F0800EC9EC2DF0010E9C
:100B78000001FC6F000E786E000E776E000E786E26
:100B8800000E776EC70E00018E6FFE0E00018F6F8C
:100B98008DEC0DF0C00EC9EC2DF0B90E00018E6F72
:100BA800FB0E00018F6F8DEC0DF0040E0001816FBC
:100BB800B00E806F000E0001836F010E826FB4ECDF
:100BC80026F0CD80000E0001AE6F630E0001AE6509
:100BD80001D00CD0680E0001AB6FE40EE82EFED7F2
:100BE800AB2FFCD700F00001AE2BEFD7000E0001B1
:100BF800AF6F630E0001AF6501D00CD0680E000125
:100C0800AB6FE40EE82EFED7AB2FFCD700F0000147
:100C1800AF2BEFD7800EC9EC2DF0C00EC9EC2DF02C
:100C2800A80E00018E6FFB0E00018F6F8DEC0DF08A
:100C3800010E0001816FF40E806F000E0001836FBA
:100C4800010E826FB4EC26F0000E0001B06F630E47
:100C58000001B06501D00CD0680E0001AB6FE40E46
:100C6800E82EFED7AB2FFCD700F00001B02BEFD752
:100C7800000E0001B16F630E0001B16501D00CD008
:100C8800680E0001AB6FE40EE82EFED7AB2FFCD741
:100C980000F00001B12BEFD7800EC9EC2DF0C00E8B
:100CA800C9EC2DF0860E00018E6FFB0E00018F6FD0
:100CB8008DEC0DF0090E0001816F600E806F000E43
:100CC8000001836F010E826FB4EC26F0000E000164
:100CD800B26F630E0001B26501D00CD0680E00013E
:100CE800AB6FE40EE82EFED7AB2FFCD700F0000167
:100CF800B22BEFD7000E0001B36F630E0001B3658E
:100D080001D00CD0680E0001AB6FE40EE82EFED7C0
:100D1800AB2FFCD700F00001B32BEFD7800EC9EC46
:100D28002DF0C00EC9EC2DF00E0E00018E6FFC0EDA
:100D380000018F6F8DEC0DF0060E0001816F860E9D
:100D4800806F000E0001836F010E826FB4EC26F0F5
:100D5800000E0001B46F630E0001B46501D00CD021
:100D6800680E0001AB6FE40EE82EFED7AB2FFCD760
:100D780000F00001B42BEFD7000E0001B56F630E31
:100D88000001B56501D00CD0680E0001AB6FE40E10
:100D9800E82EFED7AB2FFCD700F00001B52BEFD71C
:100DA800800EC9EC2DF0C00EC9EC2DF01F0E00010D
:100DB8008E6FFC0E00018F6F8DEC0DF0030E00019D
:100DC800816F520E806F000E0001836F010E826FDB
:100DD800B4EC26F0000E0001B66F630E0001B66594
:100DE80001D00CD0680E0001AB6FE40EE82EFED7E0
:100DF800AB2FFCD700F00001B62BEFD7000E000197
:100E0800B76F630E0001B76501D00CD0680E000102
:100E1800AB6FE40EE82EFED7AB2FFCD700F0000135
:100E2800B72BEFD7800EC9EC2DF0C00EC9EC2DF012
:100E3800640E00018E6FFB0E00018F6F8DEC0DF0BC
:100E4800040E0001816FB00E806F000E0001836FE9
:100E5800010E826FB4EC26F0000E0001B86F630E2D
:100E68000001B86501D00CD0680E0001AB6FE40E2C
:100E7800E82EFED7AB2FFCD700F00001B82BEFD738
:100E8800000E0001B96F630E0001B96501D00CD0E6
:100E9800680E0001AB6FE40EE82EFED7AB2FFCD72F
:100EA80000F00001B92BEFD7CD902D0E00018E6F09
:100EB800FE0E00018F6F8DEC0DF0C00EC9EC2DF009
:100EC800970E00018E6FFB0E00018F6F8DEC0DF0F9
:100ED800040E0001816F1A0E806F000E0001836FEF
:100EE800030E826FB4EC26F0B180000E0001BA6FD9
:100EF800630E0001BA6501D00CD0680E0001AB6F1B
:100F0800E40EE82EFED7AB2FFCD700F00001BA2B79
:100F1800EFD7000E0001BB6F630E0001BB6501D067
:100F28000CD0680E0001AB6FE40EE82EFED7AB2F95
:100F3800FCD700F00001BB2BEFD7800EC9EC2DF0D9
:100F4800C00EC9EC2DF0750E00018E6FFB0E00016E
:100F58008F6F8DEC0DF0040E0001816FEC0E806F29
:100F6800000E0001836F030E826FB4EC26F0000EB2
:100F78000001BC6F630E0001BC6501D00CD0680E87
:100F88000001AB6FE40EE82EFED7AB2FFCD700F0C4
:100F98000001BC2BEFD7000E0001BD6F630E0001EE
:100FA800BD6501D00CD0680E0001AB6FE40EE82ED1
:100FB800FED7AB2FFCD700F00001BD2BEFD7800E7A
:100FC800C9EC2DF0C00EC9EC2DF0970E00018E6F04
:100FD800FB0E00018F6F8DEC0DF0040E0001816F88
:100FE8001A0E806F000E0001836F030E826FB4EC3F
:100FF80026F0000E0001BE6F630E0001BE6501D031
:101008000CD0680E0001AB6FE40EE82EFED7AB2FB4
:10101800FCD700F00001BE2BEFD7000E0001BF6F18
:10102800630E0001BF6501D00CD0680E0001AB6FE4
:10103800E40EE82EFED7AB2FFCD700F00001BF2B43
:10104800EFD7B190F29E010EC9EC2DF0680E0001A9
:10105800AB6FE40EE82EFED7AB2FFCD700F0800E66
:10106800C9EC2DF0B80E00018E6FFE0E00018F6FD7
:101078008DEC0DF0C00EC9EC2DF09A0E00018E6FAC
:10108800FE0E00018F6F8DEC0DF08B80000E0001BD
:10109800C06F630E0001C06501D00CD0680E00015E
:1010A800AB6FE40EE82EFED7AB2FFCD700F00001A3
:1010B800C02BEFD7000E0001C16F630E0001C165A0
:1010C80001D00CD0680E0001AB6FE40EE82EFED7FD
:1010D800AB2FFCD700F00001C12BEFD7800EC9EC75
:1010E8002DF0C00EC9EC2DF08B0E00018E6FFE0E98
:1010F80000018F6F8DEC0DF0000E0001C56F000E22
:10110800C46F0001C5BF08D0100E0001C45D270ED2
:101118000001C559D8B00DD08B801A0EE82EFED725
:1011280000D08B90F00EE82EFED70001C44BC52BE3
:10113800E8D7000E0001C26F630E0001C26501D03E
:101148000CD0680E0001AB6FE40EE82EFED7AB2F73
:10115800FCD700F00001C22BEFD7000E0001C36FCF
:10116800630E0001C36501D00CD0680E0001AB6F9F
:10117800E40EE82EFED7AB2FFCD700F00001C32BFE
:10118800EFD7030E0001FC6F120001013751010176
:101198003811D8B469D09E809E82A18226EC24F0B2
:1011A800010EC9EC2DF0680E0001B16FE40EE82EB7
:1011B800FED7B12FFCD700F043EC25F08B8A000E48
:1011C8000001816F000E806F8CEC2DF00001FD6F27
:1011D8000001FD510B0D010EF3240001B36F000E49
:1011E800F4200001B46F7F0E0001B56FB3C0ABF0FF
:1011F800B4C0ACF0B5C0ADF00EEC22F08A94000E8D
:101208000001C16F000EC06F0001C1BF08D000010E
:10121800C15126E12E0E0001C05DD8B021D08AB49C
:1012280004D00001B16BB12B02D00001B16B0001F9
:10123800B147B1478A500001B119FB0BB1198A6E49
:101248000001C05100082D0FDFEC2CF00001C04B4D
:10125800C12B0001C1BFE3D70001C15101E1DAD7B9
:101268008A84F3EC26F012000001EE510001EF1120
:10127800D8A418D06BEC27F00001EE510001EF1153
:10128800D8B412000001FE4BFF2B0C0E0001FE1912
:101298000001FF11D8A41200000E0001ED6F010E2D
:1012A800EC6F120001012D5101012E11D8B412006A
:1012B800000E0101366F010E356F000E0001EF6F51
:1012C800000EEE6F110E0001B26F3C0E0001B16FFF
:1012D800CB0EE82EFED7B12FFCD7B22FFAD78A94BF
:1012E800000E0001EB6F010EEA6FEE0EDFEC2CF042
:1012F8004EEC2BF0E2C0DAF0E3C0DBF09E92000186
:10130800DA510001DB11D8B41DD0000E0001B76F0F
:10131800000EB66F0001B7BF08D0C40E0001B65D5D
:10132800090E0001B759D8B02AD08988C80EE82E0E
:10133800FED78998420EE82EFED700D00001B64BA2
:10134800B72BE8D7000E0001B96F000EB86F000187
:10135800B9BF08D0C40E0001B85D090E0001B95923
:10136800D8B00DD089889A0EE82EFED700D089987B
:10137800700EE82EFED70001B84BB92BE8D70F0E38
:101388000001B26F350E0001B16F510EE82EFED785
:10139800B12FFCD7B22FFAD7EBEC29F00001E0050A
:1013A8000001E111D8A483D1030E0001B26FD80E59
:1013B8000001B16F410EE82EFED7B12FFCD7B22F36
:1013C800FAD700D0EBEC29F00001E0050001E111AB
:1013D800D8A440D00001DA510001DB11D8B41DD0E7
:1013E800000E0001BB6F000EBA6F0001BBBF08D032
:1013F800C40E0001BA5D090E0001BB59D8B02AD04D
:101408008988C80EE82EFED78998420EE82EFED7A6
:1014180000D00001BA4BBB2BE8D7000E0001BD6F0E
:10142800000EBC6F0001BDBF08D0C40E0001BC5D3A
:10143800090E0001BD59D8B00DD089889A0EE82E42
:10144800FED700D08998700EE82EFED70001BC4B5D
:10145800BD2BE8D70F0E0001B26F350E0001B16F3A
:10146800510EE82EFED7B12FFCD7B22FFAD7000EB7
:101478000001C36F000EC26F13D1EBEC29F0030E0D
:101488000001C2190001C311D8B407D0040E00012D
:10149800C2190001C311D8A405D0000E0001EB6FDA
:1014A800000E22D0050E0001C2190001C311D8B4E4
:1014B80007D0060E0001C2190001C311D8A402D03A
:1014C8008A8434D0070E0001C2190001C311D8B4B0
:1014D80007D0080E0001C2190001C311D8A406D014
:1014E800000E0001EB6F010EEA6F20D00001C2B1BF
:1014F8001DD08AB404D00001B16BB12B02D0000119
:10150800B16B0001B147B1478A500001B119FB0B1B
:10151800B1198A6E0001EA510001EB11D8A402D07A
:10152800010E01D0000E0001EA6FEB6B0001E0052F
:101538000001E111D8A498D00F0E0001B26F350E4A
:101548000001B16F510EE82EFED7B12FFCD7B22F94
:10155800FAD7EBEC29F00001E0050001E111D8A46D
:101568007FD00001DA510001DB11D8B411D089888D
:101578000B0E0001B26F260E0001B16F5D0EE82E52
:10158800FED7B12FFCD7B22FFAD700D0899868D0F0
:10159800000E0001BF6F000EBE6F0001BFBF41D03B
:1015A800C40E0001BE5D090E0001BF59D8B058D065
:1015B80038D08988C80EE82EFED78998420EE82EC2
:1015C800FED71CD08988D50EE82EFED700F0899862
:1015D800350EE82EFED71DD08988E20EE82EFED7FC
:1015E80000D08998280EE82EFED736D08988F00ECC
:1015F800E82EFED789981A0EE82EFED700D02CD0F8
:101608008988FD0EE82EFED700F08998850EE82E11
:10161800FED700F021D08988A00E00D0E82EFDD793
:101628001BD0C2C0B1F0C3C0B2F00001B251000A71
:10163800D8A4F1D70001B151000AD8B4BAD7010A29
:10164800D8B4C0D7030AD8B4C7D7010AD8B4CED7FC
:10165800070AD8B4D5D7DFD70001BE4BBF2B9DD71B
:1016680089980001C24BC32B0001E0510001E11130
:10167800D8A416D0150E0001B26F4B0E0001B16F41
:10168800BE0EE82EFED7B12FFCD7B22FFAD700F046
:10169800EBEC29F00001E0050001E111D8A406D027
:1016A8000001E0050001E111D8B4E7D68A94000EE4
:1016B8000101306F010E2F6F9E82120001012F5120
:1016C80001013011D8B41200290E0001AC6F960E3A
:1016D8000001AB6F7F0EE82EFED7AB2FFCD7AC2FE7
:1016E800FAD7000E0001EB6F000EEA6F8986000E34
:1016F8000001C16F0A0EC06F020E0001876F580EFD
:10170800866FC0C088F0C1C089F086EC24F0000163
:1017180086510001BB6F000E0001BD6F000EBC6F4B
:10172800000E0001BF6F000EBE6F000E0001B26F09
:10173800000EB16F0001C0510001B15D0001B2514E
:10174800800A0001AB6F0001C151800A0001AB594A
:10175800D8B012D00001BB51DFEC2CF011EC2AF00C
:101768000001DE510001BC270001DF510001BD234B
:101778000001B14BB22BDED78996090E0001AC6F80
:101788001E0E0001AB6FE40EE82EFED7AB2FFCD780
:10179800AC2FFAD700F08986000E0001B46F000E56
:1017A800B36F0001C0510001B35D0001B451800A5C
:1017B8000001AB6F0001C151800A0001AB59D8B0DC
:1017C80012D00001BB51DFEC2CF011EC2AF0000123
:1017D800DE510001BE270001DF510001BF230001D7
:1017E800B34BB42BDED79A0E0001926F990E00010D
:1017F800936F3E0E0001946FC0C088F0C1C089F09D
:10180800BCC086F0BDC087F086EC24F086C08EF0A0
:1018180087C08FF080EC2AF08EC095F08FC096F0CC
:1018280090C097F0C2EC23F00001D8B002D0010EAE
:1018380001D0000E0001BC6FBD6B9A0E0001926FC3
:10184800990E0001936F3E0E0001946FC0C088F09E
:10185800C1C089F0BEC086F0BFC087F086EC24F016
:1018680086C08EF087C08FF080EC2AF08EC095F08D
:101878008FC096F090C097F0C2EC23F00001D8B06A
:1018880002D0010E01D0000E0001BE6FBF6B010E29
:101898000001AF6F0001BC510001BD11D8A409D0EF
:1018A8000001BE510001BF11D8A403D0000E0001F1
:1018B800AF6FAFC0DCF00001DD6B89960001DA5133
:1018C8000001DB11D8B452D0090E0001AC6F1E0E16
:1018D8000001AB6FE40EE82EFED7AB2FFCD7AC2F80
:1018E800FAD700F08986000E0001AE6F000EAD6FCA
:1018F800000E0001B66F000EB56F0001C051000167
:10190800B55D0001B651800A0001AB6F0001C151FD
:10191800800A0001AB59D8B012D00001BB51DFECEE
:101928002CF011EC2AF00001DE510001AD27000176
:10193800DF510001AE230001B54BB62BDED78996E7
:10194800010E0001B06F0001DC510001DD11D8A4C7
:1019580009D00001AD510001AE11D8A403D0000E8A
:101968000001B06FB0C0DCF00001DD6B0001DA519E
:101978000001DB11D8A416D00001DC510001DD11F3
:10198800D8A408D00101274B282B000E01012C6F89
:10199800000E07D00101294B2A2B000E01012C6FE4
:1019A800010E2B6F0001DA510001DB11D8B416D0FB
:1019B8000001DC510001DD11D8A408D00101254B3C
:1019C800262B000E01012C6F020E07D00101234BBC
:1019D800242B000E01012C6F030E2B6F0001E85120
:1019E8000001E911D8B41FD0010EC9EC2DF0680E22
:1019F8000001AB6FE40EE82EFED7AB2FFCD700F04A
:101A0800800EC9EC2DF0D30E00018E6FFA0E000186
:101A18008F6FBCC090F0BDC091F0BEC092F0BFC047
:101A280093F08DEC0DF00101335101013411D8B45C
:101A3800FAD7000E0001B86F000EB76F0001B8BFEB
:101A480008D0100E0001B75D270E0001B859D8B0B4
:101A58000DD08B801A0EE82EFED700D08B90F00E9A
:101A6800E82EFED70001B74BB82BE8D78B90000EB5
:101A78000101326F010E316F1F0E0001AC6F710E44
:101A88000001AB6F1E0EE82EFED7AB2FFCD7AC2F94
:101A9800FAD700F08B800001EC510001ED11D8A4B9
:101AA80032D0000E0001BA6F000EB96F0001BABF44
:101AB80008D00001BA5126E12E0E0001B95DD8B058
:101AC80021D08AB404D00001AB6BAB2B02D000014B
:101AD800AB6B0001AB47AB478A500001AB19FB0B5E
:101AE800AB198A6E0001B95100082D0FDFEC2CF0FC
:101AF8000001B94BBA2B0001BABFE3D70001BA51B4
:101B080001E1DAD78A84000E0101306F000E2F6FD1
:101B18001200900E0001A16F000E0001A26F05D205
:101B2800250E0001A819D8B405D00001A851C1ECB0
:101B38002DF0FBD1000E0001AA6F000EA96F000E58
:101B48000001A76F05D00001A78500018E4B8F2BE0
:101B58008EC0F6FF8FC0F7FFF86A0800F550300A0C
:101B6800D8B4F1D78EC0F6FF8FC0F7FFF86A080027
:101B7800F550CAEC2CF0D8A0D2D0000E0001AA6F04
:101B8800000EA96FA9C080F0AAC081F0000E000164
:101B9800836F0A0E826F33EC2BF080C0A9F081C0EE
:101BA800AAF0D00E00019A6FFF0E00019B6F8EC045
:101BB800F6FF8FC0F7FFF86A0800F55000019C6F28
:101BC8009D6B00019A5100019C2700019B51000167
:101BD8009D2300019C510001A92700019D5100018E
:101BE800AA2300018E4B8F2B8EC0F6FF8FC0F7FF04
:101BF800F86A0800F550CAEC2CF0D8A090D0C2D7EB
:101C0800A1C0D9FFA2C0DAFFDECF9FF0DDCFA0F0E0
:101C1800020E0001A127000EA22300019F5100011E
:101C2800A011D8A406D0B50E00019F6FFF0E0001C9
:101C3800A06F000E0001A46F000EA36F03D0000177
:101C4800A34BA42B0001A35100019F2500019A6F0B
:101C58000001A4510001A02100019B6F9AC0F6FF6A
:101C68009BC0F7FF000EF86E0F0EF76403D0080054
:101C7800F55005D0F6CFE9FFF7CFEAFFEF5000099E
:101C8800D8A4DDD70001A9510001A35D0001AA5124
:101C98000001A459D8B009D00001A3510001A95FDF
:101CA8000001A4510001AA5B09D0000E0001AA6F2F
:101CB800000EA96F03D0200EC1EC2DF00001A9077A
:101CC800D8A0AA070001A929F6E10001AA29D8B4D9
:101CD80017D0F1D79FC0F6FFA0C0F7FF000EF86E2F
:101CE8000F0EF76403D00800F55005D0F6CFE9FFD2
:101CF800F7CFEAFFEF50C1EC2DF000019F4BA02B6E
:101D08000001A307D8A0A4070001A329E3E100016B
:101D1800A429D8B40AD1DED70001A78D1DD08EC062
:101D2800F6FF8FC0F7FF00018E4B8F2BF86A080073
:101D3800F5CFA8F00001A851000AD8B41200640A2F
:101D4800D8B40AD00D0AD8B407D01A0AD8B458D7CC
:101D5800060AD8B4E1D7E9D00001A7BD19D0A1C0BF
:101D6800D9FFA2C0DAFFDECFA5F0DDCFA6F0020EC4
:101D78000001A127000EA2230001A6AF16D0030E72
:101D88000001A7130001A56DA61FD8B0A62B0DD082
:101D9800A1C0D9FFA2C0DAFFDECFA5F0DDCFA6F043
:101DA800020E0001A127000EA223010E0001A86F58
:101DB800050E0001A819D8B419D00001A851020DC8
:101DC8009C0EF324F66EFA0EF420F76EF86A000EF5
:101DD800F8220900F5500001A55D0900F550000141
:101DE800A659D8A003D00001A82BE2D70001A95119
:101DF8000001AA11D8B40BD0A7C09AF0030E0001B5
:101E08009A17D8B404D00001A907D8A0AA07800E51
:101E18000001A8BF7F0E00019A6F0001A9510001BF
:101E2800A85D0001AA51800A00019A59D8B00BD0C8
:101E38000001A8510001A95F000E0001A8BFFF0E14
:101E48000001AA5B05D0000E0001AA6F000EA96F61
:101E58000001A7A518D0A7C09AF0030E00019A1791
:101E6800D8B403D02D0EC1EC2DF00001A95100010A
:101E7800AA11D8B425D0300EC1EC2DF00001A90765
:101E8800D8A0AA07F2D70001A9510001AA11D8B415
:101E98000DD0200EC1EC2DF00001A907D8A0AA078B
:101EA8000001A9510001AA11D8A4F3D7A7C09AF03C
:101EB800030E00019A17D8B403D02D0EC1EC2DF0F3
:101EC800A8C09EF02CD000019E51020D9C0EF32458
:101ED800F66EFA0EF420F76EF86A000EF822090082
:101EE800F5CF82F00A00F5CF83F0A5C080F0A6C038
:101EF80081F02FEC27F080C087F081C088F0000EB9
:101F080000018A6F0A0E896FB1EC28F00001875131
:101F1800300F0001A86F0001A851C1EC2DF000019D
:101F28009E0700019E29D8A4CED78EC0F6FF8FC089
:101F3800F7FF00018E4B8F2BF86A0800F5CFA8F049
:101F48000001A851D8B41200EBD5010EC9EC2DF050
:101F5800680E0001AB6FE40EE82EFED7AB2FFCD75E
:101F680000F0800EC9EC2DF0A70E00018E6FFC0E5C
:101F780000018F6F8DEC0DF0CD80B180010E000156
:101F8800FC6F000E786E000E776E000E7C6E000EF1
:101F98007B6EF3EC26F03D0E0001AC6FE10E000104
:101FA800AB6F3F0EE82EFED7AB2FFCD7AC2FFAD77E
:101FB80000D0010E0001816FF40E806F000E000149
:101FC800836F010E826FB4EC26F0040E0001816F5E
:101FD8001A0E806F000E0001836F030E826FB4EC3F
:101FE80026F01F0E0001AC6F710E0001AB6F1E0EC4
:101FF800E82EFED7AB2FFCD7AC2FFAD700F0040E93
:102008000001816FEC0E806F000E0001836F030EDC
:10201800826FB4EC26F01D0E0001AC6F690E000152
:10202800AB6FA50EE82EFED7AB2FFCD7AC2FFAD797
:10203800040E0001816F1A0E806F000E0001836F7D
:10204800030E826FB4EC26F01F0E0001AC6F710E08
:102058000001AB6F1E0EE82EFED7AB2FFCD7AC2FBE
:10206800FAD700F0030E0001816F520E806F000E48
:102078000001836F010E826FB4EC26F0040E00019C
:10208800816F1A0E806F000E0001836F030E826F3E
:10209800B4EC26F01F0E0001AC6F710E0001AB6F9F
:1020A8001E0EE82EFED7AB2FFCD7AC2FFAD700F0C8
:1020B800040E0001816FEC0E806F000E0001836F2B
:1020C800030E826FB4EC26F01D0E0001AC6F690E92
:1020D8000001AB6FA50EE82EFED7AB2FFCD7AC2FB7
:1020E800FAD7040E0001816F1A0E806F000E0001EE
:1020F800836F030E826FB4EC26F01F0E0001AC6FE5
:10210800710E0001AB6F1E0EE82EFED7AB2FFCD769
:10211800AC2FFAD700F0010E0001816FF40E806F2A
:10212800000E0001836F010E826FB4EC26F0040EDE
:102138000001816F1A0E806F000E0001836F030E7D
:10214800826FB4EC26F01F0E0001AC6F710E000117
:10215800AB6F1E0EE82EFED7AB2FFCD7AC2FFAD7ED
:1021680000F0040E0001816FEC0E806F000E00017C
:10217800836F030E826FB4EC26F01D0E0001AC6F66
:10218800690E0001AB6FA50EE82EFED7AB2FFCD76A
:10219800AC2FFAD7040E0001816F1A0E806F000E63
:1021A8000001836F030E826FB4EC26F03D0E000130
:1021B800AC6FE10E0001AB6F3F0EE82EFED7AB2FE0
:1021C800FCD7AC2FFAD700D0060E0001816F860E1F
:1021D800806F000E0001836F010E826FB4EC26F051
:1021E800040E0001816F1A0E806F000E0001836FCC
:1021F800030E826FB4EC26F01F0E0001AC6F710E57
:102208000001AB6F1E0EE82EFED7AB2FFCD7AC2F0C
:10221800FAD700F0050E0001816F6E0E806F000E78
:102228000001836F030E826FB4EC26F01D0E0001CF
:10223800AC6F690E0001AB6FA50EE82EFED7AB2F71
:10224800FCD7AC2FFAD7040E0001816F1A0E806FED
:10225800000E0001836F030E826FB4EC26F01F0E90
:102268000001AC6F710E0001AB6F1E0EE82EFED799
:10227800AB2FFCD7AC2FFAD700F0090E0001816F05
:10228800600E806F000E0001836F010E826FB4EC48
:1022980026F0040E0001816F1A0E806F000E0001F7
:1022A800836F030E826FB4EC26F01F0E0001AC6F33
:1022B800710E0001AB6F1E0EE82EFED7AB2FFCD7B8
:1022C800AC2FFAD700F0050E0001816F6E0E806FFB
:1022D800000E0001836F030E826FB4EC26F01D0E12
:1022E8000001AC6F690E0001AB6FA50EE82EFED79A
:1022F800AB2FFCD7AC2FFAD7040E0001816F1A0E52
:10230800806F000E0001836F030E826FB4EC26F01D
:102318001F0E0001AC6F710E0001AB6F1E0EE82E90
:10232800FED7AB2FFCD7AC2FFAD700F070EC2DF00E
:10233800030E0001FC6F12000F0E206E000E216EBE
:10234800A4D1250E2718D8B404D02750D1EC2DF0ED
:102358009CD1000E296E000E286E000E266E03D04A
:1023680026840D4A0E2A0DC0F6FF0EC0F7FFF86A44
:102378000800F550300AD8B4F3D70DC0F6FF0EC0E8
:10238800F7FFF86A0800F55061EC2DF0D8A0A6D048
:10239800000E296E000E286E28C001F029C002F038
:1023A800000E046E0A0E036E07EC2DF001C028F033
:1023B80002C029F0D00E196EFF0E1A6E0DC0F6FF7E
:1023C8000EC0F7FFF86A0800F5501B6E1C6A19501A
:1023D8001B261A501C221B5028261C5029220D4A45
:1023E8000E2A0DC0F6FF0EC0F7FFF86A0800F55078
:1023F80061EC2DF0D8A072D0CFD720C0D9FF21C072
:10240800DAFFDECF1EF0DDCF1FF0020E2026000E11
:1024180021221E501F10D8A404D0B50E1E6EFF0E28
:102428001F6E000E236E000E226E02D0224A232A4F
:1024380022501E24196E23501F201A6E19C0F6FF51
:102448001AC0F7FF000EF86E0F0EF76403D00800ED
:10245800F55005D0F6CFE9FFF7CFEAFFEF500009B6
:10246800D8A4E4D72850225C29502358D8B005D0E6
:102478002250285E2350295A08D0000E296E000EDB
:10248800286E03D0200ED1EC2DF02806D8A02906FE
:102498002828F8E12928D8B416D0F4D71EC0F6FFAA
:1024A8001FC0F7FF000EF86E0F0EF76403D0080088
:1024B800F55005D0F6CFE9FFF7CFEAFFEF50D1ECA2
:1024C8002DF01E4A1F2A2206D8A023062228E6E15C
:1024D8002328D8B4DAD0E2D7268C1BD00DC0F6FF5B
:1024E8000EC0F7FF0D4A0E2AF86A0800F5CF27F04C
:1024F8002750000AD8B41200640AD8B40AD00D0ACA
:10250800D8B407D01A0AD8B478D7060AD8B4E4D70A
:10251800BCD026BC15D020C0D9FF21C0DAFFDECF41
:1025280024F0DDCF25F0020E2026000E212225AE54
:1025380013D0030E2612246C251ED8B0252A0CD0E1
:1025480020C0D9FF21C0DAFFDECF24F0DDCF25F08F
:10255800020E2026000E2122010E276E050E2718D6
:10256800D8B415D02750020D9C0EF324F66EFA0E3F
:10257800F420F76EF86A000EF8220900F550245C82
:102588000900F5502558D8A002D0272AE7D72850A7
:102598002910D8B409D026C019F0030E1916D8B4DA
:1025A80003D02806D8A02906800E27BE7F0E196EF4
:1025B8002850275C2950800A1958D8B007D02750CE
:1025C800285E000E27BEFF0E295A04D0000E296E81
:1025D800000E286E26A414D026C019F0030E191672
:1025E800D8B403D02D0ED1EC2DF028502910D8B432
:1025F8001ED0300ED1EC2DF02806D8A02906F5D72C
:1026080028502910D8B40AD0200ED1EC2DF0280675
:10261800D8A0290628502910D8A4F6D726C019F022
:10262800030E1916D8B403D02D0ED1EC2DF027C007
:102638001DF027D01D50020D9C0EF324F66EFA0EE5
:10264800F420F76EF86A000EF8220900F5CF08F0BA
:102658000A00F5CF09F024C006F025C007F09BEC6E
:1026680029F006C001F007C002F0000E046E0A0E41
:10267800036EA2EC2AF00150300F276E2750D1ECE0
:102688002DF01D061D28D8A4D5D70DC0F6FF0EC005
:10269800F7FF0D4A0E2AF86A0800F5CF27F02750F1
:1026A800D8B412004ED68B8A010E0001FC6F000EC2
:1026B8000001EB6F000EEA6F000E746E000E736E71
:1026C8008A96CA84000E7A6E000E796E000E00019A
:1026D800B66F010EB56F010EC9EC2DF0680E000142
:1026E800AB6FE40EE82EFED7AB2FFCD700F0800EC0
:1026F800C9EC2DF0FD0E00018E6FFB0E00018F6FEF
:102708008DEC0DF058D0000EB4EC2CF0C350C4CFB3
:10271800ABF00001AC6BABC0ACF00001AB6B0001DF
:10272800AB110001AD6F0001AC510001AE6F0001AB
:10273800AEBF0AD0210E0001AD5D030E0001AE59F7
:10274800D8A002D0010E01D0000E0001E06FE16BAD
:10275800010EC9EC2DF0680E0001AB6FE40EE82EF7
:10276800FED7AB2FFCD700F0800EC9EC2DF0FD0E84
:1027780000018E6FFB0E00018F6F8DEC0DF0C00E07
:10278800C9EC2DF0EC0E00018E6FFB0E00018F6F6F
:10279800ADC090F0AEC091F08DEC0DF0050E0001CB
:1027A800AC6F0F0E0001AB6FF10EE82EFED7AB2F0A
:1027B800FCD7AC2FFAD781B259D0A5D7000EB4EC0C
:1027C8002CF0C350C4CFABF00001AC6BABC0ACF085
:1027D8000001AB6B0001AB110001AF6F0001AC5100
:1027E8000001B06F0001B0BF0AD0210E0001AF5D3B
:1027F800030E0001B059D8A002D0010E01D0000E7E
:102808000001E06FE16B010EC9EC2DF0680E0001CC
:10281800AB6FE40EE82EFED7AB2FFCD700F0800E8E
:10282800C9EC2DF0FD0E00018E6FFB0E00018F6FBD
:102838008DEC0DF0C00EC9EC2DF0EC0E00018E6F82
:10284800FB0E00018F6FAFC090F0B0C091F08DEC1F
:102858000DF0050E0001AC6F0F0E0001AB6FF10E0D
:10286800E82EFED7AB2FFCD7AC2FFAD781A2A6D77C
:1028780081380F0B0F0AD8B49AD081CFABF0000182
:10288800AB3B0F0EAB17D8A412D08AB404D000010A
:10289800AB6BAB2B02D00001AB6B0001AB47AB4776
:1028A8008A500001AB19FB0BAB198A6E7DD08138B9
:1028B8000F0B030AD8A420D00001B5510001B611AE
:1028C800D8B410D0000E0001EB6F010E0FD000013C
:1028D800B5510001B611D8A40DD00AD00001B56FCA
:1028E800B66B62D0000E0001EB6F000EEA6FEFD7F7
:1028F800010EF4D7000EF2D781380F0B050AD8A4C1
:1029080027D0000E0001B26F000EB16F0001B2BFF8
:1029180008D00001B25148E11E0E0001B15DD8B0E7
:1029280043D089884E0E0001AB6FEB0EE82EFED720
:10293800AB2FFCD789981A0E0001AB6FF80EE82E62
:10294800FED7AB2FFCD700F00001B14BB22BDED77E
:1029580081380F0B060AD8A427D0000E0001B46FE7
:10296800000EB36F0001B4BF08D00001B4511CE1E0
:102978001E0E0001B35DD8B017D089883D0E000146
:10298800AB6F410EE82EFED7AB2FFCD789982C0EE3
:102998000001AB6FA10EE82EFED7AB2FFCD700D0FD
:1029A8000001B34BB42BDED781A260D7FDD78B9A39
:1029B80070EC2DF0030E0001FC6F1200010EC9EC43
:1029C8002DF0680E0001AB6FE40EE82EFED7AB2F9A
:1029D800FCD700F0800EC9EC2DF0AD0E00018E6F13
:1029E800FF0E00018F6F8DEC0DF0C00EC9EC2DF0BD
:1029F8002D0E00018E6FFF0E00018F6F8DEC0DF014
:102A0800050E0001AC6F0F0E0001AB6FF10EE82E42
:102A1800FED7AB2FFCD7AC2FFAD781A2FED781B255
:102A2800FED7010EC9EC2DF0680E0001AB6FE40E65
:102A3800E82EFED7AB2FFCD700F0800EC9EC2DF0A6
:102A4800570E00018E6FFF0E00018F6F8DEC0DF099
:102A5800050E0001AC6F0F0E0001AB6FF10EE82EF2
:102A6800FED7AB2FFCD7AC2FFAD78B8A5CD0000EE1
:102A7800B4EC2CF0C350C4CFABF00001AC6BABC0CE
:102A8800ACF00001AB6B0001AB110001AD6F0001B0
:102A9800AC510001AE6F0001AEBF0AD0210E00019B
:102AA800AD5D030E0001AE59D8A002D0010E01D0D1
:102AB800000E0001E06FE16B010EC9EC2DF0680E0D
:102AC8000001AB6FE40EE82EFED7AB2FFCD700F069
:102AD800800EC9EC2DF07C0E00018E6FFE0E0001F9
:102AE8008F6FE0C090F0E1C091F08DEC0DF0C00E5A
:102AF800C9EC2DF0090E00018E6FFE0E00018F6FDC
:102B0800ADC090F0AEC091F08DEC0DF0050E000157
:102B1800AC6F0F0E0001AB6FF10EE82EFED7AB2F96
:102B2800FCD7AC2FFAD781A2A2D78B9A010EC9EC99
:102B38002DF0680E0001AB6FE40EE82EFED7AB2F28
:102B4800FCD700F0800EC9EC2DF0A90E00018E6FA5
:102B5800FE0E00018F6F8DEC0DF0050E0001AC6FBD
:102B68000F0E0001AB6FF10EE82EFED7AB2FFCD78E
:102B7800AC2FFAD721D037EC2AF0800EC9EC2DF013
:102B8800C00EC9EC2DF01D0E00018E6FFE0E000167
:102B98008F6FE2C090F0E3C091F08DEC0DF0050E60
:102BA8000001AC6F0F0E0001AB6FF10EE82EFED7DF
:102BB800AB2FFCD7AC2FFAD781A2DDD7010EC9EC19
:102BC8002DF0680E0001AB6FE40EE82EFED7AB2F98
:102BD800FCD700F0800EC9EC2DF0860E00018E6F38
:102BE800FF0E00018F6F8DEC0DF0050E0001AC6F2C
:102BF8000F0E0001AB6FF10EE82EFED7AB2FFCD7FE
:102C0800AC2FFAD7010EC9EC2DF0680E0001AB6F9E
:102C1800E40EE82EFED7AB2FFCD700F0800EC9ECEF
:102C28002DF0860E00018E6FFF0E00018F6F8DEC68
:102C38000DF01BD0800EC9EC2DF0C00EC9EC2DF0A4
:102C4800A40E00018E6FFF0E00018F6F80A404D0C8
:102C58000001AB6BAB2B02D00001AB6B0001AB5199
:102C68000001906F916B8DEC0DF081A2E3D7813854
:102C78000F0B0F0AD8B4120089861BD0800EC9EC3E
:102C88002DF0C00EC9EC2DF0A40E00018E6FFF0EC2
:102C980000018F6F80A404D00001AB6BAB2B02D076
:102CA8000001AB6B0001AB510001906F916B8DEC93
:102CB8000DF081B2E3D78996A5D72FEC26F04DC148
:102CC800BEF04EC1BFF04FC1C0F050C1C1F0000E00
:102CD8000001C36F000EC26F0001C3BF08D000011E
:102CE800C35146E1070E0001C25DD8B041D01C0EA9
:102CF8000001C225D96E010E0001C321DA6EDF5032
:102D08000001AB6F0001AB3B0F0EAB170F0E0001BC
:102D1800AB170001AB510A0D1C0E0001C225D96E7C
:102D2800010E0001C321DA6EDF500F0B0001AC6FFA
:102D3800AD6BF3500001AC27F4500001AD23D890DF
:102D48000001C235D96E0001C335DA6EAE0ED92640
:102D5800000EDA22ACC0DEFFADC0DDFF0001C24BC1
:102D6800C32B0001C3BFC3D70001C35101E1BAD7C8
:102D7800B8C0BCF0B9C0BDF0B4D0BE0E0001806FC1
:102D8800000E0001816FDA0E0001826FFF0E000154
:102D9800836F18EC2BF0D4D0BE0E0001806F000EAC
:102DA8000001816FCA0E0001826FFF0E0001836F60
:102DB80018EC2BF0C5D0BE0E0001806F000E00018C
:102DC800816FE60E0001826FFF0E0001836F18EC21
:102DD8002BF0B6D0BE0E0001806F000E0001816F8F
:102DE800EA0E0001826FFF0E0001836F18EC2BF0D2
:102DF800A7D0BE0E0001806F000E0001816FFA0E91
:102E08000001826FFF0E0001836F18EC2BF098D041
:102E1800BE0E0001806F000E0001816FDE0E000102
:102E2800826FFF0E0001836F18EC2BF089D0BE0E65
:102E38000001806F000E0001816FD60E0001826FC5
:102E4800FF0E0001836F18EC2BF07AD0BE0E000144
:102E5800806F000E0001816FD20E0001826FFF0E9D
:102E68000001836F18EC2BF06BD0BE0E0001806F51
:102E7800000E0001816FE20E0001826FFF0E00015B
:102E8800836F18EC2BF05CD0BE0E0001806F000E33
:102E98000001816FF20E0001826FFF0E0001836F47
:102EA80018EC2BF04DD0BE0E0001806F000E000113
:102EB800816FF60E0001826FFF0E0001836F18EC20
:102EC8002BF03ED0BE0E0001806F000E0001816F16
:102ED800CE0E0001826FFF0E0001836F18EC2BF0FD
:102EE8002FD0BCC0ABF0BDC0ACF00001AC51000AA3
:102EF800D8A426D00001AB51010AD8B43ED7030AA2
:102F0800D8B44AD7010AD8B456D7070AD8B462D772
:102F1800010AD8B46ED7030AD8B47AD7010AD8B44C
:102F280086D70F0AD8B492D7010AD8B49ED7030A15
:102F3800D8B4AAD7010AD8B4B6D7070AD8B4C2D722
:102F4800800EC9EC2DF0A60E00018E6FFA0E00015E
:102F58008F6FB6C090F0B7C091F0BE0E0001926FAF
:102F6800000E0001936FB2C094F0B3C095F0B0C0EA
:102F780096F0B1C097F0AEC098F0AFC099F08DEC64
:102F88000DF01200000E766E000E756E000E666E65
:102F9800000E656E000E686E000E676E000E646EA1
:102FA800000E636EF29E9FEC1BF02A502B10D8A4E3
:102FB80012D146D1E0EC2BF043D175507610D8B43D
:102FC80003D0C8EC2BF03CD165506610D8B403D0C0
:102FD800B0EC2BF035D167506810D8B431D1F3EC90
:102FE8002CF02ED175507610D8B403D0E0EC2BF02D
:102FF80027D165506610D8B411D0C8EC2BF020D179
:1030080075507610D8B403D0E0EC2BF019D1655088
:103018006610D8B403D0C8EC2BF012D167506810F2
:10302800D8B40ED1010E0001FC6F0AD1755076108C
:10303800D8B403D098EC2BF003D165506610D8B4FF
:1030480003D0E0EC2BF0FCD067506810D8B4F8D06F
:1030580058EC2CF0F5D075507610D8B403D0F8ECB5
:103068002BF0EED065506610D8B403D040EC2CF0AD
:10307800E7D067506810D8B407D0000E136E010E61
:10308800126E2DEC2DF0DCD063506410D8B4D8D07B
:10309800C8EC2BF0D5D075507610D8B403D058ECC6
:1030A8002CF0CED065506610D8B403D087EC2CF045
:1030B800C7D067506810D8B407D0000E136E020E40
:1030C800126E2DEC2DF0BCD063506410D8B4B8D07B
:1030D800C8EC2BF0B5D075507610D8B403D058ECA6
:1030E8002CF0AED065506610D8B403D087EC2CF025
:1030F800A7D067506810D8B407D0000E136E020E20
:10310800126E2DEC2DF09CD063506410D8B498D07A
:10311800C8EC2BF095D075507610D8B403D028ECB5
:103128002CF08ED065506610D8B403D0F8EC2BF094
:1031380087D067506810D8B407D0000E136E030EFE
:10314800126E2DEC2DF07CD063506410D8B478D07A
:10315800C8EC2BF075D075507610D8B403D028EC95
:103168002CF06ED065506610D8B403D0F8EC2BF074
:1031780067D067506810D8B407D0000E136E030EDE
:10318800126E2DEC2DF05CD063506410D8B458D07A
:10319800C8EC2BF055D075507610D8B403D010EC8D
:1031A8002CF04ED065506610D8B403D058EC2CF0F3
:1031B80047D067506810D8B407D0000E136E040EBD
:1031C800126E2DEC2DF03CD063506410D8B438D07A
:1031D800C8EC2BF035D0E6C043F0E7C044F04450CB
:1031E800000AD8B407D0030AD8B415D0070AD8B44F
:1031F80020D026D04350000AD8B4DCD60B0AD8B465
:10320800DCD6070AD8B4EED61A0AD8B4F9D6010A19
:10321800D8B40CD715D04350F30AD8B41CD7070A32
:10322800D8B439D70A0AD8B456D7010AD8B473D74C
:1032380007D04350090AD8B48ED7030AD8B4ABD7FD
:10324800F28E1200A4EC27F0000E4A6E000E496EB2
:103258004ABE06D04A5031E1070E495CD8B02DD09D
:103268001C0E4924D96E010E4A20DA6EDF502A6EF0
:103278002A3A0F0E2A160F0E2A162A500A0D1C0E6D
:103288004924D96E010E4A20DA6EDF500F0B2B6EDF
:103298002C6AF3502B26F4502C22D8904934D96E3E
:1032A8004A34DA6E2D0ED926000EDA222BC0DEFF44
:1032B8002CC0DDFF494A4A2ACBD710C101F011C101
:1032C80002F0000E046E3C0E036E07EC2DF001C0F8
:1032D8002AF002C02BF012C101F013C102F00E0E49
:1032E800046E100E036E07EC2DF001502A260250D2
:1032F8002B2201010E512A243B6E01010F512B2074
:103308003C6E2FC001F030C002F0000E046E3C0E7F
:10331800036E07EC2DF001C02AF002C02BF031C07B
:1033280001F032C002F00E0E046E100E036E07ECB0
:103338002DF001502A2602502B222D502A243D6EB2
:103348002E502B203E6E3BC02AF03CC02BF02A1E8C
:103358002B1E2A4A2B2A3D502A24456E3E502B20EC
:10336800466E45C0FAF046C0FBF001013551010137
:103378003611D8B409D0FAC045F1FBC046F1000EA9
:103388000101366F000E356F0001FBBF4DD0000103
:10339800FB5105E1140E0001FA5DD8A045D0FAC032
:1033A80001F0FBC002F0000E046E140E036EDDEC9B
:1033B80027F001500210D8A437D08AA40FD08AA4CD
:1033C80002D0010E01D0000EFF0A2A6E2A462A46B4
:1033D8008A502A18FB0B2A188A6E26D0000E486ECF
:1033E800000E476E48BE06D048501DE12E0E475CC1
:1033F800D8B019D08AB403D02A6A2A2A01D02A6AF6
:103408002A462A468A502A18FB0B2A188A6E4750E1
:1034180000082D0F7EEC2DF0474A482A48BEEAD70F
:10342800485001E1E3D78A8445C12AF046C12BF010
:103438002A1E2B1E2A4A2B2A0001FA512A2600018D
:10344800FB512B222A0E2A182B10D8B407D0B30E02
:103458000001FA190001FB11D8A403D0020E0001E3
:10346800FC6F0E0E046E100E036E45C001F046C0D0
:1034780002F0A2EC2AF001C006F002C007F0000E2C
:10348800096E3C0E086E9BEC29F006C03FF007C0A1
:1034980040F00E0E046E100E036E45C001F046C0DB
:1034A80002F0A2EC2AF001C043F002C044F043C08D
:1034B80001F044C002F0000E046E3C0E036EA2EC54
:1034C8002AF001C041F002C042F0800ED7EC2DF086
:1034D8003D0E0D6EFE0E0E6EA0EC11F0C00ED7EC78
:1034E8002DF04D0E0D6EFE0E0E6E3FC00FF040C05B
:1034F80010F041C011F042C012F0A0EC11F012001F
:10350800A4EC27F04DC13DF04EC13EF04FC13FF055
:1035180050C140F0000E426E000E416E42BE06D011
:10352800425035E1070E415CD8B031D01C0E412421
:10353800D96E010E4220DA6EDF502A6E2A3A0F0E3B
:103548002A160F0E2A162A500A0D1C0E4124D96E6F
:10355800010E4220DA6EDF500F0B2B6E2C6AF350EF
:103568002B26F4502C22D8904134D96E4234DA6E8E
:103578002D0ED926000EDA222BC0DEFF2CC0DDFF6F
:10358800414A422A42BED2D7425001E1CBD737C086
:103598003BF038C03CF084D03D0E016E000E026E48
:1035A800DA0E036EFF0E046E67EC2BF0A6D03D0E0C
:1035B800016E000E026ECA0E036EFF0E046E67ECFB
:1035C8002BF09BD03D0E016E000E026EE60E036ED0
:1035D800FF0E046E67EC2BF090D03D0E016E000ECE
:1035E800026EEA0E036EFF0E046E67EC2BF085D0B8
:1035F8003D0E016E000E026EFA0E036EFF0E046E93
:1036080067EC2BF07AD03D0E016E000E026EDE0ED6
:10361800036EFF0E046E67EC2BF06FD03D0E016E4B
:10362800000E026ED60E036EFF0E046E67EC2BF0D2
:1036380064D03D0E016E000E026ED20E036EFF0EB8
:10364800046E67EC2BF059D03D0E016E000E026E31
:10365800E20E036EFF0E046E67EC2BF04ED03D0EAB
:10366800016E000E026EF20E036EFF0E046E67EC22
:103678002BF043D03D0E016E000E026EF60E036E67
:10368800FF0E046E67EC2BF038D03D0E016E000E75
:10369800026ECE0E036EFF0E046E67EC2BF02DD07B
:1036A8003BC02AF03CC02BF02B50000AD8A425D0F0
:1036B8002A50010AD8B470D7030AD8B478D7010AB7
:1036C800D8B480D7070AD8B488D7010AD8B490D715
:1036D800030AD8B498D7010AD8B4A0D70F0AD8B427
:1036E800A8D7010AD8B4B0D7030AD8B4B8D7010A02
:1036F800D8B4C0D7070AD8B4C8D7800ED7EC2DF0F5
:10370800A60E0D6EFA0E0E6E35C00FF036C010F014
:103718003D0E116E000E126E31C013F032C014F05F
:103728002FC015F030C016F02DC017F02EC018F0BD
:10373800A0EC11F012000101395101013A11D8B47D
:103748000CD0E0EC2BF0000E01013A6F000E396F3F
:10375800000E2B6E000E2A6E12000001F8510001B7
:10376800F911D8B4C7D0430E7D18D8A412D081B2AD
:1037780009D00FD0680E2C6EE40EE82EFED72C2E42
:10378800FCD700D081B2F6D7000E2B6E000E2A6E41
:103798001200440E7D18D8A4F7D7000E0001F96F67
:1037A800000EF86F12D058EC2CF0EED740EC2CF04D
:1037B800EBD728EC2CF0E8D787EC2CF0E5D710EC09
:1037C8002CF0E2D7F8EC2BF0DFD7E6C02CF0E7C0FE
:1037D8002DF02D50030AD8B404D0070AD8B40FD05E
:1037E800D3D72C50F30AD8B4DED7070AD8B4DED71B
:1037F8000A0AD8B4DED7010AD8B4DED7C5D72C5008
:10380800090AD8B4DCD7030AD8B4DCD7BDD70B0E65
:103818000001E6190001E711D8A405D0000E2B6EAF
:10382800000E2A6E1200E0EC2BF0000E2B6E000E3C
:103838002A6E1200160E0001E6190001E711D8B42D
:1038480007D00C0E0001E6190001E711D8A405D035
:10385800000E2B6E000E2A6E1200170E0001E619DC
:103868000001E711D8A403D098EC2BF002D0B0ECFB
:103878002BF0000E2B6E000E2A6E1200170E0001A0
:10388800E6190001E711D8A405D0000E2B6E000E32
:103898002A6E1200C8EC2BF0000E2B6E000E2A6E5A
:1038A8001200000E766E010E756E000E2B6E010E64
:1038B8002A6E1200000E666E010E656E000E2B6EEB
:1038C800010E2A6E1200000E686E010E676E000E61
:1038D8002B6E010E2A6E1200000E646E010E636ECE
:1038E800000E2B6E010E2A6E1200000E2B6E010EBA
:1038F8002A6E12007D50310AD8B489D7030AD8B489
:1039080099D7010AD8B4BAD7720AD8B4CAD7030A61
:10391800D8B4D0D7010AD8B4D6D7070AD8B4DCD7D8
:10392800E4D70600FACF4DF0FBCF4EF0E9CF4FF0C9
:10393800EACF50F0E1CF51F0E2CF52F0D9CF53F0B7
:10394800DACF54F0F3CF55F0F4CF56F0F6CF57F066
:10395800F7CF58F0F8CF59F0F5CF5AF0F0A034D09F
:10396800F09081380F0B0F0B4B6E4C6A8B0E4B246B
:10397800F66EFA0E4C20F76EF86A000EF822080070
:10398800F5CF7DF02A0E7D18D8B40DD018D0030ECF
:1039980007D0000E0001FC6FF3EC2CF015D0020EDE
:1039A8000001FC6F11D00001FC51000AD8B4EFD718
:1039B800010AD8B4F4D7020AD8B4EBD705D000016D
:1039C800FC51D8B4C6EC17F0F2A40CD0F294000164
:1039D800FC05D8A407D026EC19F0850ED76EEE0E9C
:1039E800D66ED58E9EA028D09E90CD900001FC0565
:1039F800D8A422D077507810D8B40AD08B82000E81
:103A0800786E000E776E5BC0CFFF5DC0CEFF0DD025
:103A18008B92000E786E010E776E5B500008200FB7
:103A2800CF6E5D500008200FCE6ECD800A0E6D2639
:103A3800000E6E228AEC1DF09EA226D09E92CA9499
:103A4800734A742A0001FC05D8A41ED079507A1054
:103A5800D8B40AD0020E73187410D8A405D08A8678
:103A6800000E7A6E000E08D079507A10D8A409D0CA
:103A78008A96000E7A6E010E796E000E746E000E34
:103A8800736EC3EC2AF0CA84A1A222D0A192B1908D
:103A98000001FC05D8A41CD07B507C10D8B40AD0F7
:103AA8008B84000E7C6E000E7B6E5FC0B3FF61C01E
:103AB800B2FF0DD08B94000E7C6E010E7B6E5F50B2
:103AC8000008200FB36E61500008200FB26EB1805D
:103AD8005AC0F5FF59C0F8FF58C0F7FF57C0F6FFA6
:103AE80056C0F4FF55C0F3FF54C0DAFF53C0D9FFE6
:103AF80052C0E2FF51C0E1FF50C0EAFF4FC0E9FFEA
:103B08004EC0FBFF4DC0FAFF7E9211006F506D5CF6
:103B18006E50800A096E7050800A0958D8A01200A9
:103B280069506A10D8A436D05FD0040E026EEC0E2D
:103B3800016E000E046E030E036E4BEC28F025D0C8
:103B4800020E706EBC0E6F6E4AD0040E026EEC0E42
:103B5800016E000E046E030E036E4BEC28F015D0B8
:103B6800050E026E6E0E016E000E046E030E036EDD
:103B78004BEC28F00AD0050E026E6E0E016E000E98
:103B8800046E030E036E4BEC28F0000E6E6E000EF2
:103B98006D6ED6D76BC009F06CC00AF00A50010AE6
:103BA800D8B40AD0020AD8B40CD0050AD8B40ED0BA
:103BB8000F0AD8B410D013D00950F40AD8B4B5D726
:103BC8000ED00950520AD8B4C0D709D00950860A75
:103BD800D8B4C6D704D00950600AD8B4CCD7000EE0
:103BE8006A6E000E696E1200B00E6B185AE1040E70
:103BF8006C18D8A456D0000E6E6E000E6D6E1200B2
:103C0800040E026E1A0E016E000E046E030E036E91
:103C18004BEC28F0000E6E6E000E6D6E020E706E8C
:103C2800EE0E6F6E1200040E026E1A0E016E000E7A
:103C3800046E030E036E4BEC28F0000E6E6E000E41
:103C48006D6E020E706EEE0E6F6E1200040E026E36
:103C5800B00E016E000E046E010E036E4BEC28F0E0
:103C6800040E026E1A0E016E000E046E030E036E31
:103C78004BEC28F0000E6E6E000E6D6E270E706E07
:103C88000F0E6F6E000E0101346F010E336F0001CD
:103C9800EC050001ED11D8A41200020E0001FC6F22
:103CA800120071C009F072C00AF00A50040AD8B4B0
:103CB80004D0010AD8A4120008D009501A0AD8B4AE
:103CC800C5D7F60AD8A412009BD709506E0AD8A403
:103CD8001200A9D7020EB4EC2CF0C350C4CFABF03D
:103CE8000001AC6BABC0ACF00001AB6B0001AB11D9
:103CF8000001AF6F0001AC510001B06F010EC9ECBB
:103D08002DF0680E0001AB6FE40EE82EFED7AB2F46
:103D1800FCD700F0800EC9EC2DF06D0E00018E6FFF
:103D2800FE0E00018F6FAFC090F0B0C091F08DEC27
:103D38000DF0C00EC9EC2DF01C0E00018E6FFB0EAD
:103D480000018F6F8DEC0DF0000E0001B26F010EB7
:103D5800B16F000E0001B46F000EB36F23D0020ED6
:103D6800B4EC2CF0C350C4CFABF00001AC6BABC0CB
:103D7800ACF00001AB6B0001AB110001AF6F0001AB
:103D8800AC510001B06F800EC9EC2DF06D0E000132
:103D98008E6FFE0E00018F6FAFC090F0B0C091F033
:103DA8008DEC0DF081A2DBD781380F0B0F0AD8B448
:103DB800120081380F0BE806D8A416D00001B351C1
:103DC8000001B411D8B407D0898606D0010E0001CD
:103DD800B36FB46B5FD089960001B3510001B41181
:103DE800D8B4F4D7000EF3D70001B1510001B211D5
:103DF800D8B407D08B8023D0010E0001B16FB26B0D
:103E080049D0000E0001AE6F000EAD6F0001AEBFCD
:103E180008D0880E0001AD5D130E0001AE59D8B070
:103E28000DD08B801A0EE82EFED700D08B90F00EA6
:103E3800E82EFED70001AD4BAE2BE8D78B900001E2
:103E4800B1510001B211D8B4D7D7000ED6D7020E9F
:103E5800B4EC2CF0C350C4CFABF00001AC6BABC0DA
:103E6800ACF00001AB6B0001AB110001AF6F0001BA
:103E7800AC510001B06F800EC9EC2DF06D0E000141
:103E88008E6FFE0E00018F6FAFC090F0B0C091F042
:103E98008DEC0DF081A286D7DAD7000E0001816F74
:103EA800000E806F8CEC2DF00001FD6F0001FD51BC
:103EB8000B0D010EF3240001B96F000EF420000170
:103EC800BA6F030E0001FD610ED00001FD2900014B
:103ED800B16F000E0001AC6F000EAB6FB1C0ADF05A
:103EE8000EEC22F00AD0000E0001AC6F000EAB6F92
:103EF800000E0001AD6F0EEC22F00001FE518009AA
:103F08000001B26FB9C0ABF0BAC0ACF0B2C0ADF04E
:103F18000EEC22F00001B94BBA2B01012739F00B46
:103F2800010129110001B36FB9C0ABF0BAC0ACF000
:103F3800B3C0ADF00EEC22F00001B94BBA2B010171
:103F48002539F00B010123110001B46FB9C0ABF0A2
:103F5800BAC0ACF0B4C0ADF00EEC22F00001B94B21
:103F6800BA2B000E0001B86F000EB76F0001B8BF82
:103F780008D00001B85128E1070E0001B75DD8B09C
:103F880023D0D8900001B735D96E0001B835DA6E64
:103F98000E0ED926010EDA22DF500001B56FB9C026
:103FA800ABF0BAC0ACF0B5C0ADF00EEC22F0000139
:103FB800B94BBA2B0001B74BB82B0001B8BFE1D7FA
:103FC8000001B85101E1D8D7FAC0B6F0B9C0ABF0DA
:103FD800BAC0ACF0B6C0ADF00EEC22F0120007C0CB
:103FE80001F008C002F0000E046E0B0E036E07EC21
:103FF8002DF0010E0124106E000E0220116E10C06B
:1040080001F011C002F0A3EC2DF00B6E0BC009F00B
:10401800800E091609500001F26FF36B0BC009F00E
:104028000F0E091609500101436F446B104A112AFB
:1040380010C001F011C002F0A3EC2DF00C6E0CC002
:1040480009F0093A0F0E09160F0E0916095000015A
:10405800F46FF56B0CC009F00F0E09160950010139
:10406800416F426B104A112A10C001F011C002F0D2
:10407800A3EC2DF00D6E0DC009F0093A0F0E0916CC
:104088000F0E0916095001013F6F406B0DC009F072
:104098000F0E0916095001013D6F3E6B104A112A97
:1040A800000E0F6E000E0E6E0FBE06D00F501EE1F2
:1040B800070E0E5CD8B01AD010C001F011C002F083
:1040C800A3EC2DF0096E0A6AD8900E34D96E0F341D
:1040D800DA6E000ED926010EDA2209C0DEFF0AC008
:1040E800DDFF104A112A0E4A0F2ADED710C001F050
:1040F80011C002F0A3EC2DF0096E09500001F66F13
:10410800F76B1200000183510001D8B408D00001F8
:1041180080510001811100018211D8A411D0000E34
:104128000001806F000E0001816F000E0001826F98
:1041380012000001832B0001D89082338133803331
:10414800000E000180150001856F000E0001811529
:104158000001866FFE0E000182150001876F0001C5
:1041680085510001861100018711D8B411D0E1D71B
:104178000001832B010E00018027000E000181231E
:10418800000E000182230001D890823381338033EE
:10419800000E000180150001856F000E00018115D9
:1041A8000001866FFF0E000182150001876F000174
:1041B80085510001861100018711D8B408D0D8D7DD
:1041C800000183070001D8908037813782370001CA
:1041D80081BF04D0020E00018361F2D7000183B1D0
:1041E80002D00001819F0001D890833300018351E0
:1041F80000018213000184510001D8B402D00001EB
:10420800828F80C080F081C081F082C082F012006D
:104218007CD0010EC9EC2DF0680E0001C66FE40ECB
:10422800E82EFED7C62FFCD700F0800EC9EC2DF083
:10423800740E00018E6FFC0E00018F6F8DEC0DF077
:10424800C00EC9EC2DF0850E00018E6FFC0E00012A
:104258008F6F8DEC0DF081A2FED781CFC6F00001E3
:10426800C63B0F0EC6170001C6510101476F486BC8
:104278000101474B482B81A21FD0FDD7F3EC22F058
:1042880044D0E2EC14F041D06DEC04F03ED08FEC59
:1042980021F03BD040EC29F038D072EC26F035D034
:1042A80012EC29F032D057EC13F02FD0A9EC0FF014
:1042B8002CD06EEC1EF029D047C1C6F048C1C7F01B
:1042C8000001C751000AD8A420D00001C651010A34
:1042D800D8B4D4D7030AD8B4D4D7010AD8B4D4D719
:1042E800070AD8B4D4D7010AD8B4D4D7030AD8B4A3
:1042F800D4D7010AD8B4D4D70F0AD8B4D4D7020A6D
:10430800D8B4D4D7010AD8B4D4D7030E0001FC1905
:10431800D8A412007ED7010EC9EC2DF0680E00015A
:10432800AB6FE40EE82EFED7AB2FFCD700F0800E63
:10433800C9EC2DF0DB0E00018E6FFB0E00018F6FB4
:104348008DEC0DF0C00EC9EC2DF0960E00018E6FAD
:10435800FC0E00018F6F8DEC0DF0F28E010E000146
:10436800FC6F000E0001EB6F020EEA6F000E746E18
:10437800000E736E8A86CA84000E7A6E000E796EFD
:10438800000E0001AD6F000EAC6F0001AC510001D2
:10439800AD11D8B41CD00001AC510001AD11D8A4A6
:1043A80002D0010E01D0000E0001AC6FAD6B05D03C
:1043B800000E0001EB6F000EEA6F81A2F9D7813879
:1043C8000F0B0F0AD8B41FD081A2DFD7FDD7000189
:1043D800AC510001AD11D8A402D0010E01D0000EDD
:1043E8000001AC6FAD6B05D0000E0001EB6F010E44
:1043F800EA6F81A2F9D781380F0B0F0AD8B403D01E
:1044080081A2C3D7FDD7F29E70EC2DF0030E0001F8
:10441800FC6F1200A6840001AC51AA6EABC0A9FFC4
:10442800ADC0A8FFA69EA69CF29E550EA76EAA0E2A
:10443800A76EA682F28EA1A8FED7A198A694000125
:10444800E8510001E911D8B41200010EC9EC2DF0B1
:10445800680E0001AE6FE40EE82EFED7AE2FFCD733
:1044680000F0800EC9EC2DF0ABC080F0ACC081F03C
:104478008CEC2DF00001AD19D8A424D0BE0E00019B
:104488008E6FFA0E00018F6FADC090F00001916B36
:10449800ABC092F0ACC093F08DEC0DF0000E0001B3
:1044A800AF6F630E0001AF6501D01200680E000106
:1044B800AE6FE40EE82EFED7AE2FFCD700F0000159
:1044C800AF2BEFD7BC0E00018E6FFF0E00018F6F70
:1044D8008DEC0DF0000E0001B06F630E0001B065A9
:1044E80001D01200680E0001AE6FE40EE82EFED770
:1044F800AE2FFCD700F00001B02BEFD701013151EE
:1045080001013211D8B41200000E0101346F000EFF
:10451800336F34D0010E0001816FF40E806F000EEE
:104528000001836F010E826FB4EC26F03ED0030EBB
:104538000001816F520E806F000E0001836F010E23
:10454800826FB4EC26F031D0060E0001816F860E22
:10455800806F000E0001836F010E826FB4EC26F0AD
:1045680024D0090E0001816F600E806F000E0001DB
:10457800836F010E826FB4EC26F017D02BC188F040
:104588002CC189F000018951000AD8A40ED000017D
:104598008851000AD8B4BED7010AD8B4C8D7030ACC
:1045A800D8B4D2D7010AD8B4DCD7040E0001816F81
:1045B8001A0E806F000E0001836F030E826FB4EC39
:1045C80026F0020E706EEE0E6F6E000E6A6E010E11
:1045D800696E000E0101326F000E316F1200010E7C
:1045E800C9EC2DF0680E0001AB6FE40EE82EFED783
:1045F800AB2FFCD700F0800EC9EC2DF0F40E0001B3
:104608008E6FFE0E00018F6F8DEC0DF0C00EC9ECA1
:104618002DF02D0E00018E6FFF0E00018F6F8DECB7
:104628000DF0050E0001AC6F0F0E0001AB6FF10E1F
:10463800E82EFED7AB2FFCD7AC2FFAD781A2FED736
:1046480081B2FED7010EC9EC2DF0680E0001AB6FE8
:10465800E40EE82EFED7AB2FFCD700F0800EC9EC95
:104668002DF0410E00018E6FFC0E00018F6F8DEC56
:104678000DF0110E00018E6FFF0E00018F6F8DEC93
:104688000DF0640E00018E6FFF0E00018F6F8DEC30
:104698000DF0D60E00018E6FFE0E00018F6F8DECAF
:1046A8000DF01F0E00018E6FFF0E00018F6F8DEC55
:1046B8000DF012007FEC28F05DEC2AF0000E0001EE
:1046C800E56F000EE46F0001E4510001E511D8B474
:1046D80016D0470E0001806F170E0001816F070E7C
:1046E8000001826F080E0001836F040E0001846FC1
:1046F800170E0001856F420E50EC2DF00BD0100EF6
:1047080000018D6F270E8E6F000E8F6F000E906F59
:10471800E2EC28F080EC2BF0000E0101386F010E5E
:10472800376F98EC2DF018D009EC00F015D03FEC5D
:104738002DF012D070EC2DF051EC1FF0000E01019D
:10474800386F010E376F09EC00F006D00CEC21F041
:1047580003D070EC2DF0FFD70001FC51000AD8B44B
:10476800E3D7010AD8B4E3D7030AD8B4E3D7010AD8
:10477800D8B4ECD7070AD8B4ECD7EED7000194AF79
:104788001DD092C098F093C099F094C09AF000019F
:10479800981F991F9A1F982B000E99239A23000E91
:1047A800000198250001926F000E00019921000177
:1047B800936F800E00019A210001946F000197AF5A
:1047C8001DD095C098F096C099F097C09AF0000156
:1047D800981F991F9A1F982B000E99239A23000E51
:1047E800000198250001956F000E00019921000134
:1047F800966F800E00019A210001976F000E00014C
:10480800921B000E0001931B800E0001941B000EEA
:104818000001951B000E0001961B800E0001971BDE
:10482800000195510001925D0001965100019359D4
:104838000001975100019459D8B002D0D8901200C5
:10484800D8801200000E0101386F000E376F000E7D
:104858000001EF6F000EEE6F000E0001ED6F000E0D
:10486800EC6F000E01012E6F010E2D6F000E01017D
:10487800306F000E2F6F000E0101326F000E316F86
:10488800000E0101346F010E336F000E0101366F07
:10489800000E356F000E0001FF6F000EFE6F000E58
:1048A8000101286F000E276F000E01012A6F000E0C
:1048B800296F000E0101266F000E256F000E010101
:1048C800246F000E236F030E0101466FE70E456F3C
:1048D800000E6E6E000E6D6E270E706E0F0E6F6EF0
:1048E800000E746E000E736E000E0001EB6F000E6A
:1048F800EA6F6B686C6871687268000E6A6E000E09
:10490800696E1200000E00018B6F000189AF08D09C
:104918000001886D891FD8B0892B010E00018B6FAB
:10492800000187AF08D00001866D871FD8B0872B9C
:10493800010E00018B1B000E00018D6F000E8C6FA5
:104948000001885100018911D8B42CD0010E000152
:104958008A6F06D00001D8908837893700018A2BE2
:10496800000189AFF7D70001D8908C378D37000147
:1049780088510001865D0001895100018759D8A03E
:104988000AD0000188510001865F000189510001A9
:10499800875B00018C810001D8908933883300013E
:1049A8008A2FE1D700018B510001D8B405D000014E
:1049B8008C6D8D1FD8B08D2B8CC086F08DC087F084
:1049C8001200000E0001886F000E896F000E8A6FBA
:1049D800000E8B6F000184510001851100018611C2
:1049E80000018711D8B442D0010E00018C6F08D0A5
:1049F8000001D890843785378637873700018C2B9C
:104A0800000187AFF5D70001D890883789378A37F2
:104A18008B37000184510001805D00018551000140
:104A28008159000186510001825900018751000116
:104A38008359D8A012D0000184510001805F000181
:104A480085510001815B000186510001825B0001F4
:104A580087510001835B000188810001D89087336A
:104A680086338533843300018C2FCDD788C080F0FE
:104A780089C081F08AC082F08BC083F012002FECCD
:104A880026F0000E0001896F000E886F000189BFB3
:104A980008D00001895140E1070E0001885DD8B0B7
:104AA8003BD01C0E00018825D96E010E000189211A
:104AB800DA6EDF500001856F0001853B0F0E851708
:104AC8000F0E00018517000185510A0D1C0E00010B
:104AD8008825D96E010E00018921DA6EDF500F0B8F
:104AE8000001866F876BF35000018627F4500001A0
:104AF8008723D89000018835D96E00018935DA6E90
:104B08000E0ED926010EDA2286C0DEFF87C0DDFF31
:104B18000001884B892BBAD7170ED56E850ED76E34
:104B2800EE0ED66ED58E1200000E0001856F0001C4
:104B380081AF08D00001806D811FD8B0812B010E94
:104B48000001856F000183AF05D00001826D831FCE
:104B5800D8B0832B0001825100018311D8B426D02C
:104B6800010E0001846F06D00001D8908237833788
:104B78000001842B000183AFF7D7000182510001A7
:104B8800805D0001835100018159D8A008D000013F
:104B980082510001805F000183510001815B0001A7
:104BA800D890833382330001842FE7D700018551E1
:104BB8000001D8B405D00001806D811FD8B0812BC9
:104BC80080C080F081C081F01200100E00018D6F4E
:104BD800270E8E6F000E8F6F000E906FE2EC28F09C
:104BE800F29EEFEC2DF0000E0001826FD00E816F67
:104BF800DDEC2DF0000E0001826F000E816FDDEC00
:104C08002DF0000E0001976F000E966F000197BF00
:104C180008D0000197511BE1070E0001965DD8B03E
:104C280016D01C0E00019625D96E010E00019721A1
:104C3800DA6EDF500001956F000195510001816F18
:104C4800826BDDEC2DF00001964B972BDFD7EBEC58
:104C58002DF0F28E1200EFEC2DF0000E0001826FA5
:104C6800D00E816FDDEC2DF0000E0001826F000E7A
:104C7800816FDDEC2DF0EBEC2DF0EFEC2DF0000E5C
:104C88000001826FD10E816FDDEC2DF0000E000166
:104C9800846F000E836F000184BF08D00001845127
:104CA80015E1060E0001835DD8B010D01C0E00017E
:104CB8008325D96E010E00018421DA6E010E70EC95
:104CC8002CF0DF6E0001834B842BE5D7000E70ECCF
:104CD8002CF00101226FEBEC2DF01200010EC9EC53
:104CE8002DF0680E0001AB6FE40EE82EFED7AB2F57
:104CF800FCD700F0800EC9EC2DF00A0E00018E6F73
:104D0800FB0E00018F6F8DEC0DF0C00EC9EC2DF07D
:104D1800F80E00018E6FFA0E00018F6F8DEC0DF00A
:104D280081A2FED781380F0B0F0AD8B4120014D015
:104D38008A84340E0001AB6FF10EE82EFED7AB2F3C
:104D4800FCD700D08A94340E0001AB6FF10EE82E28
:104D5800FED7AB2FFCD700D081B2EAD78A94E0D730
:104D680080C084F081C085F00001841F851F844BBA
:104D7800852BFF0E000184250001866FFF0E0001C0
:104D880085210001876F19D0000187515B6E5C6A2D
:104D9800000186515D6E5E6A80C06BF081C06CF068
:104DA800000187515F6E606A00018651616E626A18
:104DB80080C071F081C072F0120082C084F083C09C
:104DC80085F000018551000AD8A412000001845121
:104DD800010AD8B4D9D7020AD8A41200E1D7040E20
:104DE8000001816FB00E806F000E0001836F010E0D
:104DF800826FB4EC26F0040E0001816F1A0E806FEA
:104E0800000E0001836F030E826FB4EC26F0CD8094
:104E1800000E786E000E776E340E0001886FF10E6A
:104E2800E82EFED7882FFCD700D0B180000E7C6E0C
:104E3800000E7B6E0B0E0001886F620EE82EFED707
:104E4800882FFCD700F08A96CA84000E7A6E000E6E
:104E5800796E8B801200000E0001856F000E846F42
:104E68000001825100018311D8B42CD0010E000139
:104E7800866F06D00001D890823783370001862BD1
:104E8800000183AFF7D70001D89084378537000138
:104E980082510001805D0001835100018159D8A031
:104EA8000AD0000182510001805F00018351000196
:104EB800815B000184810001D89083338233000133
:104EC800862FE1D784C080F085C081F01200EBEC1A
:104ED80029F0000E0001886F000E876F000188BF5F
:104EE80008D0000188511AE1960E0001875DD8B0FC
:104EF80015D0060E0001866F300EE82EFED7862FDD
:104F0800FCD700F0EBEC29F00001E0510001E111C1
:104F1800D8B404D00001874B882BE0D70001E00506
:104F28000001E111D8A406D0000E0001EF6F010EB8
:104F3800EE6F1200000E0001EF6F000EEE6F120010
:104F4800F7EC2DF0000E036ED00E026EE2EC2DF0A1
:104F5800000E036E000E026EE2EC2DF0F3EC2DF065
:104F6800F7EC2DF0000E036ED10E026EE2EC2DF080
:104F7800000E056E000E046E05BE06D0055011E148
:104F8800060E045CD8B00DD01C0E0424D96E010E98
:104F98000520DA6E010E1AEC2DF0DF6E044A052AA0
:104FA800EBD7000E1AEC2DF00101226FF3EC2DF077
:104FB8001200000E066E02AE06D0016C021ED8B0BA
:104FC800022A010E066E04AE04D0036C041ED8B08B
:104FD800042A03500410D8B418D0010E056E04D06A
:104FE800D89003360436052A04AEFAD70350015C7C
:104FF80004500258D8A004D00350015E0450025A4D
:10500800D89004320332052EF1D70650D8B404D014
:10501800016C021ED8B0022A01C001F002C002F0E1
:1050280012000001816FF29E00018151F00B000116
:10503800806F8C500F0B8C6E000180518C108C6E21
:105048008C86420EE82EFED700D08C96420EE82EB3
:10505800FED700D000018139F00B0001816F0001FB
:105068008151F00B0001806F8C500F0B8C6E00018A
:1050780080518C108C6E8C86420EE82EFED700D0A4
:105088008C96420EE82EFED700D0F28E120001C098
:1050980005F002C006F0051E061E054A062AFF0E88
:1050A8000524076EFF0E0620086E15D008505B6EAB
:1050B8005C6A07505D6E5E6A01C06BF002C06CF0FE
:1050C80008505F6E606A0750616E626A01C071F0D5
:1050D80002C072F0120003C005F004C006F00650CA
:1050E800000AD8A412000550010AD8B4DFD7020A72
:1050F800D8A41200E5D7F00ED36E9B8C070E926EE3
:10510800F20E936E000E946E000E956E000E966E63
:10511800000E896E000E8A6E000E8B6E000E8C6E6D
:10512800000E8D6EF19E000EC26E0C0EC16E000E4A
:10513800B56EB496B10EC06EF086F28A9D809D82DF
:10514800A082B00ECD6E7B0ECA6E220ECB6EB00E54
:10515800B16EF28C9D9CF29E1200000189510001F3
:105168008A11D8B426D0010E00018B6F06D0000139
:10517800D89089378A3700018B2B00018AAFF7D77F
:10518800000189510001875D00018A510001885999
:10519800D8A008D0000189510001875F00018A5119
:1051A8000001885B0001D8908A33893300018B2F76
:1051B800E7D787C087F088C088F01200000EC76E56
:1051C800280EC66E000EC56E000E0001806F480ED8
:1051D800816FE80E826F010E836F8DC091F08EC0D3
:1051E80092F08FC093F090C094F0020ED890000116
:1051F8009137923793379437E82EF8D791C084F0D7
:1052080092C085F093C086F094C087F0E5EC24F056
:1052180000018005C86E948694881200010EC9ECBE
:105228002DF0680E0001AB6FE40EE82EFED7AB2F11
:10523800FCD700F0800EC9EC2DF0E60E00018E6F51
:10524800FA0E00018F6F8DEC0DF0C00EC9EC2DF039
:105258002E0E00018E6FFB0E00018F6F8DEC0DF08E
:1052680081A2FED781380F0B0F0AD8B412008988A3
:1052780081B2FED78998F4D7010EC9EC2DF0680EDB
:105288000001AB6FE40EE82EFED7AB2FFCD700F081
:10529800800EC9EC2DF0E60E00018E6FFA0E0001AB
:1052A8008F6F8DEC0DF0C00EC9EC2DF0CA0E000109
:1052B8008E6FFB0E00018F6F8DEC0DF081A2FED773
:1052C80081380F0B0F0AD8B412008A8481B2FED736
:1052D8008A94F4D7026EF29E0250F00B016E8C5045
:1052E8000F0B8C6E01508C108C6E8C86420EE82E43
:1052F800FED700D08C96420EE82EFED700D002389A
:10530800F00B026E0250F00B016E8C500F0B8C6E7E
:1053180001508C108C6E8C86420EE82EFED700D081
:105328008C96420EE82EFED700D0F28E1200000EA8
:105338000B6E000E0A6E08500910D8B41CD0010E6E
:105348000C6E04D0D890083609360C2A09AEFAD764
:10535800D8900A360B360850065C09500758D8A072
:1053680005D00850065E0950075A0A80D8900932BD
:1053780008320C2EEDD70AC006F00BC007F0120059
:10538800CE0EF66E5B0EF76E000EF86E01EE49F06B
:1053980010EE08F00900F5CFEEFFE550E150FAE114
:1053A80001EE00F0490EEE6AE806FDE100EEDAF0E3
:1053B800260EEE6AE806FDE100EE5BF0230EEE6ACB
:1053C800E806FDE17E907E9200015EEF23F0000E7C
:1053D800B4EC2CF0C350C4CF82F00001836B82C0C0
:1053E80083F00001826B000182110001846F0001CB
:1053F80083510001856F000185BF0AD0210E00018D
:10540800845D030E00018559D8A002D0010E01D099
:10541800000E0001E06FE16B1200020EB4EC2CF0FC
:10542800C350C4CF82F00001836B82C083F00001B7
:10543800826B000182110001846F00018351000119
:10544800856F000185BF0AD02D0E0001845D010E15
:1054580000018559D8A002D0010E01D0000E00012C
:10546800DE6FDF6B1200010EB4EC2CF0C350C4CF1A
:1054780082F00001836B82C083F00001826B00011F
:1054880082110001846F000183510001856F0001C2
:1054980085BF08D00001855107E1960E0001845DA3
:1054A800D8B002D0010E01D0000E0001E26FE36B0C
:1054B80012009C0E0001836FD70EE82EFED7832FB3
:1054C800FCD7330EC9EC2DF0320EC9EC2DF0280EA6
:1054D800C9EC2DF00C0EC9EC2DF0060EC9EC2DF020
:1054E800010EC9EC2DF09C0E0001836FD70EE82E3B
:1054F800FED7832FFCD71200000E0001916F000128
:105508008FAF08D000018E6D8F1FD8B08F2B010E82
:105518000001916F8EC080F08FC081F00001826B16
:105528008E0E0001836F91C084F086EC20F080C05D
:105538008EF081C08FF082C090F0120003500410EA
:10554800D8B418D0010E056E04D0D89003360436AE
:10555800052A04AEFAD70350015C04500258D8A0BB
:1055680004D00350015E0450025AD890043203322A
:10557800052EF1D701C001F002C002F012007950E7
:105588007A10D8B407D016D0200ECB6E1200400E79
:10559800CB6E1200EAC001F0EBC002F00250000A24
:1055A800D8A412000150000AD8B4EED7010AD8A432
:1055B8001200EDD7CB681200000E0001E76F160E3F
:1055C800E66F800EC9EC2DF0B70E00018E6FFD0E50
:1055D80000018F6F8DEC0DF0C00EC9EC2DF0FC0EA4
:1055E80000018E6FFC0E00018F6F8DEC0DF0120024
:1055F800000E0001E76F0C0EE66F800EC9EC2DF06F
:105608001E0E00018E6FFD0E00018F6F8DEC0DF0E8
:10561800C00EC9EC2DF0B70E00018E6FFD0E000113
:105628008F6F8DEC0DF0120080C084F081C085F082
:1056380006D00001844B852B0001824B832B82C04E
:10564800F6FF83C0F7FFF86A84C0D9FF85C0DAFF88
:105658000800F5CFDFFFDF50D8B41200EAD7000109
:10566800805100018203F3CF84F0F4CF85F000016C
:10567800805100018303F350000185270001815107
:1056880000018203F3500001852784C080F085C0A3
:1056980081F0120037EC2AF00001E2050001E31165
:1056A800D8A41200150E0001876F4B0E0001866FFB
:1056B800BE0EE82EFED7862FFCD7872FFAD700F02C
:1056C80037EC2AF0120001C005F002C006F004D041
:1056D800054A062A034A042A03C0F6FF04C0F7FF56
:1056E800F86A05C0D9FF06C0DAFF0800F5CFDFFF6A
:1056F800DF50D8B41200ECD7F28E000E0001FC6F18
:10570800000E0001F96F000EF86F0001E45100016E
:10571800E511D8A4E9EC25F09EEC2CF0000E01016F
:105728003A6F010E396F1200000E0001E76F160E76
:10573800E66F800ED7EC2DF0B70E0D6EFD0E0E6ED7
:10574800A0EC11F0C00ED7EC2DF0FC0E0D6EFC0E87
:105758000E6EA0EC11F01200000E0001E76F0C0EA7
:10576800E66F800ED7EC2DF01E0E0D6EFD0E0E6E40
:10577800A0EC11F0C00ED7EC2DF0B70E0D6EFD0E9B
:105788000E6EA0EC11F01200000E0001E76F170E6C
:10579800E66F800ED7EC2DF00D0E0D6EFD0E0E6E21
:1057A800A0EC11F0C00ED7EC2DF0A60E0D6EFD0E7C
:1057B8000E6EA0EC11F01200000E0001E76F0B0E48
:1057C800E66F800ED7EC2DF0C80E0D6EFD0E0E6E36
:1057D800A0EC11F0C00ED7EC2DF00D0E0D6EFD0EE5
:1057E8000E6EA0EC11F01200040E0001E76F0A0E15
:1057F800E66F800ED7EC2DF0DA0E0D6EFC0E0E6EF5
:10580800A0EC11F0C00ED7EC2DF0950E0D6EFD0E2C
:105818000E6EA0EC11F01200040E0001E76F090EE5
:10582800E66F800ED7EC2DF0840E0D6EFD0E0E6E19
:10583800A0EC11F0C00ED7EC2DF0EB0E0D6EFC0EA7
:105848000E6EA0EC11F01200030E0001E76FFE0EC1
:10585800E66F800ED7EC2DF0730E0D6EFD0E0E6EFA
:10586800A0EC11F0C00ED7EC2DF0DA0E0D6EFC0E88
:105878000E6EA0EC11F01200030E0001E76FF40E9B
:10588800E66F800ED7EC2DF0B80E0D6EFC0E0E6E86
:10589800A0EC11F0C00ED7EC2DF0730E0D6EFD0EBE
:1058A8000E6EA0EC11F01200030E0001E76FF30E6C
:1058B800E66F800ED7EC2DF0620E0D6EFD0E0E6EAB
:1058C800A0EC11F0C00ED7EC2DF0C90E0D6EFC0E39
:1058D8000E6EA0EC11F012000001816FAEEC2DF0FD
:1058E800C586AEEC2DF0C9CF82F0AEEC2DF00001EC
:1058F80081510001D8A402D0C58A01D0C59AC588B3
:10590800000182511200030E0001E76FE669800E64
:10591800D7EC2DF0C90E0D6EFC0E0E6EA0EC11F03A
:10592800C00ED7EC2DF0840E0D6EFD0E0E6EA0ECA1
:1059380011F01200000E0001E76F000EE66F800EF6
:10594800C9EC2DF061EC16F0C00EC9EC2DF0EA0E92
:1059580000018E6FFD0E00018F6F8DEC0DF01200AF
:105968000001816F00018145E846FC0BC26EC280D0
:10597800C28209D0340E0001806FF10EE82EFED7E6
:10598800802FFCD700D0C2A21200F4D70001826F8A
:10599800000E0001816F3A0E0001826107D02F0EC0
:1059A8000001826503D0010E0001816F81C080F083
:1059B8000001803112000001816F0BD000018107C6
:1059C8000B0E0001806F470EE82EFED7802FFCD704
:1059D80000D0000181510001D8B41200EFD7000EA9
:1059E8000001E76F000EE66F800ED7EC2DF084EC17
:1059F8001AF0C00ED7EC2DF0EA0E0D6EFD0E0E6EED
:105A0800A0EC11F0120001500302F3CF05F0F4CF1F
:105A180006F001500402F350062602500302F35028
:105A2800062605C001F006C002F01200026EB8ECAE
:105A38002DF0C586B8EC2DF0C9CF03F0B8EC2DF0E9
:105A48000250D8A402D0C58A01D0C59AC58803508F
:105A58001200000E0001F96F010EF86F12C0F0F08D
:105A680013C0F1F0FF0E1224076EFF0E1320086E0C
:105A7800F3EC1FF012000001FC05D8B4C9EC08F0E3
:105A88000001FC05D8B462EC0BF00001FC05D8A4B9
:105A9800120082EC22F012000001866F86C01CF111
:105AA80080C01DF181C01EF182C01FF183C020F1AA
:105AB80084C021F185C022F11200036E000E026E2F
:105AC8003A0E036005D02F0E036402D0010E026E59
:105AD80002C001F001301200000E896E000E8A6EBD
