:0400000007EF00F016
:100008007C8233ED0CF05EEF10F0020E0001F9195E
:10001800D8A471D0010ED2EC15F0680E0001C46F9F
:10002800E40EE82EFED7C42FFCD700F0800ED2ECE9
:1000380015F0BA0E00018E6FFE0E00018F6FBBEC3B
:1000480002F0C00ED2EC15F00E0E0001836F100EF8
:10005800826FF7C080F0F8C081F083EC0FF080C0A9
:10006800C5F081C0C6F0E80E00018E6FFD0E0001DC
:100078008F6F000E0001916F000E906F0E0E000141
:10008800836F100E826FF7C080F0F8C081F083ECA8
:100098000FF080C086F081C087F0000E0001896FE4
:1000A8003C0E886F16EC0EF086C092F087C093F075
:1000B800C5C080F0C6C081F0000E0001836F3C0E01
:1000C800826F83EC0FF080C094F081C095F0BBEC98
:1000D80002F0000E0001F96F81A2FED70C0E00019C
:1000E800E9190001EA11D8A403D06FEC13F038D253
:1000F80053EC13F035D20001E9510001EA11D8A4FC
:100108002FD2000E0001C76F630E0001C76501D032
:100118000CD0680E0001C46FE40EE82EFED7C42F81
:10012800FCD700F00001C72BEFD70001E95100010F
:10013800EA11D8A415D263EC06F012D2010ED2EC63
:1001480015F0680E0001C46FE40EE82EFED7C42F28
:10015800FCD700F0800ED2EC15F0FD0E00018E6F7A
:10016800FD0E00018F6FF3C090F0F4C091F0BBEC6E
:1001780002F0C00ED2EC15F0860E00018E6FFF0E55
:1001880000018F6FBBEC02F0000E0001C86F630E18
:100198000001C86501D00CD0680E0001C46FE40EE0
:1001A800E82EFED7C42FFCD700F00001C82BEFD7EC
:1001B8000001F5510001F611D8B41200000E00013B
:1001C800C96F630E0001C96501D00CD0680E00012B
:1001D800C46FE40EE82EFED7C42FFCD700F0000150
:1001E800C92BEFD70001F5510001F611D8B4120060
:1001F800010ED2EC15F0680E0001C46FE40EE82E73
:10020800FED7C42FFCD700F0800ED2EC15F0C40E38
:1002180000018E6FFF0E00018F6FBBEC02F0C00E65
:10022800D2EC15F0FE0E00018E6FFE0E00018F6FEE
:10023800BBEC02F0000E0001CA6F630E0001CA6534
:1002480001D00CD0680E0001C46FE40EE82EFED772
:10025800C42FFCD700F00001CA2BEFD70001F551DD
:100268000001F611D8B41200000E0001CB6F630E26
:100278000001CB6501D00CD0680E0001C46FE40EFC
:10028800E82EFED7C42FFCD700F00001CB2BEFD708
:100298000001F5510001F611D8B41200010ED2EC9C
:1002A80015F0680E0001C46FE40EE82EFED7C42FC7
:1002B800FCD700F0800ED2EC15F0B30E00018E6F63
:1002C800FF0E00018F6FBBEC02F0C00ED2EC15F0F0
:1002D8000F0E00018E6FFE0E00018F6F000E0001E1
:1002E800916F020E906F000E0001936F2A0E926FAD
:1002F800BBEC02F0000E0001CC6F630E0001CC6570
:1003080001D00CD0680E0001C46FE40EE82EFED7B1
:10031800C42FFCD700F00001CC2BEFD70001F5511A
:100328000001F611D8B41200000E0001CD6F630E63
:100338000001CD6501D00CD0680E0001C46FE40E39
:10034800E82EFED7C42FFCD700F00001CD2BEFD745
:100358000001F5510001F611D8B41200010ED2ECDB
:1003680015F0680E0001C46FE40EE82EFED7C42F06
:10037800FCD700F0800ED2EC15F0980E00018E6FBD
:10038800FE0E00018F6FBBEC02F0C00ED2EC15F030
:10039800DC0E00018E6FFE0E00018F6FBBEC02F0C9
:1003A800000E0001CE6F630E0001CE6501D00CD0A7
:1003B800680E0001C46FE40EE82EFED7C42FFCD7E8
:1003C80000F00001CE2BEFD70001F5510001F61126
:1003D800D8B41200000E0001CF6F630E0001CF6584
:1003E80001D00CD0680E0001C46FE40EE82EFED7D1
:1003F800C42FFCD700F00001CF2BEFD70001F55137
:100408000001F611D8B41200010ED2EC15F0680EF6
:100418000001C46FE40EE82EFED7C42FFCD700F00D
:10042800800ED2EC15F0A90E00018E6FFE0E0001B1
:100438008F6FBBEC02F0C00ED2EC15F0ED0E000190
:100448008E6FFE0E00018F6FBBEC02F0000E0001F4
:10045800D06F630E0001D06501D00CD0680E00018A
:10046800C46FE40EE82EFED7C42FFCD700F00001BD
:10047800D02BEFD70001F5510001F611D8B41200C6
:10048800000E0001D16F630E0001D16501D00CD0C0
:10049800680E0001C46FE40EE82EFED7C42FFCD707
:1004A80000F00001D12BEFD70001F5510001F61142
:1004B800D8B41200010ED2EC15F0680E0001C46F1A
:1004C800E40EE82EFED7C42FFCD700F0800ED2EC45
:1004D80015F0CB0E00018E6FFE0E00018F6FBBEC86
:1004E80002F0C00ED2EC15F0FB0E00018E6FFF0E6D
:1004F80000018F6FBBEC02F0000E0001D26F630E9B
:100508000001D26501D00CD0680E0001C46FE40E62
:10051800E82EFED7C42FFCD700F00001D22BEFD76E
:100528000001F5510001F611D8B41200000E0001C7
:10053800D36F630E0001D36501D00CD0680E0001A3
:10054800C46FE40EE82EFED7C42FFCD700F00001DC
:10055800D32BEFD70001F5510001F611D8B41200E2
:100568000001F5510001F611D8B41200E7D5900E3C
:1005780000019F6F000E0001A06FEED1250E000153
:10058800A819D8B405D00001A851CAEC15F0E4D1D7
:10059800000E0001AA6F000EA96F000E0001A76FE0
:1005A80005D00001A78500018E4B8F2B8EC0F6FF6A
:1005B8008FC0F7FFF86A0800F550300AD8B4F1D7B1
:1005C8008EC0F6FF8FC0F7FFF86A0800F5500CECF4
:1005D80015F0D8A0CFD0000E0001AA6F000EA96FA9
:1005E800A9C080F0AAC081F0000E0001836F0A0E36
:1005F800826FA6EC13F080C0A9F081C0AAF0D00EDB
:1006080000019A6FFF0E00019B6F8EC0F6FF8FC02E
:10061800F7FFF86A0800F55000019C6F9D6B000118
:100628009A5100019C2700019B5100019D23000164
:100638009C510001A92700019D510001AA23000136
:100648008E4B8F2B8EC0F6FF8FC0F7FFF86A08001D
:10065800F5500CEC15F0D8A08DD0C2D79FC0D9FFAB
:10066800A0C0DAFFDECFA1F0DDCFA2F0020E0001BC
:100678009F27000EA0230001A1510001A211D8A4B8
:1006880006D0BD0E0001A16FFF0E0001A26F000E83
:100698000001A66F000EA56F03D00001A54BA62B85
:1006A8000001A5510001A12500019A6F0001A65182
:1006B8000001A22100019B6F9AC0F6FF9BC0F7FFC3
:1006C800000EF86E0F0EF76403D00800F55005D041
:1006D800F6CFE9FFF7CFEAFFEF500009D8A4DDD73E
:1006E8000001A9510001A55D0001AA510001A65908
:1006F800D8B009D00001A5510001A95F0001A65199
:100708000001AA5B09D0000E0001AA6F000EA96FB4
:1007180003D0200ECAEC15F00001A907D8A0AA073B
:100728000001A929F6E10001AA29D8B417D0F1D708
:10073800A1C0F6FFA2C0F7FF000EF86E0F0EF76417
:1007480003D00800F55005D0F6CFE9FFF7CFEAFF50
:10075800EF50CAEC15F00001A14BA22B0001A50730
:10076800D8A0A6070001A529E3E10001A629D8B46D
:10077800F3D0DED78EC0F6FF8FC0F7FF00018E4B97
:100788008F2BF86A0800F5CFA8F00001A851000ADD
:10079800D8B41200640AD8B407D00D0AD8B404D06B
:1007A8001A0AD8B45BD7D8D09FC0D9FFA0C0DAFF47
:1007B800DECFA3F0DDCFA4F0020E00019F27000ECC
:1007C800A0230001A4AF08D0030E0001A713000165
:1007D800A36DA41FD8B0A42B010E0001A86F050EAD
:1007E8000001A819D8B419D00001A851020DC60EED
:1007F800F324F66EFD0EF420F76EF86A000EF82268
:100808000900F5500001A35D0900F5500001A45945
:10081800D8A003D00001A82BE2D70001A9510001FC
:10082800AA11D8B40BD0A7C09AF0030E00019A17EA
:10083800D8B404D00001A907D8A0AA07800E0001E7
:10084800A8BF7F0E00019A6F0001A9510001A85DA1
:100858000001AA51800A00019A59D8B00BD00001B2
:10086800A8510001A95F000E0001A8BFFF0E0001FA
:10087800AA5B05D0000E0001AA6F000EA96F000147
:10088800A7A518D0A7C09AF0030E00019A17D8B4EC
:1008980003D02D0ECAEC15F00001A9510001AA11D0
:1008A800D8B425D0300ECAEC15F00001A907D8A09D
:1008B800AA07F2D70001A9510001AA11D8B40DD096
:1008C800200ECAEC15F00001A907D8A0AA0700015C
:1008D800A9510001AA11D8A4F3D7A7C09AF0030E12
:1008E80000019A17D8B403D02D0ECAEC15F0A8C091
:1008F8009EF02CD000019E51020DC60EF324F66E18
:10090800FD0EF420F76EF86A000EF8220900F5CF04
:1009180082F00A00F5CF83F0A3C080F0A4C081F074
:10092800E4EC10F080C087F081C088F0000E000170
:100938008A6F0A0E896FC8EC11F000018751300FD9
:100948000001A86F0001A851CAEC15F000019E072C
:1009580000019E29D8A4CED78EC0F6FF8FC0F7FF1E
:1009680000018E4B8F2BF86A0800F5CFA8F0000124
:10097800A851D8B4120002D60F0E1E6E000E1F6EBC
:1009880090D1250E2718D8B404D02750DAEC15F0EA
:1009980088D1000E296E000E286E000E266E03D038
:1009A80026840D4A0E2A0DC0F6FF0EC0F7FFF86A1E
:1009B8000800F550300AD8B4F3D70DC0F6FF0EC0C2
:1009C800F7FFF86A0800F5507DEC15F0D8A0A4D020
:1009D800000E296E000E286E28C001F029C002F012
:1009E800000E046E0A0E036E35EC15F001C028F0F7
:1009F80002C029F0D00E196EFF0E1A6E0DC0F6FF58
:100A08000EC0F7FFF86A0800F5501B6E1C6A1950F3
:100A18001B261A501C221B5028261C5029220D4A1E
:100A28000E2A0DC0F6FF0EC0F7FFF86A0800F55051
:100A38007DEC15F0D8A070D0CFD71EC0D9FF1FC04D
:100A4800DAFFDECF20F0DDCF21F0020E1E26000EE9
:100A58001F2220502110D8A404D0BD0E206EFF0EF6
:100A6800216E000E256E000E246E02D0244A252A1F
:100A780024502024196E255021201A6E19C0F6FF23
:100A88001AC0F7FF000EF86E0F0EF76403D00800C7
:100A9800F55005D0F6CFE9FFF7CFEAFFEF50000990
:100AA800D8A4E4D72850245C29502558D8B005D0BC
:100AB8002450285E2550295A08D0000E296E000EB1
:100AC800286E03D0200EDAEC15F02806D8A02906E7
:100AD8002828F8E12928D8B416D0F4D720C0F6FF82
:100AE80021C0F7FF000EF86E0F0EF76403D0080060
:100AF800F55005D0F6CFE9FFF7CFEAFFEF50DAEC73
:100B080015F0204A212A2406D8A025062428E6E143
:100B18002528D8B4C6D0E2D70DC0F6FF0EC0F7FF1F
:100B28000D4A0E2AF86A0800F5CF27F02750000A68
:100B3800D8B41200640AD8B407D00D0AD8B404D0C7
:100B48001A0AD8B47AD7ADD01EC0D9FF1FC0DAFFB1
:100B5800DECF22F0DDCF23F0020E1E26000E1F226C
:100B680023AE06D0030E2612226C231ED8B0232AE9
:100B7800010E276E050E2718D8B415D02750020D80
:100B8800C60EF324F66EFD0EF420F76EF86A000E1A
:100B9800F8220900F550225C0900F5502358D8A026
:100BA80002D0272AE7D728502910D8B409D026C060
:100BB80019F0030E1916D8B403D02806D8A02906B0
:100BC800800E27BE7F0E196E2850275C2950800A98
:100BD8001958D8B007D02750285E000E27BEFF0E40
:100BE800295A04D0000E296E000E286E26A414D0AF
:100BF80026C019F0030E1916D8B403D02D0EDAEC5E
:100C080015F028502910D8B41ED0300EDAEC15F0A3
:100C18002806D8A02906F5D728502910D8B40AD014
:100C2800200EDAEC15F02806D8A02906285029103D
:100C3800D8A4F6D726C019F0030E1916D8B403D0D5
:100C48002D0EDAEC15F027C01DF027D01D50020D2F
:100C5800C60EF324F66EFD0EF420F76EF86A000E49
:100C6800F8220900F5CF08F00A00F5CF09F022C0F4
:100C780006F023C007F0ACEC12F006C001F007C084
:100C880002F0000E046E0A0E036EF8EC12F001502A
:100C9800300F276E2750DAEC15F01D061D28D8A452
:100CA800D5D70DC0F6FF0EC0F7FF0D4A0E2AF86A19
:100CB8000800F5CF27F02750D8B4120062D6A1EC6F
:100CC80010F00EC1BEF00FC1BFF010C1C0F011C1CD
:100CD800C1F0000E0001C36F000EC26F0001C3BF58
:100CE80008D00001C35146E1070E0001C25DD8B02B
:100CF80041D0DC0E0001C225D96E000E0001C321CF
:100D0800DA6EDF500001AB6F0001AB3B0F0EAB1783
:100D18000F0E0001AB170001AB510A0DDC0E0001EC
:100D2800C225D96E000E0001C321DA6EDF500F0B09
:100D38000001AC6FAD6BF3500001AC27F45000011B
:100D4800AD23D8900001C235D96E0001C335DA6EE3
:100D5800AE0ED926000EDA22ACC0DEFFADC0DDFF34
:100D68000001C24BC32B0001C3BFC3D70001C3514D
:100D780001E1BAD7B8C0BCF0B9C0BDF0B4D0BE0E5E
:100D88000001806F000E0001816FDB0E0001826F91
:100D9800FF0E0001836F8BEC13F0D4D0BE0E000160
:100DA800806F000E0001816FCB0E0001826FFF0E75
:100DB8000001836F8BEC13F0C5D0BE0E0001806F6D
:100DC800000E0001816FE70E0001826FFF0E000127
:100DD800836F8BEC13F0B6D0BE0E0001806F000E4F
:100DE8000001816FEB0E0001826FFF0E0001836F1F
:100DF8008BEC13F0A7D0BE0E0001806F000E00012F
:100E0800816FF70E0001826FFF0E0001836F8BEC7C
:100E180013F098D0BE0E0001806F000E0001816FA4
:100E2800DF0E0001826FFF0E0001836F8BEC13F061
:100E380089D0BE0E0001806F000E0001816FD70EB1
:100E48000001826FFF0E0001836F8BEC13F07AD0E4
:100E5800BE0E0001806F000E0001816FD30E0001ED
:100E6800826FFF0E0001836F8BEC13F06BD0BE0E08
:100E78000001806F000E0001816FE30E0001826F98
:100E8800FF0E0001836F8BEC13F05CD0BE0E0001E7
:100E9800806F000E0001816FEF0E0001826FFF0E60
:100EA8000001836F8BEC13F04DD0BE0E0001806FF4
:100EB800000E0001816FF30E0001826FFF0E00012A
:100EC800836F8BEC13F03ED0BE0E0001806F000ED6
:100ED8000001816FCF0E0001826FFF0E0001836F4A
:100EE8008BEC13F02FD0BCC0ABF0BDC0ACF0000150
:100EF800AC51000AD8A426D00001AB51010AD8B4DD
:100F08003ED7030AD8B44AD7010AD8B456D7070A35
:100F1800D8B462D7010AD8B46ED7030AD8B47AD73E
:100F2800010AD8B486D70F0AD8B492D7010AD8B420
:100F38009ED7030AD8B4AAD7010AD8B4B6D7070AE5
:100F4800D8B4C2D7800ED2EC15F0D00E00018E6F47
:100F5800FD0E00018F6FB6C090F0B7C091F0BE0EC5
:100F68000001926F000E0001936FB2C094F0B3C0FD
:100F780095F0B0C096F0B1C097F0AEC098F0AFC091
:100F880099F0BBEC02F01200000E766E000E756E42
:100F9800000E6E6E000E6D6E000E706E000E6F6E9F
:100FA800000E646E000E636EF29E40EC0BF02A5049
:100FB8002B10D8A412D146D122EC14F043D175508D
:100FC8007610D8B403D00AEC14F03CD16D506E10F2
:100FD800D8B403D0F2EC13F035D16F507010D8B4F8
:100FE80031D121EC15F02ED175507610D8B403D03C
:100FF80022EC14F027D16D506E10D8B411D00AEC41
:1010080014F020D175507610D8B403D022EC14F027
:1010180019D16D506E10D8B403D00AEC14F012D167
:101028006F507010D8B40ED1010E0001F96F0AD1BB
:1010380075507610D8B403D0DAEC13F003D16D50A4
:101048006E10D8B403D022EC14F0FCD06F5070109E
:10105800D8B4F8D09AEC14F0F5D075507610D8B40E
:1010680003D03AEC14F0EED06D506E10D8B403D023
:1010780082EC14F0E7D06F507010D8B407D0000E8F
:10108800026E010E016EAEEC15F0DCD063506410F8
:10109800D8B4D8D00AEC14F0D5D075507610D8B49E
:1010A80003D09AEC14F0CED06D506E10D8B403D0A3
:1010B800C9EC14F0C7D06F507010D8B407D0000E28
:1010C800026E020E016EAEEC15F0BCD063506410D7
:1010D800D8B4B8D00AEC14F0B5D075507610D8B49E
:1010E80003D09AEC14F0AED06D506E10D8B403D083
:1010F800C9EC14F0A7D06F507010D8B407D0000E08
:10110800026E020E016EAEEC15F09CD063506410B6
:10111800D8B498D00AEC14F095D075507610D8B49D
:1011280003D06AEC14F08ED06D506E10D8B403D092
:101138003AEC14F087D06F507010D8B407D0000E76
:10114800026E030E016EAEEC15F07CD06350641095
:10115800D8B478D00AEC14F075D075507610D8B49D
:1011680003D06AEC14F06ED06D506E10D8B403D072
:101178003AEC14F067D06F507010D8B407D0000E56
:10118800026E030E016EAEEC15F05CD06350641075
:10119800D8B458D00AEC14F055D075507610D8B49D
:1011A80003D052EC14F04ED06D506E10D8B403D06A
:1011B8009AEC14F047D06F507010D8B407D0000ED6
:1011C800026E040E016EAEEC15F03CD06350641054
:1011D800D8B438D00AEC14F035D0E9C043F0EAC0EE
:1011E80044F04450000AD8B407D0030AD8B415D044
:1011F800070AD8B420D026D04350000AD8B4DCD689
:101208000B0AD8B4DCD6070AD8B4EED61A0AD8B472
:10121800F9D6010AD8B40CD715D04350F30AD8B47C
:101228001CD7070AD8B439D70A0AD8B456D7010A3E
:10123800D8B473D707D04350090AD8B48ED7030A55
:10124800D8B4ABD7F28E12005BEC11F00EC13DF0B2
:101258000FC13EF010C13FF011C140F0000E426EC8
:10126800000E416E42BE06D0425035E1070E415C89
:10127800D8B031D0DC0E4124D96E000E4220DA6E8F
:10128800DF502A6E2A3A0F0E2A160F0E2A162A50F7
:101298000A0DDC0E4124D96E000E4220DA6EDF50B2
:1012A8000F0B2B6E2C6AF3502B26F4502C22D8905F
:1012B8004134D96E4234DA6E2D0ED926000EDA2268
:1012C8002BC0DEFF2CC0DDFF414A422A42BED2D7E6
:1012D800425001E1CBD737C03BF038C03CF084D056
:1012E8003D0E016E000E026EDB0E036EFF0E046EE5
:1012F800C1EC13F0A6D03D0E016E000E026ECB0EAF
:10130800036EFF0E046EC1EC13F09BD03D0E016E10
:10131800000E026EE70E036EFF0E046EC1EC13F0B2
:1013280090D03D0E016E000E026EEB0E036EFF0EA6
:10133800046EC1EC13F085D03D0E016E000E026EF6
:10134800F70E036EFF0E046EC1EC13F07AD03D0E5B
:10135800016E000E026EDF0E036EFF0E046EC1EC0E
:1013680013F06FD03D0E016E000E026ED70E036EA5
:10137800FF0E046EC1EC13F064D03D0E016E000E3A
:10138800026ED30E036EFF0E046EC1EC13F059D03B
:101398003D0E016E000E026EE30E036EFF0E046E2C
:1013A800C1EC13F04ED03D0E016E000E026EEF0E32
:1013B800036EFF0E046EC1EC13F043D03D0E016EB8
:1013C800000E026EF30E036EFF0E046EC1EC13F0F6
:1013D80038D03D0E016E000E026ECF0E036EFF0E6A
:1013E800046EC1EC13F02DD03BC02AF03CC02BF0AA
:1013F8002B50000AD8A425D02A50010AD8B470D797
:10140800030AD8B478D7010AD8B480D7070AD8B461
:1014180088D7010AD8B490D7030AD8B498D7010A54
:10142800D8B4A0D70F0AD8B4A8D7010AD8B4B0D76F
:10143800030AD8B4B8D7010AD8B4C0D7070AD8B4B1
:10144800C8D7800EE0EC15F0D00E0D6EFD0E0E6EB6
:1014580035C00FF036C010F03D0E116E000E126E42
:1014680031C013F032C014F02FC015F030C016F0A0
:101478002DC017F02EC018F0C0EC04F012005BEC81
:1014880011F0000E4A6E000E496E4ABE06D04A5050
:1014980031E1070E495CD8B02DD0DC0E4924D96E55
:1014A800000E4A20DA6EDF502A6E2A3A0F0E2A16EC
:1014B8000F0E2A162A500A0DDC0E4924D96E000E8A
:1014C8004A20DA6EDF500F0B2B6E2C6AF3502B2656
:1014D800F4502C22D8904934D96E4A34DA6E2D0E45
:1014E800D926000EDA222BC0DEFF2CC0DDFF494AC8
:1014F8004A2ACBD702C101F003C102F0000E046EE4
:101508003C0E036E35EC15F001C02AF002C02BF03A
:1015180004C101F005C102F00E0E046E100E036E38
:1015280035EC15F001502A2602502B2201010051FA
:101538002A243B6E010101512B203C6E2FC001F083
:1015480030C002F0000E046E3C0E036E35EC15F050
:1015580001C02AF002C02BF031C001F032C002F005
:101568000E0E046E100E036E35EC15F001502A268F
:1015780002502B222D502A243D6E2E502B203E6ED9
:101588003BC02AF03CC02BF02A1E2B1E2A4A2B2ACD
:101598003D502A24476E3E502B20486E47C0F7F036
:1015A80048C0F8F0485004E10A0E475CD8A003D0C0
:1015B800020E0001F96F47C006F048C007F00E0E92
:1015C800096E100E086EACEC12F006C03FF007C0B2
:1015D80040F00E0E046E100E036E47C001F048C0B6
:1015E80002F0F8EC12F001C006F002C007F0000E9D
:1015F800096E3C0E086EACEC12F006C041F007C054
:1016080042F00E0E046E100E036E47C001F048C083
:1016180002F0F8EC12F001C045F002C046F045C0F7
:1016280001F046C002F0000E046E3C0E036EF8ECAA
:1016380012F001C043F002C044F0800EE0EC15F057
:10164800A80E0D6EFF0E0E6EC0EC04F0C00EE0EC9E
:1016580015F0E80E0D6EFD0E0E6E3FC00FF040C087
:1016680010F041C011F042C012F043C013F044C062
:1016780014F0C0EC04F0120073507410D8B40BD0FE
:1016880022EC14F0000E746E000E736E000E2B6EBA
:10169800000E2A6E12000001F5510001F611D8B4AF
:1016A800C7D0430E7918D8A412D081B209D00FD070
:1016B800680E2C6EE40EE82EFED72C2EFCD700D038
:1016C80081B2F6D7000E2B6E000E2A6E1200440E61
:1016D8007918D8A4F7D7000E0001F66F000EF56F41
:1016E80012D09AEC14F0EED782EC14F0EBD76AEC37
:1016F80014F0E8D7C9EC14F0E5D752EC14F0E2D7AF
:101708003AEC14F0DFD7E9C02CF0EAC02DF02D50E8
:10171800030AD8B404D0070AD8B40FD0D3D72C50B2
:10172800F30AD8B4DED7070AD8B4DED70A0AD8B481
:10173800DED7010AD8B4DED7C5D72C50090AD8B4E9
:10174800DCD7030AD8B4DCD7BDD70B0E0001E919E2
:101758000001EA11D8A405D0000E2B6E000E2A6EE7
:10176800120022EC14F0000E2B6E000E2A6E1200EE
:10177800160E0001E9190001EA11D8B407D00C0EC1
:101788000001E9190001EA11D8A405D0000E2B6E5A
:10179800000E2A6E1200170E0001E9190001EA1165
:1017A800D8A403D0DAEC13F002D0F2EC13F0000E58
:1017B8002B6E000E2A6E1200170E0001E9190001A7
:1017C800EA11D8A405D0000E2B6E000E2A6E120066
:1017D8000AEC14F0000E2B6E000E2A6E1200000E9A
:1017E800766E010E756E000E2B6E010E2A6E1200BB
:1017F800000E6E6E010E6D6E000E2B6E010E2A6EBF
:101808001200000E706E010E6F6E000E2B6E010E30
:101818002A6E1200000E646E010E636E000E2B6EAF
:10182800010E2A6E1200000E2B6E010E2A6E120097
:101838007950310AD8B489D7030AD8B499D7010A9C
:10184800D8B4BAD7720AD8B4CAD7030AD8B4D0D78A
:10185800010AD8B4D6D7070AD8B4DCD7E4D706002B
:10186800FACF4DF0FBCF4EF0E9CF4FF0EACF50F072
:10187800E1CF51F0E2CF52F0D9CF53F0DACF54F0A4
:10188800F3CF55F0F4CF56F0F6CF57F0F7CF58F026
:10189800F8CF59F0F5CF5AF0F0A018D0F090000129
:1018A800F951D8A413D081380F0B0F0B4B6E4C6A2B
:1018B800B50E4B24F66EFD0E4C20F76EF86A000E3E
:1018C800F8220800F5CF79F0C8EC07F0F2A40CD0A4
:1018D800F2940001F905D8A407D043EC0AF0850E6C
:1018E800D76EEE0ED66ED58E9EA024D09E90CD904B
:1018F8000001F905D8A41ED077507810D8B40AD0C2
:101908008B82000E786E000E776ED4C0CFFFD6C0E3
:10191800CEFF0FD08B92000E786E010E776E00010D
:10192800D4510008200FCF6E0001D6510008200FB7
:10193800CE6ECD80A1A224D0A192B1900001F9056C
:10194800D8A41ED077507810D8B40AD08B84000E53
:10195800786E000E776ED8C0B3FFDAC0B2FF0FD032
:101968008B94000E786E010E776E0001D851000836
:10197800200FB36E0001DA510008200FB26EB1805B
:101988005AC0F5FF59C0F8FF58C0F7FF57C0F6FF17
:1019980056C0F4FF55C0F3FF54C0DAFF53C0D9FF57
:1019A80052C0E2FF51C0E1FF50C0EAFF4FC0E9FF5B
:1019B8004EC0FBFF4DC0FAFF7C9211000001ED51B3
:1019C8000001EE11D8B4120034D0030E0001816F6B
:1019D800E80E806F000E0001836F010E826F20EC0D
:1019E80011F03ED0050E0001816F350E806F000E9C
:1019F8000001836F010E826F20EC11F031D0060ECA
:101A08000001816F820E806F000E0001836F010E4E
:101A1800826F20EC11F024D0070E0001816FD00EE8
:101A2800806F000E0001836F010E826F20EC11F0B1
:101A380017D0E7C088F0E8C089F000018951000A92
:101A4800D8A40ED000018851000AD8B4BED7010A24
:101A5800D8B4C8D7030AD8B4D2D7010AD8B4DCD7C7
:101A6800150E0001896F4B0E0001886FBE0EE82E1F
:101A7800FED7882FFCD7892FFAD700F0050E000172
:101A8800816FDC0E806F000E0001836F030E826F82
:101A980020EC11F0150E0001896F4B0E0001886FC4
:101AA800BE0EE82EFED7882FFCD7892FFAD700F074
:101AB800050E0001816FDC0E806F000E0001836F40
:101AC800010E826F20EC11F0030E0001816FE80E09
:101AD800806F000E0001836F030E826F20EC11F0FF
:101AE800000E0001EE6F000EED6F000E726E010E1B
:101AF800716E12000001EB510001EC11D8B4120014
:101B0800150E0001876F4B0E0001866FBE0EE82E82
:101B1800FED7862FFCD7872FFAD700F080A404D0F1
:101B28000001866B862B02D00001866B000186516E
:101B38000001886F896B0001885100018911D8A4C0
:101B480028D056EC12F0E3C08AF0E4C08BF0000114
:101B58008A5100018B11D8A41CD08986050E00017A
:101B6800876F0F0E0001866FF10EE82EFED7862FC5
:101B7800FCD7872FFAD780A404D00001866B862B68
:101B880002D00001866B0001865100018C6F8D6BBD
:101B980089960001885100018911D8A421D000013B
:101BA8008A5100018B11D8A414D000018C51000176
:101BB8008D11D8A407D0694A6A2A000E0001E86F7F
:101BC800000E14D06B4A6C2A000E0001E86F010E5B
:101BD8000DD0674A682A000E0001E86F020E06D091
:101BE800654A662A000E0001E86F030EE76F8B90C6
:101BF800000E0001EE6F010EED6F150E0001876FEC
:101C08004B0E0001866FBE0EE82EFED7862FFCD73E
:101C1800872FFAD700F08B80000E0001EC6F000EC2
:101C2800EB6F1200000E00018B6F000189AF08D026
:101C38000001886D891FD8B0892B010E00018B6FB8
:101C4800000187AF08D00001866D871FD8B0872BA9
:101C5800010E00018B1B000E00018D6F000E8C6FB2
:101C68000001885100018911D8B42CD0010E00015F
:101C78008A6F06D00001D8908837893700018A2BEF
:101C8800000189AFF7D70001D8908C378D37000154
:101C980088510001865D0001895100018759D8A04B
:101CA8000AD0000188510001865F000189510001B6
:101CB800875B00018C810001D8908933883300014B
:101CC8008A2FE1D700018B510001D8B405D000015B
:101CD8008C6D8D1FD8B08D2B8CC086F08DC087F091
:101CE8001200000E0001886F000E896F000E8A6FC7
:101CF800000E8B6F000184510001851100018611CF
:101D080000018711D8B442D0010E00018C6F08D0B1
:101D18000001D890843785378637873700018C2BA8
:101D2800000187AFF5D70001D890883789378A37FF
:101D38008B37000184510001805D0001855100014D
:101D48008159000186510001825900018751000123
:101D58008359D8A012D0000184510001805F00018E
:101D680085510001815B000186510001825B000101
:101D780087510001835B000188810001D890873377
:101D880086338533843300018C2FCDD788C080F00B
:101D980089C081F08AC082F08BC083F012000001F4
:101DA800FE510001FF11D8B419D0000E0001FF6FD9
:101DB800000EFE6F19EC13F0010ED2EC15F0680E50
:101DC80000018A6FE40EE82EFED78A2FFCD700F0B8
:101DD8002EEC0FF0898A37EC13F012000001F15154
:101DE8000001F211D8A416D00001F1510001F2113E
:101DF800D8B412000001E54BE62B0C0E0001E519E2
:101E08000001E611D8A41200000E0001F06F010EC7
:101E1800EF6F12000001FC510001FD11D8B412004F
:101E2800000E0001F26F000EF16F8988000E0001AC
:101E3800EC6F010EEB6F050E00018B6F0F0E0001AA
:101E48008A6FF10EE82EFED78A2FFCD78B2FFAD790
:101E580089981200A1EC10F0000E0001896F000EA5
:101E6800886F000189BF08D00001895140E1070E41
:101E78000001885DD8B03BD0DC0E00018825D96E02
:101E8800000E00018921DA6EDF500001856F000124
:101E9800853B0F0E85170F0E000185170001855130
:101EA8000A0DDC0E00018825D96E000E000189217B
:101EB800DA6EDF500F0B0001866F876BF35000015D
:101EC8008627F45000018723D89000018835D96E01
:101ED80000018935DA6E000ED926010EDA2286C095
:101EE800DEFF87C0DDFF0001884B892BBAD7170EAC
:101EF800D56E850ED76EEE0ED66ED58E1200000EFC
:101F08000001856F000181AF08D00001806D811F3D
:101F1800D8B0812B010E0001856F000183AF05D079
:101F28000001826D831FD8B0832B0001825100010C
:101F38008311D8B426D0010E0001846F06D00001A9
:101F4800D890823783370001842B000183AFF7D7FD
:101F5800000182510001805D000183510001815917
:101F6800D8A008D0000182510001805F0001835190
:101F78000001815B0001D890833382330001842FF4
:101F8800E7D7000185510001D8B405D00001806D64
:101F9800811FD8B0812B80C080F081C081F01200F1
:101FA800100E00018D6F270E8E6F000E8F6F000EC2
:101FB800906FF9EC11F0F29EF4EC15F0000E0001B0
:101FC800826FD00E816FE6EC15F0000E0001826F73
:101FD800000E816FE6EC15F0000E0001976F000E01
:101FE800966F000197BF08D0000197511BE1070EBB
:101FF8000001965DD8B016D0DC0E00019625D96E8A
:10200800000E00019721DA6EDF500001956F000184
:1020180095510001816F826BE6EC15F00001964B3B
:10202800972BDFD7F0EC15F0F28E120029EC12F0A6
:10203800D5EC12F0440E0001806F190E0001816F7B
:10204800060E0001826F240E0001836F020E00014C
:10205800846F170E0001856F420E6CEC15F08CEC46
:1020680015F016D009EC00F013D05BEC15F010D089
:1020780099EC15F0000E0001FF6F010EFE6F09ECE0
:1020880000F006D0B8EC15F003D099EC15F0FFD7A6
:102098000001F951000AD8B4E5D7010AD8B4E5D748
:1020A800030AD8B4E5D7010AD8B4ECD7070AD8B4DC
:1020B800ECD7EED7060EF66E2C0EF76E000EF86E05
:1020C80001EE0EF010EE04F00900F5CFEEFFE5503A
:1020D800E150FAE1000EF66E2C0EF76E000EF86E67
:1020E80000EEFAF010EE06F00900F5CFEEFFE5502D
:1020F800E150FAE10A0EF66E2C0EF76E000EF86E3D
:102108000900F5CF7AF00900F5CF7BF001EE00F079
:102118000E0EEE6AE806FDE100EED4F0260EEE6A39
:10212800E806FDE100EE5BF01F0EEE6AE806FDE151
:102138007C907C9200011AEF10F0F4EC15F0000E80
:102148000001826FD00E816FE6EC15F0000E0001E1
:10215800826F000E816FE6EC15F0F0EC15F0F4ECF0
:1021680015F0000E0001826FD10E816FE6EC15F0BC
:10217800000E0001846F000E836F000184BF08D039
:102188000001845115E1060E0001835DD8B010D01E
:10219800DC0E00018325D96E000E00018421DA6E61
:1021A800010EB2EC14F0DF6E0001834B842BE5D7EF
:1021B800000EB2EC14F00001E26FF0EC15F0120022
:1021C800000E0001856F000E846F0001825100012E
:1021D8008311D8B42CD0010E0001866F06D00001FF
:1021E800D890823783370001862B000183AFF7D759
:1021F8000001D89084378537000182510001805D45
:102208000001835100018159D8A00AD000018251F0
:102218000001805F000183510001815B000184811E
:102228000001D890833382330001862FE1D784C020
:1022380080F085C081F0120080C084F081C085F0F4
:102248000001841F851F844B852BFF0E0001842508
:102258000001866FFF0E000185210001876F15D0F0
:10226800000187510001D46FD56B00018651000130
:10227800D66FD76B000187510001D86FD96B000169
:1022880086510001DA6FDB6B120082C084F083C0D4
:1022980085F000018551000AD8A41200000184517C
:1022A800010AD8B4DDD7020AD8A41200E3D7FCEC9F
:1022B80015F0000E036ED00E026EEBEC15F0000E5A
:1022C800036E000E026EEBEC15F0F8EC15F0FCEC6A
:1022D80015F0000E036ED10E026EEBEC15F0000E39
:1022E800056E000E046E05BE06D0055011E1060EFF
:1022F800045CD8B00DD0DC0E0424D96E000E052085
:10230800DA6E010E48EC15F0DF6E044A052AEBD7A9
:10231800000E48EC15F00001E26FF8EC15F0120021
:102328000001816F00018151F00B0001806F8C501A
:102338000F0B8C6E000180518C108C6E8C86420EB7
:10234800E82EFED700D08C96420EE82EFED700D09D
:1023580000018139F00B0001816F00018151F00B00
:102368000001806F8C500F0B8C6E000180518C1017
:102378008C6E8C86420EE82EFED700D08C96420ECC
:10238800E82EFED700D012000001895100018A1101
:10239800D8B426D0010E00018B6F06D00001D8906A
:1023A80089378A3700018B2B00018AAFF7D70001E4
:1023B80089510001875D00018A5100018859D8A020
:1023C80008D0000189510001875F00018A5100018E
:1023D800885B0001D8908A33893300018B2FE7D7B7
:1023E80087C087F088C088F01200000EC76E280EDC
:1023F800C66E000EC56E000E0001806F480E816F1C
:10240800E80E826F010E836F8DC091F08EC092F03E
:102418008FC093F090C094F0020ED89000019137CD
:10242800923793379437E82EF8D791C084F092C04A
:1024380085F093C086F094C087F075EC0EF000012B
:102448008005C86E948694881200F00ED36E9B8C1B
:10245800470E926EF20E936E000E946E000E956EFD
:10246800000E966E000E896E000E8A6E000E8B6E40
:10247800000E8C6E000E8D6E000EC26E0D0EC16EBB
:10248800C19AC198000EB56EB496C08EF19EF086C2
:10249800F28A9D80B00ECD6E9D82A082F28C9D8CBA
:1024A800F29E1200010EE0EC14F0C350C4CF82F08B
:1024B8000001836B82C083F00001826B00018211EE
:1024C8000001846F000183510001856F0001FA51FA
:1024D8000001845D00018551800A0001826F0001BE
:1024E800FB51800A00018259D8B002D0010E01D0F8
:1024F800000E0001E36FE46B1200026E0250F00B55
:10250800016E8C500F0B8C6E01508C108C6E8C866B
:10251800420EE82EFED700D08C96420EE82EFED74B
:1025280000D00238F00B026E0250F00B016E8C5096
:102538000F0B8C6E01508C108C6E8C86420EE82E20
:10254800FED700D08C96420EE82EFED700D012009F
:10255800000E0B6E000E0A6E08500910D8B41CD07D
:10256800010E0C6E04D0D890083609360C2A09AE34
:10257800FAD7D8900A360B360850065C0950075827
:10258800D8A005D00850065E0950075A0A80D8908E
:10259800093208320C2EEDD70AC006F00BC007F03E
:1025A80012009C0E0001836FD70EE82EFED7832FF2
:1025B800FCD7330ED2EC15F0320ED2EC15F0280E03
:1025C800D2EC15F00C0ED2EC15F0060ED2EC15F08C
:1025D800010ED2EC15F09C0E0001836FD70EE82E89
:1025E800FED7832FFCD7120003500410D8B418D09C
:1025F800010E056E04D0D89003360436052A04AEC1
:10260800FAD70350015C04500258D8A004D00350F4
:10261800015E0450025AD89004320332052EF1D7D5
:1026280001C001F002C002F01200000E0001F26FBA
:10263800000EF16F000E0001F06F000EEF6F000E3C
:102648000001FD6F010EFC6F000E0001EC6F000E23
:10265800EB6F000E0001EE6F000EED6F000E726E54
:10266800000E716E1200050E0001816FDC0E806F86
:10267800000E0001836F010E826F20EC11F0030E33
:102688000001816FE80E806F000E0001836F030E5A
:10269800826F20EC11F0CD80B1808B801200000E8B
:1026A8000001EA6F160EE96F800ED2EC15F0640E89
:1026B80000018E6FFF0E00018F6FBBEC02F0C00EA1
:1026C800D2EC15F0650E00018E6FFE0E00018F6FC3
:1026D800BBEC02F01200000E0001EA6F0C0EE96F6D
:1026E800800ED2EC15F0870E00018E6FFE0E0001F1
:1026F8008F6FBBEC02F0C00ED2EC15F0640E000137
:102708008E6FFF0E00018F6FBBEC02F0120080C0CD
:1027180084F081C085F006D00001844B852B000130
:10272800824B832B82C0F6FF83C0F7FFF86A84C010
:10273800D9FF85C0DAFF0800F5CFDFFFDF50D8B436
:102748001200EAD70001805100018203F3CF84F020
:10275800F4CF85F00001805100018303F35000019C
:1027680085270001815100018203F350000185276C
:1027780084C080F085C081F0120001C005F002C05D
:1027880006F004D0054A062A034A042A03C0F6FFC5
:1027980004C0F7FFF86A05C0D9FF06C0DAFF0800D1
:1027A800F5CFDFFFDF50D8B41200ECD7000E0001E0
:1027B800EA6F160EE96F800EE0EC15F0640E0D6EF0
:1027C800FF0E0E6EC0EC04F0C00EE0EC15F0650EC6
:1027D8000D6EFE0E0E6EC0EC04F01200000E00012D
:1027E800EA6F0C0EE96F800EE0EC15F0870E0D6EA7
:1027F800FE0E0E6EC0EC04F0C00EE0EC15F0640E98
:102808000D6EFF0E0E6EC0EC04F01200000E0001FB
:10281800EA6F170EE96F800EE0EC15F0760E0D6E7C
:10282800FE0E0E6EC0EC04F0C00EE0EC15F0530E78
:102838000D6EFF0E0E6EC0EC04F01200000E0001CB
:10284800EA6F0B0EE96F800EE0EC15F0750E0D6E59
:10285800FF0E0E6EC0EC04F0C00EE0EC15F0760E24
:102868000D6EFE0E0E6EC0EC04F01200040E000198
:10287800EA6F0A0EE96F800EE0EC15F0430E0D6E5C
:10288800FE0E0E6EC0EC04F0C00EE0EC15F0420E29
:102898000D6EFF0E0E6EC0EC04F01200040E000167
:1028A800EA6F090EE96F800EE0EC15F0310E0D6E3F
:1028B800FF0E0E6EC0EC04F0C00EE0EC15F0540EE6
:1028C8000D6EFE0E0E6EC0EC04F01200030E000139
:1028D800EA6FFE0EE96F800EE0EC15F0200E0D6E2B
:1028E800FF0E0E6EC0EC04F0C00EE0EC15F0430EC7
:1028F8000D6EFE0E0E6EC0EC04F01200030E000109
:10290800EA6FF40EE96F800EE0EC15F0210E0D6E03
:10291800FE0E0E6EC0EC04F0C00EE0EC15F0200EBA
:102928000D6EFF0E0E6EC0EC04F01200030E0001D7
:10293800EA6FF30EE96F800EE0EC15F00F0E0D6EE6
:10294800FF0E0E6EC0EC04F0C00EE0EC15F0320E77
:102958000D6EFE0E0E6EC0EC04F012000001816FC9
:10296800A4EC15F0C586A4EC15F0C9CF82F0A4EC50
:1029780015F0000181510001D8A402D0C58A01D008
:10298800C59AC588000182511200030E0001EA6F42
:10299800E969800EE0EC15F0320E0D6EFE0E0E6E3B
:1029A800C0EC04F0C00EE0EC15F0310E0D6EFF0E19
:1029B8000E6EC0EC04F012000001816F0001814529
:1029C800E846FC0BC26EC280C28209D0340E0001F8
:1029D800806FF10EE82EFED7802FFCD700D0C2A260
:1029E8001200F4D7000E0001EA6F000EE96F800EA6
:1029F800D2EC15F063EC06F0C00ED2EC15F0970E91
:102A080000018E6FFF0E00018F6FBBEC02F0120009
:102A18000001826F000E0001816F3A0E0001826191
:102A280007D02F0E0001826503D0010E0001816FCF
:102A380081C080F0000180311200000E0001EA6FB1
:102A4800000EE96F800EE0EC15F028EC09F0C00EDE
:102A5800E0EC15F0970E0D6EFF0E0E6EC0EC04F054
:102A6800120001500302F3CF05F0F4CF06F0015035
:102A78000402F350062602500302F350062605C04E
:102A880001F006C002F01200026EC1EC15F0C58616
:102A9800C1EC15F0C9CF03F0C1EC15F00250D8A471
:102AA80002D0C58A01D0C59AC5880350120000011A
:102AB800F905D8B4D3EC0EF00001F905D8B47EECD2
:102AC8000DF00001F905D8A41200E2EC0CF0120098
:102AD8000001866F86C0DCF080C0DDF081C0DEF0CA
:102AE80082C0DFF083C0E0F084C0E1F085C0E2F08E
:102AF8001200036E000E026E3A0E036005D02F0E10
:102B0800036402D0010E026E02C001F0013012000F
:102B1800F28E000E0001F96FD4EC0FF0F6EC14F011
:102B2800000E746E010E736E1200000E896E000E98
:102B38008A6E000E8B6E000E8C6E000E8D6E12006B
:102B4800C7B4FED7C5CF80F01F0E00018017D8B4D8
:102B58001200F6D7000E0001F66F010EF56F01C0E6
:102B6800F3F002C0F4F0120081A2FED7898A81B284
:102B7800FED700F000F0899A1200C7B4FED7C5CF7F
:102B880001F01F0E0116D8B41200F7D70001826FAA
:102B98008C840001825194EC11F012000001826FC4
:102BA8008C940001825194EC11F01200036E8C8415
:102BB800035081EC12F01200036E8C94035081ECE8
:102BC80012F01200A4EC15F081C0C9FF1200C1EC8C
:102BD80015F002C0C9FF1200A4EC15F0C58412005C
:102BE800A4EC15F0C5801200C1EC15F0C5841200E4
:102BF800C1EC15F0C5801200FF00010001004D4D29
:042C08004D00FF007C
:10FDB400003132334134353642373839432A30231F
:10FDC400440001000A006400E8031027253032646F
:10FDD4002573207C20253032643A253032643A255C
:10FDE4003032640054696D653A20253032643A2516
:10FDF4003032643A25303264002D2D204C6F672058
:10FE040025326420686572652D2D002564206D6996
:10FE14006E2873292025642073656373004C4F4753
:10FE240020312020202020202020202020004C4F82
:10FE34004720322020202020202020202020004C79
:10FE44004F47203320202020202020202020200065
:10FE54004C4F472034202020202020202020202008
:10FE640000332E204C4F47532020202020202020D8
:10FE74002000322E20534F525420202020202020B6
:10FE8400202000312E20444154452F54494D452013
:10FE940020202000202D2D20506F70202063616EC3
:10FEA400202D2D2000202D2D20536F75702063618F
:10FEB4006E202D2D200021534F525420434F4E438A
:10FEC4004C5544454421002D2D20546F74616C2001
:10FED40063616E73202D2D004E6F207461623A2091
:10FEE400397C5461623A2031004E6F206C626C3A66
:10FEF40020317C6C626C3A203100303646656220D9
:10FF04007C2030313A30383A3536004C4F47203176
:10FF1400202020202020202020203C004C4F47205F
:10FF240032202020202020202020203C004C4F473D
:10FF34002033202020202020202020203C004C4F53
:10FF4400472034202020202020202020203C003363
:10FF54002E204C4F475320202020202020203C00DE
:10FF6400322E20534F525420202020202020203C89
:10FF740000312E20444154452F54494D4520202022
:10FF84003C0050617573653A3C207C204261636B90
:10FF94003A3E005055534820544F20434F4E544945
:10FFA4004E554500536F7274696E672E2E2E0044B1
:10FFB40075726174696F6E3A00286E756C6C2900F5
:10FFC40053746172743A004665620044656300418B
:10FFD4007567004A756C004A616E004A756E00537D
:10FFE4006570004D617200417072004F6374004E81
:0BFFF4006F76004D6179003132000093
:020000040020DA
:08000000FFFFFFFFFFFFFFFF00
:020000040030CA
:0E000000FF081F1EFF8381FF0FC00FE00F409F
:00000001FF
