:0400000007EF00F016
:100008007E82C5ED1AF0ADEF27F0020E0001FC1953
:10001800D8A486D0010E5FEC2BF0680E0001C46FE7
:10002800E40EE82EFED7C42FFCD700F0800E5FEC5C
:100038002BF0690E00018E6FFB0E00018F6F010E11
:100048000001FD250001906F0001916B000E9123C6
:1000580084EC0BF0C00E5FEC2BF00E0E0001836FEA
:10006800100E826FFAC080F0FBC081F0B1EC23F073
:1000780080C0C6F081C0C7F0310E00018E6FFF0E40
:1000880000018F6F0E0E0001836F100E826FFAC091
:1000980080F0FBC081F0B1EC23F080C086F081C015
:1000A80087F0000E0001896F3C0E886F9FEC22F0EC
:1000B80086C090F087C091F0C6C080F0C7C081F0BC
:1000C800000E0001836F3C0E826FB1EC23F080C0FC
:1000D80092F081C093F084EC0BF081B2FED781A23C
:1000E800FED70C0E0001EC190001ED11D8A403D0C5
:1000F8009DEC28F002D081EC28F081B2FED7050EE5
:100108000001C56F0F0E0001C46FF10EE82EFED777
:10011800C42FFCD7C52FFAD7000E0001FC6FD0D32F
:100128000001EC510001ED11D8A4CAD3000E000162
:10013800C86F630E0001C86501D00CD0680E0001BD
:10014800C46FE40EE82EFED7C42FFCD700F00001E0
:10015800C82BEFD70001EC510001ED11D8A4B0D3A2
:1001680058EC14F0ADD363506410D8A441D0010EFC
:100178005FEC2BF0680E0001C46FE40EE82EFED78A
:10018800C42FFCD700F0800E5FEC2BF0570E000157
:100198008E6FFB0E00018F6FF4C090F0F5C091F0E8
:1001A80084EC0BF0C00E5FEC2BF0540E00018E6F48
:1001B800FE0E00018F6F84EC0BF0000E0001C96F7A
:1001C800630E0001C96501D00CD0680E0001C46F30
:1001D800E40EE82EFED7C42FFCD700F00001C92B8F
:1001E800EFD70001F8510001F911D8B41200E5D792
:1001F800010E5FEC2BF0680E0001C46FE40EE82ED0
:10020800FED7C42FFCD700F0800E5FEC2BF0570E02
:1002180000018E6FFB0E00018F6FF4C090F0F5C0E7
:1002280091F084EC0BF0C00E5FEC2BF0F00E0001A7
:100238008E6FFD0E00018F6F84EC0BF0000E000135
:10024800CA6F630E0001CA6501D00CD0680E0001A8
:10025800C46FE40EE82EFED7C42FFCD700F00001CF
:10026800CA2BEFD70001F8510001F911D8B41200D8
:10027800000E0001CB6F630E0001CB6501D00CD0DE
:10028800680E0001C46FE40EE82EFED7C42FFCD719
:1002980000F00001CB2BEFD70001F8510001F91154
:1002A800D8B41200010E5FEC2BF0680E0001C46F89
:1002B800E40EE82EFED7C42FFCD700F0800E5FECCA
:1002C8002BF0C30E00018E6FFF0E00018F6F84ECC0
:1002D8000BF0C00E5FEC2BF047C1D6F048C1D7F049
:1002E80049C1D8F04AC1D9F0C3D0D60E0001806FF9
:1002F800000E0001816FDA0E0001826FFF0E00010F
:10030800836FB9EC28F0E6D0D60E0001806F000E9E
:100318000001816FCA0E0001826FFF0E0001836F1A
:10032800B9EC28F0D7D0D60E0001806F000E00017E
:10033800816FE60E0001826FFF0E0001836FB9EC3A
:1003480028F0C8D0D60E0001806F000E0001816F22
:10035800EA0E0001826FFF0E0001836FB9EC28F0EE
:10036800B9D0D60E0001806F000E0001816FFA0E21
:100378000001826FFF0E0001836FB9EC28F0AAD04C
:10038800D60E0001806F000E0001816FDE0E0001A5
:10039800826FFF0E0001836FB9EC28F09BD0D60E58
:1003A8000001806F000E0001816FD60E0001826F80
:1003B800FF0E0001836FB9EC28F08CD0D60E000137
:1003C800806F000E0001816FD20E0001826FFF0E58
:1003D8000001836FB9EC28F07DD0D60E0001806F44
:1003E800000E0001816FE20E0001826FFF0E000116
:1003F800836FB9EC28F06ED0D60E0001806F000E26
:100408000001816FF20E0001826FFF0E0001836F01
:10041800B9EC28F05FD0D60E0001806F000E000105
:10042800816FF60E0001826FFF0E0001836FB9EC39
:1004380028F050D0D60E0001806F000E0001816FA9
:10044800CE0E0001826FFF0E0001836FB9EC28F019
:1004580041D0D60E0001806F000E0001816FEE0EB4
:100468000001826FFF0E0001836FB9EC28F032D0D3
:1004780021EE0AF0DECFC4F0DDCFC5F00001C55192
:10048800000AD8A4E6D70001C451010AD8B42DD770
:10049800030AD8B439D7010AD8B445D7070AD8B45B
:1004A80051D7010AD8B45DD7030AD8B469D7010A6D
:1004B800D8B475D70F0AD8B481D7010AD8B48DD764
:1004C800030AD8B499D7010AD8B4A5D7070AD8B46B
:1004D800B1D7BFD7BE0E00018E6FFA0E00018F6F25
:1004E80008C190F009C191F0D60E0001926F000E7C
:1004F8000001936F04C194F005C195F002C196F014
:1005080003C197F000C198F001C199F084EC0BF099
:10051800000E0001CC6F630E0001CC6501D00CD039
:10052800680E0001C46FE40EE82EFED7C42FFCD776
:1005380000F00001CC2BEFD70001F8510001F911B0
:10054800D8B41200000E0001CD6F630E0001CD6516
:1005580001D00CD0680E0001C46FE40EE82EFED75F
:10056800C42FFCD700F00001CD2BEFD70001F851C4
:100578000001F911D8B41200010E5FEC2BF0680EDF
:100588000001C46FE40EE82EFED7C42FFCD700F09C
:10059800800E5FEC2BF09A0E00018E6FFF0E0001AB
:1005A8008F6F84EC0BF0C00E5FEC2BF00E0E000189
:1005B800836F100E826FF6C080F0F7C081F0B1EC47
:1005C80023F080C0C6F081C0C7F0230E00018E6FF3
:1005D800FF0E00018F6F0E0E0001836F100E826FE9
:1005E800F6C080F0F7C081F0B1EC23F080C086F04F
:1005F80081C087F0000E0001896F3C0E886F9FEC68
:1006080022F086C090F087C091F0C6C080F0C7C0C5
:1006180081F0000E0001836F3C0E826FB1EC23F075
:1006280080C092F081C093F084EC0BF0000E0001C2
:10063800CE6F630E0001CE6501D00CD0680E0001AC
:10064800C46FE40EE82EFED7C42FFCD700F00001DB
:10065800CE2BEFD70001F8510001F911D8B41200E0
:10066800000E0001CF6F630E0001CF6501D00CD0E2
:10067800680E0001C46FE40EE82EFED7C42FFCD725
:1006880000F00001CF2BEFD70001F8510001F9115C
:10069800D8B41200010E5FEC2BF0680E0001C46F95
:1006A800E40EE82EFED7C42FFCD700F0800E5FECD6
:1006B8002BF0460E00018E6FFD0E00018F6F84EC4B
:1006C8000BF0C00E5FEC2BF0230E00018E6FFE0EB8
:1006D80000018F6F65C090F066C091F067C092F01E
:1006E80068C093F084EC0BF0000E0001D06F630E2D
:1006F8000001D06501D00CD0680E0001C46FE40E73
:10070800E82EFED7C42FFCD700F00001D02BEFD77E
:100718000001F8510001F911D8B41200000E0001CF
:10072800D16F630E0001D16501D00CD0680E0001B5
:10073800C46FE40EE82EFED7C42FFCD700F00001EA
:10074800D12BEFD70001F8510001F911D8B41200EC
:10075800010E5FEC2BF0680E0001C46FE40EE82E6A
:10076800FED7C42FFCD700F0800E5FEC2BF0570E9D
:1007780000018E6FFD0E00018F6F84EC0BF0C00E30
:100788005FEC2BF0120E00018E6FFE0E00018F6FD2
:100798003FC190F040C191F041C192F042C193F045
:1007A80084EC0BF0000E0001D26F630E0001D265DD
:1007B80001D00CD0680E0001C46FE40EE82EFED7FD
:1007C800C42FFCD700F00001D22BEFD70001F8515D
:1007D8000001F911D8B41200000E0001D36F630EA6
:1007E8000001D36501D00CD0680E0001C46FE40E7F
:1007F800E82EFED7C42FFCD700F00001D32BEFD78B
:100808000001F8510001F911D8B41200010E5FEC93
:100818002BF0680E0001C46FE40EE82EFED7C42F3B
:10082800FCD700F0800E5FEC2BF0680E00018E6F95
:10083800FD0E00018F6F84EC0BF0C00E5FEC2BF007
:10084800200E00018E6FFE0E00018F6F43C190F0E5
:1008580044C191F084EC0BF0000E0001D46F630EDC
:100868000001D46501D00CD0680E0001C46FE40EFD
:10087800E82EFED7C42FFCD700F00001D42BEFD709
:100888000001F8510001F911D8B41200000E00015E
:10089800D56F630E0001D56501D00CD0680E00013C
:1008A800C46FE40EE82EFED7C42FFCD700F0000179
:1008B800D52BEFD70001F8510001F911D8B4120077
:1008C8000001F8510001F911D8B412004CD4000EFF
:1008D8000001C56F000EC46FF28E010E5FEC2BF0A5
:1008E800680E0001AB6FE40EE82EFED7AB2FFCD7E5
:1008F80000F0800E5FEC2BF0900E00018E6FFF0E63
:1009080000018F6F84EC0BF0C00E5FEC2BF0150E1E
:1009180000018E6FFF0E00018F6F84EC0BF0050E47
:100928000001AC6F0F0E0001AB6FF10EE82EFED781
:10093800AB2FFCD7AC2FFAD781A2FED781B2FED756
:10094800010E5FEC2BF0680E0001AB6FE40EE82E91
:10095800FED7AB2FFCD700F0800E5FEC2BF0CD0E4E
:1009680000018E6FFE0E00018F6F84EC0BF0C00E3D
:100978005FEC2BF0EB0E00018E6FFE0E00018F6F07
:1009880084EC0BF08A84000E0001C56F000EC46F62
:100998000001C5BF08D00001C55123E1050E0001C3
:1009A800C45DD8B01ED0000E0001AD6F630E00010B
:1009B800AD6501D00CD0680E0001AB6FE40EE82ED7
:1009C800FED7AB2FFCD700F00001AD2BEFD700010D
:1009D800C44BC52B0001C5BFE6D70001C55101E1D5
:1009E800DDD78A94010E5FEC2BF0680E0001AB6F27
:1009F800E40EE82EFED7AB2FFCD700F0800E5FEC9C
:100A08002BF0690E00018E6FFC0E00018F6F84ECD5
:100A18000BF0C00E5FEC2BF0650E00018E6FFF0E21
:100A280000018F6F84EC0BF0000E0001C56F000E03
:100A3800C46F0001C5BF08D00001C5512CE1050EE7
:100A48000001C45DD8B027D089860D0E0001AC6FB7
:100A58002D0E0001AB6FD70EE82EFED7AB2FFCD7BB
:100A6800AC2FFAD700D089961D0E0001AC6F690E25
:100A78000001AB6FA50EE82EFED7AB2FFCD7AC2F2D
:100A8800FAD70001C44BC52B0001C5BFDDD7000153
:100A9800C55101E1D4D78996010E5FEC2BF0680EA1
:100AA8000001AB6FE40EE82EFED7AB2FFCD700F0A9
:100AB800800E5FEC2BF07A0E00018E6FFC0E0001A9
:100AC8008F6F84EC0BF0C00E5FEC2BF0700E000102
:100AD8008E6FFF0E00018F6F84EC0BF0000E00018B
:100AE800C56F000EC46F0001C5BF08D00001C55115
:100AF8002CE1050E0001C45DD8B027D089880D0E01
:100B08000001AC6F2D0E0001AB6FD70EE82EFED79B
:100B1800AB2FFCD7AC2FFAD700D089981D0E000157
:100B2800AC6F690E0001AB6FA50EE82EFED7AB2F98
:100B3800FCD7AC2FFAD70001C44BC52B0001C5BFA9
:100B4800DDD70001C55101E1D4D78998010E5FECCA
:100B58002BF0680E0001AB6FE40EE82EFED7AB2F2A
:100B6800FCD700F0800E5FEC2BF0010E0001FC6F4B
:100B7800000E786E000E776E000E786E000E776E9F
:100B8800AF0E00018E6FFE0E00018F6F84EC0BF02C
:100B9800C00E5FEC2BF0D00E00018E6FFB0E000133
:100BA8008F6F84EC0BF0040E0001816FB00E806F24
:100BB800000E0001836F010E826F8BEC24F0CD8054
:100BC800000E0001AE6F630E0001AE6501D00CD0BF
:100BD800680E0001AB6FE40EE82EFED7AB2FFCD7F2
:100BE80000F00001AE2BEFD7000E0001AF6F630ECF
:100BF8000001AF6501D00CD0680E0001AB6FE40EA8
:100C0800E82EFED7AB2FFCD700F00001AF2BEFD7B3
:100C1800800E5FEC2BF0C00E5FEC2BF0BF0E0001D6
:100C28008E6FFB0E00018F6F84EC0BF0010E00013C
:100C3800816FF40E806F000E0001836F010E826FCA
:100C48008BEC24F0000E0001B06F630E0001B0655C
:100C580001D00CD0680E0001AB6FE40EE82EFED771
:100C6800AB2FFCD700F00001B02BEFD7000E00012E
:100C7800B16F630E0001B16501D00CD0680E0001A0
:100C8800AB6FE40EE82EFED7AB2FFCD700F00001C7
:100C9800B12BEFD7800E5FEC2BF0C00E5FEC2BF082
:100CA8009D0E00018E6FFB0E00018F6F84EC0BF020
:100CB800090E0001816F600E806F000E0001836FC6
:100CC800010E826F8BEC24F0000E0001B26F630EF0
:100CD8000001B26501D00CD0680E0001AB6FE40EC4
:100CE800E82EFED7AB2FFCD700F00001B22BEFD7D0
:100CF800000E0001B36F630E0001B36501D00CD084
:100D0800680E0001AB6FE40EE82EFED7AB2FFCD7C0
:100D180000F00001B32BEFD7800E5FEC2BF0C00E74
:100D28005FEC2BF0250E00018E6FFC0E00018F6F1B
:100D380084EC0BF0060E0001816F860E806F000EAA
:100D48000001836F010E826F8BEC24F0000E00010E
:100D5800B46F630E0001B46501D00CD0680E0001B9
:100D6800AB6FE40EE82EFED7AB2FFCD700F00001E6
:100D7800B42BEFD7000E0001B56F630E0001B56507
:100D880001D00CD0680E0001AB6FE40EE82EFED740
:100D9800AB2FFCD700F00001B52BEFD7800E5FEC2E
:100DA8002BF0C00E5FEC2BF0360E00018E6FFC0EA0
:100DB80000018F6F84EC0BF0030E0001816F520E5F
:100DC800806F000E0001836F010E826F8BEC24F0A0
:100DD800000E0001B66F630E0001B66501D00CD09D
:100DE800680E0001AB6FE40EE82EFED7AB2FFCD7E0
:100DF80000F00001B62BEFD7000E0001B76F630EAD
:100E08000001B76501D00CD0680E0001AB6FE40E8D
:100E1800E82EFED7AB2FFCD700F00001B72BEFD799
:100E2800800E5FEC2BF0C00E5FEC2BF07B0E000108
:100E38008E6FFB0E00018F6F84EC0BF0040E000127
:100E4800816FB00E806F000E0001836F010E826FFC
:100E58008BEC24F0000E0001B86F630E0001B8653A
:100E680001D00CD0680E0001AB6FE40EE82EFED75F
:100E7800AB2FFCD700F00001B82BEFD7000E000114
:100E8800B96F630E0001B96501D00CD0680E00017E
:100E9800AB6FE40EE82EFED7AB2FFCD700F00001B5
:100EA800B92BEFD7CD90440E00018E6FFE0E0001D6
:100EB8008F6F84EC0BF0C00E5FEC2BF0AE0E0001D0
:100EC8008E6FFB0E00018F6F84EC0BF0040E000197
:100ED800816F1A0E806F000E0001836F030E826F00
:100EE8008BEC24F0B180000E0001BA6F630E000194
:100EF800BA6501D00CD0680E0001AB6FE40EE82E85
:100F0800FED7AB2FFCD700F00001BA2BEFD7000EAD
:100F18000001BB6F630E0001BB6501D00CD0680EE9
:100F28000001AB6FE40EE82EFED7AB2FFCD700F024
:100F38000001BB2BEFD7800E5FEC2BF0C00E5FECEF
:100F48002BF08C0E00018E6FFB0E00018F6F84EC6E
:100F58000BF0040E0001816FEC0E806F000E000193
:100F6800836F030E826F8BEC24F0000E0001BC6FC0
:100F7800630E0001BC6501D00CD0680E0001AB6F98
:100F8800E40EE82EFED7AB2FFCD700F00001BC2BF7
:100F9800EFD7000E0001BD6F630E0001BD6501D0E3
:100FA8000CD0680E0001AB6FE40EE82EFED7AB2F15
:100FB800FCD700F00001BD2BEFD7800E5FEC2BF0C3
:100FC800C00E5FEC2BF0AE0E00018E6FFB0E000121
:100FD8008F6F84EC0BF0040E0001816F1A0E806F86
:100FE800000E0001836F030E826F8BEC24F0000E5D
:100FF8000001BE6F630E0001BE6501D00CD0680E03
:101008000001AB6FE40EE82EFED7AB2FFCD700F043
:101018000001BE2BEFD7000E0001BF6F630E000169
:10102800BF6501D00CD0680E0001AB6FE40EE82E4E
:10103800FED7AB2FFCD700F00001BF2BEFD7B19044
:10104800F29E010E5FEC2BF0680E0001AB6FE40E10
:10105800E82EFED7AB2FFCD700F0800E5FEC2BF00C
:10106800A00E00018E6FFE0E00018F6F84EC0BF056
:10107800C00E5FEC2BF0820E00018E6FFE0E000199
:101088008F6F84EC0BF08B80000E0001C06F630E35
:101098000001C06501D00CD0680E0001AB6FE40EF2
:1010A800E82EFED7AB2FFCD700F00001C02BEFD7FE
:1010B800000E0001C16F630E0001C16501D00CD0A4
:1010C800680E0001AB6FE40EE82EFED7AB2FFCD7FD
:1010D80000F00001C12BEFD7800E5FEC2BF0C00EA3
:1010E8005FEC2BF0730E00018E6FFE0E00018F6F08
:1010F80084EC0BF0000E0001C56F000EC46F0001F8
:10110800C5BF08D0100E0001C45D270E0001C559E7
:10111800D8B00DD08B801A0EE82EFED700D08B9059
:10112800F00EE82EFED70001C44BC52BE8D7000E01
:101138000001C26F630E0001C26501D00CD0680EB9
:101148000001AB6FE40EE82EFED7AB2FFCD700F002
:101158000001C22BEFD7000E0001C36F630E000120
:10116800C36501D00CD0680E0001AB6FE40EE82E09
:10117800FED7AB2FFCD700F00001C32BEFD7030E2F
:101188000001FC6F12000101395101013A11D8B474
:1011980066D040EC22F0010E5FEC2BF0680E0001E7
:1011A800B16FE40EE82EFED7B12FFCD700F05CEC4F
:1011B80023F08B8A000E0001816F000E806F2DECEA
:1011C8002BF00001FD6F0001FD510B0D010EF32402
:1011D8000001B36F000EF4200001B46F7F0E000110
:1011E800B56FB3C0ABF0B4C0ACF0B5C0ADF08EEC29
:1011F80020F08A94000E0001C36F000EC26F000138
:10120800C3BF08D00001C35126E12E0E0001C25D04
:10121800D8B021D08AB404D00001B16BB12B02D070
:101228000001B16B0001B147B1478A500001B11903
:10123800FB0BB1198A6E0001C25100082D0F80EC1A
:101248002AF00001C24BC32B0001C3BFE3D7000142
:10125800C35101E1DAD78A8410EC25F012000001AD
:10126800F2510001F311D8A418D088EC25F0000140
:10127800F2510001F311D8B412000001FE4BFF2B0C
:101288000C0E0001FE190001FF11D8A41200000E77
:101298000001F16F010EF06F120001012F510101E1
:1012A8003011D8B41200000E0101386F010E376FEB
:1012B800000E0001F36F000EF26F1F0E0001B26FF7
:1012C800710E0001B16F1E0EE82EFED7B12FFCD7AC
:1012D800B22FFAD700F08A94000E0001EF6F010ECA
:1012E800EE6FEFEC28F0E8C0E2F0E9C0E3F00001AF
:1012F800E2510001E311D8B427D0000E0001B76F06
:10130800000EB66F0001B7BF08D00001B75143E126
:10131800190E0001B65DD8B03ED089884E0E000186
:10132800B16FEB0EE82EFED7B12FFCD789981A0EB5
:101338000001B16FF80EE82EFED7B12FFCD700F0F0
:101348000001B64BB72BDED7000E0001B96F000EB7
:10135800B86F0001B9BF08D00001B9511CE1190EDE
:101368000001B85DD8B017D089883D0E0001B16F73
:10137800410EE82EFED7B12FFCD789982C0E00011C
:10138800B16FA10EE82EFED7B12FFCD700D0000117
:10139800B84BB92BDED70F0E0001B26F350E000126
:1013A800B16F510EE82EFED7B12FFCD7B22FFAD766
:1013B800D4EC27F00001E6050001E711D8A49AD182
:1013C800050E0001B26F0F0E0001B16FF10EE82E8D
:1013D800FED7B12FFCD7B22FFAD7D4EC27F00001F3
:1013E800E6050001E711D8A454D00001E25100013C
:1013F800E311D8B427D0000E0001BB6F000EBA6FFE
:101408000001BBBF08D00001BB5143E1190E000128
:10141800BA5DD8B03ED089884E0E0001B16FEB0E90
:10142800E82EFED7B12FFCD789981A0E0001B16FAC
:10143800F80EE82EFED7B12FFCD700F00001BA4B0A
:10144800BB2BDED7000E0001BD6F000EBC6F000184
:10145800BDBF08D00001BD511CE1190E0001BC5DE3
:10146800D8B017D089883D0E0001B16F410EE82E23
:10147800FED7B12FFCD789982C0E0001B16FA10EB1
:10148800E82EFED7B12FFCD700D00001BC4BBD2BF6
:10149800DED70F0E0001B26F350E0001B16F510E8D
:1014A800E82EFED7B12FFCD7B22FFAD7000E0001D5
:1014B800C16F010EC06F17D1D4EC27F00A0E0001DE
:1014C800C0190001C111D8A416D08AB404D00001F3
:1014D800B16BB12B02D00001B16B0001B147B1472C
:1014E8008A500001B119FB0BB1198A6E000E000178
:1014F800C16F000EC06F0001E6050001E711D8A416
:10150800D6D00F0E0001B26F350E0001B16F510E2B
:10151800E82EFED7B12FFCD7B22FFAD7D4EC27F09C
:101528000001E6050001E711D8A4BDD00001E25191
:101538000001E311D8B411D089880B0E0001B26FF5
:10154800260E0001B16F5D0EE82EFED7B12FFCD735
:10155800B22FFAD700D08998A6D0000E0001BF6F2D
:10156800000EBE6F0001BFBF79D00001BF5106E178
:10157800190E0001BE5DD8B096D070D094D089887D
:101588004E0E0001B16FEB0EE82EFED7B12FFCD73F
:1015980089981A0E0001B16FF80EE82EFED7B12F08
:1015A800FCD75AD08988540E0001B16F1C0EE82E62
:1015B800FED7B12FFCD700F08998150E0001B16F46
:1015C800C60EE82EFED7B12FFCD746D08988590E13
:1015D8000001B16F4E0EE82EFED7B12FFCD700F0F8
:1015E8008998100E0001B16F940EE82EFED7B12F26
:1015F800FCD732D089885E0E0001B16F800EE82ECC
:10160800FED7B12FFCD700F089980B0E0001B16FFF
:10161800620EE82EFED7B12FFCD71ED08988630E44
:101628000001B16FB20EE82EFED7B12FFCD700F043
:101638008998340E0001B16FF10EE82EFED7B12F54
:10164800FCD700D026D08988680E0001B16FE40E5F
:10165800E82EFED7B12FFCD700F01BD0C0C0B1F0E8
:10166800C1C0B2F00001B251000AD8A4ECD7000101
:10167800B151010AD8B483D7030AD8B493D7010A61
:10168800D8B4A4D7070AD8B4B5D7010AD8B4C6D7EE
:10169800DAD70001BE4BBF2B0001BFBFDFD7000167
:1016A800BF5101E165D789980001C04BC12B0001EA
:1016B800E6510001E711D8A416D0150E0001B26F4B
:1016C8004B0E0001B16FBE0EE82EFED7B12FFCD72E
:1016D800B22FFAD700F0D4EC27F00001E60500019C
:1016E800E711D8A406D00001E6050001E711D8B437
:1016F800E3D68A94000E0101326F010E316F120099
:10170800900E0001A16F000E0001A26F05D2250EF8
:101718000001A819D8B405D00001A85157EC2BF046
:10172800FBD1000E0001AA6F000EA96F000E000188
:10173800A76F05D00001A78500018E4B8F2B8EC0A7
:10174800F6FF8FC0F7FFF86A0800F550300AD8B4E2
:10175800F1D78EC0F6FF8FC0F7FFF86A0800F55082
:101768006BEC2AF0D8A0D2D0000E0001AA6F000EB0
:10177800A96FA9C080F0AAC081F0000E0001836F94
:101788000A0E826FD4EC28F080C0A9F081C0AAF0BC
:10179800D00E00019A6FFF0E00019B6F8EC0F6FFFE
:1017A8008FC0F7FFF86A0800F55000019C6F9D6B29
:1017B80000019A5100019C2700019B5100019D23C3
:1017C80000019C510001A92700019D510001AA2395
:1017D80000018E4B8F2B8EC0F6FF8FC0F7FFF86A83
:1017E8000800F5506BEC2AF0D8A090D0C2D7A1C061
:1017F800D9FFA2C0DAFFDECF9FF0DDCFA0F0020E46
:101808000001A127000EA22300019F510001A01191
:10181800D8A406D0B50E00019F6FFF0E0001A06F7F
:10182800000E0001A46F000EA36F03D00001A34BAC
:10183800A42B0001A35100019F2500019A6F00010C
:10184800A4510001A02100019B6F9AC0F6FF9BC024
:10185800F7FF000EF86E0F0EF76403D00800F5507E
:1018680005D0F6CFE9FFF7CFEAFFEF500009D8A47B
:10187800DDD70001A9510001A35D0001AA510001B3
:10188800A459D8B009D00001A3510001A95F0001F3
:10189800A4510001AA5B09D0000E0001AA6F000E36
:1018A800A96F03D0200E57EC2BF00001A907D8A090
:1018B800AA070001A929F6E10001AA29D8B417D07E
:1018C800F1D79FC0F6FFA0C0F7FF000EF86E0F0E0D
:1018D800F76403D00800F55005D0F6CFE9FFF7CF3D
:1018E800EAFFEF5057EC2BF000019F4BA02B0001B3
:1018F800A307D8A0A4070001A329E3E10001A429B4
:10190800D8B40AD1DED70001A78D1DD08EC0F6FF4E
:101918008FC0F7FF00018E4B8F2BF86A0800F5CFB8
:10192800A8F00001A851000AD8B41200640AD8B47B
:101938000AD00D0AD8B407D01A0AD8B458D7060A5C
:10194800D8B4E1D7E9D00001A7BD19D0A1C0D9FF0B
:10195800A2C0DAFFDECFA5F0DDCFA6F0020E0001AF
:10196800A127000EA2230001A6AF16D0030E000186
:10197800A7130001A56DA61FD8B0A62B0DD0A1C036
:10198800D9FFA2C0DAFFDECFA5F0DDCFA6F0020EA8
:101998000001A127000EA223010E0001A86F050E69
:1019A8000001A819D8B419D00001A851020DB40E2D
:1019B800F324F66EFA0EF420F76EF86A000EF82299
:1019C8000900F5500001A55D0900F5500001A65970
:1019D800D8A003D00001A82BE2D70001A95100012B
:1019E800AA11D8B40BD0A7C09AF0030E00019A1719
:1019F800D8B404D00001A907D8A0AA07800E000116
:101A0800A8BF7F0E00019A6F0001A9510001A85DCF
:101A18000001AA51800A00019A59D8B00BD00001E0
:101A2800A8510001A95F000E0001A8BFFF0E000128
:101A3800AA5B05D0000E0001AA6F000EA96F000175
:101A4800A7A518D0A7C09AF0030E00019A17D8B41A
:101A580003D02D0E57EC2BF00001A9510001AA115B
:101A6800D8B425D0300E57EC2BF00001A907D8A028
:101A7800AA07F2D70001A9510001AA11D8B40DD0C4
:101A8800200E57EC2BF00001A907D8A0AA070001E7
:101A9800A9510001AA11D8A4F3D7A7C09AF0030E40
:101AA80000019A17D8B403D02D0E57EC2BF0A8C01C
:101AB8009EF02CD000019E51020DB40EF324F66E58
:101AC800FA0EF420F76EF86A000EF8220900F5CF36
:101AD80082F00A00F5CF83F0A5C080F0A6C081F09F
:101AE8004CEC25F080C087F081C088F0000E000122
:101AF8008A6F0A0E896F9AEC26F000018751300F21
:101B08000001A86F0001A85157EC2BF000019E07B7
:101B180000019E29D8A4CED78EC0F6FF8FC0F7FF4C
:101B280000018E4B8F2BF86A0800F5CFA8F0000152
:101B3800A851D8B41200EBD5010E5FEC2BF0680E5B
:101B48000001AB6FE40EE82EFED7AB2FFCD700F0F8
:101B5800800E5FEC2BF0BE0E00018E6FFC0E0001B4
:101B68008F6F84EC0BF0CD80B180010E0001FC6F0B
:101B7800000E786E000E776E000E7C6E000E7B6E87
:101B880010EC25F03D0E0001AC6FE10E0001AB6FCB
:101B98003F0EE82EFED7AB2FFCD7AC2FFAD700D0DC
:101BA800010E0001816FF40E806F000E0001836F3B
:101BB800010E826F8BEC24F0040E0001816F1A0E67
:101BC800806F000E0001836F030E826F8BEC24F090
:101BD8001F0E0001AC6F710E0001AB6F1E0EE82ED8
:101BE800FED7AB2FFCD7AC2FFAD700F0040E0001BC
:101BF800816FEC0E806F000E0001836F030E826F01
:101C08008BEC24F01D0E0001AC6F690E0001AB6F68
:101C1800A50EE82EFED7AB2FFCD7AC2FFAD7040EB3
:101C28000001816F1A0E806F000E0001836F030E92
:101C3800826F8BEC24F01F0E0001AC6F710E000157
:101C4800AB6F1E0EE82EFED7AB2FFCD7AC2FFAD702
:101C580000F0030E0001816F520E806F000E00012C
:101C6800836F010E826F8BEC24F0040E0001816FEC
:101C78001A0E806F000E0001836F030E826F8BECCB
:101C880024F01F0E0001AC6F710E0001AB6F1E0E29
:101C9800E82EFED7AB2FFCD7AC2FFAD700F0040EF6
:101CA8000001816FEC0E806F000E0001836F030E40
:101CB800826F8BEC24F01D0E0001AC6F690E0001E1
:101CC800AB6FA50EE82EFED7AB2FFCD7AC2FFAD7FB
:101CD800040E0001816F1A0E806F000E0001836FE1
:101CE800030E826F8BEC24F01F0E0001AC6F710E97
:101CF8000001AB6F1E0EE82EFED7AB2FFCD7AC2F22
:101D0800FAD700F0010E0001816FF40E806F000E0B
:101D18000001836F010E826F8BEC24F0040E00012A
:101D2800816F1A0E806F000E0001836F030E826FA1
:101D38008BEC24F01F0E0001AC6F710E0001AB6F2D
:101D48001E0EE82EFED7AB2FFCD7AC2FFAD700F02B
:101D5800040E0001816FEC0E806F000E0001836F8E
:101D6800030E826F8BEC24F01D0E0001AC6F690E20
:101D78000001AB6FA50EE82EFED7AB2FFCD7AC2F1A
:101D8800FAD7040E0001816F1A0E806F000E000151
:101D9800836F030E826F8BEC24F03D0E0001AC6F55
:101DA800E10E0001AB6F3F0EE82EFED7AB2FFCD73C
:101DB800AC2FFAD700D0060E0001816F860E806F17
:101DC800000E0001836F010E826F8BEC24F0040E6D
:101DD8000001816F1A0E806F000E0001836F030EE1
:101DE800826F8BEC24F01F0E0001AC6F710E0001A6
:101DF800AB6F1E0EE82EFED7AB2FFCD7AC2FFAD751
:101E080000F0050E0001816F6E0E806F000E00015C
:101E1800836F030E826F8BEC24F01D0E0001AC6FF4
:101E2800690E0001AB6FA50EE82EFED7AB2FFCD7CD
:101E3800AC2FFAD7040E0001816F1A0E806F000EC6
:101E48000001836F030E826F8BEC24F01F0E0001DC
:101E5800AC6F710E0001AB6F1E0EE82EFED7AB2FD4
:101E6800FCD7AC2FFAD700F0090E0001816F600E85
:101E7800806F000E0001836F010E826F8BEC24F0DF
:101E8800040E0001816F1A0E806F000E0001836F2F
:101E9800030E826F8BEC24F01F0E0001AC6F710EE5
:101EA8000001AB6F1E0EE82EFED7AB2FFCD7AC2F70
:101EB800FAD700F0050E0001816F6E0E806F000EDC
:101EC8000001836F030E826F8BEC24F01D0E00015E
:101ED800AC6F690E0001AB6FA50EE82EFED7AB2FD5
:101EE800FCD7AC2FFAD7040E0001816F1A0E806F51
:101EF800000E0001836F030E826F8BEC24F01F0E1F
:101F08000001AC6F710E0001AB6F1E0EE82EFED7FC
:101F1800AB2FFCD7AC2FFAD700F011EC2BF0030E47
:101F28000001FC6F12000F0E206E000E216EA4D16E
:101F3800250E2718D8B404D0275067EC2BF09CD175
:101F4800000E296E000E286E000E266E03D0268421
:101F58000D4A0E2A0DC0F6FF0EC0F7FFF86A0800FA
:101F6800F550300AD8B4F3D70DC0F6FF0EC0F7FF0E
:101F7800F86A0800F55002EC2BF0D8A0A6D0000EA5
:101F8800296E000E286E28C001F029C002F0000E4C
:101F9800046E0A0E036EA8EC2AF001C028F002C0F5
:101FA80029F0D00E196EFF0E1A6E0DC0F6FF0EC086
:101FB800F7FFF86A0800F5501B6E1C6A19501B26BB
:101FC8001A501C221B5028261C5029220D4A0E2A62
:101FD8000DC0F6FF0EC0F7FFF86A0800F55002ECD6
:101FE8002BF0D8A072D0CFD720C0D9FF21C0DAFFFC
:101FF800DECF1EF0DDCF1FF0020E2026000E2122BC
:102008001E501F10D8A404D0B50E1E6EFF0E1F6EF2
:10201800000E236E000E226E02D0224A232A22507E
:102028001E24196E23501F201A6E19C0F6FF1AC0FD
:10203800F7FF000EF86E0F0EF76403D00800F55096
:1020480005D0F6CFE9FFF7CFEAFFEF500009D8A493
:10205800E4D72850225C29502358D8B005D0225004
:10206800285E2350295A08D0000E296E000E286ECB
:1020780003D0200E67EC2BF02806D8A029062828C4
:10208800F8E12928D8B416D0F4D71EC0F6FF1FC02F
:10209800F7FF000EF86E0F0EF76403D00800F55036
:1020A80005D0F6CFE9FFF7CFEAFFEF5067EC2BF04A
:1020B8001E4A1F2A2206D8A023062228E6E1232842
:1020C800D8B4DAD0E2D7268C1BD00DC0F6FF0EC0EC
:1020D800F7FF0D4A0E2AF86A0800F5CF27F02750B7
:1020E800000AD8B41200640AD8B40AD00D0AD8B4C9
:1020F80007D01A0AD8B478D7060AD8B4E4D7BCD01F
:1021080026BC15D020C0D9FF21C0DAFFDECF24F0CD
:10211800DDCF25F0020E2026000E212225AE13D099
:10212800030E2612246C251ED8B0252A0CD020C0F8
:10213800D9FF21C0DAFFDECF24F0DDCF25F0020E73
:102148002026000E2122010E276E050E2718D8B46E
:1021580015D02750020DB40EF324F66EFA0EF420B3
:10216800F76EF86A000EF8220900F550245C0900A1
:10217800F5502558D8A002D0272AE7D7285029108B
:10218800D8B409D026C019F0030E1916D8B403D054
:102198002806D8A02906800E27BE7F0E196E285063
:1021A800275C2950800A1958D8B007D02750285ED4
:1021B800000E27BEFF0E295A04D0000E296E000E0D
:1021C800286E26A414D026C019F0030E1916D8B408
:1021D80003D02D0E67EC2BF028502910D8B41ED050
:1021E800300E67EC2BF02806D8A02906F5D7285022
:1021F8002910D8B40AD0200E67EC2BF02806D8A0F6
:10220800290628502910D8A4F6D726C019F0030E9D
:102218001916D8B403D02D0E67EC2BF027C01DF08B
:1022280027D01D50020DB40EF324F66EFA0EF420DA
:10223800F76EF86A000EF8220900F5CF08F00A00D8
:10224800F5CF09F024C006F025C007F084EC27F08C
:1022580006C001F007C002F0000E046E0A0E036EFD
:1022680043EC28F00150300F276E275067EC2BF015
:102278001D061D28D8A4D5D70DC0F6FF0EC0F7FF40
:102288000D4A0E2AF86A0800F5CF27F02750D8B46F
:1022980012004ED68B8A010E0001FC6F000E000161
:1022A800EF6F000EEE6F000E746E000E736E8A965E
:1022B800CA84000E7A6E000E796E000E0001B66FA9
:1022C800010EB56F010E5FEC2BF0680E0001AB6FCD
:1022D800E40EE82EFED7AB2FFCD700F0800E5FECA3
:1022E8002BF0140E00018E6FFC0E00018F6F84EC32
:1022F8000BF058D0000E55EC2AF0C350C4CFABF009
:102308000001AC6BABC0ACF00001AB6B0001AB11D2
:102318000001AD6F0001AC510001AE6F0001AEBF0E
:102328000AD0210E0001AD5D030E0001AE59D8A000
:1023380002D0010E01D0000E0001E66FE76B010E1E
:102348005FEC2BF0680E0001AB6FE40EE82EFED7B1
:10235800AB2FFCD700F0800E5FEC2BF0140E0001C1
:102368008E6FFC0E00018F6F84EC0BF0C00E5FECDB
:102378002BF0030E00018E6FFC0E00018F6FADC0B5
:1023880090F0AEC091F084EC0BF0050E0001AC6F3C
:102398000F0E0001AB6FF10EE82EFED7AB2FFCD766
:1023A800AC2FFAD781B259D0A5D7000E55EC2AF038
:1023B800C350C4CFABF00001AC6BABC0ACF00001B4
:1023C800AB6B0001AB110001AF6F0001AC51000114
:1023D800B06F0001B0BF0AD0210E0001AF5D030E3F
:1023E8000001B059D8A002D0010E01D0000E0001A2
:1023F800E66FE76B010E5FEC2BF0680E0001AB6F28
:10240800E40EE82EFED7AB2FFCD700F0800E5FEC71
:102418002BF0140E00018E6FFC0E00018F6F84EC00
:102428000BF0C00E5FEC2BF0030E00018E6FFC0E5C
:1024380000018F6FAFC090F0B0C091F084EC0BF04A
:10244800050E0001AC6F0F0E0001AB6FF10EE82E08
:10245800FED7AB2FFCD7AC2FFAD781A2A6D78138ED
:102468000F0B0F0AD8B49AD081CFABF00001AB3B69
:102478000F0EAB17D8A412D08AB404D00001AB6BEE
:10248800AB2B02D00001AB6B0001AB47AB478A50C6
:102498000001AB19FB0BAB198A6E7DD081380F0B8D
:1024A800030AD8A420D00001B5510001B611D8B450
:1024B80010D0000E0001EF6F010E0FD00001B551D2
:1024C8000001B611D8A40DD00AD00001B56FB66BC3
:1024D80062D0000E0001EF6F000EEE6FEFD7010E15
:1024E800F4D7000EF2D781380F0B050AD8A427D0ED
:1024F800000E0001B26F000EB16F0001B2BF08D02C
:102508000001B25148E11E0E0001B15DD8B043D0C0
:1025180089884E0E0001AB6FEB0EE82EFED7AB2F6D
:10252800FCD789981A0E0001AB6FF80EE82EFED77B
:10253800AB2FFCD700F00001B14BB22BDED78138AE
:102548000F0B060AD8A427D0000E0001B46F000EA6
:10255800B36F0001B4BF08D00001B4511CE11E0ED6
:102568000001B35DD8B017D089883D0E0001AB6F6C
:10257800410EE82EFED7AB2FFCD789982C0E000110
:10258800AB6FA10EE82EFED7AB2FFCD700D0000111
:10259800B34BB42BDED781A260D7FDD78B9A11EC51
:1025A8002BF0030E0001FC6F1200010E5FEC2BF004
:1025B800680E0001AB6FE40EE82EFED7AB2FFCD7F8
:1025C80000F0800E5FEC2BF0AD0E00018E6FFF0E59
:1025D80000018F6F84EC0BF0C00E5FEC2BF0150E32
:1025E80000018E6FFF0E00018F6F84EC0BF0050E5B
:1025F8000001AC6F0F0E0001AB6FF10EE82EFED795
:10260800AB2FFCD7AC2FFAD781A2FED781B2FED769
:10261800010E5FEC2BF0680E0001AB6FE40EE82EA4
:10262800FED7AB2FFCD700F0800E5FEC2BF03F0EEF
:1026380000018E6FFF0E00018F6F84EC0BF0050E0A
:102648000001AC6F0F0E0001AB6FF10EE82EFED744
:10265800AB2FFCD7AC2FFAD78B8A5CD0000E55EC89
:102668002AF0C350C4CFABF00001AC6BABC0ACF0E8
:102678000001AB6B0001AB110001AD6F0001AC5163
:102688000001AE6F0001AEBF0AD0210E0001AD5DA2
:10269800030E0001AE59D8A002D0010E01D0000EE1
:1026A8000001E66FE76B010E5FEC2BF0680E00018E
:1026B800AB6FE40EE82EFED7AB2FFCD700F0800EF0
:1026C8005FEC2BF0640E00018E6FFE0E00018F6F21
:1026D800E6C090F0E7C091F084EC0BF0C00E5FEC20
:1026E8002BF0200E00018E6FFE0E00018F6FADC023
:1026F80090F0AEC091F084EC0BF0050E0001AC6FC9
:102708000F0E0001AB6FF10EE82EFED7AB2FFCD7F2
:10271800AC2FFAD781A2A2D78B9A010E5FEC2BF0CF
:10272800680E0001AB6FE40EE82EFED7AB2FFCD786
:1027380000F0800E5FEC2BF0910E00018E6FFE0E04
:1027480000018F6F84EC0BF0050E0001AC6F0F0ECB
:102758000001AB6FF10EE82EFED7AB2FFCD7AC2FE4
:10276800FAD721D0FAEC27F0800E5FEC2BF0C00EE0
:102778005FEC2BF0340E00018E6FFE0E00018F6FA0
:10278800E8C090F0E9C091F084EC0BF0050E000170
:10279800AC6F0F0E0001AB6FF10EE82EFED7AB2F1A
:1027A800FCD7AC2FFAD781A2DDD7010E5FEC2BF056
:1027B800680E0001AB6FE40EE82EFED7AB2FFCD7F6
:1027C80000F0800E5FEC2BF0860E00018E6FFF0E7E
:1027D80000018F6F84EC0BF0050E0001AC6F0F0E3B
:1027E8000001AB6FF10EE82EFED7AB2FFCD7AC2F54
:1027F800FAD7010E5FEC2BF0680E0001AB6FE40E08
:10280800E82EFED7AB2FFCD700F0800E5FEC2BF044
:10281800860E00018E6FFF0E00018F6F84EC0BF0A7
:102828001BD0800E5FEC2BF0C00E5FEC2BF0A40EDB
:1028380000018E6FFF0E00018F6F80A404D000018D
:10284800AB6BAB2B02D00001AB6B0001AB510001AD
:10285800906F916B84EC0BF081A2E3D781380F0B5A
:102868000F0AD8B4120089861BD0800E5FEC2BF0BB
:10287800C00E5FEC2BF0A40E00018E6FFF0E00015E
:102888008F6F80A404D00001AB6BAB2B02D000018A
:10289800AB6B0001AB510001906F916B84EC0BF0B6
:1028A80081B2E3D78996A5D748EC24F04BC1BEF096
:1028B8004CC1BFF04DC1C0F04EC1C1F0000E0001C7
:1028C800C36F000EC26F0001C3BF08D00001C3511F
:1028D80046E1070E0001C25DD8B041D01C0E0001D0
:1028E800C225D96E010E0001C321DA6EDF50000146
:1028F800AB6F0001AB3B0F0EAB170F0E0001AB1710
:102908000001AB510A0D1C0E0001C225D96E010E43
:102918000001C321DA6EDF500F0B0001AC6FAD6B05
:10292800F3500001AC27F4500001AD23D89000010A
:10293800C235D96E0001C335DA6EAE0ED926000E47
:10294800DA22ACC0DEFFADC0DDFF0001C24BC32BF5
:102958000001C3BFC3D70001C35101E1BAD7B8C052
:10296800BCF0B9C0BDF0B4D0BE0E0001806F000E3F
:102978000001816FDA0E0001826FFF0E0001836F84
:10298800B9EC28F0D4D0BE0E0001806F000E000113
:10299800816FCA0E0001826FFF0E0001836FB9ECD0
:1029A80028F0C5D0BE0E0001806F000E0001816FB7
:1029B800E60E0001826FFF0E0001836FB9EC28F06C
:1029C800B6D0BE0E0001806F000E0001816FEA0EC6
:1029D8000001826FFF0E0001836FB9EC28F0A7D0C9
:1029E800BE0E0001806F000E0001816FFA0E00011B
:1029F800826FFF0E0001836FB9EC28F098D0BE0EED
:102A08000001806F000E0001816FDE0E0001826FF1
:102A1800FF0E0001836FB9EC28F089D0BE0E0001CB
:102A2800806F000E0001816FD60E0001826FFF0ECD
:102A38000001836FB9EC28F07AD0BE0E0001806FD8
:102A4800000E0001816FD20E0001826FFF0E00019F
:102A5800836FB9EC28F06BD0BE0E0001806F000EBA
:102A68000001816FE20E0001826FFF0E0001836F8B
:102A7800B9EC28F05CD0BE0E0001806F000E00019A
:102A8800816FF20E0001826FFF0E0001836FB9ECB7
:102A980028F04DD0BE0E0001806F000E0001816F3E
:102AA800F60E0001826FFF0E0001836FB9EC28F06B
:102AB8003ED0BE0E0001806F000E0001816FCE0E69
:102AC8000001826FFF0E0001836FB9EC28F02FD050
:102AD800BCC0ABF0BDC0ACF00001AC51000AD8A43A
:102AE80026D00001AB51010AD8B43ED7030AD8B4A6
:102AF8004AD7010AD8B456D7070AD8B462D7010A08
:102B0800D8B46ED7030AD8B47AD7010AD8B486D70E
:102B18000F0AD8B492D7010AD8B49ED7030AD8B4FA
:102B2800AAD7010AD8B4B6D7070AD8B4C2D7800E34
:102B38005FEC2BF0BE0E00018E6FFA0E00018F6F56
:102B4800B6C090F0B7C091F0BE0E0001926F000EB3
:102B58000001936FB2C094F0B3C095F0B0C096F086
:102B6800B1C097F0AEC098F0AFC099F084EC0BF00C
:102B78001200000E766E000E756E000E5E6E000E70
:102B88005D6E000E606E000E5F6E000E5C6E000ED5
:102B98005B6EF29EBEEC1BF02A502B10D8A412D10B
:102BA80046D181EC29F043D175507610D8B403D0C2
:102BB80069EC29F03CD15D505E10D8B403D051ECDB
:102BC80029F035D15F506010D8B431D194EC2AF097
:102BD8002ED175507610D8B403D081EC29F027D1C6
:102BE8005D505E10D8B411D069EC29F020D1755031
:102BF8007610D8B403D081EC29F019D15D505E105D
:102C0800D8B403D069EC29F012D15F506010D8B461
:102C18000ED1010E0001FC6F0AD175507610D8B4A0
:102C280003D039EC29F003D15D505E10D8B403D03D
:102C380081EC29F0FCD05F506010D8B4F8D0F9ECE2
:102C480029F0F5D075507610D8B403D099EC29F056
:102C5800EED05D505E10D8B403D0E1EC29F0E7D097
:102C68005F506010D8B407D0000E136E010E126EBC
:102C7800CEEC2AF0DCD05B505C10D8B4D8D069EC2C
:102C880029F0D5D075507610D8B403D0F9EC29F0D6
:102C9800CED05D505E10D8B403D028EC2AF0C7D04F
:102CA8005F506010D8B407D0000E136E020E126E7B
:102CB800CEEC2AF0BCD05B505C10D8B4B8D069EC2C
:102CC80029F0B5D075507610D8B403D0F9EC29F0B6
:102CD800AED05D505E10D8B403D028EC2AF0A7D04F
:102CE8005F506010D8B407D0000E136E020E126E3B
:102CF800CEEC2AF09CD05B505C10D8B498D069EC2C
:102D080029F095D075507610D8B403D0C9EC29F0C5
:102D18008ED05D505E10D8B403D099EC29F087D0DE
:102D28005F506010D8B407D0000E136E030E126EF9
:102D3800CEEC2AF07CD05B505C10D8B478D069EC2B
:102D480029F075D075507610D8B403D0C9EC29F0A5
:102D58006ED05D505E10D8B403D099EC29F067D0DE
:102D68005F506010D8B407D0000E136E030E126EB9
:102D7800CEEC2AF05CD05B505C10D8B458D069EC2B
:102D880029F055D075507610D8B403D0B1EC29F09D
:102D98004ED05D505E10D8B403D0F9EC29F047D07E
:102DA8005F506010D8B407D0000E136E040E126E78
:102DB800CEEC2AF03CD05B505C10D8B438D069EC2B
:102DC80029F035D0ECC043F0EDC044F04450000A7F
:102DD800D8B407D0030AD8B415D0070AD8B420D07D
:102DE80026D04350000AD8B4DCD60B0AD8B4DCD6B7
:102DF800070AD8B4EED61A0AD8B4F9D6010AD8B454
:102E08000CD715D04350F30AD8B41CD7070AD8B446
:102E180039D70A0AD8B456D7010AD8B473D707D015
:102E28004350090AD8B48ED7030AD8B4ABD7F28E68
:102E38001200C1EC25F0000E4A6E000E496E4ABE23
:102E480006D04A5031E1070E495CD8B02DD01C0E8F
:102E58004924D96E010E4A20DA6EDF502A6E2A3ACA
:102E68000F0E2A160F0E2A162A500A0D1C0E492478
:102E7800D96E010E4A20DA6EDF500F0B2B6E2C6ACA
:102E8800F3502B26F4502C22D8904934D96E4A346A
:102E9800DA6E2D0ED926000EDA222BC0DEFF2CC0EA
:102EA800DDFF494A4A2ACBD710C101F011C102F00F
:102EB800000E046E3C0E036EA8EC2AF001C02AF046
:102EC80002C02BF012C101F013C102F00E0E046E05
:102ED800100E036EA8EC2AF001502A2602502B226D
:102EE80001010E512A243B6E01010F512B203C6E2B
:102EF8002FC001F030C002F0000E046E3C0E036ECD
:102F0800A8EC2AF001C02AF002C02BF031C001F071
:102F180032C002F00E0E046E100E036EA8EC2AF0FA
:102F280001502A2602502B222D502A243D6E2E5065
:102F38002B203E6E3BC02AF03CC02BF02A1E2B1ED5
:102F48002A4A2B2A3D502A24456E3E502B20466E95
:102F580045C0FAF046C0FBF00101375101013811B4
:102F6800D8B409D0FAC069F0FBC06AF0000E0101BC
:102F7800386F000E376F69C02AF06AC02BF02A1E1E
:102F88002B1E2A4A2B2A0001FA512A260001FB513E
:102F98002B22140E2A182B10D8A433D08A94520E40
:102FA8002B6E2B0E2A6E000EE82EFED72A2EFCD78B
:102FB8002B2EFAD700D0000E486E000E476E48BE82
:102FC80006D048501DE12E0E475CD8B019D08AB4FF
:102FD80003D02A6A2A2A01D02A6A2A462A468A500F
:102FE8002A18FB0B2A188A6E475000082D0F1FEC71
:102FF8002BF0474A482A48BEEAD7485001E1E3D7B0
:103008008A8469C02AF06AC02BF02A1E2B1E2A4A1D
:103018002B2A0001FA512A260001FB512B222A0EE5
:103028002A182B10D8B407D0B30E0001FA190001E2
:10303800FB11D8A403D0020E0001FC6F0E0E046E23
:10304800100E036E45C001F046C002F043EC28F0B4
:1030580001C006F002C007F0000E096E3C0E086EB3
:1030680084EC27F006C03FF007C040F00E0E046E57
:10307800100E036E45C001F046C002F043EC28F084
:1030880001C043F002C044F043C001F044C002F064
:10309800000E046E3C0E036E43EC28F001C041F0B4
:1030A80002C042F0800E6DEC2BF07B0E0D6EFF0E11
:1030B8000E6E97EC0FF0C00E6DEC2BF04C0E0D6EF3
:1030C800FF0E0E6E3FC00FF040C010F041C011F06F
:1030D80042C012F097EC0FF01200010131510101CA
:1030E8003211D8B41200290E0001836F960E000128
:1030F800826F7F0EE82EFED7822FFCD7832FFAD758
:10310800000E0001EF6F000EEE6F8986190E0001A8
:10311800836F5A0E0001826FB10EE82EFED7822F00
:10312800FCD7832FFAD700D080A404D00001826B8B
:10313800822B02D00001826B000182510001E46FF2
:10314800E56B8996090E0001836F1E0E0001826FE0
:10315800E40EE82EFED7822FFCD7832FFAD700F093
:103168008986190E0001836F5A0E0001826FB10E15
:10317800E82EFED7822FFCD7832FFAD700D080A461
:1031880004D00001826B822B02D00001826B000107
:10319800E451000182110001E46F0001E5510001D2
:1031A800E56F0001E2510001E311D8A416D0000137
:1031B800E4510001E511D8A408D00101274B282BC0
:1031C800000E01012C6F000E07D00101294B2A2B9C
:1031D800000E01012C6F010E2B6F0001E25100015E
:1031E800E311D8B416D00001E4510001E511D8A4C8
:1031F80008D00101254B262B000E01012C6F020E71
:1032080007D00101234B242B000E01012C6F030E64
:103218002B6F89960101355101013611D8B4FAD7BF
:103228000001E2510001E311D8B420D08986000ED4
:103238000001856F000E846F000185BF08D0100E55
:103248000001845D270E00018559D8B00DD08B8010
:103258001A0EE82EFED700D08B90F00EE82EFED77F
:103268000001844B852BE8D789961DD0000E0001FC
:10327800876F000E866F000187BF08D0100E00010F
:10328800865D270E00018759D8B00DD08B801A0EA5
:10329800E82EFED700D08B90F00EE82EFED7000166
:1032A800864B872BE8D78B90000E0101346F010EF7
:1032B800336F1F0E0001836F710E0001826F1E0EA7
:1032C800E82EFED7822FFCD7832FFAD700F08B8009
:1032D8000001F0510001F111D8A432D0000E000114
:1032E800896F000E886F000189BF08D000018951DD
:1032F80026E12E0E0001885DD8B021D08AB404D012
:103308000001826B822B02D00001826B0001824790
:1033180082478A5000018219FB0B82198A6E0001CC
:10332800885100082D0F80EC2AF00001884B892B6A
:10333800000189BFE3D70001895101E1DAD78A8406
:10334800000E0101326F000E316F1200C1EC25F042
:103358004BC13DF04CC13EF04DC13FF04EC140F075
:10336800000E426E000E416E42BE06D0425035E15C
:10337800070E415CD8B031D01C0E4124D96E010E25
:103388004220DA6EDF502A6E2A3A0F0E2A160F0EE6
:103398002A162A500A0D1C0E4124D96E010E42200D
:1033A800DA6EDF500F0B2B6E2C6AF3502B26F4507D
:1033B8002C22D8904134D96E4234DA6E2D0ED9269B
:1033C800000EDA222BC0DEFF2CC0DDFF414A422A64
:1033D80042BED2D7425001E1CBD737C03BF038C00C
:1033E8003CF084D03D0E016E000E026EDA0E036EC4
:1033F800FF0E046E08EC29F0A6D03D0E016E000EFB
:10340800026ECA0E036EFF0E046E08EC29F09BD004
:103418003D0E016E000E026EE60E036EFF0E046E88
:1034280008EC29F090D03D0E016E000E026EEA0EF7
:10343800036EFF0E046E08EC29F085D03D0E016E78
:10344800000E026EFA0E036EFF0E046E08EC29F0F1
:103458007AD03D0E016E000E026EDE0E036EFF0E78
:10346800046E08EC29F06FD03D0E016E000E026E5E
:10347800D60E036EFF0E046E08EC29F064D03D0EE4
:10348800016E000E026ED20E036EFF0E046E08EC83
:1034980029F059D03D0E016E000E026EE20E036E49
:1034A800FF0E046E08EC29F04ED03D0E016E000EA2
:1034B800026EF20E036EFF0E046E08EC29F043D084
:1034C8003D0E016E000E026EF60E036EFF0E046EC8
:1034D80008EC29F038D03D0E016E000E026ECE0EBB
:1034E800036EFF0E046E08EC29F02DD03BC02AF0C5
:1034F8003CC02BF02B50000AD8A425D02A50010A32
:10350800D8B470D7030AD8B478D7010AD8B480D70A
:10351800070AD8B488D7010AD8B490D7030AD8B410
:1035280098D7010AD8B4A0D70F0AD8B4A8D7010AE7
:10353800D8B4B0D7030AD8B4B8D7010AD8B4C0D71A
:10354800070AD8B4C8D7800E6DEC2BF0BE0E0D6EEE
:10355800FA0E0E6E35C00FF036C010F03D0E116E2B
:10356800000E126E31C013F032C014F02FC015F0E7
:1035780030C016F02DC017F02EC018F097EC0FF0E1
:1035880012000600FACF4DF0FBCF4EF0E9CF4FF016
:10359800EACF50F0E1CF51F0E2CF52F0D9CF53F05B
:1035A800DACF54F0F3CF55F0F4CF56F0F6CF57F00A
:1035B800F7CF58F0F8CF59F0F5CF5AF0F0A034D043
:1035C800F09081380F0B0F0B4B6E4C6AA30E4B24F7
:1035D800F66EFA0E4C20F76EF86A000EF822080014
:1035E800F5CF7DF02A0E7D18D8B40DD018D0030E73
:1035F80007D0000E0001FC6F94EC2AF015D0020EE3
:103608000001FC6F11D00001FC51000AD8B4EFD7BB
:10361800010AD8B4F4D7020AD8B4EBD705D0000110
:10362800FC51D8B4BDEC15F0F2A40CD0F294000112
:10363800FC05D8A407D01DEC17F0850ED76EEE0E4A
:10364800D66ED58E9EA02AD09E90CD900001FC0506
:10365800D8A424D077507810D8B40AD08B82000E22
:10366800786E000E776EDAC0CFFFDCC0CEFF0FD0C9
:103678008B92000E786E010E776E0001DA51000809
:10368800200FCF6E0001DC510008200FCE6ECD80D8
:103698000A0E6D26000E6E22B4EC1CF09EA226D0F7
:1036A8009E92CA94734A742A0001FC05D8A41ED0BD
:1036B80079507A10D8B40AD0020E73187410D8A4AE
:1036C80005D08A86000E7A6E000E08D079507A10DE
:1036D800D8A409D08A96000E7A6E010E796E000E73
:1036E800746E000E736E64EC28F0CA84A1A224D014
:1036F800A192B1900001FC05D8A41ED07B507C108B
:10370800D8B40AD08B84000E7C6E000E7B6EDEC0AF
:10371800B3FFE0C0B2FF0FD08B94000E7C6E010E99
:103728007B6E0001DE510008200FB36E0001E051EE
:103738000008200FB26EB1805AC0F5FF59C0F8FFDB
:1037480058C0F7FF57C0F6FF56C0F4FF55C0F3FF47
:1037580054C0DAFF53C0D9FF52C0E2FF51C0E1FFA5
:1037680050C0EAFF4FC0E9FF4EC0FBFF4DC0FAFF53
:103778007E92110001013B5101013C11D8B40CD0DB
:1037880081EC29F0000E01013C6F000E3B6F000E2A
:103798002B6E000E2A6E12000001F8510001F9117B
:1037A800D8B4C7D0430E7D18D8A412D081B209D09E
:1037B8000FD0680E2C6EE40EE82EFED72C2EFCD708
:1037C80000D081B2F6D7000E2B6E000E2A6E1200C2
:1037D800440E7D18D8A4F7D7000E0001F96F000E2B
:1037E800F86F12D0F9EC29F0EED7E1EC29F0EBD71D
:1037F800C9EC29F0E8D728EC2AF0E5D7B1EC29F094
:10380800E2D799EC29F0DFD7ECC02CF0EDC02DF011
:103818002D50030AD8B404D0070AD8B40FD0D3D790
:103828002C50F30AD8B4DED7070AD8B4DED70A0A70
:10383800D8B4DED7010AD8B4DED7C5D72C50090AC8
:10384800D8B4DCD7030AD8B4DCD7BDD70B0E000137
:10385800EC190001ED11D8A405D0000E2B6E000E56
:103868002A6E120081EC29F0000E2B6E000E2A6ED3
:103878001200160E0001EC190001ED11D8B407D0A2
:103888000C0E0001EC190001ED11D8A405D0000EB2
:103898002B6E000E2A6E1200170E0001EC190001A3
:1038A800ED11D8A403D039EC29F002D051EC29F05D
:1038B800000E2B6E000E2A6E1200170E0001EC1976
:1038C8000001ED11D8A405D0000E2B6E000E2A6E53
:1038D800120069EC29F0000E2B6E000E2A6E120001
:1038E800000E766E010E756E000E2B6E010E2A6E9E
:1038F8001200000E5E6E010E5D6E000E2B6E010E44
:103908002A6E1200000E606E010E5F6E000E2B6EA6
:10391800010E2A6E1200000E5C6E010E5B6E000E28
:103928002B6E010E2A6E1200000E2B6E010E2A6EEF
:1039380012007D50310AD8B489D7030AD8B499D770
:10394800010AD8B4BAD7720AD8B4CAD7030AD8B405
:10395800D0D7010AD8B4D6D7070AD8B4DCD7E4D769
:103968006F506D5C6E50800A096E7050800A09585D
:10397800D8A0120061506210D8A436D05FD0040ECF
:10398800026EEC0E016E000E046E030E036EFAEC6E
:1039980025F025D0020E706EBC0E6F6E4AD0040E54
:1039A800026EEC0E016E000E046E030E036EFAEC4E
:1039B80025F015D0050E026E6E0E016E000E046E17
:1039C800030E036EFAEC25F00AD0050E026E6E0E99
:1039D800016E000E046E030E036EFAEC25F0000E65
:1039E8006E6E000E6D6ED6D76BC009F06CC00AF013
:1039F8000A50010AD8B40AD0020AD8B40CD0050A71
:103A0800D8B40ED00F0AD8B410D013D00950F40A85
:103A1800D8B4B5D70ED00950520AD8B4C0D709D0F7
:103A28000950860AD8B4C6D704D00950600AD8B459
:103A3800CCD7000E626E000E616E1200B00E6B18CD
:103A48005AE1040E6C18D8A456D0000E6E6E000E03
:103A58006D6E1200040E026E1A0E016E000E046ED8
:103A6800030E036EFAEC25F0000E6E6E000E6D6EFE
:103A7800020E706EEE0E6F6E1200040E026E1A0EBB
:103A8800016E000E046E030E036EFAEC25F0000EB4
:103A98006E6E000E6D6E020E706EEE0E6F6E120080
:103AA800040E026EB00E016E000E046E010E036E5F
:103AB800FAEC25F0040E026E1A0E016E000E046E6A
:103AC800030E036EFAEC25F0000E6E6E000E6D6E9E
:103AD800270E706E0F0E6F6E000E0101366F010E0D
:103AE800356F0001F0050001F111D8A41200020E93
:103AF8000001FC6F120071C009F072C00AF00A5090
:103B0800040AD8B404D0010AD8A4120008D0095075
:103B18001A0AD8B4C5D7F60AD8A412009BD70950F8
:103B28006E0AD8A41200A9D7010E5FEC2BF0680E1C
:103B38000001AB6FE40EE82EFED7AB2FFCD700F0E8
:103B4800800E5FEC2BF0450E00018E6FFB0E00011E
:103B58008F6F80A404D00001AB6BAB2B02D00001A7
:103B6800AB6B0001AB510001906F916B84EC0BF0D3
:103B7800C00E5FEC2BF0210E00018E6FFB0E0001D2
:103B88008F6F84EC0BF0000E0001AF6F010EAE6F6B
:103B9800000E0001B16F000EB06F18D0800E5FEC00
:103BA8002BF0450E00018E6FFB0E00018F6F80A475
:103BB80004D00001AB6BAB2B02D00001AB6B000152
:103BC800AB510001906F916B84EC0BF081A2E6D7AA
:103BD80081380F0B0F0AD8B4120081380F0BE80692
:103BE800D8A416D00001B0510001B111D8B407D043
:103BF800898606D0010E0001B06FB16B54D089964A
:103C08000001B0510001B111D8B4F4D7000EF3D7B8
:103C18000001AE510001AF11D8B407D08B8023D07A
:103C2800010E0001AE6FAF6B3ED0000E0001AD6F0C
:103C3800000EAC6F0001ADBF08D0880E0001AC5D6E
:103C4800130E0001AD59D8B00DD08B801A0EE82E96
:103C5800FED700D08B90F00EE82EFED70001AC4BBB
:103C6800AD2BE8D78B900001AE510001AF11D8B44D
:103C7800D7D7000ED6D7800E5FEC2BF0450E00018B
:103C88008E6FFB0E00018F6F80A404D00001AB6B18
:103C9800AB2B02D00001AB6B0001AB510001906F60
:103CA800916B84EC0BF081A291D7E5D7000E00014F
:103CB800816F000E806F2DEC2BF00001FD6F00016D
:103CC800FD510B0D010EF3240001B96F000EF42015
:103CD8000001BA6F030E0001FD610ED00001FD293D
:103CE8000001B16F000E0001AC6F000EAB6FB1C0E8
:103CF800ADF08EEC20F00AD0000E0001AC6F000E83
:103D0800AB6F000E0001AD6F8EEC20F00001FE518C
:103D180080090001B26FB9C0ABF0BAC0ACF0B2C054
:103D2800ADF08EEC20F00001B94BBA2B0101273918
:103D3800F00B010129110001B36FB9C0ABF0BAC093
:103D4800ACF0B3C0ADF08EEC20F00001B94BBA2B4B
:103D580001012539F00B010123110001B46FB9C02D
:103D6800ABF0BAC0ACF0B4C0ADF08EEC20F00001FE
:103D7800B94BBA2B000E0001B86F000EB76F0001E7
:103D8800B8BF08D00001B85128E1070E0001B75D9F
:103D9800D8B023D0D8900001B735D96E0001B83516
:103DA800DA6E0E0ED926010EDA22DF500001B56F49
:103DB800B9C0ABF0BAC0ACF0B5C0ADF08EEC20F035
:103DC8000001B94BBA2B0001B74BB82B0001B8BFA3
:103DD800E1D70001B85101E1D8D7FAC0B6F0B9C0AF
:103DE800ABF0BAC0ACF0B6C0ADF08EEC20F012006B
:103DF80007C001F008C002F0000E046E0B0E036E3F
:103E0800A8EC2AF0010E0124106E000E0220116E9B
:103E180010C001F011C002F039EC2BF00B6E0BC092
:103E280009F0800E09160950636E646A0BC009F028
:103E38000F0E091609500101436F446B104A112AED
:103E480010C001F011C002F039EC2BF00C6E0CC060
:103E580009F0093A0F0E09160F0E09160950656E7A
:103E6800666A0CC009F00F0E09160950676E686A79
:103E7800104A112A10C001F011C002F039EC2BF0E1
:103E88000D6E0DC009F0093A0F0E09160F0E09162E
:103E980009500101416F426B0DC009F00F0E091660
:103EA800095001013F6F406B104A112A000E0F6E36
:103EB800000E0E6E0FBE06D00F501EE1070E0E5CF0
:103EC800D8B01AD010C001F011C002F039EC2BF0B4
:103ED800096E0A6AD8900E34D96E0F34DA6E000E65
:103EE800D926010EDA2209C0DEFF0AC0DDFF104A1A
:103EF800112A0E4A0F2ADED710C001F011C002F0B5
:103F080039EC2BF0096E09500001F66FF76B1200BF
:103F18007CD0010E5FEC2BF0680E0001C66FE40E3A
:103F2800E82EFED7C62FFCD700F0800E5FEC2BF0F2
:103F38008B0E00018E6FFC0E00018F6F84EC0BF06E
:103F4800C00E5FEC2BF09C0E00018E6FFC0E000182
:103F58008F6F84EC0BF081A2FED781CFC6F00001F1
:103F6800C63B0F0EC6170001C6510101456F466BCF
:103F78000101454B462B81A21FD0FDD773EC21F0E0
:103F880044D0D9EC12F041D06BEC04F03ED00FECE9
:103F980020F03BD029EC27F038D0CEEC24F035D0F7
:103FA800FBEC26F032D04EEC11F02FD0A0EC0DF047
:103FB8002CD098EC1DF029D045C1C6F046C1C7F0F9
:103FC8000001C751000AD8A420D00001C651010A37
:103FD800D8B4D4D7030AD8B4D4D7010AD8B4D4D71C
:103FE800070AD8B4D4D7010AD8B4D4D7030AD8B4A6
:103FF800D4D7010AD8B4D4D70F0AD8B4D4D7020A70
:10400800D8B4D4D7010AD8B4D4D7030E0001FC1908
:10401800D8A412007ED7010E5FEC2BF0680E0001C9
:10402800AB6FE40EE82EFED7AB2FFCD700F0800E66
:104038005FEC2BF0F20E00018E6FFB0E00018F6F0C
:1040480084EC0BF0C00E5FEC2BF0AD0E00018E6F10
:10405800FC0E00018F6F84EC0BF0F28E010E000154
:10406800FC6F000E0001EF6F020EEE6F000E746E13
:10407800000E736E8A86CA84000E7A6E000E796E00
:10408800000E0001AD6F000EAC6F0001AC510001D5
:10409800AD11D8B41CD00001AC510001AD11D8A4A9
:1040A80002D0010E01D0000E0001AC6FAD6B05D03F
:1040B800000E0001EF6F000EEE6F81A2F9D7813874
:1040C8000F0B0F0AD8B41FD081A2DFD7FDD700018C
:1040D800AC510001AD11D8A402D0010E01D0000EE0
:1040E8000001AC6FAD6B05D0000E0001EF6F010E43
:1040F800EE6F81A2F9D781380F0B0F0AD8B403D01D
:1041080081A2C3D7FDD7F29E11EC2BF0030E00015C
:10411800FC6F1200A6840001AC51AA6EABC0A9FFC7
:10412800ADC0A8FFA69EA69CF29E550EA76EAA0E2D
:10413800A76EA682F28EA1A8FED7A198A694010127
:104148002D5101012E11D8B41200010E5FEC2BF095
:10415800680E0001AE6FE40EE82EFED7AE2FFCD736
:1041680000F0800E5FEC2BF0ABC080F0ACC081F0AB
:104178002DEC2BF00001AD19D8A424D0D60E0001E7
:104188008E6FFA0E00018F6FADC090F00001916B39
:10419800ABC092F0ACC093F084EC0BF0000E0001C1
:1041A800AF6F630E0001AF6501D01200680E000109
:1041B800AE6FE40EE82EFED7AE2FFCD700F000015C
:1041C800AF2BEFD7BC0E00018E6FFF0E00018F6F73
:1041D80084EC0BF0000E0001B06F630E0001B065B7
:1041E80001D01200680E0001AE6FE40EE82EFED773
:1041F800AE2FFCD700F00001B02BEFD701013351EF
:1042080001013411D8B41200000E0101366F000EFE
:10421800356F34D0010E0001816FF40E806F000EEF
:104228000001836F010E826F8BEC24F03ED0030EE9
:104238000001816F520E806F000E0001836F010E26
:10424800826F8BEC24F031D0060E0001816F860E50
:10425800806F000E0001836F010E826F8BEC24F0DB
:1042680024D0090E0001816F600E806F000E0001DE
:10427800836F010E826F8BEC24F017D02BC188F06E
:104288002CC189F000018951000AD8A40ED0000180
:104298008851000AD8B4BED7010AD8B4C8D7030ACF
:1042A800D8B4D2D7010AD8B4DCD7040E0001816F84
:1042B8001A0E806F000E0001836F030E826F8BEC65
:1042C80024F0020E706EEE0E6F6E000E626E010E1E
:1042D800616E000E0101346F000E336F1200010E83
:1042E8005FEC2BF0680E0001AB6FE40EE82EFED7F2
:1042F800AB2FFCD700F0800E5FEC2BF0DC0E00013A
:104308008E6FFE0E00018F6F84EC0BF0C00E5FEC19
:104318002BF0150E00018E6FFF0E00018F6F84ECDD
:104328000BF0050E0001AC6F0F0E0001AB6FF10E24
:10433800E82EFED7AB2FFCD7AC2FFAD781A2FED739
:1043480081B2FED7010E5FEC2BF0680E0001AB6F57
:10435800E40EE82EFED7AB2FFCD700F0800E5FEC02
:104368002BF0580E00018E6FFC0E00018F6F84EC4D
:104378000BF0F90E00018E6FFE0E00018F6F84ECBA
:104388000BF0590E00018E6FFF0E00018F6F84EC49
:104398000BF0BE0E00018E6FFE0E00018F6F84ECD5
:1043A8000BF0070E00018E6FFF0E00018F6F84EC7B
:1043B8000BF0120068EC26F020EC28F0000E00014B
:1043C800EB6F000EEA6F0001EA510001EB11D8B45F
:1043D80016D0470E0001806F170E0001816F070E7F
:1043E8000001826F080E0001836F040E0001846FC4
:1043F800170E0001856F420EF1EC2AF00BD0100E5B
:1044080000018D6F270E8E6F000E8F6F000E906F5C
:10441800CBEC26F021EC29F0000E01013A6F010ED9
:10442800396F18D009EC00F015D0E0EC2AF012D062
:1044380011EC2BF05AEC1EF0000E01013A6F010E40
:10444800396F09EC00F006D08CEC1FF003D011ECAA
:104458002BF0FFD70001FC51000AD8B4E3D7010ABA
:10446800D8B4E3D7030AD8B4E3D7010AD8B4ECD751
:10447800070AD8B4ECD7EED7000E01013A6F000E48
:10448800396F000E0001F36F000EF26F000E00018D
:10449800F16F000EF06F000E0101306F010E2F6FEB
:1044A800000E0101326F000E316F000E0101346FF2
:1044B800000E336F000E0101366F010E356F000ECE
:1044C8000101386F000E376F000E0001FF6F000EFC
:1044D800FE6F000E0101286F000E276F000E01010C
:1044E8002A6F000E296F000E0101266F000E256F3E
:1044F800000E0101246F000E236F030E6A6EE70E93
:10450800696E000E6E6E000E6D6E270E706E0F0EC9
:104518006F6E000E746E000E736E000E0001EF6F6A
:10452800000EEE6F6B686C6871687268000E626EE0
:10453800000E616E1200000E00018B6F000189AF42
:1045480008D00001886D891FD8B0892B010E0001A1
:104558008B6F000187AF08D00001866D871FD8B028
:10456800872B010E00018B1B000E00018D6F000EC2
:104578008C6F0001885100018911D8B42CD0010E2C
:1045880000018A6F06D00001D8908837893700016A
:104598008A2B000189AFF7D70001D8908C378D3767
:1045A800000188510001865D000189510001875989
:1045B800D8A00AD0000188510001865F0001895106
:1045C8000001875B00018C810001D8908933883312
:1045D80000018A2FE1D700018B510001D8B405D022
:1045E80000018C6D8D1FD8B08D2B8CC086F08DC0CE
:1045F80087F01200000E0001886F000E896F000E10
:104608008A6F000E8B6F0001845100018511000133
:10461800861100018711D8B442D0010E00018C6FB9
:1046280008D00001D890843785378637873700014E
:104638008C2B000187AFF5D70001D89088378937D0
:104648008A378B37000184510001805D0001855154
:1046580000018159000186510001825900018751EA
:1046680000018359D8A012D0000184510001805F55
:10467800000185510001815B000186510001825BC8
:10468800000187510001835B000188810001D890F7
:10469800873386338533843300018C2FCDD788C088
:1046A80080F089C081F08AC082F08BC083F012004C
:1046B80048EC24F0000E0001896F000E886F00019D
:1046C80089BF08D00001895140E1070E0001885DCB
:1046D800D8B03BD01C0E00018825D96E010E000110
:1046E8008921DA6EDF500001856F0001853B0F0ECE
:1046F80085170F0E00018517000185510A0D1C0E44
:1047080000018825D96E010E00018921DA6EDF507B
:104718000F0B0001866F876BF35000018627F4505A
:1047280000018723D89000018835D96E00018935AA
:10473800DA6E0E0ED926010EDA2286C0DEFF87C099
:10474800DDFF0001884B892BBAD7170ED56E850E71
:10475800D76EEE0ED66ED58E1200000E0001856F54
:10476800000181AF08D00001806D811FD8B0812B76
:10477800010E0001856F000183AF05D00001826D35
:10478800831FD8B0832B0001825100018311D8B454
:1047980026D0010E0001846F06D00001D890823720
:1047A80083370001842B000183AFF7D700018251C2
:1047B8000001805D0001835100018159D8A008D013
:1047C800000182510001805F000183510001815B7B
:1047D8000001D890833382330001842FE7D700018A
:1047E80085510001D8B405D00001806D811FD8B073
:1047F800812B80C080F081C081F01200100E000172
:104808008D6F270E8E6F000E8F6F000E906FCBECA2
:1048180026F0F29E85EC2BF0000E0001826FD00E80
:10482800816F73EC2BF0000E0001826F000E816F18
:1048380073EC2BF0000E0001976F000E966F0001CD
:1048480097BF08D0000197511BE1070E0001965D44
:10485800D8B016D01C0E00019625D96E010E0001A5
:104868009721DA6EDF500001956F00019551000124
:10487800816F826B73EC2BF00001964B972BDFD77F
:1048880081EC2BF0F28E120085EC2BF0000E00016B
:10489800826FD00E816F73EC2BF0000E0001826FD7
:1048A800000E816F73EC2BF081EC2BF085EC2BF074
:1048B800000E0001826FD10E816F73EC2BF0000E99
:1048C8000001846F000E836F000184BF08D00001CF
:1048D800845115E1060E0001835DD8B010D01C0E7E
:1048E80000018325D96E010E00018421DA6E010EC4
:1048F80011EC2AF0DF6E0001834B842BE5D7000E04
:1049080011EC2AF00101226F81EC2BF0120080C01B
:1049180084F081C085F00001841F851F844B852B9E
:10492800FF0E000184250001866FFF0E000185211E
:104938000001876F1DD0000187510001DA6FDB6B22
:10494800000186510001DC6FDD6B80C06BF081C017
:104958006CF0000187510001DE6FDF6B00018651AA
:104968000001E06FE16B80C071F081C072F012004D
:1049780082C084F083C085F000018551000AD8A464
:10498800120000018451010AD8B4D5D7020AD8A46C
:104998001200DFD7010E5FEC2BF0680E0001AB6F41
:1049A800E40EE82EFED7AB2FFCD700F0800E5FECAC
:1049B8002BF00F0E00018E6FFB0E00018F6F84EC41
:1049C8000BF0C00E5FEC2BF0FD0E00018E6FFA0E9F
:1049D80000018F6F84EC0BF081A2FED781380F0B9A
:1049E8000F0AD8B4120014D08A84340E0001AB6FB9
:1049F800F10EE82EFED7AB2FFCD700D08A94340EE8
:104A08000001AB6FF10EE82EFED7AB2FFCD700D01C
:104A180081B2EAD78A94E0D7040E0001816FB00E04
:104A2800806F000E0001836F010E826F8BEC24F003
:104A3800040E0001816F1A0E806F000E0001836F53
:104A4800030E826F8BEC24F0CD80000E786E000E82
:104A5800776E340E0001886FF10EE82EFED7882F8E
:104A6800FCD700D0B180000E7C6E000E7B6E0B0E62
:104A78000001886F620EE82EFED7882FFCD700F061
:104A88008A96CA84000E7A6E000E796E8B801200A8
:104A9800000E0001856F000E846F00018251000135
:104AA8008311D8B42CD0010E0001866F06D0000106
:104AB800D890823783370001862B000183AFF7D760
:104AC8000001D89084378537000182510001805D4C
:104AD8000001835100018159D8A00AD000018251F8
:104AE8000001805F000183510001815B0001848126
:104AF8000001D890833382330001862FE1D784C028
:104B080080F085C081F01200D4EC27F0000E00017F
:104B1800886F000E876F000188BF08D00001885198
:104B28001AE1960E0001875DD8B015D0060E000177
:104B3800866F300EE82EFED7862FFCD700F0D4EC17
:104B480027F00001E6510001E711D8B404D00001B4
:104B5800874B882BE0D70001E6050001E711D8A4B0
:104B680006D0000E0001F36F010EF26F1200000E66
:104B78000001F36F000EF26F12008DEC2BF0000EA7
:104B8800036ED00E026E78EC2BF0000E036E000E52
:104B9800026E78EC2BF089EC2BF08DEC2BF0000EEC
:104BA800036ED10E026E78EC2BF0000E056E000E2F
:104BB800046E05BE06D0055011E1060E045CD8B09F
:104BC8000DD01C0E0424D96E010E0520DA6E010EDC
:104BD800BBEC2AF0DF6E044A052AEBD7000EBBECCB
:104BE8002AF00101226F89EC2BF0120001C005F0B8
:104BF80002C006F0051E061E054A062AFF0E0524F9
:104C0800076EFF0E0620086E19D008500001DA6FF3
:104C1800DB6B07500001DC6FDD6B01C06BF002C07D
:104C28006CF008500001DE6FDF6B07500001E06F89
:104C3800E16B01C071F002C072F0120003C005F010
:104C480004C006F00650000AD8A412000550010A54
:104C5800D8B4DBD7020AD8A41200E3D70001816FC9
:104C6800F29E00018151F00B0001806F8C500F0BF8
:104C78008C6E000180518C108C6E8C86420EE82E52
:104C8800FED700D08C96420EE82EFED700D0000149
:104C98008139F00B0001816F00018151F00B000197
:104CA800806F8C500F0B8C6E000180518C108C6EB5
:104CB8008C86420EE82EFED700D08C96420EE82E47
:104CC800FED700D0F28E1200F00ED36E9B8C070E2A
:104CD800926EF20E936E000E946E000E956E000E9C
:104CE800966E000E896E000E8A6E000E8B6E000E98
:104CF8008C6E000E8D6EF19E000EC26E0D0EC16E92
:104D0800000EB56EB496B10EC06EF086F28A9D8024
:104D18009D82A082B00ECD6E7B0ECA6E220ECB6E27
:104D2800B00EB16EF28C9D9CF29E1200000189516A
:104D380000018A11D8B426D0010E00018B6F06D06D
:104D48000001D89089378A3700018B2B00018AAF80
:104D5800F7D7000189510001875D00018A510001E0
:104D68008859D8A008D0000189510001875F000147
:104D78008A510001885B0001D8908A338933000189
:104D88008B2FE7D787C087F088C088F01200000E05
:104D9800C76E280EC66E000EC56E000E0001806F2D
:104DA800480E816FE80E826F010E836F8DC091F0FF
:104DB8008EC092F08FC093F090C094F0020ED890FD
:104DC80000019137923793379437E82EF8D791C07E
:104DD80084F092C085F093C086F094C087F0FEEC12
:104DE80022F000018005C86E948694881200010E96
:104DF8005FEC2BF0680E0001AB6FE40EE82EFED7D7
:104E0800AB2FFCD700F0800E5FEC2BF0EB0E00010F
:104E18008E6FFA0E00018F6F84EC0BF0C00E5FEC02
:104E28002BF0330E00018E6FFB0E00018F6F84ECA8
:104E38000BF081A2FED781380F0B0F0AD8B41200ED
:104E4800898881B2FED78998F4D7010E5FEC2BF0E0
:104E5800680E0001AB6FE40EE82EFED7AB2FFCD72F
:104E680000F0800E5FEC2BF0EB0E00018E6FFA0E57
:104E780000018F6F84EC0BF0C00E5FEC2BF0E10E9D
:104E880000018E6FFB0E00018F6F84EC0BF081A286
:104E9800FED781380F0B0F0AD8B412008A8481B26A
:104EA800FED78A94F4D7026EF29E0250F00B016E80
:104EB8008C500F0B8C6E01508C108C6E8C86420EB1
:104EC800E82EFED700D08C96420EE82EFED700D0F2
:104ED8000238F00B026E0250F00B016E8C500F0B73
:104EE8008C6E01508C108C6E8C86420EE82EFED78C
:104EF80000D08C96420EE82EFED700D0F28E12001B
:104F0800000E0B6E000E0A6E08500910D8B41CD0A3
:104F1800010E0C6E04D0D890083609360C2A09AE5A
:104F2800FAD7D8900A360B360850065C095007584D
:104F3800D8A005D00850065E0950075A0A80D890B4
:104F4800093208320C2EEDD70AC006F00BC007F064
:104F58001200FA0EF66E560EF76E000EF86E01EE9F
:104F680047F010EE08F00900F5CFEEFFE550E150EC
:104F7800FAE101EE00F0470EEE6AE806FDE100EE08
:104F8800DAF0260EEE6AE806FDE100EE5BF0230E8D
:104F9800EE6AE806FDE17E907E920001DEEF21F0E8
:104FA800000E55EC2AF0C350C4CF82F00001836B89
:104FB80082C083F00001826B000182110001846FBE
:104FC800000183510001856F000185BF0AD0210EC1
:104FD8000001845D030E00018559D8A002D0010E9E
:104FE80001D0000E0001E66FE76B1200010E55ECD0
:104FF8002AF0C350C4CF82F00001836B82C083F0D3
:105008000001826B000182110001846F000183514D
:105018000001856F000185BF08D00001855107E1B7
:10502800960E0001845DD8B002D0010E01D0000EAA
:105038000001E86FE96B12009C0E0001836FD70E28
:10504800E82EFED7832FFCD7330E5FEC2BF0320E01
:105058005FEC2BF0280E5FEC2BF00C0E5FEC2BF0C6
:10506800060E5FEC2BF0010E5FEC2BF09C0E00019E
:10507800836FD70EE82EFED7832FFCD7120003507C
:105088000410D8B418D0010E056E04D0D890033699
:105098000436052A04AEFAD70350015C04500258BE
:1050A800D8A004D00350015E0450025AD8900432AC
:1050B8000332052EF1D701C001F002C002F0120040
:1050C80079507A10D8B407D016D0200ECB6E1200C3
:1050D800400ECB6E1200EEC001F0EFC002F002509D
:1050E800000AD8A412000150000AD8B4EED7010A69
:1050F800D8A41200EDD7CB681200000E0001ED6FA6
:10510800160EEC6F800E5FEC2BF0CE0E00018E6F4A
:10511800FD0E00018F6F84EC0BF0C00E5FEC2BF0DE
:10512800130E00018E6FFD0E00018F6F84EC0BF0E3
:105138001200000E0001ED6F0C0EEC6F800E5FEC9C
:105148002BF0350E00018E6FFD0E00018F6F84EC81
:105158000BF0C00E5FEC2BF0CE0E00018E6FFD0E33
:1051680000018F6F84EC0BF0120080C084F081C0C6
:1051780085F006D00001844B852B0001824B832BE0
:1051880082C0F6FF83C0F7FFF86A84C0D9FF85C0E4
:10519800DAFF0800F5CFDFFFDF50D8B41200EAD7F6
:1051A8000001805100018203F3CF84F0F4CF85F031
:1051B8000001805100018303F3500001852700019D
:1051C800815100018203F3500001852784C080F0DB
:1051D80085C081F01200FAEC27F00001E805000113
:1051E800E911D8A41200150E0001876F4B0E0001BB
:1051F800866FBE0EE82EFED7862FFCD7872FFAD7EC
:1052080000F0FAEC27F0120001C005F002C006F029
:1052180004D0054A062A034A042A03C0F6FF04C03C
:10522800F7FFF86A05C0D9FF06C0DAFF0800F5CF16
:10523800DFFFDF50D8B41200ECD7F28E000E000169
:10524800FC6F000E0001F96F000EF86F0001EA51C3
:105258000001EB11D8A402EC24F03FEC2AF0000E78
:1052680001013C6F010E3B6F1200000E0001ED6F53
:10527800160EEC6F800E6DEC2BF0CE0E0D6EFD0E43
:105288000E6E97EC0FF0C00E6DEC2BF0130E0D6E3A
:10529800FD0E0E6E97EC0FF01200000E0001ED6F80
:1052A8000C0EEC6F800E6DEC2BF0350E0D6EFD0EB6
:1052B8000E6E97EC0FF0C00E6DEC2BF0CE0E0D6E4F
:1052C800FD0E0E6E97EC0FF01200000E0001ED6F50
:1052D800170EEC6F800E6DEC2BF0240E0D6EFD0E8C
:1052E8000E6E97EC0FF0C00E6DEC2BF0BD0E0D6E30
:1052F800FD0E0E6E97EC0FF01200000E0001ED6F20
:105308000B0EEC6F800E6DEC2BF0DF0E0D6EFD0EAC
:105318000E6E97EC0FF0C00E6DEC2BF0240E0D6E98
:10532800FD0E0E6E97EC0FF01200040E0001ED6FEB
:105338000A0EEC6F800E6DEC2BF0F10E0D6EFC0E6C
:105348000E6E97EC0FF0C00E6DEC2BF0AC0E0D6EE0
:10535800FD0E0E6E97EC0FF01200040E0001ED6FBB
:10536800090EEC6F800E6DEC2BF09B0E0D6EFD0E92
:105378000E6E97EC0FF0C00E6DEC2BF0020E0D6E5A
:10538800FD0E0E6E97EC0FF01200030E0001ED6F8C
:10539800FE0EEC6F800E6DEC2BF08A0E0D6EFD0E7E
:1053A8000E6E97EC0FF0C00E6DEC2BF0F10E0D6E3B
:1053B800FC0E0E6E97EC0FF01200030E0001ED6F5D
:1053C800F40EEC6F800E6DEC2BF0CF0E0D6EFC0E14
:1053D8000E6E97EC0FF0C00E6DEC2BF08A0E0D6E72
:1053E800FD0E0E6E97EC0FF01200030E0001ED6F2C
:1053F800F30EEC6F800E6DEC2BF0790E0D6EFD0E3A
:105408000E6E97EC0FF0C00E6DEC2BF0E00E0D6EEB
:10541800FC0E0E6E97EC0FF012000001816F44EC49
:105428002BF0C58644EC2BF0C9CF82F044EC2BF06E
:10543800000181510001D8A402D0C58A01D0C59AC3
:10544800C588000182511200030E0001ED6FEC695E
:10545800800E6DEC2BF0E00E0D6EFC0E0E6E97ECD0
:105468000FF0C00E6DEC2BF09B0E0D6EFD0E0E6E48
:1054780097EC0FF01200000E0001ED6F000EEC6FBC
:10548800800E5FEC2BF058EC14F0C00E5FEC2BF0A4
:10549800010E00018E6FFE0E00018F6F84EC0BF081
:1054A80012000001816F00018145E846FC0BC26EC5
:1054B800C280C28209D0340E0001806FF10EE82E3E
:1054C800FED7802FFCD700D0C2A21200F4D700016B
:1054D800826F000E0001816F3A0E0001826107D0D1
:1054E8002F0E0001826503D0010E0001816F81C07B
:1054F80080F00001803112000001816F0BD00001A3
:1055080081070B0E0001806F470EE82EFED7802F13
:10551800FCD700D0000181510001D8B41200EFD7A8
:10552800000E0001ED6F000EEC6F800E6DEC2BF09D
:10553800AAEC19F0C00E6DEC2BF0010E0D6EFE0EEC
:105548000E6E97EC0FF0120001500302F3CF05F036
:10555800F4CF06F001500402F3500626025003026D
:10556800F350062605C001F006C002F01200026ED4
:105578004EEC2BF0C5864EEC2BF0C9CF03F04EEC69
:105588002BF00250D8A402D0C58A01D0C59AC5888C
:1055980003501200000E0001F96F010EF86F12C0DF
:1055A800F4F013C0F5F0FF0E1224076EFF0E13205F
:1055B800086EFCEC1EF012000001FC05D8B4C7EC24
:1055C80008F00001FC05D8B471EC18F00001FC05E6
:1055D800D8A4120002EC21F012000001866F86C0E8
:1055E8001CF180C01DF181C01EF182C01FF183C073
:1055F80020F184C021F185C022F11200036E000E53
:10560800026E3A0E036005D02F0E036402D0010E1D
:10561800026E02C001F001301200000E896E000E09
:105628008A6E000E8B6E000E8C6E000E8D6ECD9005
:10563800CA94B1901200026E08D002060B0E016ED9
:10564800480EE82EFED7012EFCD70250D8B412001F
:10565800F4D700018151AA6E80C0A9FFA69EA69C1E
:10566800A680A6B0FED7A85012000250AA6E01C0AC
:10567800A9FFA69EA69CA680A6B0FED7A850120099
:10568800C7B4FED7C5CF80F01F0E00018017D8B46D
:105698001200F6D7C7B4FED7C5CF01F01F0E01160A
:1056A800D8B41200F7D70001826F8C8400018251B0
:1056B80032EC26F012000001826F8C9400018251B6
:1056C80032EC26F01200036E8C84035057EC27F05E
:1056D8001200036E8C94035057EC27F0120044EC30
:1056E8002BF081C0C9FF12004EEC2BF002C0C9FF9D
:1056F80012004D4D4D004D4D4D0044EC2BF0C5842E
:10570800120044EC2BF0C58012004EEC2BF0C5843F
:0A57180012004EEC2BF0C5801200C9
:10FAA200003132334134353642373839432A302334
:10FAB200440001000A006400E80310272530326484
:10FAC2002573207C20253032643A253032643A2571
:10FAD2003032640028646174613A2025752C2061FB
:10FAE2006464723A2025752900442057494C4C2001
:10FAF20052455455524E20202020004F5448455222
:10FB020020534554532052413520202000533A209F
:10FB1200442057494C4C2052455455524E20004FD8
:10FB2200544845523A2043414D20544F47474C4593
:10FB3200004F544845522053455453205055534882
:10FB4200455200443A205245547C323A20434F4EAB
:10FB520044202564002D2D204C4F4720253264205F
:10FB6200484552452D2D00524553554C545320497A
:10FB72004E204C4F47202564004D4944202D2D2016
:10FB82003273202020202020200044524F50202D6C
:10FB92002D203273202020202020004C4546542066
:10FBA2002D2D203273202020202020004C45564548
:10FBB2004C202D2D20327320202020200052494736
:10FBC2004854202D2D2032732020202020004D4922
:10FBD20044444C45202D2D20327320202020004FFC
:10FBE200544845522053455453204443202020007A
:10FBF200442057494C4C2052455455524E20202007
:10FC020000353A487C363A4C7C49523A25642020E9
:10FC12002000313A204443207C20413A2041524D79
:10FC22002020004D49442D4C454654202D2D203294
:10FC3200732020004D49442D5249474854202D2D10
:10FC42002032732000454C534520544F47474C45C2
:10FC5200532052413500414C47313A203920504F10
:10FC6200504E4F544142005453543A20434F4E4455
:10FC720020534F4C4E2744005453543A205055536E
:10FC82004820534F4C4E274400322E534E527C3460
:10FC92002E48497C352E4D454400422E504C417C25
:10FCA200382E53567C392E424C4B00454C5345203E
:10FCB200544F47474C45532041524D005453543AF8
:10FCC20020424F544820534552564F53004C4F4701
:10FCD20020312020202020202020202020004C4FD6
:10FCE2004720322020202020202020202020004CCD
:10FCF2004F472033202020202020202020202000B9
:10FD02004C4F47203420202020202020202020205B
:10FD120000332E204C4F475320202020202020202B
:10FD22002000322E20534F52542020202020202009
:10FD3200202000312E20444154452F54494D452066
:10FD420020202000202D2D20504F50202043414EB6
:10FD5200202D2D2000202D2D20534F555020434182
:10FD62004E202D2D20002D2D20544F54414C204348
:10FD7200414E53202D2D004C4F4720312020202072
:10FD82002020202020203C004C4F472032202020E1
:10FD9200202020202020203C004C4F4720332020D0
:10FDA20020202020202020203C004C4F47203420BF
:10FDB2002020202020202020203C00332E204C4FC9
:10FDC200475320202020202020203C00322E205388
:10FDD2004F525420202020202020203C00312E2071
:10FDE200444154452F54494D452020203C00504168
:10FDF200555345203C207C204241434B203E00503D
:10FE020055534820544F20434F4E54494E554500B8
:10FE12004E4C41423A2025647C4C41423A202564B2
:10FE2200004E5441423A2025647C5441423A2025F6
:10FE320064004D41475F7369676E616C3A202564C7
:10FE420020005453543A2054494C5420534552569E
:10FE52004F004449444E275420434F4D504C455483
