:0400000007EF00F016
:100008007E8225ED1BF0E9EF23F0000E0001C56F9D
:10001800000EC46FF28E010E6EEC27F0680E000120
:10002800AB6FE40EE82EFED7AB2FFCD700F0800EA6
:100038006EEC27F0910E00018E6FFF0E00018F6F9E
:10004800B8EC08F0C00E6EEC27F00B0E00018E6FB6
:10005800FF0E00018F6FB8EC08F0050E0001AC6FC1
:100068000F0E0001AB6FF10EE82EFED7AB2FFCD7B9
:10007800AC2FFAD781A2FED781B2FED7010E6EEC63
:1000880027F0680E0001AB6FE40EE82EFED7AB2F09
:10009800FCD700F0800E6EEC27F0C30E00018E6FC7
:1000A800FE0E00018F6FB8EC08F0C00E6EEC27F062
:1000B800E10E00018E6FFE0E00018F6FB8EC08F0A4
:1000C800898A000E0001C56F000EC46F0001C5BF0C
:1000D80008D00001C55123E1050E0001C45DD8B068
:1000E8001ED0000E0001AD6F630E0001AD6501D09A
:1000F8000CD0680E0001AB6FE40EE82EFED7AB2FD4
:10010800FCD700F00001AD2BEFD70001C44BC52B85
:100118000001C5BFE6D70001C55101E1DDD7899AC5
:10012800010E6EEC27F0680E0001AB6FE40EE82EAE
:10013800FED7AB2FFCD700F0800E6EEC27F0700EC8
:1001480000018E6FFC0E00018F6FB8EC08F0C00E36
:100158006EEC27F05B0E00018E6FFF0E00018F6FB3
:10016800B8EC08F0000E0001C56F000EC46F000166
:10017800C5BF08D00001C5512CE1050E0001C45DC2
:10018800D8B027D089860D0E0001AC6F2D0E000166
:10019800AB6FD70EE82EFED7AB2FFCD7AC2FFAD714
:1001A80000D089961D0E0001AC6F690E0001AB6F7F
:1001B800A50EE82EFED7AB2FFCD7AC2FFAD700013F
:1001C800C44BC52B0001C5BFDDD70001C55101E1F6
:1001D800D4D78996010E6EEC27F0680E0001AB6F3C
:1001E800E40EE82EFED7AB2FFCD700F0800E6EECA5
:1001F80027F0810E00018E6FFC0E00018F6FB8ECA6
:1002080008F0C00E6EEC27F0660E00018E6FFF0E30
:1002180000018F6FB8EC08F0000E0001C56F000EEA
:10022800C46F0001C5BF08D00001C5512CE1050EFF
:100238000001C45DD8B027D089880D0E0001AC6FCD
:100248002D0E0001AB6FD70EE82EFED7AB2FFCD7D3
:10025800AC2FFAD700D089981D0E0001AC6F690E3B
:100268000001AB6FA50EE82EFED7AB2FFCD7AC2F45
:10027800FAD70001C44BC52B0001C5BFDDD700016B
:10028800C55101E1D4D78998010E6EEC27F0680EAC
:100298000001AB6FE40EE82EFED7AB2FFCD700F0C1
:1002A800800E6EEC27F0010E0001FC6F000E7A6ED6
:1002B800000E796E000E7A6E000E796EA50E0001A2
:1002C8008E6FFE0E00018F6FB8EC08F0C00E6EEC5A
:1002D80027F00A0E00018E6FFC0E00018F6FB8EC3C
:1002E80008F0040E0001816FB00E806F000E00014F
:1002F800836F010E826FCAEC21F0CD80000E0001E1
:10030800AE6F630E0001AE6501D00CD0680E00011F
:10031800AB6FE40EE82EFED7AB2FFCD700F0000140
:10032800AE2BEFD7000E0001AF6F630E0001AF6573
:1003380001D00CD0680E0001AB6FE40EE82EFED79A
:10034800AB2FFCD700F00001AF2BEFD7800E6EEC7F
:1003580027F0C00E6EEC27F0F90E00018E6FFB0E31
:1003680000018F6FB8EC08F0010E0001816FF40EE8
:10037800806F000E0001836F010E826FCAEC21F0BE
:10038800000E0001B06F630E0001B06501D00CD003
:10039800680E0001AB6FE40EE82EFED7AB2FFCD73A
:1003A80000F00001B02BEFD7000E0001B16F630E13
:1003B8000001B16501D00CD0680E0001AB6FE40EEE
:1003C800E82EFED7AB2FFCD700F00001B12BEFD7FA
:1003D800800E6EEC27F0C00E6EEC27F0D70E0001F1
:1003E8008E6FFB0E00018F6FB8EC08F0090E00014C
:1003F800816F600E806F000E0001836F010E826FA7
:10040800CAEC21F0000E0001B26F630E0001B26564
:1004180001D00CD0680E0001AB6FE40EE82EFED7B9
:10042800AB2FFCD700F00001B22BEFD7000E000174
:10043800B36F630E0001B36501D00CD0680E0001E4
:10044800AB6FE40EE82EFED7AB2FFCD700F000010F
:10045800B32BEFD7800E6EEC27F0C00E6EEC27F0B2
:100468002C0E00018E6FFC0E00018F6FB8EC08F0A7
:10047800060E0001816F860E806F000E0001836FEB
:10048800010E826FCAEC21F0000E0001B46F630EFA
:100498000001B46501D00CD0680E0001AB6FE40E0A
:1004A800E82EFED7AB2FFCD700F00001B42BEFD716
:1004B800000E0001B56F630E0001B56501D00CD0C8
:1004C800680E0001AB6FE40EE82EFED7AB2FFCD709
:1004D80000F00001B52BEFD7800E6EEC27F0C00EB0
:1004E8006EEC27F03D0E00018E6FFC0E00018F6F41
:1004F800B8EC08F0030E0001816F520E806F000EF9
:100508000001836F010E826FCAEC21F0000E00011A
:10051800B66F630E0001B66501D00CD0680E0001FD
:10052800AB6FE40EE82EFED7AB2FFCD700F000012E
:10053800B62BEFD7000E0001B76F630E0001B76549
:1005480001D00CD0680E0001AB6FE40EE82EFED788
:10055800AB2FFCD700F00001B72BEFD7800E6EEC65
:1005680027F0C00E6EEC27F0B50E00018E6FFB0E63
:1005780000018F6FB8EC08F0040E0001816FB00E17
:10058800806F000E0001836F010E826FCAEC21F0AC
:10059800000E0001B86F630E0001B86501D00CD0E1
:1005A800680E0001AB6FE40EE82EFED7AB2FFCD728
:1005B80000F00001B82BEFD7000E0001B96F630EF1
:1005C8000001B96501D00CD0680E0001AB6FE40ED4
:1005D800E82EFED7AB2FFCD700F00001B92BEFD7E0
:1005E800CD903A0E00018E6FFE0E00018F6FB8ECB1
:1005F80008F0C00E6EEC27F0E80E00018E6FFB0EBF
:1006080000018F6FB8EC08F0040E0001816F1A0E1C
:10061800806F000E0001836F030E826FCAEC21F019
:10062800B180000E0001BA6F630E0001BA6501D0F7
:100638000CD0680E0001AB6FE40EE82EFED7AB2F8E
:10064800FCD700F00001BA2BEFD7000E0001BB6FFA
:10065800630E0001BB6501D00CD0680E0001AB6FC2
:10066800E40EE82EFED7AB2FFCD700F00001BB2B21
:10067800EFD7800E6EEC27F0C00E6EEC27F0C60E9A
:1006880000018E6FFB0E00018F6FB8EC08F0040EAE
:100698000001816FEC0E806F000E0001836F030E66
:1006A800826FCAEC21F0000E0001BC6F630E0001DE
:1006B800BC6501D00CD0680E0001AB6FE40EE82ECB
:1006C800FED7AB2FFCD700F00001BC2BEFD7000EF4
:1006D8000001BD6F630E0001BD6501D00CD0680E2E
:1006E8000001AB6FE40EE82EFED7AB2FFCD700F06D
:1006F8000001BD2BEFD7800E6EEC27F0C00E6EEC1C
:1007080027F0E80E00018E6FFB0E00018F6FB8EC2A
:1007180008F0040E0001816F1A0E806F000E0001B0
:10072800836F030E826FCAEC21F0000E0001BE6FCA
:10073800630E0001BE6501D00CD0680E0001AB6FDE
:10074800E40EE82EFED7AB2FFCD700F00001BE2B3D
:10075800EFD7000E0001BF6F630E0001BF6501D027
:100768000CD0680E0001AB6FE40EE82EFED7AB2F5D
:10077800FCD700F00001BF2BEFD7B190F29E010E1D
:100788006EEC27F0680E0001AB6FE40EE82EFED782
:10079800AB2FFCD700F0800E6EEC27F0960E000110
:1007A8008E6FFE0E00018F6FB8EC08F0C00E6EEC75
:1007B80027F0780E00018E6FFE0E00018F6FB8ECE7
:1007C80008F08B80000E0001C06F630E0001C06549
:1007D80001D00CD0680E0001AB6FE40EE82EFED7F6
:1007E800AB2FFCD700F00001C02BEFD7000E0001A3
:1007F800C16F630E0001C16501D00CD0680E000105
:10080800AB6FE40EE82EFED7AB2FFCD700F000014B
:10081800C12BEFD7800E6EEC27F0C00E6EEC27F0E0
:10082800690E00018E6FFE0E00018F6FB8EC08F0A4
:10083800000E0001C56F000EC46F0001C5BF08D0CF
:10084800100E0001C45D270E0001C559D8B00DD0A7
:100858008B801A0EE82EFED700D08B90F00EE82E73
:10086800FED70001C44BC52BE8D7000E0001C26FAC
:10087800630E0001C26501D00CD0680E0001AB6F99
:10088800E40EE82EFED7AB2FFCD700F00001C22BF8
:10089800EFD7000E0001C36F630E0001C36501D0DE
:1008A8000CD0680E0001AB6FE40EE82EFED7AB2F1C
:1008B800FCD700F00001C32BEFD7030E0001FC6F3B
:1008C8001200020E0001FC19D8A475D0010E6EECBE
:1008D80027F0680E0001C46FE40EE82EFED7C42F7F
:1008E800FCD700F0800E6EEC27F0A30E00018E6F8F
:1008F800FB0E00018F6F010E0001FD250001906FB6
:100908000001916B000E9123B8EC08F0C00E6EEC5C
:1009180027F00E0E0001836F100E826FF8C080F072
:10092800F9C081F0F0EC1FF080C0C6F081C0C7F0BC
:10093800270E00018E6FFF0E00018F6F0E0E000153
:10094800836F100E826FF8C080F0F9C081F0F0EC70
:100958001FF080C086F081C087F0000E0001896F0B
:100968003C0E886FDEEC1EF086C090F087C091F0D8
:10097800C6C080F0C7C081F0000E0001836F3C0E36
:10098800826FF0EC1FF080C092F081C093F0B8EC59
:1009980008F0000E0001FC6F81A2FED70C0E0001CA
:1009A800E6190001E711D8A403D0BCEC24F0D5D394
:1009B800A0EC24F0D2D30001E6510001E711D8A43D
:1009C800CCD3000E0001C86F630E0001C86501D0CA
:1009D8000CD0680E0001C46FE40EE82EFED7C42FB9
:1009E800FCD700F00001C82BEFD70001E651000149
:1009F800E711D8A4B2D372EC11F0AFD30001EE51D5
:100A08000001EF11D8A441D0010E6EEC27F0680E5A
:100A18000001C46FE40EE82EFED7C42FFCD700F007
:100A2800800E6EEC27F0910E00018E6FFB0E000118
:100A38008F6FECC090F0EDC091F0B8EC08F0C00EEC
:100A48006EEC27F04A0E00018E6FFE0E00018F6FCC
:100A5800B8EC08F0000E0001C96F630E0001C9650B
:100A680001D00CD0680E0001C46FE40EE82EFED74A
:100A7800C42FFCD700F00001C92BEFD70001F651B5
:100A88000001F711D8B41200E5D7010E6EEC27F07B
:100A9800680E0001C46FE40EE82EFED7C42FFCD701
:100AA80000F0800E6EEC27F0910E00018E6FFB0EA9
:100AB80000018F6FECC090F0EDC091F0B8EC08F039
:100AC800C00E6EEC27F0E60E00018E6FFD0E0001E1
:100AD8008F6FB8EC08F0000E0001CA6F630E0001BA
:100AE800CA6501D00CD0680E0001C46FE40EE82E70
:100AF800FED7C42FFCD700F00001CA2BEFD70001A6
:100B0800F6510001F711D8B41200000E0001CB6FA6
:100B1800630E0001CB6501D00CD0680E0001C46FD4
:100B2800E40EE82EFED7C42FFCD700F00001CB2B33
:100B3800EFD70001F6510001F711D8B41200010EE9
:100B48006EEC27F0680E0001C46FE40EE82EFED7A5
:100B5800C42FFCD700F0800E6EEC27F0C40E000105
:100B68008E6FFF0E00018F6FB8EC08F0C00E6EECB0
:100B780027F035C1D6F036C1D7F037C1D8F038C123
:100B8800D9F0C3D0D60E0001806F000E0001816F2E
:100B9800DB0E0001826FFF0E0001836FD8EC24F09A
:100BA800E6D0D60E0001806F000E0001816FCB0EDB
:100BB8000001826FFF0E0001836FD8EC24F0D7D0BC
:100BC800D60E0001806F000E0001816FE70E000154
:100BD800826FFF0E0001836FD8EC24F0C8D0D60EC8
:100BE8000001806F000E0001816FEB0E0001826F23
:100BF800FF0E0001836FD8EC24F0B9D0D60E0001A7
:100C0800806F000E0001816FFB0E0001826FFF0EE6
:100C18000001836FD8EC24F0AAD0D60E0001806FB3
:100C2800000E0001816FDF0E0001826FFF0E0001D0
:100C3800836FD8EC24F09BD0D60E0001806F000E95
:100C48000001816FD70E0001826FFF0E0001836FD4
:100C5800D8EC24F08CD0D60E0001806F000E000175
:100C6800816FD30E0001826FFF0E0001836FD8ECF5
:100C780024F07DD0D60E0001806F000E0001816F38
:100C8800E30E0001826FFF0E0001836FD8EC24F0A1
:100C98006ED0D60E0001806F000E0001816FF30E3A
:100CA8000001826FFF0E0001836FD8EC24F05FD043
:100CB800D60E0001806F000E0001816FF70E000153
:100CC800826FFF0E0001836FD8EC24F050D0D60E4F
:100CD8000001806F000E0001816FCF0E0001826F4E
:100CE800FF0E0001836FD8EC24F041D0D60E00012E
:100CF800806F000E0001816FEF0E0001826FFF0E02
:100D08000001836FD8EC24F032D021EE0AF0DECF58
:100D1800C4F0DDCFC5F00001C551000AD8A4E6D75C
:100D28000001C451010AD8B42DD7030AD8B439D761
:100D3800010AD8B445D7070AD8B451D7010AD8B49C
:100D48005DD7030AD8B469D7010AD8B475D70F0A92
:100D5800D8B481D7010AD8B48DD7030AD8B499D7A3
:100D6800010AD8B4A5D7070AD8B4B1D7BFD70A0E95
:100D780000018E6FFB0E00018F6F08C190F009C152
:100D880091F0D60E0001926F000E0001936F04C11E
:100D980094F005C195F002C196F003C197F000C127
:100DA80098F001C199F0B8EC08F0000E0001CC6F82
:100DB800630E0001CC6501D00CD0680E0001C46F31
:100DC800E40EE82EFED7C42FFCD700F00001CC2B90
:100DD800EFD70001F6510001F711D8B41200000E48
:100DE8000001CD6F630E0001CD6501D00CD0680EF7
:100DF8000001C46FE40EE82EFED7C42FFCD700F024
:100E08000001CD2BEFD70001F6510001F711D8B43E
:100E18001200010E6EEC27F0680E0001C46FE40E9C
:100E2800E82EFED7C42FFCD700F0800E6EEC27F01A
:100E38009B0E00018E6FFF0E00018F6FB8EC08F05B
:100E4800C00E6EEC27F00E0E0001836F100E826F3D
:100E5800F4C080F0F5C081F0F0EC1FF080C0C6F05F
:100E680081C0C7F0190E00018E6FFF0E00018F6F51
:100E78000E0E0001836F100E826FF4C080F0F5C073
:100E880081F0F0EC1FF080C086F081C087F0000E82
:100E98000001896F3C0E886FDEEC1EF086C090F072
:100EA80087C091F0C6C080F0C7C081F0000E000175
:100EB800836F3C0E826FF0EC1FF080C092F081C00F
:100EC80093F0B8EC08F0000E0001CE6F630E00013D
:100ED800CE6501D00CD0680E0001C46FE40EE82E78
:100EE800FED7C42FFCD700F00001CE2BEFD70001AE
:100EF800F6510001F711D8B41200000E0001CF6FAF
:100F0800630E0001CF6501D00CD0680E0001C46FDC
:100F1800E40EE82EFED7C42FFCD700F00001CF2B3B
:100F2800EFD70001F6510001F711D8B41200010EF5
:100F38006EEC27F0680E0001C46FE40EE82EFED7B1
:100F4800C42FFCD700F0800E6EEC27F03C0E000199
:100F58008E6FFD0E00018F6FB8EC08F0C00E6EECBE
:100F680027F0190E00018E6FFE0E00018F6FF0C082
:100F780090F0F1C091F0F2C092F0F3C093F0B8ECA9
:100F880008F0000E0001D06F630E0001D06501D09B
:100F98000CD0680E0001C46FE40EE82EFED7C42FF3
:100FA800FCD700F00001D02BEFD70001F65100016B
:100FB800F711D8B41200000E0001D16F630E0001C2
:100FC800D16501D00CD0680E0001C46FE40EE82E84
:100FD800FED7C42FFCD700F00001D12BEFD70001BA
:100FE800F6510001F711D8B41200010E6EEC27F08B
:100FF800680E0001C46FE40EE82EFED7C42FFCD79C
:1010080000F0800E6EEC27F04D0E00018E6FFD0E85
:1010180000018F6FB8EC08F0C00E6EEC27F0080ED8
:1010280000018E6FFE0E00018F6F71C090F072C0CC
:1010380091F073C092F074C093F0B8EC08F0000E11
:101048000001D26F630E0001D26501D00CD0680E8A
:101058000001C46FE40EE82EFED7C42FFCD700F0C1
:101068000001D22BEFD70001F6510001F711D8B4D7
:101078001200000E0001D36F630E0001D36501D08A
:101088000CD0680E0001C46FE40EE82EFED7C42F02
:10109800FCD700F00001D32BEFD70001F651000177
:1010A800F711D8B41200010E6EEC27F0680E00019B
:1010B800C46FE40EE82EFED7C42FFCD700F0800ED4
:1010C8006EEC27F05E0E00018E6FFD0E00018F6F33
:1010D800B8EC08F0C00E6EEC27F0160E00018E6F0B
:1010E800FE0E00018F6F75C090F076C091F0B8ECDD
:1010F80008F0000E0001D46F630E0001D46501D022
:101108000CD0680E0001C46FE40EE82EFED7C42F81
:10111800FCD700F00001D42BEFD70001F6510001F5
:10112800F711D8B41200000E0001D56F630E00014C
:10113800D56501D00CD0680E0001C46FE40EE82E0E
:10114800FED7C42FFCD700F00001D52BEFD7000144
:10115800F6510001F711D8B412000001F651000150
:10116800F711D8B412004AD4900E0001A16F000EF6
:101178000001A26F05D2250E0001A819D8B405D028
:101188000001A85166EC27F0FBD1000E0001AA6F00
:10119800000EA96F000E0001A76F05D00001A785FA
:1011A80000018E4B8F2B8EC0F6FF8FC0F7FFF86AB9
:1011B8000800F550300AD8B4F1D78EC0F6FF8FC0BA
:1011C800F7FFF86A0800F55089EC26F0D8A0D2D0CD
:1011D800000E0001AA6F000EA96FA9C080F0AAC076
:1011E80081F0000E0001836F0A0E826FF3EC24F089
:1011F80080C0A9F081C0AAF0D00E00019A6FFF0E3E
:1012080000019B6F8EC0F6FF8FC0F7FFF86A0800D9
:10121800F55000019C6F9D6B00019A5100019C27BD
:1012280000019B5100019D2300019C510001A92749
:1012380000019D510001AA2300018E4B8F2B8EC007
:10124800F6FF8FC0F7FFF86A0800F55089EC26F022
:10125800D8A090D0C2D7A1C0D9FFA2C0DAFFDECFF4
:101268009FF0DDCFA0F0020E0001A127000EA223FF
:1012780000019F510001A011D8A406D0B60E0001AC
:101288009F6FFF0E0001A06F000E0001A46F000EFB
:10129800A36F03D00001A34BA42B0001A3510001AD
:1012A8009F2500019A6F0001A4510001A0210001AF
:1012B8009B6F9AC0F6FF9BC0F7FF000EF86E0F0EEB
:1012C800F76403D00800F55005D0F6CFE9FFF7CF53
:1012D800EAFFEF500009D8A4DDD70001A9510001A9
:1012E800A35D0001AA510001A459D8B009D000019A
:1012F800A3510001A95F0001A4510001AA5B09D014
:10130800000E0001AA6F000EA96F03D0200E66EC34
:1013180027F00001A907D8A0AA070001A929F6E12A
:101328000001AA29D8B417D0F1D79FC0F6FFA0C0F2
:10133800F7FF000EF86E0F0EF76403D00800F550A3
:1013480005D0F6CFE9FFF7CFEAFFEF5066EC27F0BC
:1013580000019F4BA02B0001A307D8A0A407000100
:10136800A329E3E10001A429D8B40AD1DED70001FA
:10137800A78D1DD08EC0F6FF8FC0F7FF00018E4BE2
:101388008F2BF86A0800F5CFA8F00001A851000AD1
:10139800D8B41200640AD8B40AD00D0AD8B407D059
:1013A8001A0AD8B458D7060AD8B4E1D7E9D0000148
:1013B800A7BD19D0A1C0D9FFA2C0DAFFDECFA5F022
:1013C800DDCFA6F0020E0001A127000EA223000126
:1013D800A6AF16D0030E0001A7130001A56DA61F26
:1013E800D8B0A62B0DD0A1C0D9FFA2C0DAFFDECF9E
:1013F800A5F0DDCFA6F0020E0001A127000EA22362
:10140800010E0001A86F050E0001A819D8B419D063
:101418000001A851020D000EF324F66EFB0EF42015
:10142800F76EF86A000EF8220900F5500001A55D74
:101438000900F5500001A659D8A003D00001A82B37
:10144800E2D70001A9510001AA11D8B40BD0A7C056
:101458009AF0030E00019A17D8B404D00001A90726
:10146800D8A0AA07800E0001A8BF7F0E00019A6FBE
:101478000001A9510001A85D0001AA51800A0001DC
:101488009A59D8B00BD00001A8510001A95F000EED
:101498000001A8BFFF0E0001AA5B05D0000E0001E5
:1014A800AA6F000EA96F0001A7A518D0A7C09AF0CF
:1014B800030E00019A17D8B403D02D0E66EC27F05E
:1014C8000001A9510001AA11D8B425D0300E66EC4C
:1014D80027F00001A907D8A0AA07F2D70001A9514F
:1014E8000001AA11D8B40DD0200E66EC27F0000137
:1014F800A907D8A0AA070001A9510001AA11D8A4D8
:10150800F3D7A7C09AF0030E00019A17D8B403D0F6
:101518002D0E66EC27F0A8C09EF02CD000019E513D
:10152800020D000EF324F66EFB0EF420F76EF86A37
:10153800000EF8220900F5CF82F00A00F5CF83F0FB
:10154800A5C080F0A6C081F08EEC21F080C087F0A5
:1015580081C088F0000E00018A6F0A0E896FABEC1B
:1015680022F000018751300F0001A86F0001A85137
:1015780066EC27F000019E0700019E29D8A4CED76B
:101588008EC0F6FF8FC0F7FF00018E4B8F2BF86AD5
:101598000800F5CFA8F00001A851D8B41200EBD587
:1015A800010E6EEC27F0680E0001AB6FE40EE82E1A
:1015B800FED7AB2FFCD700F0800E6EEC27F0B40EF0
:1015C80000018E6FFC0E00018F6FB8EC08F0CD8023
:1015D800B180010E0001FC6F000E7A6E000E796E6C
:1015E800000E7C6E000E7B6E68EC23F03D0E000151
:1015F800AC6FE10E0001AB6F3F0EE82EFED7AB2FAC
:10160800FCD7AC2FFAD700D0010E0001816FF40E81
:10161800806F000E0001836F010E826FCAEC21F00B
:10162800040E0001816F1A0E806F000E0001836F97
:10163800030E826FCAEC21F01F0E0001AC6F710E11
:101648000001AB6F1E0EE82EFED7AB2FFCD7AC2FD8
:10165800FAD700F0040E0001816FEC0E806F000EC7
:101668000001836F030E826FCAEC21F0660E000141
:10167800AC6F760E0001AB6FC10EE82EFED7AB2F14
:10168800FCD7AC2FFAD7040E0001816F1A0E806FB9
:10169800000E0001836F030E826FCAEC21F01F0E4B
:1016A8000001AC6F710E0001AB6F1E0EE82EFED765
:1016B800AB2FFCD7AC2FFAD700F0030E0001816FD7
:1016C800520E806F000E0001836F010E826FCAEC0C
:1016D80021F0040E0001816F1A0E806F000E0001C8
:1016E800836F030E826FCAEC21F01F0E0001AC6FEE
:1016F800710E0001AB6F1E0EE82EFED7AB2FFCD784
:10170800AC2FFAD700F0040E0001816FEC0E806F49
:10171800000E0001836F030E826FCAEC21F0660E83
:101728000001AC6F760E0001AB6FC10EE82EFED73C
:10173800AB2FFCD7AC2FFAD7040E0001816F1A0E1D
:10174800806F000E0001836F030E826FCAEC21F0D8
:101758001F0E0001AC6F710E0001AB6F1E0EE82E5C
:10176800FED7AB2FFCD7AC2FFAD700F0040E000140
:10177800816FB00E806F000E0001836F010E826FC3
:10178800CAEC21F0040E0001816F1A0E806F000E62
:101798000001836F030E826FCAEC21F03D0E000139
:1017A800AC6FE10E0001AB6F3F0EE82EFED7AB2FFA
:1017B800FCD7AC2FFAD700D0060E0001816F860E39
:1017C800806F000E0001836F010E826FCAEC21F05A
:1017D800040E0001816F1A0E806F000E0001836FE6
:1017E800030E826FCAEC21F01F0E0001AC6F710E60
:1017F8000001AB6F1E0EE82EFED7AB2FFCD7AC2F27
:10180800FAD700F0050E0001816F780E806F000E88
:101818000001836F030E826FCAEC21F0660E00018F
:10182800AC6F760E0001AB6FC10EE82EFED7AB2F62
:10183800FCD7AC2FFAD7040E0001816F1A0E806F07
:10184800000E0001836F030E826FCAEC21F01F0E99
:101858000001AC6F710E0001AB6F1E0EE82EFED7B3
:10186800AB2FFCD7AC2FFAD700F0090E0001816F1F
:10187800600E806F000E0001836F010E826FCAEC4C
:1018880021F0040E0001816F1A0E806F000E000116
:10189800836F030E826FCAEC21F01F0E0001AC6F3C
:1018A800710E0001AB6F1E0EE82EFED7AB2FFCD7D2
:1018B800AC2FFAD700F0050E0001816F780E806F0B
:1018C800000E0001836F030E826FCAEC21F0660ED2
:1018D8000001AC6F760E0001AB6FC10EE82EFED78B
:1018E800AB2FFCD7AC2FFAD7040E0001816F1A0E6C
:1018F800806F000E0001836F030E826FCAEC21F027
:101908001F0E0001AC6F710E0001AB6F1E0EE82EAA
:10191800FED7AB2FFCD7AC2FFAD700F0CD90B19003
:10192800F29E12000F0E206E000E216EA4D1250E1D
:101938002718D8B404D0275076EC27F09CD1000E95
:10194800296E000E286E000E266E03D026840D4ADE
:101958000E2A0DC0F6FF0EC0F7FFF86A0800F55012
:10196800300AD8B4F3D70DC0F6FF0EC0F7FFF86AF7
:101978000800F55020EC27F0D8A0A6D0000E296E5C
:10198800000E286E28C001F029C002F0000E046E77
:101998000A0E036EC6EC26F001C028F002C029F03A
:1019A800D00E196EFF0E1A6E0DC0F6FF0EC0F7FFAF
:1019B800F86A0800F5501B6E1C6A19501B261A504D
:1019C8001C221B5028261C5029220D4A0E2A0DC005
:1019D800F6FF0EC0F7FFF86A0800F55020EC27F074
:1019E800D8A072D0CFD720C0D9FF21C0DAFFDECF70
:1019F8001EF0DDCF1FF0020E2026000E21221E5001
:101A08001F10D8A404D0B60E1E6EFF0E1F6E000E57
:101A1800236E000E226E02D0224A232A22501E2450
:101A2800196E23501F201A6E19C0F6FF1AC0F7FF4F
:101A3800000EF86E0F0EF76403D00800F55005D0BD
:101A4800F6CFE9FFF7CFEAFFEF500009D8A4E4D7B3
:101A58002850225C29502358D8B005D02250285E3F
:101A68002350295A08D0000E296E000E286E03D084
:101A7800200E76EC27F02806D8A029062828F8E1B9
:101A88002928D8B416D0F4D71EC0F6FF1FC0F7FF18
:101A9800000EF86E0F0EF76403D00800F55005D05D
:101AA800F6CFE9FFF7CFEAFFEF5076EC27F01E4AB2
:101AB8001F2A2206D8A023062228E6E12328D8B424
:101AC800DAD0E2D7268C1BD00DC0F6FF0EC0F7FF88
:101AD8000D4A0E2AF86A0800F5CF27F02750000AA9
:101AE800D8B41200640AD8B40AD00D0AD8B407D002
:101AF8001A0AD8B478D7060AD8B4E4D7BCD026BC1A
:101B080015D020C0D9FF21C0DAFFDECF24F0DDCF09
:101B180025F0020E2026000E212225AE13D0030E3A
:101B28002612246C251ED8B0252A0CD020C0D9FF37
:101B380021C0DAFFDECF24F0DDCF25F0020E20260B
:101B4800000E2122010E276E050E2718D8B415D0D5
:101B58002750020D000EF324F66EFB0EF420F76EEC
:101B6800F86A000EF8220900F550245C0900F550C7
:101B78002558D8A002D0272AE7D728502910D8B44A
:101B880009D026C019F0030E1916D8B403D02806B8
:101B9800D8A02906800E27BE7F0E196E2850275C14
:101BA8002950800A1958D8B007D02750285E000E4F
:101BB80027BEFF0E295A04D0000E296E000E286E8B
:101BC80026A414D026C019F0030E1916D8B403D0D1
:101BD8002D0E76EC27F028502910D8B41ED0300EE0
:101BE80076EC27F02806D8A02906F5D72850291022
:101BF800D8B40AD0200E76EC27F02806D8A02906FB
:101C080028502910D8A4F6D726C019F0030E1916A3
:101C1800D8B403D02D0E76EC27F027C01DF027D0BE
:101C28001D50020D000EF324F66EFB0EF420F76E25
:101C3800F86A000EF8220900F5CF08F00A00F5CF7F
:101C480009F024C006F025C007F0C0EC23F006C058
:101C580001F007C002F0000E046E0A0E036E7FEC5E
:101C680024F00150300F276E275076EC27F01D0620
:101C78001D28D8A4D5D70DC0F6FF0EC0F7FF0D4A12
:101C88000E2AF86A0800F5CF27F02750D8B41200BA
:101C98004ED66D506E10D8B474D04EEC21F0010EB3
:101CA8006EEC27F0680E0001B16FE40EE82EFED747
:101CB800B12FFCD700F09BEC1FF08B8A000E0001BF
:101CC800816F000E806F3CEC27F00001FD6F000172
:101CD800FD510B0D010EF3240001B36F000EF4202B
:101CE8000001B46F7F0E0001B56FB3C0ABF0B4C094
:101CF800ACF0B5C0ADF0A1EC1DF0899A000E000162
:101D0800BF6F000EBE6F0001BFBF08D00001BF51FA
:101D180026E12E0E0001BE5DD8B021D089BA04D0CC
:101D28000001B16BB12B02D00001B16B0001B13BD6
:101D3800B14789500001B119DF0BB119896E000153
:101D4800BE5100082D0F9EEC26F00001BE4BBF2BA4
:101D58000001BFBFE3D70001BF5101E1DAD7898A8B
:101D680068EC23F0CB0E0001B26FEC0E0001B16FEE
:101D7800840EE82EFED7B12FFCD7B22FFAD700F089
:101D880012000001EA510001EB11D8A418D005ECAB
:101D980022F00001EA510001EB11D8B41200000151
:101DA800FE4BFF2B0C0E0001FE190001FF11D8A4F9
:101DB8001200000E0001E96F010EE86F1200655075
:101DC8006610D8B41200000E0001EB6F000EEA6F27
:101DD8003D0E0001B26FE10E0001B16F3F0EE82E1B
:101DE800FED7B12FFCD7B22FFAD700D0899A0EECC4
:101DF80025F0E0C0DAF0E1C0DBF00001DA510001C3
:101E0800DB11D8B41DD0000E0001B76F000EB66FFD
:101E18000001B7BF08D0C40E0001B65D090E00016D
:101E2800B759D8B02AD08988C80EE82EFED7899825
:101E3800420EE82EFED700D00001B64BB72BE8D7EC
:101E4800000E0001B96F000EB86F0001B9BF08D0CD
:101E5800C40E0001B85D090E0001B959D8B00DD003
:101E680089889A0EE82EFED700D08998700EE82E41
:101E7800FED70001B84BB92BE8D7090E0001B26FA5
:101E88001E0E0001B16FE40EE82EFED7B12FFCD76D
:101E9800B22FFAD700F010EC24F00001DE050001A3
:101EA800DF11D8A497D0050E0001B26F0F0E000104
:101EB800B16FF10EE82EFED7B12FFCD7B22FFAD7AB
:101EC80010EC24F00001DE050001DF11D8A440D099
:101ED8000001DA510001DB11D8B41DD0000E000159
:101EE800BB6F000EBA6F0001BBBF08D0C40E000163
:101EF800BA5D090E0001BB59D8B02AD08988C80E2E
:101F0800E82EFED78998420EE82EFED700D00001B1
:101F1800BA4BBB2BE8D7000E0001BD6F000EBC6F9B
:101F28000001BDBF08D0C40E0001BC5D090E000150
:101F3800BD59D8B00DD089889A0EE82EFED700D0AA
:101F48008998700EE82EFED70001BC4BBD2BE8D750
:101F5800090E0001B26F1E0E0001B16FE40EE82EEB
:101F6800FED7B12FFCD7B22FFAD700F02DD010EC46
:101F780024F00001DE050001DF11D8A425D0050EEC
:101F88000001B26F0F0E0001B16FF10EE82EFED7FF
:101F9800B12FFCD7B22FFAD710EC24F00001DE05E0
:101FA8000001DF11D8A410D089880B0E0001B26F90
:101FB800260E0001B16F5D0EE82EFED7B12FFCD7BB
:101FC800B22FFAD700D089980001DE050001DF1191
:101FD800D8B4CDD7000E686E010E676E1200010EE0
:101FE8006EEC27F0680E0001AB6FE40EE82EFED70A
:101FF800AB2FFCD700F0800E6EEC27F0AE0E000180
:102008008E6FFF0E00018F6FB8EC08F0C00E6EECFB
:1020180027F00B0E00018E6FFF0E00018F6FB8ECDA
:1020280008F0050E0001AC6F0F0E0001AB6FF10E4A
:10203800E82EFED7AB2FFCD7AC2FFAD781A2FED75C
:1020480081B2FED7010E6EEC27F0680E0001AB6F6F
:10205800E40EE82EFED7AB2FFCD700F0800E6EEC16
:1020680027F0350E00018E6FFF0E00018F6FB8EC60
:1020780008F0050E0001AC6F0F0E0001AB6FF10EFA
:10208800E82EFED7AB2FFCD7AC2FFAD78B8A5CD0C3
:10209800000E73EC26F0C350C4CFABF00001AC6B5C
:1020A800ABC0ACF00001AB6B0001AB110001AD6F30
:1020B8000001AC510001AE6F0001AEBF0AD0210E85
:1020C8000001AD5D030E0001AE59D8A002D0010E8B
:1020D80001D0000E0001DE6FDF6B010E6EEC27F001
:1020E800680E0001AB6FE40EE82EFED7AB2FFCD7CD
:1020F80000F0800E6EEC27F05A0E00018E6FFE0E77
:1021080000018F6FDEC090F0DFC091F0B8EC08F0EE
:10211800C00E6EEC27F0160E00018E6FFE0E000149
:102128008F6FADC090F0AEC091F0B8EC08F0050E1E
:102138000001AC6F0F0E0001AB6FF10EE82EFED759
:10214800AB2FFCD7AC2FFAD781A2A2D78B9A010E5E
:102158006EEC27F0680E0001AB6FE40EE82EFED798
:10216800AB2FFCD700F0800E6EEC27F0870E000135
:102178008E6FFE0E00018F6FB8EC08F0050E00019F
:10218800AC6F0F0E0001AB6FF10EE82EFED7AB2F30
:10219800FCD7AC2FFAD721D036EC24F0800E6EECA9
:1021A80027F0C00E6EEC27F02A0E00018E6FFE0E8F
:1021B80000018F6FE0C090F0E1C091F0B8EC08F03A
:1021C800050E0001AC6F0F0E0001AB6FF10EE82E8B
:1021D800FED7AB2FFCD7AC2FFAD781A2DDD7010EE3
:1021E8006EEC27F0680E0001AB6FE40EE82EFED708
:1021F800AB2FFCD700F0800E6EEC27F0870E0001A5
:102208008E6FFF0E00018F6FB8EC08F0050E00010D
:10221800AC6F0F0E0001AB6FF10EE82EFED7AB2F9F
:10222800FCD7AC2FFAD7010E6EEC27F0680E000130
:10223800AB6FE40EE82EFED7AB2FFCD700F0800E74
:102248006EEC27F0870E00018E6FFF0E00018F6F76
:10225800B8EC08F01BD0800E6EEC27F0C00E6EECC8
:1022680027F0A50E00018E6FFF0E00018F6F80A46E
:1022780004D00001AB6BAB2B02D00001AB6B0001AB
:10228800AB510001906F916BB8EC08F081A2E3D7D5
:1022980081380F0B0F0AD8B4120089861BD0800E24
:1022A8006EEC27F0C00E6EEC27F0A50E00018E6FC5
:1022B800FF0E00018F6F80A404D00001AB6BAB2B25
:1022C80002D00001AB6B0001AB510001906F916B24
:1022D800B8EC08F081B2E3D78996A5D787EC20F04F
:1022E80039C1BEF03AC1BFF03BC1C0F03CC1C1F03A
:1022F800000E0001C36F000EC26F0001C3BF08D0FB
:102308000001C35146E1070E0001C25DD8B041D0BB
:10231800240E0001C225D96E010E0001C321DA6E18
:10232800DF500001AB6F0001AB3B0F0EAB170F0E78
:102338000001AB170001AB510A0D240E0001C225A4
:10234800D96E010E0001C321DA6EDF500F0B0001B8
:10235800AC6FAD6BF3500001AC27F4500001AD2316
:10236800D8900001C235D96E0001C335DA6EAE0EC1
:10237800D926000EDA22ACC0DEFFADC0DDFF0001B9
:10238800C24BC32B0001C3BFC3D70001C35101E136
:10239800BAD7B8C0BCF0B9C0BDF0B4D0BE0E000109
:1023A800806F000E0001816FDB0E0001826FFF0E4F
:1023B8000001836FD8EC24F0D4D0BE0E0001806FEA
:1023C800000E0001816FCB0E0001826FFF0E00012D
:1023D800836FD8EC24F0C5D0BE0E0001806F000ECC
:1023E8000001816FE70E0001826FFF0E0001836F0D
:1023F800D8EC24F0B6D0BE0E0001806F000E0001AC
:10240800816FEB0E0001826FFF0E0001836FD8EC25
:1024180024F0A7D0BE0E0001806F000E0001816F6E
:10242800FB0E0001826FFF0E0001836FD8EC24F0D1
:1024380098D0BE0E0001806F000E0001816FDF0E84
:102448000001826FFF0E0001836FD8EC24F089D061
:10245800BE0E0001806F000E0001816FD70E0001D3
:10246800826FFF0E0001836FD8EC24F07AD0BE0E85
:102478000001806F000E0001816FD30E0001826F92
:10248800FF0E0001836FD8EC24F06BD0BE0E000164
:10249800806F000E0001816FE30E0001826FFF0E56
:1024A8000001836FD8EC24F05CD0BE0E0001806F71
:1024B800000E0001816FF30E0001826FFF0E000114
:1024C800836FD8EC24F04DD0BE0E0001806F000E53
:1024D8000001816FF70E0001826FFF0E0001836F0C
:1024E800D8EC24F03ED0BE0E0001806F000E000133
:1024F800816FCF0E0001826FFF0E0001836FD8EC51
:1025080024F02FD0BCC0ABF0BDC0ACF00001AC5182
:10251800000AD8A426D00001AB51010AD8B43ED78E
:10252800030AD8B44AD7010AD8B456D7070AD8B488
:1025380062D7010AD8B46ED7030AD8B47AD7010A89
:10254800D8B486D70F0AD8B492D7010AD8B49ED780
:10255800030AD8B4AAD7010AD8B4B6D7070AD8B498
:10256800C2D7800E6EEC27F00A0E00018E6FFB0EAC
:1025780000018F6FB6C090F0B7C091F0BE0E000199
:10258800926F000E0001936FB2C094F0B3C095F043
:10259800B0C096F0B1C097F0AEC098F0AFC099F057
:1025A800B8EC08F01200000E786E000E776E000E80
:1025B800626E000E616E000E646E000E636E000E99
:1025C8005A6E000E596EF29E8DEC18F02A502B10A0
:1025D800D8A412D146D188EC25F043D17750781091
:1025E800D8B403D070EC25F03CD161506210D8B457
:1025F80003D058EC25F035D163506410D8B431D1EC
:10260800B2EC26F02ED177507810D8B403D088ECED
:1026180025F027D161506210D8B411D070EC25F0A4
:1026280020D177507810D8B403D088EC25F019D190
:1026380061506210D8B403D070EC25F012D1635009
:102648006410D8B40ED1010E0001FC6F0AD1775086
:102658007810D8B403D040EC25F003D16150621053
:10266800D8B403D088EC25F0FCD063506410D8B4FB
:10267800F8D000EC26F0F5D077507810D8B403D015
:10268800A0EC25F0EED061506210D8B403D0E8EC8D
:1026980025F0E7D063506410D8B407D0000E136E4D
:1026A800010E126EECEC26F0DCD059505A10D8B45A
:1026B800D8D070EC25F0D5D077507810D8B403D0A6
:1026C80000EC26F0CED061506210D8B403D046ECAE
:1026D80026F0C7D063506410D8B407D0000E136E2C
:1026E800020E126EECEC26F0BCD059505A10D8B439
:1026F800B8D070EC25F0B5D077507810D8B403D0A6
:1027080000EC26F0AED061506210D8B403D046EC8D
:1027180026F0A7D063506410D8B407D0000E136E0B
:10272800020E126EECEC26F09CD059505A10D8B418
:1027380098D070EC25F095D077507810D8B403D0A5
:10274800D0EC25F08ED061506210D8B403D0A0EC44
:1027580025F087D063506410D8B407D0000E136EEC
:10276800030E126EECEC26F07CD059505A10D8B4F7
:1027780078D070EC25F075D077507810D8B403D0A5
:10278800D0EC25F06ED061506210D8B403D0A0EC24
:1027980025F067D063506410D8B407D0000E136ECC
:1027A800030E126EECEC26F05CD059505A10D8B4D7
:1027B80058D070EC25F055D077507810D8B403D0A5
:1027C800B8EC25F04ED061506210D8B403D000ECBC
:1027D80026F047D063506410D8B407D0000E136EAB
:1027E800040E126EECEC26F03CD059505A10D8B4B6
:1027F80038D070EC25F035D0E6C043F0E7C044F09F
:102808004450000AD8B407D0030AD8B415D0070A30
:10281800D8B420D026D04350000AD8B4DCD60B0A4E
:10282800D8B4DCD6070AD8B4EED61A0AD8B4F9D682
:10283800010AD8B40CD715D04350F30AD8B41CD722
:10284800070AD8B439D70A0AD8B456D7010AD8B46F
:1028580073D707D04350090AD8B48ED7030AD8B41F
:10286800ABD7F28E1200010E6EEC27F0680E000155
:10287800AB6FE40EE82EFED7AB2FFCD700F0800E2E
:102888006EEC27F0710E00018E6FFF0E00018F6F46
:10289800B8EC08F08B8A5CD0000E73EC26F0C350BD
:1028A800C4CFABF00001AC6BABC0ACF00001AB6BBC
:1028B8000001AB110001AD6F0001AC510001AE6F1A
:1028C8000001AEBF0AD0210E0001AD5D030E00016C
:1028D800AE59D8A002D0010E01D0000E0001DE6F63
:1028E800DF6B010E6EEC27F0680E0001AB6FE40E93
:1028F800E82EFED7AB2FFCD700F0800E6EEC27F049
:102908005A0E00018E6FFE0E00018F6FDEC090F030
:10291800DFC091F0B8EC08F0C00E6EEC27F0160E90
:1029280000018E6FFE0E00018F6FADC090F0AEC03B
:1029380091F0B8EC08F0050E0001AC6F0F0E000125
:10294800AB6FF10EE82EFED7AB2FFCD7AC2FFAD722
:1029580081B25DD0A1D7000E73EC26F0C350C4CF6E
:10296800ABF00001AC6BABC0ACF00001AB6B00018D
:10297800AB110001AF6F0001AC510001B06F000155
:10298800B0BF0AD0210E0001AF5D030E0001B0599F
:10299800D8A002D0010E01D0000E0001DE6FDF6B5F
:1029A800010E6EEC27F0680E0001AB6FE40EE82E06
:1029B800FED7AB2FFCD700F0800E6EEC27F05A0E36
:1029C80000018E6FFE0E00018F6FDEC090F0DFC039
:1029D80091F0B8EC08F0C00E6EEC27F0160E00016E
:1029E8008E6FFE0E00018F6FAFC090F0B0C091F0F7
:1029F800B8EC08F0050E0001AC6F0F0E0001AB6FCC
:102A0800F10EE82EFED7AB2FFCD7AC2FFAD781A258
:102A1800A2D781380F0B0F0AD8B447D081380F0BD3
:102A2800050AD8A41DD0000E0001B26F000EB16FC8
:102A38000001B2BF08D0B80E0001B15D0B0E000155
:102A4800B259D8B02FD08988C80EE82EFED78998F9
:102A5800420EE82EFED700D00001B14BB22BE8D7CA
:102A680081380F0B060AD8A41DD0000E0001B46FE0
:102A7800000EB36F0001B4BF08D0B80E0001B35DFB
:102A88000B0E0001B459D8B00DD089889A0EE82EE3
:102A9800FED700D08998700EE82EFED70001B34B00
:102AA800B42BE8D781A2B3D7FDD78B9A12003EEC9E
:102AB80022F039C13DF03AC13EF03BC13FF03CC184
:102AC80040F0000E426E000E416E42BE06D04250EB
:102AD80035E1070E415CD8B031D0240E4124D96EBF
:102AE800010E4220DA6EDF502A6E2A3A0F0E2A169D
:102AF8000F0E2A162A500A0D240E4124D96E010EF3
:102B08004220DA6EDF500F0B2B6E2C6AF3502B2607
:102B1800F4502C22D8904134D96E4234DA6E2D0EFE
:102B2800D926000EDA222BC0DEFF2CC0DDFF414A79
:102B3800422A42BED2D7425001E1CBD737C03BF040
:102B480038C03CF084D03D0E016E000E026EDB0EE4
:102B5800036EFF0E046E27EC25F0A6D03D0E016E25
:102B6800000E026ECB0E036EFF0E046E27EC25F0EE
:102B78009BD03D0E016E000E026EE70E036EFF0E37
:102B8800046E27EC25F090D03D0E016E000E026E0B
:102B9800EB0E036EFF0E046E27EC25F085D03D0E7C
:102BA800016E000E026EFB0E036EFF0E046E27EC24
:102BB80025F07AD03D0E016E000E026EDF0E036E18
:102BC800FF0E046E27EC25F06FD03D0E016E000E4F
:102BD800026ED70E036EFF0E046E27EC25F064D04C
:102BE8003D0E016E000E026ED30E036EFF0E046ED4
:102BF80027EC25F059D03D0E016E000E026EE30E53
:102C0800036EFF0E046E27EC25F04ED03D0E016ECC
:102C1800000E026EF30E036EFF0E046E27EC25F015
:102C280043D03D0E016E000E026EF70E036EFF0ECE
:102C3800046E27EC25F038D03D0E016E000E026EB2
:102C4800CF0E036EFF0E046E27EC25F02DD03BC08F
:102C58002AF03CC02BF02B50000AD8A425D02A50CB
:102C6800010AD8B470D7030AD8B478D7010AD8B4FF
:102C780080D7070AD8B488D7010AD8B490D7030AEE
:102C8800D8B498D7010AD8B4A0D70F0AD8B4A8D70F
:102C9800010AD8B4B0D7030AD8B4B8D7010AD8B44F
:102CA800C0D7070AD8B4C8D7800E7CEC27F00A0E24
:102CB8000D6EFB0E0E6E35C00FF036C010F03D0ED7
:102CC800116E000E126E31C013F032C014F02FC016
:102CD80015F030C016F02DC017F02EC018F096EC85
:102CE8000CF0120069506A10D8B4120034D0010EEA
:102CF8000001816FF40E806F000E0001836F010EDA
:102D0800826FCAEC21F03ED0030E0001816F520E93
:102D1800806F000E0001836F010E826FCAEC21F0F4
:102D280031D0060E0001816F860E806F000E000103
:102D3800836F010E826FCAEC21F024D0090E0001C6
:102D4800816F600E806F000E0001836F010E826F2D
:102D5800CAEC21F017D0E4C088F0E5C089F0000182
:102D68008951000AD8A40ED000018851000AD8B4AD
:102D7800BED7010AD8B4C8D7030AD8B4D2D7010A33
:102D8800D8B4DCD7040E0001816F1A0E806F000ED4
:102D98000001836F030E826FCAEC21F01F0E000141
:102DA800896F710E0001886F1E0EE82EFED7882FDE
:102DB800FCD7892FFAD700F034D0040E0001816FB8
:102DC800EC0E806F000E0001836F030E826FCAEC59
:102DD80021F03ED0040E0001816FEC0E806F000ED2
:102DE8000001836F030E826FCAEC21F031D0050E0B
:102DF8000001816F780E806F000E0001836F030E53
:102E0800826FCAEC21F024D0050E0001816F780E84
:102E1800806F000E0001836F030E826FCAEC21F0F1
:102E280017D0E4C088F0E5C089F000018951000A94
:102E3800D8A40ED000018851000AD8B4BED7010A20
:102E4800D8B4C8D7030AD8B4D2D7010AD8B4DCD7C3
:102E5800660E0001896F760E0001886FC10EE82E9C
:102E6800FED7882FFCD7892FFAD7040E0001816F6F
:102E78001A0E806F000E0001836F030E826FCAEC7A
:102E880021F01F0E0001896F710E0001886F1E0E60
:102E9800E82EFED7882FFCD7892FFAD700F0040E2A
:102EA8000001816FB00E806F000E0001836F010E6C
:102EB800826FCAEC21F0040E0001816F1A0E806F38
:102EC800000E0001836F030E826FCAEC21F0000E22
:102ED8006A6E000E696E000E0101306F010E2F6FD1
:102EE800000E6C6E010E6B6E0001E8050001E91121
:102EF800D8A41200020E0001FC6F12003EEC22F072
:102F0800000E486E000E476E48BE06D0485031E1AC
:102F1800070E475CD8B02DD0240E4724D96E010E79
:102F28004820DA6EDF502A6E2A3A0F0E2A160F0E44
:102F38002A162A500A0D240E4724D96E010E48205D
:102F4800DA6EDF500F0B2B6E2C6AF3502B26F450E1
:102F58002C22D8904734D96E4834DA6E2D0ED926F3
:102F6800000EDA222BC0DEFF2CC0DDFF474A482ABC
:102F7800CBD710C101F011C102F0000E046E3C0E57
:102F8800036EC6EC26F001C02AF002C02BF012C175
:102F980001F013C102F00E0E046E100E036EC6ECA3
:102FA80026F001502A2602502B2201010E512A2414
:102FB8003B6E01010F512B203C6E2FC001F030C039
:102FC80002F0000E046E3C0E036EC6EC26F001C043
:102FD8002AF002C02BF031C001F032C002F00E0E10
:102FE800046E100E036EC6EC26F001502A2602501D
:102FF8002B222D502A243D6E2E502B203E6E3BC096
:103008002AF03CC02BF02A1E2B1E2A4A2B2A3D50A0
:103018002A24456E3E502B20466E45C0F8F046C027
:10302800F9F06B506C10D8B408D0F8C033F1F9C07F
:1030380034F1000E6C6E000E6B6E33C12AF034C191
:103048002BF02A1E2B1E2A4A2B2A0001F8512A2669
:103058000001F9512B22B30E2A182B10D8B407D02F
:10306800B30E0001F8190001F911D8A403D0020E1B
:103078000001FC6F0E0E046E100E036E45C001F0C9
:1030880046C002F07FEC24F001C006F002C007F051
:10309800000E096E3C0E086EC0EC23F006C03FF02F
:1030A80007C040F00E0E046E100E036E45C001F00E
:1030B80046C002F07FEC24F001C043F002C044F0A7
:1030C80043C001F044C002F0000E046E3C0E036ED3
:1030D8007FEC24F001C041F002C042F0800E7CEC8D
:1030E80027F07C0E0D6EFF0E0E6E96EC0CF0C00EE7
:1030F8007CEC27F0420E0D6EFF0E0E6E3FC00FF0F7
:1031080040C010F041C011F042C012F096EC0CF033
:1031180012006F507010D8B40BD088EC25F0000E58
:10312800706E000E6F6E000E2B6E000E2A6E12006F
:103138000001F6510001F711D8B4C7D0430E7D182D
:10314800D8A412D081B209D00FD0680E2C6EE40E2C
:10315800E82EFED72C2EFCD700D081B2F6D7000E71
:103168002B6E000E2A6E1200440E7D18D8A4F7D7D5
:10317800000E0001F76F000EF66F12D000EC26F07B
:10318800EED7E8EC25F0EBD7D0EC25F0E8D746EC05
:1031980026F0E5D7B8EC25F0E2D7A0EC25F0DFD78C
:1031A800E6C02CF0E7C02DF02D50030AD8B404D0A7
:1031B800070AD8B40FD0D3D72C50F30AD8B4DED727
:1031C800070AD8B4DED70A0AD8B4DED7010AD8B4B9
:1031D800DED7C5D72C50090AD8B4DCD7030AD8B42F
:1031E800DCD7BDD70B0E0001E6190001E711D8A402
:1031F80005D0000E2B6E000E2A6E120088EC25F00A
:10320800000E2B6E000E2A6E1200160E0001E61933
:103218000001E711D8B407D00C0E0001E61900012F
:10322800E711D8A405D0000E2B6E000E2A6E1200EE
:10323800170E0001E6190001E711D8A403D040ECED
:1032480025F002D058EC25F0000E2B6E000E2A6EE9
:103258001200170E0001E6190001E711D8A405D0E5
:10326800000E2B6E000E2A6E120070EC25F0000E78
:103278002B6E000E2A6E1200000E786E010E776E0D
:10328800000E2B6E010E2A6E1200000E626E010EE9
:10329800616E000E2B6E010E2A6E1200000E646E17
:1032A800010E636E000E2B6E010E2A6E1200000EC8
:1032B8005A6E010E596E000E2B6E010E2A6E120008
:1032C800000E2B6E010E2A6E12007D50310AD8B402
:1032D80089D7030AD8B499D7010AD8B4BAD7720AD9
:1032E800D8B4CAD7030AD8B4D0D7010AD8B4D6D725
:1032F800070AD8B4DCD7E4D767506810D8B41200EE
:103308003D0E0001836FE10E0001826F3F0EE82E33
:10331800FED7822FFCD7832FFAD700D08986190EC3
:103328000001836F5A0E0001826FB10EE82EFED79E
:10333800822FFCD7832FFAD700D080A404D00001B5
:10334800826B822B02D00001826B00018251000146
:10335800DC6FDD6B0001DA510001DB11D8A414D059
:103368000001DC510001DD11D8A407D05B4A5C2ABA
:10337800000E0001E56F000E06D05D4A5E2A000EC1
:103388000001E56F010EE46F0001DA510001DB1165
:10339800D8B416D00001DC510001DD11D8A408D042
:1033A80001012D4B2E2B000E0001E56F020E07D0F8
:1033B80001012B4B2C2B000E0001E56F030EE46F6F
:1033C8008996090E0001836F1E0E0001826FE40EBC
:1033D800E82EFED7822FFCD7832FFAD700F08986F4
:1033E800000E0001856F000E846F000185BF08D0B4
:1033F800100E0001845D270E00018559D8B00DD04C
:103408008B801A0EE82EFED700D08B90F00EE82E97
:10341800FED70001844B852BE8D78B908996000E48
:103428006A6E010E696E3D0E0001836FE10E0001A8
:10343800826F3F0EE82EFED7822FFCD7832FFAD754
:1034480000D08B800001E8510001E911D8A432D0E6
:10345800000E0001876F000E866F000187BF08D03D
:103468000001875126E12E0E0001865DD8B021D0DB
:1034780089BA04D00001826B822B02D00001826BD2
:103488000001823B8247895000018219DF0B8219B3
:10349800896E0001865100082D0F9EEC26F0000170
:1034A800864B872B000187BFE3D70001875101E1D5
:1034B800DAD7898A000E686E000E676E1200010E58
:1034C8006EEC27F0680E0001AB6FE40EE82EFED715
:1034D800AB2FFCD700F0800E6EEC27F07F0E0001BA
:1034E8008E6FFB0E00018F6F80A404D00001AB6BC0
:1034F800AB2B02D00001AB6B0001AB510001906F08
:10350800916BB8EC08F0C00E6EEC27F06D0E000160
:103518008E6FFB0E00018F6FB8EC08F0000E0001F3
:10352800AF6F010EAE6F000E0001B16F000EB06FED
:1035380018D0800E6EEC27F07F0E00018E6FFB0E08
:1035480000018F6F80A404D00001AB6BAB2B02D0BD
:103558000001AB6B0001AB510001906F916BB8ECAF
:1035680008F081A2E6D781380F0B0F0AD8B41200F1
:1035780081380F0BE806D8A416D00001B05100011D
:10358800B111D8B407D0898606D0010E0001B06FFA
:10359800B16B54D089960001B0510001B111D8B473
:1035A800F4D7000EF3D70001AE510001AF11D8B423
:1035B80007D08B8023D0010E0001AE6FAF6B3ED0D9
:1035C800000E0001AD6F000EAC6F0001ADBF08D05A
:1035D800880E0001AC5D130E0001AD59D8B00DD0B6
:1035E8008B801A0EE82EFED700D08B90F00EE82EB6
:1035F800FED70001AC4BAD2BE8D78B900001AE5144
:103608000001AF11D8B4D7D7000ED6D7800E6EEC14
:1036180027F07F0E00018E6FFB0E00018F6F80A4D4
:1036280004D00001AB6BAB2B02D00001AB6B0001E7
:10363800AB510001906F916BB8EC08F081A291D763
:10364800E5D70600FACF4BF0FBCF4CF0E9CF4DF0B1
:10365800EACF4EF0E1CF4FF0E2CF50F0D9CF51F0A2
:10366800DACF52F0F3CF53F0F4CF54F0F6CF55F051
:10367800F7CF56F0F8CF57F0F5CF58F0F0A02BD091
:10368800F0900001FC51D8A41BD081380F0B0F0B10
:10369800496E4A6AEF0E4924F66EFA0E4A20F76E12
:1036A800F86A000EF8220800F5CF7DF02A0E7D1882
:1036B800D8A404D0030E0001FC6F02D0D7EC12F09E
:1036C8000001FC05D8A407D02A0E7D18D8A403D081
:1036D800020E0001FC6FF2A40CD0F2940001FC056C
:1036E800D8A407D082EC17F0850ED76EEE0ED66EF2
:1036F800D58E9EA024D09E90CD900001FC05D8A424
:103708001ED079507A10D8B40AD08B82000E7A6E07
:10371800000E796E1CC1CFFF1EC1CEFF0FD08B9259
:10372800000E7A6E010E796E01011C510008200FFF
:10373800CF6E01011E510008200FCE6ECD80A1A2D0
:1037480024D0A192B1900001FC05D8A41ED07B50D2
:103758007C10D8B40AD08B84000E7C6E000E7B6E71
:1037680020C1B3FF22C1B2FF0FD08B94000E7C6E34
:10377800010E7B6E010120510008200FB36E01017C
:1037880022510008200FB26EB18058C0F5FF57C013
:10379800F8FF56C0F7FF55C0F6FF54C0F4FF53C0FA
:1037A800F3FF52C0DAFF51C0D9FF50C0E2FF4FC04B
:1037B800E1FF4EC0EAFF4DC0E9FF4CC0FBFF4BC024
:1037C800FAFF7E921100000E0001816F000E806FDB
:1037D8003CEC27F00001FD6F0001FD510B0D010EBF
:1037E800F3240001B96F000EF4200001BA6F030E34
:1037F8000001FD610ED00001FD290001B16F000E2E
:103808000001AC6F000EAB6FB1C0ADF0A1EC1DF0C4
:103818000AD0000E0001AC6F000EAB6F000E000165
:10382800AD6FA1EC1DF00001FE5180090001B26FDF
:10383800B9C0ABF0BAC0ACF0B2C0ADF0A1EC1DF0AD
:103848000001B94BBA2B5B38F00B5D100001B36F68
:10385800B9C0ABF0BAC0ACF0B3C0ADF0A1EC1DF08C
:103868000001B94BBA2B01012D39F00B01012B11C5
:103878000001B46FB9C0ABF0BAC0ACF0B4C0ADF0E1
:10388800A1EC1DF00001B94BBA2B000E0001B86F76
:10389800000EB76F0001B8BF08D00001B85128E189
:1038A800070E0001B75DD8B023D0D8900001B73516
:1038B800D96E0001B835DA6E0E0ED926010EDA225D
:1038C800DF500001B56FB9C0ABF0BAC0ACF0B5C0FD
:1038D800ADF0A1EC1DF00001B94BBA2B0001B74BBC
:1038E800B82B0001B8BFE1D70001B85101E1D8D722
:1038F800F8C0B6F0B9C0ABF0BAC0ACF0B6C0ADF025
:10390800A1EC1DF0120007C001F008C002F0000E83
:10391800046E0B0E036EC6EC26F0010E0124106E29
:10392800000E0220116E10C001F011C002F048EC28
:1039380027F00B6E0BC009F0800E09160950000124
:10394800EE6FEF6B0BC009F00F0E09160950756E7C
:10395800766A104A112A10C001F011C002F048EC32
:1039680027F00C6E0CC009F0093A0F0E09160F0E5D
:10397800091609500001F06FF16B0CC009F00F0E29
:10398800091609500001F26FF36B104A112A10C092
:1039980001F011C002F048EC27F00D6E0DC009F0DF
:1039A800093A0F0E09160F0E09160950736E746A3C
:1039B8000DC009F00F0E09160950716E726A104A8F
:1039C800112A000E0F6E000E0E6E0FBE06D00F509D
:1039D8001EE1070E0E5CD8B01AD010C001F011C05D
:1039E80002F048EC27F0096E0A6AD8900E34D96EB6
:1039F8000F34DA6E000ED926010EDA2209C0DEFF76
:103A08000AC0DDFF104A112A0E4A0F2ADED710C05D
:103A180001F011C002F048EC27F0096E09500001CE
:103A2800F46FF56B1200010E6EEC27F0680E0001C2
:103A3800C66FE40EE82EFED7C62FFCD700F0800E26
:103A48006EEC27F0920E00018E6FFC0E00018F6F56
:103A5800B8EC08F0C00E6EEC27F0A30E00018E6FD4
:103A6800FC0E00018F6FB8EC08F0050E0001C76F5F
:103A78000F0E0001C66FF10EE82EFED7C62FFCD739
:103A8800C72FFAD781A2FED781CFC6F00001C63B67
:103A98000F0EC6170001C6510001FA6FFB6B00013B
:103AA800FA4BFB2B81A21FD0FDD713EC1EF0BBD71E
:103AB800F3EC0FF0B8D709EC00F0B5D73AEC23F0E7
:103AC800B2D7CAEC20F0AFD7A0EC27F0ACD737ECD0
:103AD80014F0A9D70CEC21F0A6D7D4EC0AF0A3D7A0
:103AE80063EC1AF0A0D7FAC0C6F0FBC0C7F000011B
:103AF800C751000AD8A497D70001C651010AD8B403
:103B0800D4D7030AD8B4D4D7010AD8B4D4D7060A6C
:103B1800D8B4D4D7030AD8B4D4D7010AD8B4D4D7E0
:103B28000F0AD8B4D4D7010AD8B4D4D7030AD8B462
:103B3800D4D7010AD8B4D4D776D7A6840001AC511B
:103B4800AA6EABC0A9FFADC0A8FFA69EA69CF29E18
:103B5800550EA76EAA0EA76EA682F28EA1A8FED752
:103B6800A198A6945F506010D8B41200010E6EECB4
:103B780027F0680E0001AE6FE40EE82EFED7AE2FD8
:103B8800FCD700F0800E6EEC27F0ABC080F0ACC024
:103B980081F03CEC27F00001AD19D8A424D0220E06
:103BA80000018E6FFB0E00018F6FADC090F0000119
:103BB800916BABC092F0ACC093F0B8EC08F0000E7B
:103BC8000001AF6F630E0001AF6501D01200680EEF
:103BD8000001AE6FE40EE82EFED7AE2FFCD700F042
:103BE8000001AF2BEFD7BD0E00018E6FFF0E000155
:103BF8008F6FB8EC08F0000E0001B06F630E000183
:103C0800B06501D01200680E0001AE6FE40EE82E18
:103C1800FED7AE2FFCD700F00001B02BEFD7010E76
:103C28006EEC27F0680E0001AB6FE40EE82EFED7AD
:103C3800AB2FFCD700F0800E6EEC27F0D20E0001FF
:103C48008E6FFE0E00018F6FB8EC08F0C00E6EECA0
:103C580027F00B0E00018E6FFF0E00018F6FB8EC7E
:103C680008F0050E0001AC6F0F0E0001AB6FF10EEE
:103C7800E82EFED7AB2FFCD7AC2FFAD781A2FED700
:103C880081B2FED7010E6EEC27F0680E0001AB6F13
:103C9800E40EE82EFED7AB2FFCD700F0800E6EECBA
:103CA80027F05F0E00018E6FFC0E00018F6FB8ECDD
:103CB80008F0EF0E00018E6FFE0E00018F6FB8EC5A
:103CC80008F04F0E00018E6FFF0E00018F6FB8ECE9
:103CD80008F0B40E00018E6FFE0E00018F6FB8EC75
:103CE80008F0FD0E00018E6FFE0E00018F6FB8EC1C
:103CF80008F012000CEC23F05CEC24F0000E00013C
:103D0800E36F000EE26F0001E2510001E311D8B445
:103D180016D0200E0001806F150E0001816F040E71
:103D28000001826F150E0001836F030E0001846F7E
:103D3800170E0001856F420E0FEC27F00BD0100E06
:103D480000018D6F270E8E6F000E8F6F000E906F23
:103D5800DCEC22F018EC26F0000E6E6E010E6D6E93
:103D680017D065EC04F014D0FEEC26F011D02FEC3F
:103D780027F0E7EC1BF0000E6E6E010E6D6E65EC21
:103D880004F006D017EC1DF003D02FEC27F0FFD776
:103D98000001FC51000AD8B4E4D7010AD8B4E4D72A
:103DA800030AD8B4E4D7010AD8B4ECD7070AD8B4C0
:103DB800ECD7EED7000E00018B6F000189AF08D059
:103DC8000001886D891FD8B0892B010E00018B6F07
:103DD800000187AF08D00001866D871FD8B0872BF8
:103DE800010E00018B1B000E00018D6F000E8C6F01
:103DF8000001885100018911D8B42CD0010E0001AE
:103E08008A6F06D00001D8908837893700018A2B3D
:103E1800000189AFF7D70001D8908C378D370001A2
:103E280088510001865D0001895100018759D8A099
:103E38000AD0000188510001865F00018951000104
:103E4800875B00018C810001D89089338833000199
:103E58008A2FE1D700018B510001D8B405D00001A9
:103E68008C6D8D1FD8B08D2B8CC086F08DC087F0DF
:103E78001200000E0001886F000E896F000E8A6F15
:103E8800000E8B6F0001845100018511000186111D
:103E980000018711D8B442D0010E00018C6F08D000
:103EA8000001D890843785378637873700018C2BF7
:103EB800000187AFF5D70001D890883789378A374E
:103EC8008B37000184510001805D0001855100019C
:103ED8008159000186510001825900018751000172
:103EE8008359D8A012D0000184510001805F0001DD
:103EF80085510001815B000186510001825B000150
:103F080087510001835B000188810001D8908733C5
:103F180086338533843300018C2FCDD788C080F059
:103F280089C081F08AC082F08BC083F0120087ECD0
:103F380020F0000E0001896F000E886F000189BF14
:103F480008D00001895140E1070E0001885DD8B012
:103F58003BD0240E00018825D96E010E000189216D
:103F6800DA6EDF500001856F0001853B0F0E851763
:103F78000F0E00018517000185510A0D240E00015E
:103F88008825D96E010E00018921DA6EDF500F0BEA
:103F98000001866F876BF35000018627F4500001FB
:103FA8008723D89000018835D96E00018935DA6EEB
:103FB8000E0ED926010EDA2286C0DEFF87C0DDFF8D
:103FC8000001884B892BBAD7170ED56E850ED76E90
:103FD800EE0ED66ED58E1200000E0001856F000120
:103FE80081AF08D00001806D811FD8B0812B010EF0
:103FF8000001856F000183AF05D00001826D831F2A
:10400800D8B0832B0001825100018311D8B426D087
:10401800010E0001846F06D00001D89082378337E3
:104028000001842B000183AFF7D700018251000102
:10403800805D0001835100018159D8A008D000019A
:1040480082510001805F000183510001815B000102
:10405800D890833382330001842FE7D7000185513C
:104068000001D8B405D00001806D811FD8B0812B24
:1040780080C080F081C081F01200100E00018D6FA9
:10408800270E8E6F000E8F6F000E906FDCEC22F003
:10409800F29E94EC27F0000E0001826FD00E816F23
:1040A80082EC27F0000E0001826F000E816F82EC17
:1040B80027F0000E0001976F000E966F000197BF62
:1040C80008D0000197511BE1070E0001965DD8B09A
:1040D80016D0240E00019625D96E010E00019721F5
:1040E800DA6EDF500001956F000195510001816F74
:1040F800826B82EC27F00001964B972BDFD790EC70
:1041080027F0F28E120094EC27F0000E0001826F67
:10411800D00E816F82EC27F0000E0001826F000E36
:10412800816F82EC27F090EC27F094EC27F0000EDA
:104138000001826FD10E816F82EC27F0000E000122
:10414800846F000E836F000184BF08D00001845182
:1041580015E1060E0001835DD8B010D0240E0001D1
:104168008325D96E010E00018421DA6E010E2FEC31
:1041780026F0DF6E0001834B842BE5D7000E2FEC71
:1041880026F001012A6F90EC27F01200010E6EEC68
:1041980027F0680E0001AB6FE40EE82EFED7AB2FB8
:1041A800FCD700F0800E6EEC27F05B0E00018E6FDE
:1041B800FB0E00018F6FB8EC08F0C00E6EEC27F014
:1041C800490E00018E6FFB0E00018F6FB8EC08F0EE
:1041D80081A2FED781380F0B0F0AD8B4120014D071
:1041E800898A340E0001AB6FF10EE82EFED7AB2F93
:1041F800FCD700D0899A340E0001AB6FF10EE82E7F
:10420800FED7AB2FFCD700D081B2EAD7899AE0D786
:1042180081A2FED781CF80F00001803B0F0E80176E
:10422800000180510001FA6FFB6B0CD08D8027D004
:104238008D8225D08C8023D0898621D089881FD073
:10424800898A1DD0FAC080F0FBC081F0000181513D
:10425800000AD8A414D000018051000AD8B4E6D7C7
:10426800010AD8B4E5D7030AD8B4E4D7010AD8B408
:10427800E3D7070AD8B4E2D7010AD8B4E1D781B2A4
:10428800FED700F000F0000E896E000E8D6E000E55
:104298008C6EBED7000E6E6E000E6D6E000E0001A5
:1042A800EB6F000EEA6F000E0001E96F000EE86F79
:1042B800000E666E010E656E000E686E000E676E6B
:1042C800000E6A6E000E696E000E0101306F000E5E
:1042D8002F6F000E6C6E000E6B6E000E0001FF6FEC
:1042E800000EFE6F000E5C6E000E5B6E000E5E6EC2
:1042F800000E5D6E000E01012E6F000E2D6F000E78
:1043080001012C6F000E2B6F030E0101346FE70EB5
:10431800336F1200000E0001856F000E846F0001DC
:10432800825100018311D8B42CD0010E0001866F90
:1043380006D00001D890823783370001862B000110
:1043480083AFF7D70001D8908437853700018251B1
:104358000001805D0001835100018159D8A00AD075
:10436800000182510001805F000183510001815BDF
:10437800000184810001D890833382330001862FA5
:10438800E1D784C080F085C081F0120080C084F03D
:1043980081C085F00001841F851F844B852BFF0E8B
:1043A800000184250001866FFF0E000185210001B0
:1043B800876F15D00001875101011C6F1D6B00012B
:1043C800865101011E6F1F6B000187510101206F8B
:1043D800216B000186510101226F236B120082C0FC
:1043E80084F083C085F000018551000AD8A412002A
:1043F80000018451010AD8B4DDD7020AD8A41200FA
:10440800E3D710EC24F0000E0001886F000E876FD0
:10441800000188BF08D0000188511AE1960E0001FA
:10442800875DD8B015D0060E0001866F300EE82ED5
:10443800FED7862FFCD700F010EC24F00001DE51E7
:104448000001DF11D8B404D00001874B882BE0D7D6
:104458000001DE050001DF11D8A406D0000E00011E
:10446800EB6F010EEA6F1200000E0001EB6F000EF9
:10447800EA6F12009CEC27F0000E036ED00E026E5D
:1044880087EC27F0000E036E000E026E87EC27F013
:1044980098EC27F09CEC27F0000E036ED10E026E0C
:1044A80087EC27F0000E056E000E046E05BE06D0E0
:1044B800055011E1060E045CD8B00DD0240E04247A
:1044C800D96E010E0520DA6E010ED9EC26F0DF6EEA
:1044D800044A052AEBD7000ED9EC26F001012A6F11
:1044E80098EC27F012000001816F00018151F00B58
:1044F8000001806F8C500F0B8C6E000180518C1066
:104508008C6E8C86420EE82EFED700D08C96420E1A
:10451800E82EFED700D000018139F00B0001816F31
:1045280000018151F00B0001806F8C500F0B8C6ED5
:10453800000180518C108C6E8C86420EE82EFED7BE
:1045480000D08C96420EE82EFED700D01200000153
:10455800895100018A11D8B426D0010E00018B6F51
:1045680006D00001D89089378A3700018B2B0001CB
:104578008AAFF7D7000189510001875D00018A5190
:1045880000018859D8A008D0000189510001875F2F
:1045980000018A510001885B0001D8908A33893371
:1045A80000018B2FE7D787C087F088C088F01200FA
:1045B800000EC76E280EC66E000EC56E000E0001F6
:1045C800806F480E816FE80E826F010E836F8DC079
:1045D80091F08EC092F08FC093F090C094F0020ECC
:1045E800D89000019137923793379437E82EF8D74F
:1045F80091C084F092C085F093C086F094C087F093
:104608003DEC1FF000018005C86E94869488120066
:10461800F00ED36E9B8C070E926EF20E936E000E08
:10462800946E000E956E000E966E000E896E000E4A
:104638008A6E000E8B6E000E8C6E000E8D6EF19ED3
:10464800000EC26E0D0EC16E000EB56EB496B10EA0
:10465800C06EF086F28A9D80B00ECD6EB00EB16E3F
:104668009D82A082F28C9D9CF29E1200010E6EEC3F
:1046780027F0680E0001AB6FE40EE82EFED7AB2FD3
:10468800FCD700F0800E6EEC27F0370E00018E6F1D
:10469800FB0E00018F6FB8EC08F0C00E6EEC27F02F
:1046A800490E00018E6FFB0E00018F6FB8EC08F009
:1046B80081A2FED781380F0B0F0AD8B41200898A5D
:1046C80081B2FED7899AF4D7040E0001816FB00E2B
:1046D800806F000E0001836F010E826FCAEC21F01B
:1046E800040E0001816F1A0E806F000E0001836FA7
:1046F800030E826FCAEC21F0CD80000E7A6E000E98
:10470800796E340E0001886FF10EE82EFED7882FDF
:10471800FCD700D0B180000E7C6E000E7B6E8B80C3
:104728001200026E0250F00B016E8C500F0B8C6E53
:1047380001508C108C6E8C86420EE82EFED700D06D
:104748008C96420EE82EFED700D00238F00B026E8F
:104758000250F00B016E8C500F0B8C6E01508C10B8
:104768008C6E8C86420EE82EFED700D08C96420EB8
:10477800E82EFED700D01200000E0B6E000E0A6E57
:1047880008500910D8B41CD0010E0C6E04D0D89073
:10479800083609360C2A09AEFAD7D8900A360B36ED
:1047A8000850065C09500758D8A005D00850065E86
:1047B8000950075A0A80D890093208320C2EEDD7D2
:1047C8000AC006F00BC007F01200180EF66E4F0E66
:1047D800F76E000EF86E01EE35F010EE08F00900E5
:1047E800F5CFEEFFE550E150FAE101EE00F0350EAD
:1047F800EE6AE806FDE100EEDAF0260EEE6AE8065B
:10480800FDE100EE59F0250EEE6AE806FDE17E9026
:104818007E9200017EEF1EF0000E73EC26F0C3506E
:10482800C4CF82F00001836B82C083F00001826BE9
:10483800000182110001846F000183510001856F1E
:10484800000185BF0AD0210E0001845D030E00011E
:104858008559D8A002D0010E01D0000E0001DE6FEC
:10486800DF6B1200010E73EC26F0C350C4CF82F048
:104878000001836B82C083F00001826B000182110A
:104888000001846F000183510001856F000185BF1D
:1048980008D00001855107E1960E0001845DD8B06B
:1048A80002D0010E01D0000E0001E06FE16B120092
:1048B8009C0E0001836FD70EE82EFED7832FFCD7FE
:1048C800330E6EEC27F0320E6EEC27F0280E6EECED
:1048D80027F00C0E6EEC27F0060E6EEC27F0010E9A
:1048E8006EEC27F09C0E0001836FD70EE82EFED7E2
:1048F800832FFCD7120003500410D8B418D0010E2F
:10490800056E04D0D89003360436052A04AEFAD7CB
:104918000350015C04500258D8A004D00350015E33
:104928000450025AD89004320332052EF1D701C040
:1049380001F002C002F01200000E0001E76F160E2F
:10494800E66F800E6EEC27F0C40E00018E6FFD0E30
:1049580000018F6FB8EC08F0C00E6EEC27F0090E5E
:1049680000018E6FFD0E00018F6FB8EC08F0120089
:10497800000E0001E76F0C0EE66F800E6EEC27F05C
:104988002B0E00018E6FFD0E00018F6FB8EC08F042
:10499800C00E6EEC27F0C40E00018E6FFD0E0001F4
:1049A8008F6FB8EC08F0120080C084F081C085F0E9
:1049B80006D00001844B852B0001824B832B82C0DB
:1049C800F6FF83C0F7FFF86A84C0D9FF85C0DAFF15
:1049D8000800F5CFDFFFDF50D8B41200EAD7000196
:1049E800805100018203F3CF84F0F4CF85F00001F9
:1049F800805100018303F350000185270001815194
:104A080000018203F3500001852784C080F085C02F
:104A180081F0120036EC24F00001E0050001E111FC
:104A2800D8A41200150E0001876F4B0E0001866F87
:104A3800BE0EE82EFED7862FFCD7872FFAD700F0B8
:104A480036EC24F0120001C005F002C006F004D0D4
:104A5800054A062A034A042A03C0F6FF04C0F7FFE2
:104A6800F86A05C0D9FF06C0DAFF0800F5CFDFFFF6
:104A7800DF50D8B41200ECD7000E0001E76F160E15
:104A8800E66F800E7CEC27F0C40E0D6EFD0E0E6EE8
:104A980096EC0CF0C00E7CEC27F0090E0D6EFD0EA6
:104AA8000E6E96EC0CF01200000E0001E76F0C0E73
:104AB800E66F800E7CEC27F02B0E0D6EFD0E0E6E51
:104AC80096EC0CF0C00E7CEC27F0C40E0D6EFD0EBB
:104AD8000E6E96EC0CF01200000E0001E76F170E38
:104AE800E66F800E7CEC27F01A0E0D6EFD0E0E6E32
:104AF80096EC0CF0C00E7CEC27F0B30E0D6EFD0E9C
:104B08000E6E96EC0CF01200000E0001E76F0B0E13
:104B1800E66F800E7CEC27F0D50E0D6EFD0E0E6E46
:104B280096EC0CF0C00E7CEC27F01A0E0D6EFD0E04
:104B38000E6E96EC0CF01200040E0001E76F0A0EE0
:104B4800E66F800E7CEC27F0E70E0D6EFC0E0E6E05
:104B580096EC0CF0C00E7CEC27F0A20E0D6EFD0E4C
:104B68000E6E96EC0CF01200040E0001E76F090EB1
:104B7800E66F800E7CEC27F0910E0D6EFD0E0E6E2A
:104B880096EC0CF0C00E7CEC27F0F80E0D6EFC0EC7
:104B98000E6E96EC0CF01200030E0001E76FFE0E8D
:104BA800E66F800E7CEC27F0800E0D6EFD0E0E6E0B
:104BB80096EC0CF0C00E7CEC27F0E70E0D6EFC0EA8
:104BC8000E6E96EC0CF01200030E0001E76FF40E67
:104BD800E66F800E7CEC27F0C50E0D6EFC0E0E6E97
:104BE80096EC0CF0C00E7CEC27F0800E0D6EFD0EDE
:104BF8000E6E96EC0CF01200030E0001E76FF30E38
:104C0800E66F800E7CEC27F06F0E0D6EFD0E0E6EBB
:104C180096EC0CF0C00E7CEC27F0D60E0D6EFC0E58
:104C28000E6E96EC0CF01200F28E000E0001FC6F76
:104C3800000E0001F76F000EF66F0001E25100014F
:104C4800E311D8A441EC20F05DEC26F0000E706E64
:104C5800010E6F6E12000001816F53EC27F0C586BC
:104C680053EC27F0C9CF82F053EC27F000018151B3
:104C78000001D8A402D0C58A01D0C59AC588000110
:104C880082511200030E0001E76FE669800E7CEC8A
:104C980027F0D60E0D6EFC0E0E6E96EC0CF0C00EC4
:104CA8007CEC27F0910E0D6EFD0E0E6E96EC0CF05E
:104CB8001200000E0001E76F000EE66F800E6EEC2A
:104CC80027F072EC11F0C00E6EEC27F0F70E000121
:104CD8008E6FFD0E00018F6FB8EC08F01200000116
:104CE800816F00018145E846FC0BC26EC280C2821A
:104CF80009D0340E0001806FF10EE82EFED7802F08
:104D0800FCD700D0C2A21200F4D70001826F000EB7
:104D18000001816F3A0E0001826107D02F0E000159
:104D2800826503D0010E0001816F81C080F000010F
:104D3800803112000001816F0BD0000181070B0E3A
:104D48000001806F470EE82EFED7802FFCD700D0D9
:104D5800000181510001D8B41200EFD7000E000104
:104D6800E76F000EE66F800E7CEC27F05BEC15F029
:104D7800C00E7CEC27F0F70E0D6EFD0E0E6E96EC55
:104D88000CF0120001500302F3CF05F0F4CF06F047
:104D980001500402F350062602500302F35006267F
:104DA80005C001F006C002F01200026E5DEC27F0AB
:104DB800C5865DEC27F0C9CF03F05DEC27F0025003
:104DC800D8A402D0C58A01D0C59AC588035012005C
:104DD800000E0001F76F010EF66F12C0ECF013C061
:104DE800EDF0FF0E1224076EFF0E1320086E87ECFD
:104DF8001CF012000001FC05D8B44DEC0EF00001C7
:104E0800FC05D8B480EC19F00001FC05D8A4120008
:104E180076EC16F012000001866F86C024F180C07F
:104E280025F181C026F182C027F183C028F184C012
:104E380029F185C02AF11200036E000E026E3A0EA7
:104E4800036005D02F0E036402D0010E026E02C06B
:104E580001F001301200000E896E000E8A6E000EFD
:104E68008B6E000E8C6E000E8D6ECD90B190120080
:104E780000018151AA6E80C0A9FFA69EA69CA680AB
:104E8800A6B0FED7A85012000250AA6E01C0A9FF12
:104E9800A69EA69CA680A6B0FED7A8501200C7B4AE
:104EA800FED7C5CF80F01F0E00018017D8B41200BE
:104EB800F6D7C7B4FED7C5CF01F01F0E0116D8B478
:104EC8001200F7D70001826F8C840001825177ECC1
:104ED80022F012000001826F8C940001825177EC5D
:104EE80022F01200036E8C84035095EC23F012001C
:104EF800036E8C94035095EC23F0120053EC27F0CA
:104F080081C0C9FF12005DEC27F002C0C9FF120082
:104F18004D4D4D004D4D4D0053EC27F0C58412000A
:104F280053EC27F0C58012005DEC27F0C584120011
:0A4F38005DEC27F0C58012001200A6
:10FAEE00003132334134353642373839432A3023E8
:10FAFE00440001000A006400E80310272530326438
:10FB0E002573207C20253032643A253032643A2524
:10FB1E003032640028646174613A2025752C2061AE
:10FB2E006464723A2025752900442057494C4C20B4
:10FB3E0052455455524E20202020004F54484552D5
:10FB4E0020534554532052413520202000533A2053
:10FB5E00442057494C4C2052455455524E20004F8C
:10FB6E00544845523A2043414D20544F47474C4547
:10FB7E0000443A205245547C323A20434F4E4420A2
:10FB8E002564002D2D204C4F4720253264204845FA
:10FB9E0052452D2D00524553554C545320494E205D
:10FBAE004C4F47202564004D4944202D2D203273A3
:10FBBE00202020202020200044524F50202D2D2088
:10FBCE003273202020202020004C454654202D2D1D
:10FBDE00203273202020202020004C4556454C20FA
:10FBEE002D2D2032732020202020005249474854CA
:10FBFE00202D2D2032732020202020004D494444FA
:10FC0E004C45202D2D2032732020202000442057DB
:10FC1E00494C4C2052455455524E202020004D49FF
:10FC2E00442D4C454654202D2D2032732020004D5E
:10FC3E0049442D5249474854202D2D20327320001F
:10FC4E00454C534520544F47474C45532052413560
:10FC5E0000414C47313A203920504F504E4F5441BD
:10FC6E0042005453543A20434F4E4420534F4C4E6F
:10FC7E002744005453543A205055534820534F4C68
:10FC8E004E274400322E534E527C342E48497C353A
:10FC9E002E4D454400422E5053487C382E53567CF0
:10FCAE00392E424C4B005453543A20424F54482064
:10FCBE00534552564F53004C4F47203120202020A1
:10FCCE0020202020202020004C4F472032202020B2
:10FCDE002020202020202020004C4F4720332020A1
:10FCEE00202020202020202020004C4F4720342090
:10FCFE002020202020202020202000332E204C4F9A
:10FD0E00475320202020202020202000322E205358
:10FD1E004F525420202020202020202000312E2041
:10FD2E00444154452F54494D452020202000202D7C
:10FD3E002D20504F50202043414E202D2D200020AD
:10FD4E002D2D20534F55502043414E202D2D200058
:10FD5E002D2D20544F54414C2043414E53202D2DD8
:10FD6E00004C4F4720312020202020202020202012
:10FD7E003C004C4F472032202020202020202020E5
:10FD8E00203C004C4F4720332020202020202020D4
:10FD9E0020203C004C4F47203420202020202020C3
:10FDAE002020203C00332E204C4F47532020202073
:10FDBE00202020203C00322E20534F525420202051
:10FDCE0020202020203C00312E20444154452F5429
:10FDDE00494D452020203C005041555345203C20A4
:10FDEE007C204241434B203E005055534820544FF7
:10FDFE0020434F4E54494E5545004E4C41423A20F9
:10FE0E0025647C4C41423A202564004E5441423ACE
:10FE1E002025647C5441423A202564004D41475FC1
:10FE2E007369676E616C3A20256420005453543A0E
:10FE3E002054494C5420534552564F004449444E89
:10FE4E00275420434F4D504C4554450049525F7343
:10FE5E0069676E616C3A202564200043414D204451
:10FE6E00574E207C5243303D300043414D2055507B
:10FE7E0020207C5243303D31005453543A204D41A2
:10FE8E00474E455449534D005453543A2043414D27
:10FE9E0020534552564F005453543A2050414E2051
:10FEAE00534552564F00414C47343A20414C4C205A
:10FEBE0043414E53005453543A204443204D4F5423
:10FECE004F525300414C474F524954484D205445D0
:10FEDE0053540050494E2052413520484947482E30
:10FEEE0000414C47323A2031322043414E530041BB
:10FEFE004C47353A204E4F2043414E5300505553F8
:10FF0E004820544F205354415254002564204D49EB
:10FF1E004E202564205345430054494D453A202533
:10FF2E00643A25303264005453543A2049522053D7
:10FF3E004E53520054494D452025643A25303264C3
:10FF4E0000414C47333A20312043414E0050494E38
:10FF5E00205241332E2E2E0050494E205241342E27
:10FF6E002E2E005055534845522054535400534F93
:10FF7E005254494E472E2E2E005453543A20434F7E
:10FF8E004E44004143545541544F52530044555230
:10FF9E004154494F4E3A00434F4E443A2025640097
:10FFAE0053454E534F525300286E756C6C290046C4
:10FFBE0041494C45440053544152543A004645423F
:10FFCE000044454300415547004A554C004A414EB6
:10FFDE00004A554E00534550004D4152004150527B
:10FFEE0000455252004F4354004E4F56004D41595A
:02FFFE00000001
:020000040020DA
:08000000FFFFFFFFFFFFFFFF00
:020000040030CA
:0E000000FF081F1EFF8381FF0F400FE00F401F
:00000001FF
