:0400000007EF00F016
:100008007E82BBED19F081EF26F0020E0001FC198B
:10001800D8A486D0010E15EC2AF0680E0001C46F32
:10002800E40EE82EFED7C42FFCD700F0800E15ECA6
:100038002AF0810E00018E6FFB0E00018F6F010EFA
:100048000001FD250001906F0001916B000E9123C6
:100058001BEC0BF0C00E15EC2AF00E0E0001836F9E
:10006800100E826FFAC080F0FBC081F0C0EC22F065
:1000780080C0C6F081C0C7F0270E00018E6FFF0E4A
:1000880000018F6F0E0E0001836F100E826FFAC091
:1000980080F0FBC081F0C0EC22F080C086F081C007
:1000A80087F0000E0001896F3C0E886F50EC21F03C
:1000B80086C090F087C091F0C6C080F0C7C081F0BC
:1000C800000E0001836F3C0E826FC0EC22F080C0EE
:1000D80092F081C093F01BEC0BF081B2FED781A2A5
:1000E800FED70C0E0001EC190001ED11D8A403D0C5
:1000F80054EC27F002D038EC27F081B2FED7050E79
:100108000001C56F0F0E0001C46FF10EE82EFED777
:10011800C42FFCD7C52FFAD7000E0001FC6FD2D32D
:100128000001EC510001ED11D8A4CCD3000E000160
:10013800C86F630E0001C86501D00CD0680E0001BD
:10014800C46FE40EE82EFED7C42FFCD700F00001E0
:10015800C82BEFD70001EC510001ED11D8A4B2D3A0
:100168002FEC12F0AFD30001F4510001F511D8A41F
:1001780041D0010E15EC2AF0680E0001C46FE40EA0
:10018800E82EFED7C42FFCD700F0800E15EC2AF01D
:100198006F0E00018E6FFB0E00018F6FF2C090F0A2
:1001A800F3C091F01BEC0BF0C00E15EC2AF04A0ED0
:1001B80000018E6FFE0E00018F6F1BEC0BF0000E1E
:1001C8000001C96F630E0001C96501D00CD0680E2B
:1001D8000001C46FE40EE82EFED7C42FFCD700F050
:1001E8000001C92BEFD70001F8510001F911D8B46B
:1001F8001200E5D7010E15EC2AF0680E0001C46F55
:10020800E40EE82EFED7C42FFCD700F0800E15ECC4
:100218002AF06F0E00018E6FFB0E00018F6FF2C087
:1002280090F0F3C091F01BEC0BF0C00E15EC2AF027
:10023800E60E00018E6FFD0E00018F6F1BEC0BF0B8
:10024800000E0001CA6F630E0001CA6501D00CD010
:10025800680E0001C46FE40EE82EFED7C42FFCD749
:1002680000F00001CA2BEFD70001F8510001F91185
:10027800D8B41200000E0001CB6F630E0001CB65ED
:1002880001D00CD0680E0001C46FE40EE82EFED732
:10029800C42FFCD700F00001CB2BEFD70001F85199
:1002A8000001F911D8B41200010E15EC2AF0680EFD
:1002B8000001C46FE40EE82EFED7C42FFCD700F06F
:1002C800800E15EC2AF0C40E00018E6FFF0E00019F
:1002D8008F6F1BEC0BF0C00E15EC2AF047C1D6F05F
:1002E80048C1D7F049C1D8F04AC1D9F0C3D0D60E19
:1002F8000001806F000E0001816FDB0E0001826F2C
:10030800FF0E0001836F70EC27F0E6D0D60E0001D7
:10031800806F000E0001816FCB0E0001826FFF0E0F
:100328000001836F70EC27F0D7D0D60E0001806FE4
:10033800000E0001816FE70E0001826FFF0E0001C1
:10034800836F70EC27F0C8D0D60E0001806F000EC6
:100358000001816FEB0E0001826FFF0E0001836FB9
:1003680070EC27F0B9D0D60E0001806F000E0001A6
:10037800816FFB0E0001826FFF0E0001836F70EC2E
:1003880027F0AAD0D60E0001806F000E0001816F01
:10039800DF0E0001826FFF0E0001836F70EC27F003
:1003A8009BD0D60E0001806F000E0001816FD70E22
:1003B8000001826FFF0E0001836F70EC27F08CD074
:1003C800D60E0001806F000E0001816FD30E000170
:1003D800826FFF0E0001836F70EC27F07DD0D60E80
:1003E8000001806F000E0001816FE30E0001826F33
:1003F800FF0E0001836F70EC27F06ED0D60E00015F
:10040800806F000E0001816FF30E0001826FFF0EF6
:100418000001836F70EC27F05FD0D60E0001806F6B
:10042800000E0001816FF70E0001826FFF0E0001C0
:10043800836F70EC27F050D0D60E0001806F000E4D
:100448000001816FCF0E0001826FFF0E0001836FE4
:1004580070EC27F041D0D60E0001806F000E00012D
:10046800816FEF0E0001826FFF0E0001836F70EC49
:1004780027F032D021EE0AF0DECFC4F0DDCFC5F090
:100488000001C551000AD8A4E6D70001C451010AE9
:10049800D8B42DD7030AD8B439D7010AD8B445D768
:1004A800070AD8B451D7010AD8B45DD7030AD8B41B
:1004B80069D7010AD8B475D70F0AD8B481D7010A09
:1004C800D8B48DD7030AD8B499D7010AD8B4A5D718
:1004D800070AD8B4B1D7BFD7E80E00018E6FFA0E5D
:1004E80000018F6F08C190F009C191F0D60E00018C
:1004F800926F000E0001936F04C194F005C195F04E
:1005080002C196F003C197F000C198F001C199F0BB
:100518001BEC0BF0000E0001CC6F630E0001CC65E4
:1005280001D00CD0680E0001C46FE40EE82EFED78F
:10053800C42FFCD700F00001CC2BEFD70001F851F5
:100548000001F911D8B41200000E0001CD6F630E3E
:100558000001CD6501D00CD0680E0001C46FE40E17
:10056800E82EFED7C42FFCD700F00001CD2BEFD723
:100578000001F8510001F911D8B41200010E15EC70
:100588002AF0680E0001C46FE40EE82EFED7C42FCF
:10059800FCD700F0800E15EC2AF09B0E00018E6F40
:1005A800FF0E00018F6F1BEC0BF0C00E15EC2AF04C
:1005B8000E0E0001836F100E826FF6C080F0F7C038
:1005C80081F0C0EC22F080C0C6F081C0C7F0190EDF
:1005D80000018E6FFF0E00018F6F0E0E0001836FFA
:1005E800100E826FF6C080F0F7C081F0C0EC22F0E8
:1005F80080C086F081C087F0000E0001896F3C0E34
:10060800886F50EC21F086C090F087C091F0C6C08A
:1006180080F0C7C081F0000E0001836F3C0E826F2E
:10062800C0EC22F080C092F081C093F01BEC0BF07C
:10063800000E0001CE6F630E0001CE6501D00CD014
:10064800680E0001C46FE40EE82EFED7C42FFCD755
:1006580000F00001CE2BEFD70001F8510001F9118D
:10066800D8B41200000E0001CF6F630E0001CF65F1
:1006780001D00CD0680E0001C46FE40EE82EFED73E
:10068800C42FFCD700F00001CF2BEFD70001F851A1
:100698000001F911D8B41200010E15EC2AF0680E09
:1006A8000001C46FE40EE82EFED7C42FFCD700F07B
:1006B800800E15EC2AF03C0E00018E6FFD0E000135
:1006C8008F6F1BEC0BF0C00E15EC2AF0190E000111
:1006D8008E6FFE0E00018F6F65C090F066C091F0BE
:1006E80067C092F068C093F01BEC0BF0000E00019D
:1006F800D06F630E0001D06501D00CD0680E0001E8
:10070800C46FE40EE82EFED7C42FFCD700F000011A
:10071800D02BEFD70001F8510001F911D8B412001D
:10072800000E0001D16F630E0001D16501D00CD01D
:10073800680E0001C46FE40EE82EFED7C42FFCD764
:1007480000F00001D12BEFD70001F8510001F91199
:10075800D8B41200010E15EC2AF0680E0001C46F1F
:10076800E40EE82EFED7C42FFCD700F0800E15EC5F
:100778002AF04D0E00018E6FFD0E00018F6F1BECED
:100788000BF0C00E15EC2AF0080E00018E6FFE0E5D
:1007980000018F6F3FC190F040C191F041C192F0CC
:1007A80042C193F01BEC0BF0000E0001D26F630EF8
:1007B8000001D26501D00CD0680E0001C46FE40EB0
:1007C800E82EFED7C42FFCD700F00001D22BEFD7BC
:1007D8000001F8510001F911D8B41200000E00010F
:1007E800D36F630E0001D36501D00CD0680E0001F1
:1007F800C46FE40EE82EFED7C42FFCD700F000012A
:10080800D32BEFD70001F8510001F911D8B4120029
:10081800010E15EC2AF0680E0001C46FE40EE82EF4
:10082800FED7C42FFCD700F0800E15EC2AF05E0E20
:1008380000018E6FFD0E00018F6F1BEC0BF0C00ED8
:1008480015EC2AF0160E00018E6FFE0E00018F6F58
:1008580043C190F044C191F01BEC0BF0000E000175
:10086800D46F630E0001D46501D00CD0680E00016E
:10087800C46FE40EE82EFED7C42FFCD700F00001A9
:10088800D42BEFD70001F8510001F911D8B41200A8
:10089800000E0001D56F630E0001D56501D00CD0A4
:1008A800680E0001C46FE40EE82EFED7C42FFCD7F3
:1008B80000F00001D52BEFD70001F8510001F91124
:1008C800D8B412000001F8510001F911D8B412008F
:1008D8004AD4000E0001C56F000EC46FF28E010EDF
:1008E80015EC2AF0680E0001AB6FE40EE82EFED777
:1008F800AB2FFCD700F0800E15EC2AF0910E00010A
:100908008E6FFF0E00018F6F1BEC0BF0C00E15EC05
:100918002AF00B0E00018E6FFF0E00018F6F1BEC8B
:100928000BF0050E0001AC6F0F0E0001AB6FF10E5E
:10093800E82EFED7AB2FFCD7AC2FFAD781A2FED773
:1009480081B2FED7010E15EC2AF0680E0001AB6FDC
:10095800E40EE82EFED7AB2FFCD700F0800E15EC86
:100968002AF0C30E00018E6FFE0E00018F6F1BEC84
:100978000BF0C00E15EC2AF0E10E00018E6FFE0E92
:1009880000018F6F1BEC0BF08A84000E0001C56F0D
:10099800000EC46F0001C5BF08D00001C55123E196
:1009A800050E0001C45DD8B01ED0000E0001AD6F69
:1009B800630E0001AD6501D00CD0680E0001AB6F6D
:1009C800E40EE82EFED7AB2FFCD700F00001AD2BCC
:1009D800EFD70001C44BC52B0001C5BFE6D7000106
:1009E800C55101E1DDD78A94010E15EC2AF0680E95
:1009F8000001AB6FE40EE82EFED7AB2FFCD700F05A
:100A0800800E15EC2AF05F0E00018E6FFC0E0001BF
:100A18008F6F1BEC0BF0C00E15EC2AF05B0E00017B
:100A28008E6FFF0E00018F6F1BEC0BF0000E0001A4
:100A3800C56F000EC46F0001C5BF08D00001C551C5
:100A48002CE1050E0001C45DD8B027D089860D0EB3
:100A58000001AC6F2D0E0001AB6FD70EE82EFED74C
:100A6800AB2FFCD7AC2FFAD700D089961D0E00010A
:100A7800AC6F690E0001AB6FA50EE82EFED7AB2F49
:100A8800FCD7AC2FFAD70001C44BC52B0001C5BF5A
:100A9800DDD70001C55101E1D4D78996010E15ECC7
:100AA8002AF0680E0001AB6FE40EE82EFED7AB2FDC
:100AB800FCD700F0800E15EC2AF0700E00018E6F46
:100AC800FC0E00018F6F1BEC0BF0C00E15EC2AF02A
:100AD800660E00018E6FFF0E00018F6F1BEC0BF08E
:100AE800000E0001C56F000EC46F0001C5BF08D01D
:100AF8000001C5512CE1050E0001C45DD8B027D016
:100B080089880D0E0001AC6F2D0E0001AB6FD70E5A
:100B1800E82EFED7AB2FFCD7AC2FFAD700D0899898
:100B28001D0E0001AC6F690E0001AB6FA50EE82E1B
:100B3800FED7AB2FFCD7AC2FFAD70001C44BC52B7F
:100B48000001C5BFDDD70001C55101E1D4D789989F
:100B5800010E15EC2AF0680E0001AB6FE40EE82ECA
:100B6800FED7AB2FFCD700F0800E15EC2AF0010E53
:100B78000001FC6F000E786E000E776E000E786E26
:100B8800000E776EA50E00018E6FFE0E00018F6FAE
:100B98001BEC0BF0C00E15EC2AF0E80E00018E6F6E
:100BA800FB0E00018F6F1BEC0BF0040E0001816F30
:100BB800B00E806F000E0001836F010E826F9AECF9
:100BC80023F0CD80000E0001AE6F630E0001AE650C
:100BD80001D00CD0680E0001AB6FE40EE82EFED7F2
:100BE800AB2FFCD700F00001AE2BEFD7000E0001B1
:100BF800AF6F630E0001AF6501D00CD0680E000125
:100C0800AB6FE40EE82EFED7AB2FFCD700F0000147
:100C1800AF2BEFD7800E15EC2AF0C00E15EC2AF09A
:100C2800D70E00018E6FFB0E00018F6F1BEC0BF0CF
:100C3800010E0001816FF40E806F000E0001836FBA
:100C4800010E826F9AEC23F0000E0001B06F630E64
:100C58000001B06501D00CD0680E0001AB6FE40E46
:100C6800E82EFED7AB2FFCD700F00001B02BEFD752
:100C7800000E0001B16F630E0001B16501D00CD008
:100C8800680E0001AB6FE40EE82EFED7AB2FFCD741
:100C980000F00001B12BEFD7800E15EC2AF0C00E42
:100CA80015EC2AF0B50E00018E6FFB0E00018F6F58
:100CB8001BEC0BF0090E0001816F600E806F000EB7
:100CC8000001836F010E826F9AEC23F0000E000181
:100CD800B26F630E0001B26501D00CD0680E00013E
:100CE800AB6FE40EE82EFED7AB2FFCD700F0000167
:100CF800B22BEFD7000E0001B36F630E0001B3658E
:100D080001D00CD0680E0001AB6FE40EE82EFED7C0
:100D1800AB2FFCD700F00001B32BEFD7800E15ECFA
:100D28002AF0C00E15EC2AF01B0E00018E6FFC0E87
:100D380000018F6F1BEC0BF0060E0001816F860E11
:100D4800806F000E0001836F010E826F9AEC23F012
:100D5800000E0001B46F630E0001B46501D00CD021
:100D6800680E0001AB6FE40EE82EFED7AB2FFCD760
:100D780000F00001B42BEFD7000E0001B56F630E31
:100D88000001B56501D00CD0680E0001AB6FE40E10
:100D9800E82EFED7AB2FFCD700F00001B52BEFD71C
:100DA800800E15EC2AF0C00E15EC2AF02C0E00016E
:100DB8008E6FFC0E00018F6F1BEC0BF0030E000111
:100DC800816F520E806F000E0001836F010E826FDB
:100DD8009AEC23F0000E0001B66F630E0001B665B1
:100DE80001D00CD0680E0001AB6FE40EE82EFED7E0
:100DF800AB2FFCD700F00001B62BEFD7000E000197
:100E0800B76F630E0001B76501D00CD0680E000102
:100E1800AB6FE40EE82EFED7AB2FFCD700F0000135
:100E2800B72BEFD7800E15EC2AF0C00E15EC2AF080
:100E3800930E00018E6FFB0E00018F6F1BEC0BF001
:100E4800040E0001816FB00E806F000E0001836FE9
:100E5800010E826F9AEC23F0000E0001B86F630E4A
:100E68000001B86501D00CD0680E0001AB6FE40E2C
:100E7800E82EFED7AB2FFCD700F00001B82BEFD738
:100E8800000E0001B96F630E0001B96501D00CD0E6
:100E9800680E0001AB6FE40EE82EFED7AB2FFCD72F
:100EA80000F00001B92BEFD7CD903A0E00018E6FFC
:100EB800FE0E00018F6F1BEC0BF0C00E15EC2AF034
:100EC800C60E00018E6FFB0E00018F6F1BEC0BF03E
:100ED800040E0001816F1A0E806F000E0001836FEF
:100EE800030E826F9AEC23F0B180000E0001BA6FF6
:100EF800630E0001BA6501D00CD0680E0001AB6F1B
:100F0800E40EE82EFED7AB2FFCD700F00001BA2B79
:100F1800EFD7000E0001BB6F630E0001BB6501D067
:100F28000CD0680E0001AB6FE40EE82EFED7AB2F95
:100F3800FCD700F00001BB2BEFD7800E15EC2AF090
:100F4800C00E15EC2AF0A40E00018E6FFB0E0001F6
:100F58008F6F1BEC0BF0040E0001816FEC0E806F9D
:100F6800000E0001836F030E826F9AEC23F0000ECF
:100F78000001BC6F630E0001BC6501D00CD0680E87
:100F88000001AB6FE40EE82EFED7AB2FFCD700F0C4
:100F98000001BC2BEFD7000E0001BD6F630E0001EE
:100FA800BD6501D00CD0680E0001AB6FE40EE82ED1
:100FB800FED7AB2FFCD700F00001BD2BEFD7800E7A
:100FC80015EC2AF0C00E15EC2AF0C60E00018E6F43
:100FD800FB0E00018F6F1BEC0BF0040E0001816FFC
:100FE8001A0E806F000E0001836F030E826F9AEC59
:100FF80023F0000E0001BE6F630E0001BE6501D034
:101008000CD0680E0001AB6FE40EE82EFED7AB2FB4
:10101800FCD700F00001BE2BEFD7000E0001BF6F18
:10102800630E0001BF6501D00CD0680E0001AB6FE4
:10103800E40EE82EFED7AB2FFCD700F00001BF2B43
:10104800EFD7B190F29E010E15EC2AF0680E000160
:10105800AB6FE40EE82EFED7AB2FFCD700F0800E66
:1010680015EC2AF0960E00018E6FFE0E00018F6FB0
:101078001BEC0BF0C00E15EC2AF0780E00018E6FF9
:10108800FE0E00018F6F1BEC0BF08B80000E000131
:10109800C06F630E0001C06501D00CD0680E00015E
:1010A800AB6FE40EE82EFED7AB2FFCD700F00001A3
:1010B800C02BEFD7000E0001C16F630E0001C165A0
:1010C80001D00CD0680E0001AB6FE40EE82EFED7FD
:1010D800AB2FFCD700F00001C12BEFD7800E15EC29
:1010E8002AF0C00E15EC2AF0690E00018E6FFE0E74
:1010F80000018F6F1BEC0BF0000E0001C56F000E96
:10110800C46F0001C5BF08D0100E0001C45D270ED2
:101118000001C559D8B00DD08B801A0EE82EFED725
:1011280000D08B90F00EE82EFED70001C44BC52BE3
:10113800E8D7000E0001C26F630E0001C26501D03E
:101148000CD0680E0001AB6FE40EE82EFED7AB2F73
:10115800FCD700F00001C22BEFD7000E0001C36FCF
:10116800630E0001C36501D00CD0680E0001AB6F9F
:10117800E40EE82EFED7AB2FFCD700F00001C32BFE
:10118800EFD7030E0001FC6F120001013951010174
:101198003A11D8B466D0AFEC21F0010E15EC2AF064
:1011A800680E0001B16FE40EE82EFED7B12FFCD710
:1011B80000F06BEC22F08B8A000E0001816F000EAC
:1011C800806FE3EC29F00001FD6F0001FD510B0D6C
:1011D800010EF3240001B36F000EF4200001B46F78
:1011E8007F0E0001B56FB3C0ABF0B4C0ACF0B5C0B2
:1011F800ADF09EEC1FF08A94000E0001C36F000E44
:10120800C26F0001C3BF08D00001C35126E12E0EF2
:101218000001C25DD8B021D08AB404D00001B16BFE
:10122800B12B02D00001B16B0001B147B1478A5020
:101238000001B119FB0BB1198A6E0001C2510008F7
:101248002D0F37EC29F00001C24BC32B0001C3BF9F
:10125800E3D70001C35101E1DAD78A8439EC25F0DC
:1012680012000001F0510001F111D8A418D05BEC74
:1012780024F00001F0510001F111D8B4120000016E
:10128800FE4BFF2B0C0E0001FE190001FF11D8A424
:101298001200000E0001EF6F010EEE6F1200010147
:1012A8002F5101013011D8B41200000E0101386F1E
:1012B800010E376F000E0001F16F000EF06F1F0E68
:1012C8000001B26F710E0001B16F1E0EE82EFED73D
:1012D800B12FFCD7B22FFAD700F08A94A6EC27F0EA
:1012E800E8C0E2F0E9C0E3F00001E2510001E311D7
:1012F800D8B41DD0000E0001B76F000EB66F000104
:10130800B7BF08D0C40E0001B65D090E0001B75979
:10131800D8B02AD08988C80EE82EFED78998420E00
:10132800E82EFED700D00001B64BB72BE8D7000E49
:101338000001B96F000EB86F0001B9BF08D0C40E24
:101348000001B85D090E0001B959D8B00DD08988DF
:101358009A0EE82EFED700D08998700EE82EFED798
:101368000001B84BB92BE8D70F0E0001B26F350E4C
:101378000001B16F510EE82EFED7B12FFCD7B22F66
:10138800FAD7A8EC26F00001E6050001E711D8A479
:1013980048D1050E0001B26F0F0E0001B16FF10EBA
:1013A800E82EFED7B12FFCD7B22FFAD7A8EC26F03B
:1013B8000001E6050001E711D8A440D00001E25180
:1013C8000001E311D8B41DD0000E0001BB6F000E60
:1013D800BA6F0001BBBF08D0C40E0001BA5D090E88
:1013E8000001BB59D8B02AD08988C80EE82EFED78C
:1013F8008998420EE82EFED700D00001BA4BBB2BCD
:10140800E8D7000E0001BD6F000EBC6F0001BDBF24
:1014180008D0C40E0001BC5D090E0001BD59D8B04A
:101428000DD089889A0EE82EFED700D08998700EC4
:10143800E82EFED70001BC4BBD2BE8D70F0E0001EC
:10144800B26F350E0001B16F510EE82EFED7B12FE5
:10145800FCD7B22FFAD7000E0001C16F010EC06F82
:10146800D9D0A8EC26F00A0E0001C0190001C1115C
:10147800D8A416D08AB404D00001B16BB12B02D025
:101488000001B16B0001B147B1478A500001B119A1
:10149800FB0BB1198A6E000E0001C16F000EC06F00
:1014A8000001E6050001E711D8A498D00F0E00014D
:1014B800B26F350E0001B16F510EE82EFED7B12F75
:1014C800FCD7B22FFAD7A8EC26F00001E6050001F8
:1014D800E711D8A47FD00001E2510001E311D8B48C
:1014E80011D089880B0E0001B26F260E0001B16F72
:1014F8005D0EE82EFED7B12FFCD7B22FFAD700D059
:10150800899868D0000E0001BF6F000EBE6F000101
:10151800BFBF41D0C40E0001BE5D090E0001BF5916
:10152800D8B058D038D08988C80EE82EFED7899808
:10153800420EE82EFED71CD08988D50EE82EFED79D
:1015480000F08998350EE82EFED71DD08988E20E66
:10155800E82EFED700D08998280EE82EFED736D080
:101568008988F00EE82EFED789981A0EE82EFED745
:1015780000D02CD08988FD0EE82EFED700F089987F
:101588000D0EE82EFED700F021D08988A00E00D0DD
:10159800E82EFDD71BD0C0C0B1F0C1C0B2F0000129
:1015A800B251000AD8A4F1D70001B151010AD8B448
:1015B800BAD7030AD8B4C0D7010AD8B4C7D7070A1C
:1015C800D8B4CED7010AD8B4D5D7DFD70001BE4BDF
:1015D800BF2B9DD789980001C04BC12B0001E65154
:1015E8000001E711D8A416D0150E0001B26F4B0EFA
:1015F8000001B16FBE0EE82EFED7B12FFCD7B22F77
:10160800FAD700F0A8EC26F00001E6050001E71182
:10161800D8A406D00001E6050001E711D8B421D707
:101628008A94000E0101326F010E316F1200900E84
:101638000001A16F000E0001A26F05D2250E000166
:10164800A819D8B405D00001A8510DEC2AF0FBD197
:10165800000E0001AA6F000EA96F000E0001A76F0F
:1016680005D00001A78500018E4B8F2B8EC0F6FF99
:101678008FC0F7FFF86A0800F550300AD8B4F1D7E0
:101688008EC0F6FF8FC0F7FFF86A0800F55022EC0D
:1016980029F0D8A0D2D0000E0001AA6F000EA96FC1
:1016A800A9C080F0AAC081F0000E0001836F0A0E65
:1016B800826F8BEC27F080C0A9F081C0AAF0D00E11
:1016C80000019A6FFF0E00019B6F8EC0F6FF8FC05E
:1016D800F7FFF86A0800F55000019C6F9D6B000148
:1016E8009A5100019C2700019B5100019D23000194
:1016F8009C510001A92700019D510001AA23000166
:101708008E4B8F2B8EC0F6FF8FC0F7FFF86A08004C
:10171800F55022EC29F0D8A090D0C2D7A1C0D9FFAB
:10172800A2C0DAFFDECF9FF0DDCFA0F0020E0001ED
:10173800A127000EA22300019F510001A011D8A4E7
:1017480006D0B60E00019F6FFF0E0001A06F000EBD
:101758000001A46F000EA36F03D00001A34BA42BBC
:101768000001A35100019F2500019A6F0001A451B7
:101778000001A02100019B6F9AC0F6FF9BC0F7FFF4
:10178800000EF86E0F0EF76403D00800F55005D070
:10179800F6CFE9FFF7CFEAFFEF500009D8A4DDD76D
:1017A8000001A9510001A35D0001AA510001A4593B
:1017B800D8B009D00001A3510001A95F0001A451CC
:1017C8000001AA5B09D0000E0001AA6F000EA96FE4
:1017D80003D0200E0DEC2AF00001A907D8A0AA0713
:1017E8000001A929F6E10001AA29D8B417D0F1D738
:1017F8009FC0F6FFA0C0F7FF000EF86E0F0EF7644B
:1018080003D00800F55005D0F6CFE9FFF7CFEAFF7F
:10181800EF500DEC2AF000019F4BA02B0001A3070D
:10182800D8A0A4070001A329E3E10001A429D8B4A2
:101838000AD1DED70001A78D1DD08EC0F6FF8FC05C
:10184800F7FF00018E4B8F2BF86A0800F5CFA8F040
:101858000001A851000AD8B41200640AD8B40AD00A
:101868000D0AD8B407D01A0AD8B458D7060AD8B47B
:10187800E1D7E9D00001A7BD19D0A1C0D9FFA2C006
:10188800DAFFDECFA5F0DDCFA6F0020E0001A1271A
:10189800000EA2230001A6AF16D0030E0001A71365
:1018A8000001A56DA61FD8B0A62B0DD0A1C0D9FFE9
:1018B800A2C0DAFFDECFA5F0DDCFA6F0020E000150
:1018C800A127000EA223010E0001A86F050E00013A
:1018D800A819D8B419D00001A851020DDE0EF324BE
:1018E800F66EFA0EF420F76EF86A000EF822090078
:1018F800F5500001A55D0900F5500001A659D8A0D2
:1019080003D00001A82BE2D70001A9510001AA11B8
:10191800D8B40BD0A7C09AF0030E00019A17D8B418
:1019280004D00001A907D8A0AA07800E0001A8BF0B
:101938007F0E00019A6F0001A9510001A85D000106
:10194800AA51800A00019A59D8B00BD00001A851B9
:101958000001A95F000E0001A8BFFF0E0001AA5BED
:1019680005D0000E0001AA6F000EA96F0001A7A5FF
:1019780018D0A7C09AF0030E00019A17D8B403D064
:101988002D0E0DEC2AF00001A9510001AA11D8B4BE
:1019980025D0300E0DEC2AF00001A907D8A0AA071F
:1019A800F2D70001A9510001AA11D8B40DD0200E18
:1019B8000DEC2AF00001A907D8A0AA070001A95137
:1019C8000001AA11D8A4F3D7A7C09AF0030E00010A
:1019D8009A17D8B403D02D0E0DEC2AF0A8C09EF0AB
:1019E8002CD000019E51020DDE0EF324F66EFA0E85
:1019F800F420F76EF86A000EF8220900F5CF82F09D
:101A08000A00F5CF83F0A5C080F0A6C081F01FECD6
:101A180024F080C087F081C088F0000E00018A6F32
:101A28000A0E896F9EEC25F000018751300F0001E6
:101A3800A86F0001A8510DEC2AF000019E070001D3
:101A48009E29D8A4CED78EC0F6FF8FC0F7FF00011D
:101A58008E4B8F2BF86A0800F5CFA8F00001A8512B
:101A6800D8B41200EBD5010E15EC2AF0680E00016F
:101A7800AB6FE40EE82EFED7AB2FFCD700F0800E3C
:101A880015EC2AF0B40E00018E6FFC0E00018F6F6A
:101A98001BEC0BF0CD80B180010E0001FC6F000E35
:101AA800786E000E776E000E7C6E000E7B6E39EC41
:101AB80025F03D0E0001AC6FE10E0001AB6F3F0E4B
:101AC800E82EFED7AB2FFCD7AC2FFAD700D0010EEB
:101AD8000001816FF40E806F000E0001836F010E0C
:101AE800826F9AEC23F0040E0001816F1A0E806F4A
:101AF800000E0001836F030E826F9AEC23F01F0E15
:101B08000001AC6F710E0001AB6F1E0EE82EFED700
:101B1800AB2FFCD7AC2FFAD700F0040E0001816F71
:101B2800EC0E806F000E0001836F030E826F9AEC3B
:101B380023F01D0E0001AC6F690E0001AB6FA50EFE
:101B4800E82EFED7AB2FFCD7AC2FFAD7040E000136
:101B5800816F1A0E806F000E0001836F030E826F73
:101B68009AEC23F01F0E0001AC6F710E0001AB6FF1
:101B78001E0EE82EFED7AB2FFCD7AC2FFAD700F0FD
:101B8800030E0001816F520E806F000E0001836FFB
:101B9800010E826F9AEC23F0040E0001816F1A0E79
:101BA800806F000E0001836F030E826F9AEC23F0A2
:101BB8001F0E0001AC6F710E0001AB6F1E0EE82EF8
:101BC800FED7AB2FFCD7AC2FFAD700F0040E0001DC
:101BD800816FEC0E806F000E0001836F030E826F21
:101BE8009AEC23F01D0E0001AC6F690E0001AB6F7B
:101BF800A50EE82EFED7AB2FFCD7AC2FFAD7040ED4
:101C08000001816F1A0E806F000E0001836F030EB2
:101C1800826F9AEC23F01F0E0001AC6F710E000169
:101C2800AB6F1E0EE82EFED7AB2FFCD7AC2FFAD722
:101C380000F0040E0001816FB00E806F000E0001ED
:101C4800836F010E826F9AEC23F0040E0001816FFE
:101C58001A0E806F000E0001836F030E826F9AECDC
:101C680023F03D0E0001AC6FE10E0001AB6F3F0E9B
:101C7800E82EFED7AB2FFCD7AC2FFAD700D0060E34
:101C88000001816F860E806F000E0001836F010EC8
:101C9800826F9AEC23F0040E0001816F1A0E806F98
:101CA800000E0001836F030E826F9AEC23F01F0E63
:101CB8000001AC6F710E0001AB6F1E0EE82EFED74F
:101CC800AB2FFCD7AC2FFAD700F0050E0001816FBF
:101CD8006E0E806F000E0001836F030E826F9AEC08
:101CE80023F01D0E0001AC6F690E0001AB6FA50E4D
:101CF800E82EFED7AB2FFCD7AC2FFAD7040E000185
:101D0800816F1A0E806F000E0001836F030E826FC1
:101D18009AEC23F01F0E0001AC6F710E0001AB6F3F
:101D28001E0EE82EFED7AB2FFCD7AC2FFAD700F04B
:101D3800090E0001816F600E806F000E0001836F35
:101D4800010E826F9AEC23F0040E0001816F1A0EC7
:101D5800806F000E0001836F030E826F9AEC23F0F0
:101D68001F0E0001AC6F710E0001AB6F1E0EE82E46
:101D7800FED7AB2FFCD7AC2FFAD700F0050E000129
:101D8800816F6E0E806F000E0001836F030E826FED
:101D98009AEC23F01D0E0001AC6F690E0001AB6FC9
:101DA800A50EE82EFED7AB2FFCD7AC2FFAD7040E22
:101DB8000001816F1A0E806F000E0001836F030E01
:101DC800826F9AEC23F01F0E0001AC6F710E0001B8
:101DD800AB6F1E0EE82EFED7AB2FFCD7AC2FFAD771
:101DE80000F0CD90B190F29E12000F0E206E000E02
:101DF800216EA4D1250E2718D8B404D027501DEC85
:101E08002AF09CD1000E296E000E286E000E266E58
:101E180003D026840D4A0E2A0DC0F6FF0EC0F7FF28
:101E2800F86A0800F550300AD8B4F3D70DC0F6FFA9
:101E38000EC0F7FFF86A0800F550B9EC29F0D8A0F1
:101E4800A6D0000E296E000E286E28C001F029C009
:101E580002F0000E046E0A0E036E5FEC29F001C05A
:101E680028F002C029F0D00E196EFF0E1A6E0DC0B0
:101E7800F6FF0EC0F7FFF86A0800F5501B6E1C6AE3
:101E880019501B261A501C221B5028261C50292288
:101E98000D4A0E2A0DC0F6FF0EC0F7FFF86A0800BB
:101EA800F550B9EC29F0D8A072D0CFD720C0D9FF0F
:101EB80021C0DAFFDECF1EF0DDCF1FF0020E202694
:101EC800000E21221E501F10D8A404D0B60E1E6E7C
:101ED800FF0E1F6E000E236E000E226E02D0224AE5
:101EE800232A22501E24196E23501F201A6E19C04F
:101EF800F6FF1AC0F7FF000EF86E0F0EF76403D056
:101F08000800F55005D0F6CFE9FFF7CFEAFFEF500C
:101F18000009D8A4E4D72850225C29502358D8B007
:101F280005D02250285E2350295A08D0000E296E69
:101F3800000E286E03D0200E1DEC2AF02806D8A02B
:101F480029062828F8E12928D8B416D0F4D71EC0C5
:101F5800F6FF1FC0F7FF000EF86E0F0EF76403D0F0
:101F68000800F55005D0F6CFE9FFF7CFEAFFEF50AC
:101F78001DEC2AF01E4A1F2A2206D8A02306222872
:101F8800E6E12328D8B4DAD0E2D7268C1BD00DC0DE
:101F9800F6FF0EC0F7FF0D4A0E2AF86A0800F5CFC3
:101FA80027F02750000AD8B41200640AD8B40AD01F
:101FB8000D0AD8B407D01A0AD8B478D7060AD8B404
:101FC800E4D7BCD026BC15D020C0D9FF21C0DAFF89
:101FD800DECF24F0DDCF25F0020E2026000E2122D0
:101FE80025AE13D0030E2612246C251ED8B0252A40
:101FF8000CD020C0D9FF21C0DAFFDECF24F0DDCF1E
:1020080025F0020E2026000E2122010E276E050E55
:102018002718D8B415D02750020DDE0EF324F66E1B
:10202800FA0EF420F76EF86A000EF8220900F5504F
:10203800245C0900F5502558D8A002D0272AE7D7F4
:1020480028502910D8B409D026C019F0030E191643
:10205800D8B403D02806D8A02906800E27BE7F0E44
:10206800196E2850275C2950800A1958D8B007D013
:102078002750285E000E27BEFF0E295A04D0000EF6
:10208800296E000E286E26A414D026C019F0030E5F
:102098001916D8B403D02D0E1DEC2AF0285029109B
:1020A800D8B41ED0300E1DEC2AF02806D8A0290678
:1020B800F5D728502910D8B40AD0200E1DEC2AF0E4
:1020C8002806D8A0290628502910D8A4F6D726C053
:1020D80019F0030E1916D8B403D02D0E1DEC2AF0F2
:1020E80027C01DF027D01D50020DDE0EF324F66E1A
:1020F800FA0EF420F76EF86A000EF8220900F5CF00
:1021080008F00A00F5CF09F024C006F025C007F052
:1021180058EC26F006C001F007C002F0000E046E6D
:102128000A0E036E17EC27F00150300F276E275068
:102138001DEC2AF01D061D28D8A4D5D70DC0F6FF22
:102148000EC0F7FF0D4A0E2AF86A0800F5CF27F0EF
:102158002750D8B412004ED6010E15EC2AF0680E9E
:102168000001AB6FE40EE82EFED7AB2FFCD700F0D2
:10217800800E15EC2AF0AE0E00018E6FFF0E0001E6
:102188008F6F1BEC0BF0C00E15EC2AF00B0E000144
:102198008E6FFF0E00018F6F1BEC0BF0050E000118
:1021A800AC6F0F0E0001AB6FF10EE82EFED7AB2F10
:1021B800FCD7AC2FFAD781A2FED781B2FED7010E89
:1021C80015EC2AF0680E0001AB6FE40EE82EFED77E
:1021D800AB2FFCD700F0800E15EC2AF0350E00016D
:1021E8008E6FFF0E00018F6F1BEC0BF0050E0001C8
:1021F800AC6F0F0E0001AB6FF10EE82EFED7AB2FC0
:10220800FCD7AC2FFAD78B8A5CD0000E0CEC29F0E7
:10221800C350C4CFABF00001AC6BABC0ACF0000155
:10222800AB6B0001AB110001AD6F0001AC510001B7
:10223800AE6F0001AEBF0AD0210E0001AD5D030EE6
:102248000001AE59D8A002D0010E01D0000E000145
:10225800E66FE76B010E15EC2AF0680E0001AB6F14
:10226800E40EE82EFED7AB2FFCD700F0800E15EC5D
:102278002AF05A0E00018E6FFE0E00018F6FE6C025
:1022880090F0E7C091F01BEC0BF0C00E15EC2AF0B3
:10229800160E00018E6FFE0E00018F6FADC090F01C
:1022A800AEC091F01BEC0BF0050E0001AC6F0F0EE9
:1022B8000001AB6FF10EE82EFED7AB2FFCD7AC2F89
:1022C800FAD781A2A2D78B9A010E15EC2AF0680ED4
:1022D8000001AB6FE40EE82EFED7AB2FFCD700F061
:1022E800800E15EC2AF0870E00018E6FFE0E00019D
:1022F8008F6F1BEC0BF0050E0001AC6F0F0E000189
:10230800AB6FF10EE82EFED7AB2FFCD7AC2FFAD768
:1023180021D0CEEC26F0800E15EC2AF0C00E15EC7C
:102328002AF02A0E00018E6FFE0E00018F6FE8C0A2
:1023380090F0E9C091F01BEC0BF0050E0001AC6FBA
:102348000F0E0001AB6FF10EE82EFED7AB2FFCD7B6
:10235800AC2FFAD781A2DDD7010E15EC2AF0680E52
:102368000001AB6FE40EE82EFED7AB2FFCD700F0D0
:10237800800E15EC2AF0870E00018E6FFF0E00010B
:102388008F6F1BEC0BF0050E0001AC6F0F0E0001F8
:10239800AB6FF10EE82EFED7AB2FFCD7AC2FFAD7D8
:1023A800010E15EC2AF0680E0001AB6FE40EE82E62
:1023B800FED7AB2FFCD700F0800E15EC2AF0870E65
:1023C80000018E6FFF0E00018F6F1BEC0BF01BD00E
:1023D800800E15EC2AF0C00E15EC2AF0A50E0001AF
:1023E8008E6FFF0E00018F6F80A404D00001AB6BCD
:1023F800AB2B02D00001AB6B0001AB510001906F19
:10240800916B1BEC0BF081A2E3D781380F0B0F0AFD
:10241800D8B4120089861BD0800E15EC2AF0C00EA5
:1024280015EC2AF0A50E00018E6FFF0E00018F6FCC
:1024380080A404D00001AB6BAB2B02D00001AB6BC6
:102448000001AB510001906F916B1BEC0BF081B256
:10245800E3D78996A5D757EC23F04BC1BEF04CC102
:10246800BFF04DC1C0F04EC1C1F0000E0001C36FF6
:10247800000EC26F0001C3BF08D00001C35146E17E
:10248800070E0001C25DD8B041D01C0E0001C22564
:10249800D96E010E0001C321DA6EDF500001AB6F67
:1024A8000001AB3B0F0EAB170F0E0001AB1700017D
:1024B800AB510A0D1C0E0001C225D96E010E000198
:1024C800C321DA6EDF500F0B0001AC6FAD6BF35018
:1024D8000001AC27F4500001AD23D8900001C235AB
:1024E800D96E0001C335DA6EAE0ED926000EDA2297
:1024F800ACC0DEFFADC0DDFF0001C24BC32B000145
:10250800C3BFC3D70001C35101E1BAD7B8C0BCF0FB
:10251800B9C0BDF0B4D0BE0E0001806F000E00013E
:10252800816FDB0E0001826FFF0E0001836F70EC7C
:1025380027F0D4D0BE0E0001806F000E0001816F1D
:10254800CB0E0001826FFF0E0001836F70EC27F045
:10255800C5D0BE0E0001806F000E0001816FE70E2E
:102568000001826FFF0E0001836F70EC27F0B6D078
:10257800BE0E0001806F000E0001816FEB0E00019E
:10258800826FFF0E0001836F70EC27F0A7D0BE0E9C
:102598000001806F000E0001816FFB0E0001826F49
:1025A800FF0E0001836F70EC27F098D0BE0E00017B
:1025B800806F000E0001816FDF0E0001826FFF0E39
:1025C8000001836F70EC27F089D0BE0E0001806F88
:1025D800000E0001816FD70E0001826FFF0E00010F
:1025E800836F70EC27F07AD0BE0E0001806F000E6A
:1025F8000001816FD30E0001826FFF0E0001836F0F
:1026080070EC27F06BD0BE0E0001806F000E000149
:10261800816FE30E0001826FFF0E0001836F70EC83
:1026280027F05CD0BE0E0001806F000E0001816FA4
:10263800F30E0001826FFF0E0001836F70EC27F02C
:102648004DD0BE0E0001806F000E0001816FF70EA5
:102658000001826FFF0E0001836F70EC27F03ED0FF
:10266800BE0E0001806F000E0001816FCF0E0001C9
:10267800826FFF0E0001836F70EC27F02FD0BCC073
:10268800ABF0BDC0ACF00001AC51000AD8A426D014
:102698000001AB51010AD8B43ED7030AD8B44AD7CF
:1026A800010AD8B456D7070AD8B462D7010AD8B4F1
:1026B8006ED7030AD8B47AD7010AD8B486D70F0AD6
:1026C800D8B492D7010AD8B49ED7030AD8B4AAD7E7
:1026D800010AD8B4B6D7070AD8B4C2D7800E15EC09
:1026E8002AF0E80E00018E6FFA0E00018F6FB6C057
:1026F80090F0B7C091F0BE0E0001926F000E00017D
:10270800936FB2C094F0B3C095F0B0C096F0B1C06A
:1027180097F0AEC098F0AFC099F01BEC0BF0120028
:10272800000E766E000E756E000E5E6E000E5D6E0B
:10273800000E606E000E5F6E000E5C6E000E5B6E2B
:10274800F29EC9EC1AF02A502B10D8A412D146D107
:1027580038EC28F043D175507610D8B403D020EC6B
:1027680028F03CD15D505E10D8B403D008EC28F0B6
:1027780035D15F506010D8B431D14BEC29F02ED14F
:1027880075507610D8B403D038EC28F027D15D50B6
:102798005E10D8B411D020EC28F020D175507610F6
:1027A800D8B403D038EC28F019D15D505E10D8B4F5
:1027B80003D020EC28F012D15F506010D8B40ED1AD
:1027C800010E0001FC6F0AD175507610D8B403D001
:1027D800F0EC27F003D15D505E10D8B403D038EC8C
:1027E80028F0FCD05F506010D8B4F8D0B0EC28F0D6
:1027F800F5D075507610D8B403D050EC28F0EED050
:102808005D505E10D8B403D098EC28F0E7D05F5044
:102818006010D8B407D0000E136E010E126E85EC4E
:1028280029F0DCD05B505C10D8B4D8D020EC28F06C
:10283800D5D075507610D8B403D0B0EC28F0CED0EF
:102848005D505E10D8B403D0DFEC28F0C7D05F50DD
:102858006010D8B407D0000E136E020E126E85EC0D
:1028680029F0BCD05B505C10D8B4B8D020EC28F06C
:10287800B5D075507610D8B403D0B0EC28F0AED0EF
:102888005D505E10D8B403D0DFEC28F0A7D05F50BD
:102898006010D8B407D0000E136E020E126E85ECCD
:1028A80029F09CD05B505C10D8B498D020EC28F06C
:1028B80095D075507610D8B403D080EC28F08ED01F
:1028C8005D505E10D8B403D050EC28F087D05F502C
:1028D8006010D8B407D0000E136E030E126E85EC8C
:1028E80029F07CD05B505C10D8B478D020EC28F06C
:1028F80075D075507610D8B403D080EC28F06ED01F
:102908005D505E10D8B403D050EC28F067D05F500B
:102918006010D8B407D0000E136E030E126E85EC4B
:1029280029F05CD05B505C10D8B458D020EC28F06B
:1029380055D075507610D8B403D068EC28F04ED036
:102948005D505E10D8B403D0B0EC28F047D05F508B
:102958006010D8B407D0000E136E040E126E85EC0A
:1029680029F03CD05B505C10D8B438D020EC28F06B
:1029780035D0ECC043F0EDC044F04450000AD8B460
:1029880007D0030AD8B415D0070AD8B420D026D067
:102998004350000AD8B4DCD60B0AD8B4DCD6070AF0
:1029A800D8B4EED61A0AD8B4F9D6010AD8B40CD7D6
:1029B80015D04350F30AD8B41CD7070AD8B439D76E
:1029C8000A0AD8B456D7010AD8B473D707D04350E7
:1029D800090AD8B48ED7030AD8B4ABD7F28E12003E
:1029E80094EC24F0000E4A6E000E496E4ABE06D0E2
:1029F8004A5031E1070E495CD8B02DD01C0E49244D
:102A0800D96E010E4A20DA6EDF502A6E2A3A0F0E6E
:102A18002A160F0E2A162A500A0D1C0E4924D96EA2
:102A2800010E4A20DA6EDF500F0B2B6E2C6AF35022
:102A38002B26F4502C22D8904934D96E4A34DA6EB9
:102A48002D0ED926000EDA222BC0DEFF2CC0DDFFAA
:102A5800494A4A2ACBD710C101F011C102F0000E31
:102A6800046E3C0E036E5FEC29F001C02AF002C030
:102A78002BF012C101F013C102F00E0E046E100EFD
:102A8800036E5FEC29F001502A2602502B22010127
:102A98000E512A243B6E01010F512B203C6E2FC092
:102AA80001F030C002F0000E046E3C0E036E5FECC5
:102AB80029F001C02AF002C02BF031C001F032C069
:102AC80002F00E0E046E100E036E5FEC29F001503A
:102AD8002A2602502B222D502A243D6E2E502B20C0
:102AE8003E6E3BC02AF03CC02BF02A1E2B1E2A4A01
:102AF8002B2A3D502A24456E3E502B20466E45C059
:102B0800FAF046C0FBF00101375101013811D8B481
:102B180009D0FAC069F0FBC06AF0000E0101386FF5
:102B2800000E376F69C02AF06AC02BF02A1E2B1ED0
:102B38002A4A2B2A0001FA512A260001FB512B228E
:102B4800140E2A182B10D8A433D08A94520E2B6E48
:102B58002B0E2A6E000EE82EFED72A2EFCD72B2E1F
:102B6800FAD700D0000E486E000E476E48BE06D059
:102B780048501DE12E0E475CD8B019D08AB403D056
:102B88002A6A2A2A01D02A6A2A462A468A502A18F4
:102B9800FB0B2A188A6E475000082D0FC8EC29F045
:102BA800474A482A48BEEAD7485001E1E3D78A8411
:102BB80069C02AF06AC02BF02A1E2B1E2A4A2B2A2B
:102BC8000001FA512A260001FB512B222A0E2A184D
:102BD8002B10D8B407D0B30E0001FA190001FB116D
:102BE800D8A403D0020E0001FC6F0E0E046E100E66
:102BF800036E45C001F046C002F017EC27F001C093
:102C080006F002C007F0000E096E3C0E086E58EC84
:102C180026F006C03FF007C040F00E0E046E100EFE
:102C2800036E45C001F046C002F017EC27F001C062
:102C380043F002C044F043C001F044C002F0000E6B
:102C4800046E3C0E036E17EC27F001C041F002C081
:102C580042F0800E23EC2AF07C0E0D6EFF0E0E6EF5
:102C6800F9EC0EF0C00E23EC2AF0420E0D6EFF0EAA
:102C78000E6E3FC00FF040C010F041C011F042C0CE
:102C880012F0F9EC0EF0120001013151010132117C
:102C9800D8B41200290E0001836F960E0001826FCE
:102CA8007F0EE82EFED7822FFCD7832FFAD789868E
:102CB800190E0001836F5A0E0001826FB10EE82EC3
:102CC800FED7822FFCD7832FFAD700D080A404D058
:102CD8000001826B822B02D00001826B00018251BD
:102CE8000001E46FE56B8996090E0001836F1E0EE3
:102CF8000001826FE40EE82EFED7822FFCD7832FC7
:102D0800FAD700F08986190E0001836F5A0E000168
:102D1800826FB10EE82EFED7822FFCD7832FFAD709
:102D280000D080A404D00001826B822B02D0000165
:102D3800826B0001E451000182110001E46F00017F
:102D4800E5510001E56F0001E2510001E311D8A44B
:102D580016D00001E4510001E511D8A408D0010102
:102D6800274B282B000E01012C6F000E07D0010104
:102D7800294B2A2B000E01012C6F010E2B6F00012D
:102D8800E2510001E311D8B416D00001E45100016A
:102D9800E511D8A408D00101254B262B000E01010E
:102DA8002C6F020E07D00101234B242B000E0101CA
:102DB8002C6F030E2B6F89960101355101013611D5
:102DC800D8B4FAD70001E2510001E311D8B420D0F9
:102DD8008986000E0001856F000E846F000185BF93
:102DE80008D0100E0001845D270E00018559D8B067
:102DF8000DD08B801A0EE82EFED700D08B90F00EE7
:102E0800E82EFED70001844B852BE8D789961DD084
:102E1800000E0001876F000E866F000187BF08D083
:102E2800100E0001865D270E00018759D8B00DD01D
:102E38008B801A0EE82EFED700D08B90F00EE82E6D
:102E4800FED70001864B872BE8D78B90000E010137
:102E5800346F010E336F1F0E0001836F710E000176
:102E6800826F1E0EE82EFED7822FFCD7832FFAD74B
:102E780000F08B800001EE510001EF11D8A432D090
:102E8800000E0001896F000E886F000189BF08D00D
:102E98000001895126E12E0E0001885DD8B021D0AD
:102EA8008AB404D00001826B822B02D00001826BAD
:102EB8000001824782478A5000018219FB0B821960
:102EC8008A6E0001885100082D0F37EC29F00001A7
:102ED800884B892B000189BFE3D70001895101E1A3
:102EE800DAD78A84000E0101326F000E316F1200AA
:102EF800010E15EC2AF0680E0001AB6FE40EE82E07
:102F0800FED7AB2FFCD700F0800E15EC2AF0710E1F
:102F180000018E6FFF0E00018F6F1BEC0BF08B8A88
:102F28005CD0000E0CEC29F0C350C4CFABF000010C
:102F3800AC6BABC0ACF00001AB6B0001AB11000196
:102F4800AD6F0001AC510001AE6F0001AEBF0AD0F9
:102F5800210E0001AD5D030E0001AE59D8A002D0CC
:102F6800010E01D0000E0001E66FE76B010E15ECB3
:102F78002AF0680E0001AB6FE40EE82EFED7AB2FE7
:102F8800FCD700F0800E15EC2AF05A0E00018E6F67
:102F9800FE0E00018F6FE6C090F0E7C091F01BECC9
:102FA8000BF0C00E15EC2AF0160E00018E6FFE0E07
:102FB80000018F6FADC090F0AEC091F01BEC0BF02C
:102FC800050E0001AC6F0F0E0001AB6FF10EE82E7D
:102FD800FED7AB2FFCD7AC2FFAD781B25DD0A1D7E3
:102FE800000E0CEC29F0C350C4CFABF00001AC6B61
:102FF800ABC0ACF00001AB6B0001AB110001AF6FCF
:103008000001AC510001B06F0001B0BF0AD0210E21
:103018000001AF5D030E0001B059D8A002D0010E27
:1030280001D0000E0001E66FE76B010E15EC2AF0E7
:10303800680E0001AB6FE40EE82EFED7AB2FFCD76D
:1030480000F0800E15EC2AF05A0E00018E6FFE0E6D
:1030580000018F6FE6C090F0E7C091F01BEC0BF019
:10306800C00E15EC2AF0160E00018E6FFE0E000140
:103078008F6FAFC090F0B0C091F01BEC0BF0050E55
:103088000001AC6F0F0E0001AB6FF10EE82EFED7FA
:10309800AB2FFCD7AC2FFAD781A2A2D781380F0B60
:1030A8000F0AD8B447D081380F0B050AD8A41DD011
:1030B800000E0001B26F000EB16F0001B2BF08D060
:1030C800B80E0001B15D0B0E0001B259D8B02FD077
:1030D8008988C80EE82EFED78998420EE82EFED7BA
:1030E80000D00001B14BB22BE8D781380F0B060A8C
:1030F800D8A41DD0000E0001B46F000EB36F0001FC
:10310800B4BF08D0B80E0001B35D0B0E0001B4596E
:10311800D8B00DD089889A0EE82EFED700D08998AD
:10312800700EE82EFED70001B34BB42BE8D781A26E
:10313800B3D7FDD78B9A120094EC24F04BC13DF025
:103148004CC13EF04DC13FF04EC140F0000E426E02
:10315800000E416E42BE06D0425035E1070E415C7A
:10316800D8B031D01C0E4124D96E010E4220DA6E3F
:10317800DF502A6E2A3A0F0E2A160F0E2A162A50E8
:103188000A0D1C0E4124D96E010E4220DA6EDF5062
:103198000F0B2B6E2C6AF3502B26F4502C22D89050
:1031A8004134D96E4234DA6E2D0ED926000EDA2259
:1031B8002BC0DEFF2CC0DDFF414A422A42BED2D7D7
:1031C800425001E1CBD737C03BF038C03CF084D047
:1031D8003D0E016E000E026EDB0E036EFF0E046ED6
:1031E800BFEC27F0A6D03D0E016E000E026ECB0E8E
:1031F800036EFF0E046EBFEC27F09BD03D0E016EF0
:10320800000E026EE70E036EFF0E046EBFEC27F091
:1032180090D03D0E016E000E026EEB0E036EFF0E97
:10322800046EBFEC27F085D03D0E016E000E026ED5
:10323800FB0E036EFF0E046EBFEC27F07AD03D0E36
:10324800016E000E026EDF0E036EFF0E046EBFEC01
:1032580027F06FD03D0E016E000E026ED70E036E82
:10326800FF0E046EBFEC27F064D03D0E016E000E19
:10327800026ED30E036EFF0E046EBFEC27F059D01A
:103288003D0E016E000E026EE30E036EFF0E046E1D
:10329800BFEC27F04ED03D0E016E000E026EF30E0D
:1032A800036EFF0E046EBFEC27F043D03D0E016E97
:1032B800000E026EF70E036EFF0E046EBFEC27F0D1
:1032C80038D03D0E016E000E026ECF0E036EFF0E5B
:1032D800046EBFEC27F02DD03BC02AF03CC02BF089
:1032E8002B50000AD8A425D02A50010AD8B470D788
:1032F800030AD8B478D7010AD8B480D7070AD8B453
:1033080088D7010AD8B490D7030AD8B498D7010A45
:10331800D8B4A0D70F0AD8B4A8D7010AD8B4B0D760
:10332800030AD8B4B8D7010AD8B4C0D7070AD8B4A2
:10333800C8D7800E23EC2AF0E80E0D6EFA0E0E6E3A
:1033480035C00FF036C010F03D0E116E000E126E33
:1033580031C013F032C014F02FC015F030C016F091
:103368002DC017F02EC018F0F9EC0EF01200060070
:10337800FACF4DF0FBCF4EF0E9CF4FF0EACF50F047
:10338800E1CF51F0E2CF52F0D9CF53F0DACF54F079
:10339800F3CF55F0F4CF56F0F6CF57F0F7CF58F0FB
:1033A800F8CF59F0F5CF5AF0F0A034D0F09081382A
:1033B8000F0B0F0B4B6E4C6ACD0E4B24F66EFA0EAC
:1033C8004C20F76EF86A000EF8220800F5CF7DF061
:1033D8002A0E7D18D8B40DD018D0030E07D0000ED1
:1033E8000001FC6F4BEC29F015D0020E0001FC6FB8
:1033F80011D00001FC51000AD8B4EFD7010AD8B4A3
:10340800F4D7020AD8B4EBD705D00001FC51D8B4E0
:1034180094EC13F0F2A40CD0F2940001FC05D8A4AB
:1034280007D0F4EC14F0850ED76EEE0ED66ED58E5E
:103438009EA02AD09E90CD900001FC05D8A424D04F
:1034480077507810D8B40AD08B82000E786E000EB0
:10345800776EDAC0CFFFDCC0CEFF0FD08B92000EA4
:10346800786E010E776E0001DA510008200FCF6EDA
:103478000001DC510008200FCE6ECD800A0E6D26AB
:10348800000E6E22BFEC1BF09EA23BD09E92CA9407
:10349800734A742A0001FC05D8A433D079507A10F5
:1034A800D8B418D061C04BF062C04CF04B1E4C1E13
:1034B8004B4A4C2A280E4B26000E4C2273504B18B0
:1034C80009E174504C18D8A405D08A86000E7A6E8B
:1034D800000E0FD079507A10D8A410D0615073180C
:1034E8000DE162507418D8A409D08A96000E7A6E3D
:1034F800010E796E000E746E000E736E110ECB6E97
:10350800CA84A1A224D0A192B1900001FC05D8A43C
:103518001ED07B507C10D8B40AD08B84000E7C6EF1
:10352800000E7B6EDEC0B3FFE0C0B2FF0FD08B94FD
:10353800000E7C6E010E7B6E0001DE510008200F2C
:10354800B36E0001E0510008200FB26EB1805AC07E
:10355800F5FF59C0F8FF58C0F7FF57C0F6FF56C02F
:10356800F4FF55C0F3FF54C0DAFF53C0D9FF52C06F
:10357800E2FF51C0E1FF50C0EAFF4FC0E9FF4EC073
:10358800FBFF4DC0FAFF7E92110001013B51010182
:103598003C11D8B40CD038EC28F0000E01013C6F77
:1035A800000E3B6F000E2B6E000E2A6E12000001FB
:1035B800F8510001F911D8B4C7D0430E7D18D8A42A
:1035C80012D081B209D00FD0680E2C6EE40EE82E0E
:1035D800FED72C2EFCD700D081B2F6D7000E2B6E6A
:1035E800000E2A6E1200440E7D18D8A4F7D7000EDC
:1035F8000001F96F000EF86F12D0B0EC28F0EED78A
:1036080098EC28F0EBD780EC28F0E8D7DFEC28F02E
:10361800E5D768EC28F0E2D750EC28F0DFD7ECC00B
:103628002CF0EDC02DF02D50030AD8B404D0070AB1
:10363800D8B40FD0D3D72C50F30AD8B4DED7070AA2
:10364800D8B4DED70A0AD8B4DED7010AD8B4DED790
:10365800C5D72C50090AD8B4DCD7030AD8B4DCD7AC
:10366800BDD70B0E0001EC190001ED11D8A405D04F
:10367800000E2B6E000E2A6E120038EC28F0000E99
:103688002B6E000E2A6E1200160E0001EC190001B6
:10369800ED11D8B407D00C0E0001EC190001ED11A2
:1036A800D8A405D0000E2B6E000E2A6E1200170E3D
:1036B8000001EC190001ED11D8A403D0F0EC27F0BB
:1036C80002D008EC28F0000E2B6E000E2A6E1200B5
:1036D800170E0001EC190001ED11D8A405D0000E59
:1036E8002B6E000E2A6E120020EC28F0000E2B6EB6
:1036F800000E2A6E1200000E766E010E756E000E18
:103708002B6E010E2A6E1200000E5E6E010E5D6EAB
:10371800000E2B6E010E2A6E1200000E606E010E56
:103728005F6E000E2B6E010E2A6E1200000E5C6E8C
:10373800010E5B6E000E2B6E010E2A6E1200000E3B
:103748002B6E010E2A6E12007D50310AD8B489D72B
:10375800030AD8B499D7010AD8B4BAD7720AD8B428
:10376800CAD7030AD8B4D0D7010AD8B4D6D7070A1B
:10377800D8B4DCD7E4D76F506D5C6E50800A096E00
:103788007050800A0958D8A0120063506410D8A459
:1037980036D05FD0040E026EEC0E016E000E046E81
:1037A800030E036ECDEC24F025D0020E706EBC0E15
:1037B8006F6E4AD0040E026EEC0E016E000E046E9F
:1037C800030E036ECDEC24F015D0050E026E6E0EBE
:1037D800016E000E046E030E036ECDEC24F00AD0C9
:1037E800050E026E6E0E016E000E046E030E036E61
:1037F800CDEC24F0000E6E6E000E6D6ED6D76BC049
:1038080009F06CC00AF00A50010AD8B40AD0020ABA
:10381800D8B40CD0050AD8B40ED00F0AD8B410D03A
:1038280013D00950F40AD8B4B5D70ED00950520AAB
:10383800D8B4C0D709D00950860AD8B4C6D704D09E
:103848000950600AD8B4CCD7000E646E000E636EBF
:103858001200B00E6B185AE1040E6C18D8A456D09A
:10386800000E6E6E000E6D6E1200040E026E1A0EC1
:10387800016E000E046E030E036ECDEC24F0000EF4
:103888006E6E000E6D6E020E706EEE0E6F6E120092
:10389800040E026E1A0E016E000E046E030E036E05
:1038A800CDEC24F0000E6E6E000E6D6E020E706E82
:1038B800EE0E6F6E1200040E026EB00E016E000E58
:1038C800046E010E036ECDEC24F0040E026E1A0E87
:1038D800016E000E046E030E036ECDEC24F0000E94
:1038E8006E6E000E6D6E270E706E0F0E6F6E000EF0
:1038F8000101366F010E356F0001EE050001EF1171
:10390800D8A41200020E0001FC6F120071C009F069
:1039180072C00AF00A50040AD8B404D0010AD8A424
:10392800120008D009501A0AD8B4C5D7F60AD8A484
:1039380012009BD709506E0AD8A41200A9D7010E0D
:1039480015EC2AF0680E0001AB6FE40EE82EFED7E6
:10395800AB2FFCD700F0800E15EC2AF05D0E0001AD
:103968008E6FFB0E00018F6F80A404D00001AB6B3B
:10397800AB2B02D00001AB6B0001AB510001906F83
:10398800916B1BEC0BF0C00E15EC2AF04B0E0001EE
:103998008E6FFB0E00018F6F1BEC0BF0000E000109
:1039A800AF6F010EAE6F000E0001B16F000EB06F69
:1039B80018D0800E15EC2AF05D0E00018E6FFB0EFC
:1039C80000018F6F80A404D00001AB6BAB2B02D039
:1039D8000001AB6B0001AB510001906F916B1BECC8
:1039E8000BF081A2E6D781380F0B0F0AD8B412006A
:1039F80081380F0BE806D8A416D00001B051000199
:103A0800B111D8B407D0898606D0010E0001B06F75
:103A1800B16B54D089960001B0510001B111D8B4EE
:103A2800F4D7000EF3D70001AE510001AF11D8B49E
:103A380007D08B8023D0010E0001AE6FAF6B3ED054
:103A4800000E0001AD6F000EAC6F0001ADBF08D0D5
:103A5800880E0001AC5D130E0001AD59D8B00DD031
:103A68008B801A0EE82EFED700D08B90F00EE82E31
:103A7800FED70001AC4BAD2BE8D78B900001AE51BF
:103A88000001AF11D8B4D7D7000ED6D7800E15ECE9
:103A98002AF05D0E00018E6FFB0E00018F6F80A46F
:103AA80004D00001AB6BAB2B02D00001AB6B000163
:103AB800AB510001906F916B1BEC0BF081A291D779
:103AC800E5D7000E0001816F000E806FE3EC29F04E
:103AD8000001FD6F0001FD510B0D010EF3240001E3
:103AE800B96F000EF4200001BA6F030E0001FD61EA
:103AF8000ED00001FD290001B16F000E0001AC6F6E
:103B0800000EAB6FB1C0ADF09EEC1FF00AD0000EF6
:103B18000001AC6F000EAB6F000E0001AD6F9EECA4
:103B28001FF00001FE5180090001B26FB9C0ABF06F
:103B3800BAC0ACF0B2C0ADF09EEC1FF00001B94BBA
:103B4800BA2B01012739F00B010129110001B36FCC
:103B5800B9C0ABF0BAC0ACF0B3C0ADF09EEC1FF08A
:103B68000001B94BBA2B01012539F00B01012311D2
:103B78000001B46FB9C0ABF0BAC0ACF0B4C0ADF0DE
:103B88009EEC1FF00001B94BBA2B000E0001B86F74
:103B9800000EB76F0001B8BF08D00001B85128E186
:103BA800070E0001B75DD8B023D0D8900001B73513
:103BB800D96E0001B835DA6E0E0ED926010EDA225A
:103BC800DF500001B56FB9C0ABF0BAC0ACF0B5C0FA
:103BD800ADF09EEC1FF00001B94BBA2B0001B74BBA
:103BE800B82B0001B8BFE1D70001B85101E1D8D71F
:103BF800FAC0B6F0B9C0ABF0BAC0ACF0B6C0ADF020
:103C08009EEC1FF0120007C001F008C002F0000E81
:103C1800046E0B0E036E5FEC29F0010E0124106E8A
:103C2800000E0220116E10C001F011C002F0EFEC7E
:103C380029F00B6E0BC009F0800E0916095000011F
:103C4800F46FF56B0BC009F00F0E0916095001014E
:103C5800436F446B104A112A10C001F011C002F0E2
:103C6800EFEC29F00C6E0CC009F0093A0F0E09169A
:103C78000F0E09160950656E666A0CC009F00F0E22
:103C880009160950676E686A104A112A10C001F0B7
:103C980011C002F0EFEC29F00D6E0DC009F0093AE1
:103CA8000F0E09160F0E091609500101416F426BDC
:103CB8000DC009F00F0E0916095001013F6F406B46
:103CC800104A112A000E0F6E000E0E6E0FBE06D09F
:103CD8000F501EE1070E0E5CD8B01AD010C001F0CC
:103CE80011C002F0EFEC29F0096E0A6AD8900E3480
:103CF800D96E0F34DA6E000ED926010EDA2209C009
:103D0800DEFF0AC0DDFF104A112A0E4A0F2ADED74D
:103D180010C001F011C002F0EFEC29F0096E095053
:103D28000001F66FF76B12007CD0010E15EC2AF03B
:103D3800680E0001C66FE40EE82EFED7C62FFCD72A
:103D480000F0800E15EC2AF0810E00018E6FFC0E3B
:103D580000018F6F1BEC0BF0C00E15EC2AF0920ED1
:103D680000018E6FFC0E00018F6F1BEC0BF081A21F
:103D7800FED781CFC6F00001C63B0F0EC617000163
:103D8800C6510101456F466B0101454B462B81A287
:103D98001FD0FDD783EC20F044D0B0EC10F041D018
:103DA8006DEC04F03ED01BEC1FF03BD0FFEC25F08F
:103DB80038D0DDEC23F035D047EC2AF032D07CEC5B
:103DC80017F02FD037EC0DF02CD0A3EC1CF029D035
:103DD80045C1C6F046C1C7F00001C751000AD8A4C2
:103DE80020D00001C651010AD8B4D4D7030AD8B4E8
:103DF800D4D7010AD8B4D4D7070AD8B4D4D7010A7B
:103E0800D8B4D4D7030AD8B4D4D7010AD8B4D4D7ED
:103E18000F0AD8B4D4D7020AD8B4D4D7010AD8B470
:103E2800D4D7030E0001FC19D8A412007ED7010EC6
:103E380015EC2AF0680E0001AB6FE40EE82EFED7F1
:103E4800AB2FFCD700F0800E15EC2AF00A0E00010B
:103E58008E6FFC0E00018F6F1BEC0BF0C00E15EC83
:103E68002AF0A30E00018E6FFC0E00018F6F1BEC71
:103E78000BF0000E0001AD6F000EAC6F0001AC51ED
:103E88000001AD11D8B42BD00001AC510001AD1127
:103E9800D8A402D0010E01D0000E0001AC6FAD6BAA
:103EA80014D08A860D0E0001AB6F760EE82EFED771
:103EB800AB2FFCD700F08A96C60E0001AB6F650EDB
:103EC800E82EFED7AB2FFCD700D081A2EAD78138E5
:103ED8000F0B0F0AD8B4120081A2D0D7FDD700016A
:103EE800AC510001AD11D8A402D0010E01D0000ED2
:103EF8000001AC6FAD6B14D08A86190E0001AB6F50
:103F0800EE0EE82EFED7AB2FFCD700F08A96B10E46
:103F18000001AB6F9E0EE82EFED7AB2FFCD700F04A
:103F280081A2EAD781380F0B0F0AD8B4120081A2F8
:103F3800A5D7FDD7A6840001AC51AA6EABC0A9FFD6
:103F4800ADC0A8FFA69EA69CF29E550EA76EAA0E0F
:103F5800A76EA682F28EA1A8FED7A198A694010109
:103F68002D5101012E11D8B41200010E15EC2AF0C2
:103F7800680E0001AE6FE40EE82EFED7AE2FFCD718
:103F880000F0800E15EC2AF0ABC080F0ACC081F0D8
:103F9800E3EC29F00001AD19D8A424D0000E0001EB
:103FA8008E6FFB0E00018F6FADC090F00001916B1A
:103FB800ABC092F0ACC093F01BEC0BF0000E00010C
:103FC800AF6F630E0001AF6501D01200680E0001EB
:103FD800AE6FE40EE82EFED7AE2FFCD700F000013E
:103FE800AF2BEFD7BD0E00018E6FFF0E00018F6F54
:103FF8001BEC0BF0000E0001B06F630E0001B06502
:1040080001D01200680E0001AE6FE40EE82EFED754
:10401800AE2FFCD700F00001B02BEFD701013351D0
:1040280001013411D8B41200000E0101366F000EE0
:10403800356F34D0010E0001816FF40E806F000ED1
:104048000001836F010E826F9AEC23F03ED0030EBD
:104058000001816F520E806F000E0001836F010E08
:10406800826F9AEC23F031D0060E0001816F860E24
:10407800806F000E0001836F010E826F9AEC23F0AF
:1040880024D0090E0001816F600E806F000E0001C0
:10409800836F010E826F9AEC23F017D02BC188F042
:1040A8002CC189F000018951000AD8A40ED0000162
:1040B8008851000AD8B4BED7010AD8B4C8D7030AB1
:1040C800D8B4D2D7010AD8B4DCD7040E0001816F66
:1040D8001A0E806F000E0001836F030E826F9AEC38
:1040E80023F0020E706EEE0E6F6E000E646E010EFF
:1040F800636E000E0101346F000E336F1200010E63
:1041080015EC2AF0680E0001AB6FE40EE82EFED71E
:10411800AB2FFCD700F0800E15EC2AF0D20E000170
:104128008E6FFE0E00018F6F1BEC0BF0C00E15ECAE
:104138002AF00B0E00018E6FFF0E00018F6F1BEC33
:104148000BF0050E0001AC6F0F0E0001AB6FF10E06
:10415800E82EFED7AB2FFCD7AC2FFAD781A2FED71B
:1041680081B2FED7010E15EC2AF0680E0001AB6F84
:10417800E40EE82EFED7AB2FFCD700F0800E15EC2E
:104188002AF04E0E00018E6FFC0E00018F6F1BECA3
:104198000BF0EF0E00018E6FFE0E00018F6F1BEC0F
:1041A8000BF04F0E00018E6FFF0E00018F6F1BEC9E
:1041B8000BF0B40E00018E6FFE0E00018F6F1BEC2A
:1041C8000BF0FD0E00018E6FFE0E00018F6F1BECD1
:1041D8000BF012006CEC25F0F4EC26F0000E000158
:1041E800EB6F000EEA6F0001EA510001EB11D8B441
:1041F80016D0360E0001806F130E0001816F060E77
:104208000001826F070E0001836F040E0001846FA6
:10421800170E0001856F420EA8EC29F00BD0100E86
:1042280000018D6F270E8E6F000E8F6F000E906F3E
:10423800CFEC25F0D8EC27F0000E01013A6F010E03
:10424800396F18D009EC00F015D097EC29F012D08E
:10425800D6EC29F065EC1DF0000E01013A6F010E55
:10426800396F09EC00F006D098EC1EF003D0D6ECBC
:1042780029F0FFD70001FC51000AD8B4E3D7010A9E
:10428800D8B4E3D7030AD8B4E3D7010AD8B4ECD733
:10429800070AD8B4ECD7EED7000E00018B6F0001E7
:1042A80089AF08D00001886D891FD8B0892B010E0D
:1042B80000018B6F000187AF08D00001866D871F52
:1042C800D8B0872B010E00018B1B000E00018D6FEB
:1042D800000E8C6F0001885100018911D8B42CD0D0
:1042E800010E00018A6F06D00001D89088378937FF
:1042F80000018A2B000189AFF7D70001D8908C37CD
:104308008D37000188510001865D00018951000147
:104318008759D8A00AD0000188510001865F0001A2
:1043280089510001875B00018C810001D890893395
:10433800883300018A2FE1D700018B510001D8B4DE
:1043480005D000018C6D8D1FD8B08D2B8CC086F0E8
:104358008DC087F01200000E01013A6F000E396F10
:10436800000E0001F16F000EF06F000E0001EF6FFC
:10437800000EEE6F000E0101306F010E2F6F000E60
:104388000101326F000E316F000E0101346F000E13
:10439800336F000E0101366F010E356F000E0101FB
:1043A800386F000E376F000E0001FF6F000EFE6FB2
:1043B800000E0101286F000E276F000E01012A6F01
:1043C800000E296F000E0101266F000E256F000EEA
:1043D8000101246F000E236F030E6A6EE70E696EEB
:1043E800000E6E6E000E6D6E270E706E0F0E6F6EE5
:1043F800000E746E000E736E000E626E020E616E19
:104408006B686C6871687268000E646E000E636E8B
:104418001200000E0001886F000E896F000E8A6F6F
:10442800000E8B6F00018451000185110001861177
:1044380000018711D8B442D0010E00018C6F08D05A
:104448000001D890843785378637873700018C2B51
:10445800000187AFF5D70001D890883789378A37A8
:104468008B37000184510001805D000185510001F6
:1044780081590001865100018259000187510001CC
:104488008359D8A012D0000184510001805F000137
:1044980085510001815B000186510001825B0001AA
:1044A80087510001835B000188810001D890873320
:1044B80086338533843300018C2FCDD788C080F0B4
:1044C80089C081F08AC082F08BC083F0120057EC5B
:1044D80023F0000E0001896F000E886F000189BF6C
:1044E80008D00001895140E1070E0001885DD8B06D
:1044F8003BD01C0E00018825D96E010E00018921D0
:10450800DA6EDF500001856F0001853B0F0E8517BD
:104518000F0E00018517000185510A0D1C0E0001C0
:104528008825D96E010E00018921DA6EDF500F0B44
:104538000001866F876BF35000018627F450000155
:104548008723D89000018835D96E00018935DA6E45
:104558000E0ED926010EDA2286C0DEFF87C0DDFFE7
:104568000001884B892BBAD7170ED56E850ED76EEA
:10457800EE0ED66ED58E1200000E0001856F00017A
:1045880081AF08D00001806D811FD8B0812B010E4A
:104598000001856F000183AF05D00001826D831F84
:1045A800D8B0832B0001825100018311D8B426D0E2
:1045B800010E0001846F06D00001D890823783373E
:1045C8000001842B000183AFF7D70001825100015D
:1045D800805D0001835100018159D8A008D00001F5
:1045E80082510001805F000183510001815B00015D
:1045F800D890833382330001842FE7D70001855197
:104608000001D8B405D00001806D811FD8B0812B7E
:1046180080C080F081C081F01200100E00018D6F03
:10462800270E8E6F000E8F6F000E906FCFEC25F067
:10463800F29E3BEC2AF0000E0001826FD00E816FD3
:1046480029EC2AF0000E0001826F000E816F29EC20
:104658002AF0000E0001976F000E966F000197BFB9
:1046680008D0000197511BE1070E0001965DD8B0F4
:1046780016D01C0E00019625D96E010E0001972157
:10468800DA6EDF500001956F000195510001816FCE
:10469800826B29EC2AF00001964B972BDFD737EC79
:1046A8002AF0F28E12003BEC2AF0000E0001826F15
:1046B800D00E816F29EC2AF0000E0001826F000EE7
:1046C800816F29EC2AF037EC2AF03BEC2AF0000E37
:1046D8000001826FD10E816F29EC2AF0000E0001D3
:1046E800846F000E836F000184BF08D000018451DD
:1046F80015E1060E0001835DD8B010D01C0E000134
:104708008325D96E010E00018421DA6E010EC8ECF2
:1047180028F0DF6E0001834B842BE5D7000EC8EC30
:1047280028F00101226F37EC2AF0120080C084F0D3
:1047380081C085F00001841F851F844B852BFF0EE7
:10474800000184250001866FFF0E0001852100010C
:10475800876F1DD0000187510001DA6FDB6B000104
:1047680086510001DC6FDD6B80C06BF081C06CF09E
:10477800000187510001DE6FDF6B000186510001E7
:10478800E06FE16B80C071F081C072F0120082C0EE
:1047980084F083C085F000018551000AD8A4120076
:1047A80000018451010AD8B4D5D7020AD8A412004E
:1047B800DFD7010E15EC2AF0680E0001AB6FE40E8E
:1047C800E82EFED7AB2FFCD700F0800E15EC2AF0B0
:1047D800390E00018E6FFB0E00018F6F1BEC0BF082
:1047E800C00E15EC2AF0270E00018E6FFB0E00019B
:1047F8008F6F1BEC0BF081A2FED781380F0B0F0ACD
:10480800D8B4120014D08A84340E0001AB6FF10EB4
:10481800E82EFED7AB2FFCD700D08A94340E0001C7
:10482800AB6FF10EE82EFED7AB2FFCD700D081B2CC
:10483800EAD78A94E0D7000E0001856F000E846FD6
:104848000001825100018311D8B42CD0010E00015F
:10485800866F06D00001D890823783370001862BF7
:10486800000183AFF7D70001D8908437853700015E
:1048780082510001805D0001835100018159D8A057
:104888000AD0000182510001805F000183510001BC
:10489800815B000184810001D89083338233000159
:1048A800862FE1D784C080F085C081F01200A8EC83
:1048B80026F0000E0001886F000E876F000188BF88
:1048C80008D0000188511AE1960E0001875DD8B022
:1048D80015D0060E0001866F300EE82EFED7862F03
:1048E800FCD700F0A8EC26F00001E6510001E71122
:1048F800D8B404D00001874B882BE0D70001E60527
:104908000001E711D8A406D0000E0001F16F010ED6
:10491800F06F1200000E0001F16F000EF06F120030
:1049280043EC2AF0000E036ED00E026E2EEC2AF035
:10493800000E036E000E026E2EEC2AF03FEC2AF0F9
:1049480043EC2AF0000E036ED10E026E2EEC2AF014
:10495800000E056E000E046E05BE06D0055011E16E
:10496800060E045CD8B00DD01C0E0424D96E010EBE
:104978000520DA6E010E72EC29F0DF6E044A052A72
:10498800EBD7000E72EC29F00101226F3FEC2AF000
:10499800120001C005F002C006F0051E061E054AF9
:1049A800062AFF0E0524076EFF0E0620086E19D092
:1049B80008500001DA6FDB6B07500001DC6FDD6B1C
:1049C80001C06BF002C06CF008500001DE6FDF6BB5
:1049D80007500001E06FE16B01C071F002C072F096
:1049E800120003C005F004C006F00650000AD8A45F
:1049F80012000550010AD8B4DBD7020AD8A4120065
:104A0800E3D70001816F00018151F00B0001806F35
:104A18008C500F0B8C6E000180518C108C6E8C8624
:104A2800420EE82EFED700D08C96420EE82EFED716
:104A380000D000018139F00B0001816F0001815124
:104A4800F00B0001806F8C500F0B8C6E00018051B1
:104A58008C108C6E8C86420EE82EFED700D08C9679
:104A6800420EE82EFED700D01200040E0001816F1E
:104A7800B00E806F000E0001836F010E826F9AECFA
:104A880023F0040E0001816F1A0E806F000E0001E2
:104A9800836F030E826F9AEC23F0CD80000E786E40
:104AA800000E776E340E0001886FF10EE82EFED7E7
:104AB800882FFCD700D0B180000E7C6E000E7B6E74
:104AC8008A86CA84000E7A6E000E796E8B80120078
:104AD800F00ED36E9B8C070E926EF20E936E000E44
:104AE800946E000E956E000E966E000E896E000E86
:104AF8008A6E000E8B6E000E8C6E000E8D6EF19E0F
:104B0800000EC26E0D0EC16E000EB56EB496B10EDB
:104B1800C06EF086F28A9D809D82A082B00ECD6E16
:104B28007B0ECA6E220ECB6EB00EB16EF28C9D9CBF
:104B3800F29E12000001895100018A11D8B426D0D2
:104B4800010E00018B6F06D00001D89089378A3793
:104B580000018B2B00018AAFF7D7000189510001B2
:104B6800875D00018A5100018859D8A008D000014A
:104B780089510001875F00018A510001885B0001AB
:104B8800D8908A33893300018B2FE7D787C087F005
:104B980088C088F01200000EC76E280EC66E000E80
:104BA800C56E000E0001806F480E816FE80E826F9F
:104BB800010E836F8DC091F08EC092F08FC093F07C
:104BC80090C094F0020ED890000191379237933735
:104BD8009437E82EF8D791C084F092C085F093C03E
:104BE80086F094C087F00DEC22F000018005C86EB5
:104BF800948694881200010E15EC2AF0680E0001C4
:104C0800AB6FE40EE82EFED7AB2FFCD700F0800E7A
:104C180015EC2AF0150E00018E6FFB0E00018F6F48
:104C28001BEC0BF0C00E15EC2AF0F90E00018E6F8C
:104C3800FB0E00018F6F1BEC0BF081A2FED78138B1
:104C48000F0B0F0AD8B412008A8481B2FED78A9457
:104C5800F4D7026E0250F00B016E8C500F0B8C6E65
:104C680001508C108C6E8C86420EE82EFED700D038
:104C78008C96420EE82EFED700D00238F00B026E5A
:104C88000250F00B016E8C500F0B8C6E01508C1083
:104C98008C6E8C86420EE82EFED700D08C96420E83
:104CA800E82EFED700D01200000E0B6E000E0A6E22
:104CB80008500910D8B41CD0010E0C6E04D0D8903E
:104CC800083609360C2A09AEFAD7D8900A360B36B8
:104CD8000850065C09500758D8A005D00850065E51
:104CE8000950075A0A80D890093208320C2EEDD79D
:104CF8000AC006F00BC007F01200660EF66E540EDE
:104D0800F76E000EF86E01EE47F010EE08F009009D
:104D1800F5CFEEFFE550E150FAE101EE00F0470E65
:104D2800EE6AE806FDE100EEDAF0260EEE6AE80625
:104D3800FDE100EE5BF0230EEE6AE806FDE17E90F1
:104D48007E920001EEEF20F0000E0CEC29F0C3502B
:104D5800C4CF82F00001836B82C083F00001826BB4
:104D6800000182110001846F000183510001856FE9
:104D7800000185BF0AD0210E0001845D030E0001E9
:104D88008559D8A002D0010E01D0000E0001E66FAF
:104D9800E76B1200010E0CEC29F0C350C4CF82F06F
:104DA8000001836B82C083F00001826B00018211D5
:104DB8000001846F000183510001856F000185BFE8
:104DC80008D00001855107E1960E0001845DD8B036
:104DD80002D0010E01D0000E0001E86FE96B12004D
:104DE8009C0E0001836FD70EE82EFED7832FFCD7C9
:104DF800330E15EC2AF0320E15EC2AF0280E15ECBD
:104E08002AF00C0E15EC2AF0060E15EC2AF0010E0D
:104E180015EC2AF09C0E0001836FD70EE82EFED702
:104E2800832FFCD7120003500410D8B418D0010EF9
:104E3800056E04D0D89003360436052A04AEFAD796
:104E48000350015C04500258D8A004D00350015EFE
:104E58000450025AD89004320332052EF1D701C00B
:104E680001F002C002F01200000E0001ED6F160EF4
:104E7800EC6F800E15EC2AF0C40E00018E6FFD0E4B
:104E880000018F6F1BEC0BF0C00E15EC2AF0090E19
:104E980000018E6FFD0E00018F6F1BEC0BF01200EE
:104EA800000E0001ED6F0C0EEC6F800E15EC2AF071
:104EB8002B0E00018E6FFD0E00018F6F1BEC0BF0A7
:104EC800C00E15EC2AF0C40E00018E6FFD0E000115
:104ED8008F6F1BEC0BF0120080C084F081C085F04E
:104EE80006D00001844B852B0001824B832B82C0A6
:104EF800F6FF83C0F7FFF86A84C0D9FF85C0DAFFE0
:104F08000800F5CFDFFFDF50D8B41200EAD7000160
:104F1800805100018203F3CF84F0F4CF85F00001C3
:104F2800805100018303F35000018527000181515E
:104F380000018203F3500001852784C080F085C0FA
:104F480081F01200CEEC26F00001E8050001E9111D
:104F5800D8A41200150E0001876F4B0E0001866F52
:104F6800BE0EE82EFED7862FFCD7872FFAD700F083
:104F7800CEEC26F0120001C005F002C006F004D005
:104F8800054A062A034A042A03C0F6FF04C0F7FFAD
:104F9800F86A05C0D9FF06C0DAFF0800F5CFDFFFC1
:104FA800DF50D8B41200ECD7F28E000E0001FC6F6F
:104FB800000E0001F96F000EF86F0001EA510001C0
:104FC800EB11D8A411EC23F0F6EC28F0000E010147
:104FD8003C6F010E3B6F1200000E0001ED6F160EC4
:104FE800EC6F800E23EC2AF0C40E0D6EFD0E0E6ED3
:104FF800F9EC0EF0C00E23EC2AF0090E0D6EFD0E32
:105008000E6EF9EC0EF01200000E0001ED6F0C0EA2
:10501800EC6F800E23EC2AF02B0E0D6EFD0E0E6E3B
:10502800F9EC0EF0C00E23EC2AF0C40E0D6EFD0E46
:105038000E6EF9EC0EF01200000E0001ED6F170E67
:10504800EC6F800E23EC2AF01A0E0D6EFD0E0E6E1C
:10505800F9EC0EF0C00E23EC2AF0B30E0D6EFD0E27
:105068000E6EF9EC0EF01200000E0001ED6F0B0E43
:10507800EC6F800E23EC2AF0D50E0D6EFD0E0E6E31
:10508800F9EC0EF0C00E23EC2AF01A0E0D6EFD0E90
:105098000E6EF9EC0EF01200040E0001ED6F0A0E10
:1050A800EC6F800E23EC2AF0E70E0D6EFC0E0E6EF0
:1050B800F9EC0EF0C00E23EC2AF0A20E0D6EFD0ED8
:1050C8000E6EF9EC0EF01200040E0001ED6F090EE1
:1050D800EC6F800E23EC2AF0910E0D6EFD0E0E6E15
:1050E800F9EC0EF0C00E23EC2AF0F80E0D6EFC0E53
:1050F8000E6EF9EC0EF01200030E0001ED6FFE0EBD
:10510800EC6F800E23EC2AF0800E0D6EFD0E0E6EF5
:10511800F9EC0EF0C00E23EC2AF0E70E0D6EFC0E33
:105128000E6EF9EC0EF01200030E0001ED6FF40E96
:10513800EC6F800E23EC2AF0C50E0D6EFC0E0E6E81
:10514800F9EC0EF0C00E23EC2AF0800E0D6EFD0E69
:105158000E6EF9EC0EF01200030E0001ED6FF30E67
:10516800EC6F800E23EC2AF06F0E0D6EFD0E0E6EA6
:10517800F9EC0EF0C00E23EC2AF0D60E0D6EFC0EE4
:105188000E6EF9EC0EF012000001816FFAEC29F0B6
:10519800C586FAEC29F0C9CF82F0FAEC29F00001B3
:1051A80081510001D8A402D0C58A01D0C59AC5880A
:1051B800000182511200030E0001ED6FEC69800EB0
:1051C80023EC2AF0D60E0D6EFC0E0E6EF9EC0EF0E6
:1051D800C00E23EC2AF0910E0D6EFD0E0E6EF9EC4A
:1051E8000EF01200000E0001ED6F000EEC6F800E45
:1051F80015EC2AF02FEC12F0C00E15EC2AF0F70E81
:1052080000018E6FFD0E00018F6F1BEC0BF012007A
:105218000001816F00018145E846FC0BC26EC28027
:10522800C28209D0340E0001806FF10EE82EFED73D
:10523800802FFCD700D0C2A21200F4D70001826FE1
:10524800000E0001816F3A0E0001826107D02F0E17
:105258000001826503D0010E0001816F81C080F0DA
:105268000001803112000001816F0BD0000181071D
:105278000B0E0001806F470EE82EFED7802FFCD75B
:1052880000D0000181510001D8B41200EFD7000E00
:105298000001ED6F000EEC6F800E23EC2AF0A0ECFD
:1052A80018F0C00E23EC2AF0F70E0D6EFD0E0E6EF0
:1052B800F9EC0EF0120001500302F3CF05F0F4CF21
:1052C80006F001500402F350062602500302F35080
:1052D800062605C001F006C002F01200026E04ECBA
:1052E8002AF0C58604EC2AF0C9CF03F004EC2AF0B2
:1052F8000250D8A402D0C58A01D0C59AC5880350E7
:105308001200000E0001F96F010EF86F12C0F2F0E2
:1053180013C0F3F0FF0E1224076EFF0E1320086E61
:1053280007EC1EF012000001FC05D8B4C9EC08F027
:105338000001FC05D8B448EC16F00001FC05D8A41F
:10534800120012EC20F012000001866F86C01CF1DA
:1053580080C01DF181C01EF182C01FF183C020F101
:1053680084C021F185C022F11200036E000E026E86
:105378003A0E036005D02F0E036402D0010E026EB0
:1053880002C001F001301200026E08D002060B0EB6
:10539800016E480EE82EFED7012EFCD70250D8B475
:1053A8001200F4D7000E896E000E8A6E000E8B6E06
:1053B800000E8C6E000E8D6ECD90B1901200000123
:1053C8008151AA6E80C0A9FFA69EA69CA680A6B001
:1053D800FED7A85012000250AA6E01C0A9FFA69ECF
:1053E800A69CA680A6B0FED7A8501200C7B4FED7C8
:1053F800C5CF80F01F0E00018017D8B41200F6D771
:10540800C7B4FED7C5CF01F01F0E0116D8B41200DD
:10541800F7D70001826F8C840001825105EC25F0DA
:1054280012000001826F8C940001825105EC25F076
:105438001200036E8C8403502DEC26F01200036ECC
:105448008C9403502DEC26F01200FAEC29F081C060
:10545800C9FF120004EC2AF002C0C9FF12004D4D2A
:105468004D004D4D4D00FAEC29F0C5841200FAECC0
:1054780029F0C580120004EC2AF0C584120004EC5F
:085488002AF0C5801200120099
:10FACC00003132334134353642373839432A30230A
:10FADC00440001000A006400E8031027253032645A
:10FAEC002573207C20253032643A253032643A2547
:10FAFC003032640028646174613A2025752C2061D1
:10FB0C006464723A2025752900442057494C4C20D6
:10FB1C0052455455524E20202020004F54484552F7
:10FB2C0020534554532052413520202000533A2075
:10FB3C00442057494C4C2052455455524E20004FAE
:10FB4C00544845523A2043414D20544F47474C4569
:10FB5C0000443A205245547C323A20434F4E4420C4
:10FB6C002564002D2D204C4F47202532642048451C
:10FB7C0052452D2D00524553554C545320494E207F
:10FB8C004C4F47202564004D4944202D2D203273C5
:10FB9C00202020202020200044524F50202D2D20AA
:10FBAC003273202020202020004C454654202D2D3F
:10FBBC00203273202020202020004C4556454C201C
:10FBCC002D2D2032732020202020005249474854EC
:10FBDC00202D2D2032732020202020004D4944441C
:10FBEC004C45202D2D20327320202020004F5448CE
:10FBFC004552205345545320444320202000442098
:10FC0C0057494C4C2052455455524E202020004D03
:10FC1C0049442D4C454654202D2D20327320200074
:10FC2C004D49442D5249474854202D2D20327320E4
:10FC3C0000454C534520544F47474C4553205241A7
:10FC4C003500414C47313A203920504F504E4F54DB
:10FC5C004142005453543A20434F4E4420534F4C8E
:10FC6C004E2744005453543A205055534820534F78
:10FC7C004C4E274400322E534E527C342E48497C35
:10FC8C00352E4D454400422E5053487C382E535649
:10FC9C007C392E424C4B00454C534520544F474722
:10FCAC004C45532041524D005453543A20424F542A
:10FCBC004820534552564F53004C4F47203120207B
:10FCCC00202020202020202020004C4F47203220B4
:10FCDC0020202020202020202020004C4F472033A3
:10FCEC002020202020202020202020004C4F4720A6
:10FCFC0034202020202020202020202000332E20E3
:10FD0C004C4F475320202020202020202000322E32
:10FD1C0020534F525420202020202020202000311E
:10FD2C002E20444154452F54494D4520202020007D
:10FD3C00202D2D20504F50202043414E202D2D2082
:10FD4C0000202D2D20534F55502043414E202D2D5A
:10FD5C0020002D2D20544F54414C2043414E532014
:10FD6C002D2D004C4F4720312020202020202020FA
:10FD7C0020203C004C4F47203220202020202020E7
:10FD8C002020203C004C4F472033202020202020D6
:10FD9C00202020203C004C4F4720342020202020C5
:10FDAC0020202020203C00332E204C4F4753202075
:10FDBC002020202020203C00322E20534F52542053
:10FDCC00202020202020203C00312E20444154456E
:10FDDC002F54494D452020203C005041555345207F
:10FDEC003C207C204241434B203E00505553482040
:10FDFC00544F20434F4E54494E5545004E4C4142B2
:10FE0C003A2025647C4C41423A202564004E5441F2
:10FE1C00423A2025647C5441423A202564004D41ED
:10FE2C00475F7369676E616C3A20256420005453F8
:10FE3C00543A2054494C5420534552564F0044498F
:10FE4C00444E275420434F4D504C45544500495285
:10FE5C005F7369676E616C3A202564200043414DE5
:10FE6C002044574E207C5243303D300043414D20BE
:10FE7C00555020207C5243303D31005453543A208D
:10FE8C004D41474E455449534D005453543A204329
:10FE9C00414D20534552564F005453543A20504133
:10FEAC004E20534552564F00414C47343A20414C5A
:10FEBC004C2043414E53005453543A204443204D5C
:10FECC004F544F525300414C474F524954484D20C8
:10FEDC00544553540050494E20524135204849470F
:10FEEC00482E00414C47323A2031322043414E5388
:10FEFC0000414C47353A204E4F2043414E53005061
:10FF0C0055534820544F20535441525400256420DB
:10FF1C004D494E202564205345430054494D453AE4
:10FF2C002025643A25303264005453543A20495207
:10FF3C0020534E53520054494D452025643A2530E8
:10FF4C00326400414C47333A20312043414E00503B
:10FF5C00494E205241332E2E2E0050494E205241F4
:10FF6C00342E2E2E005055534845522054535400D5
:10FF7C00534F5254494E472E2E2E005453543A2070
:10FF8C00434F4E44004143545541544F5253004447
:10FF9C0055524154494F4E3A00434F4E443A202556
:10FFAC00640053454E534F525300286E756C6C29A8
:10FFBC00004641494C45440053544152543A004682
:10FFCC0045420044454300415547004A554C004AC0
:10FFDC00414E004A554E00534550004D4152004190
:10FFEC00505200455252004F4354004E4F56004D54
:04FFFC004159000067
:020000040020DA
:08000000FFFFFFFFFFFFFFFF00
:020000040030CA
:0E000000FF081F1EFF8381FF0F400FE00F401F
:00000001FF
