:0400000007EF00F016
:100008007E82C8ED1EF096EF2CF0020E0001FC195E
:10001800D8A486D0010E66EC30F0680E0001C46FDB
:10002800E40EE82EFED7C42FFCD700F0800E66EC55
:1000380030F07F0E00018E6FFB0E00018F6F010EF6
:100048000001FD250001906F0001916B000E9123C6
:10005800E9EC0EF0C00E66EC30F00E0E0001836F76
:10006800100E826FFAC080F0FBC081F044EC28F0DB
:1000780080C0C6F081C0C7F0560E00018E6FFF0E1B
:1000880000018F6F0E0E0001836F100E826FFAC091
:1000980080F0FBC081F044EC28F080C086F081C07D
:1000A80087F0000E0001896F3C0E886F32EC27F054
:1000B80086C090F087C091F0C6C080F0C7C081F0BC
:1000C800000E0001836F3C0E826F44EC28F080C064
:1000D80092F081C093F0E9EC0EF081B2FED781A2D4
:1000E800FED70C0E0001E8190001E911D8A403D0CD
:1000F800A8EC2DF002D08CEC2DF081B2FED7050EC5
:100108000001C56F0F0E0001C46FF10EE82EFED777
:10011800C42FFCD7C52FFAD7000E0001FC6FD2D32D
:100128000001E8510001E911D8A4CCD3000E000168
:10013800C86F630E0001C86501D00CD0680E0001BD
:10014800C46FE40EE82EFED7C42FFCD700F00001E0
:10015800C82BEFD70001E8510001E911D8A4B2D3A8
:10016800F2EC19F0AFD30001F2510001F311D8A459
:1001780041D0010E66EC30F0680E0001C46FE40E49
:10018800E82EFED7C42FFCD700F0800E66EC30F0C6
:100198006D0E00018E6FFB0E00018F6FF0C090F0A6
:1001A800F1C091F0E9EC0EF0C00E66EC30F0790E7B
:1001B80000018E6FFE0E00018F6FE9EC0EF0000E4D
:1001C8000001C96F630E0001C96501D00CD0680E2B
:1001D8000001C46FE40EE82EFED7C42FFCD700F050
:1001E8000001C92BEFD70001F8510001F911D8B46B
:1001F8001200E5D7010E66EC30F0680E0001C46FFE
:10020800E40EE82EFED7C42FFCD700F0800E66EC73
:1002180030F06D0E00018E6FFB0E00018F6FF0C085
:1002280090F0F1C091F0E9EC0EF0C00E66EC30F001
:10023800F50E00018E6FFD0E00018F6FE9EC0EF0D8
:10024800000E0001CA6F630E0001CA6501D00CD010
:10025800680E0001C46FE40EE82EFED7C42FFCD749
:1002680000F00001CA2BEFD70001F8510001F91185
:10027800D8B41200000E0001CB6F630E0001CB65ED
:1002880001D00CD0680E0001C46FE40EE82EFED732
:10029800C42FFCD700F00001CB2BEFD70001F85199
:1002A8000001F911D8B41200010E66EC30F0680EA6
:1002B8000001C46FE40EE82EFED7C42FFCD700F06F
:1002C800800E66EC30F0C30E00018E6FFF0E000149
:1002D8008F6FE9EC0EF0C00E66EC30F04FC1D6F02F
:1002E80050C1D7F051C1D8F052C1D9F0C3D0D60E01
:1002F8000001806F000E0001816FDA0E0001826F2D
:10030800FF0E0001836FC4EC2DF0E6D0D60E00017D
:10031800806F000E0001816FCA0E0001826FFF0E10
:100328000001836FC4EC2DF0D7D0D60E0001806F8A
:10033800000E0001816FE60E0001826FFF0E0001C2
:10034800836FC4EC2DF0C8D0D60E0001806F000E6C
:100358000001816FEA0E0001826FFF0E0001836FBA
:10036800C4EC2DF0B9D0D60E0001806F000E00014C
:10037800816FFA0E0001826FFF0E0001836FC4ECDB
:100388002DF0AAD0D60E0001806F000E0001816FFB
:10039800DE0E0001826FFF0E0001836FC4EC2DF0AA
:1003A8009BD0D60E0001806F000E0001816FD60E23
:1003B8000001826FFF0E0001836FC4EC2DF08CD01A
:1003C800D60E0001806F000E0001816FD20E000171
:1003D800826FFF0E0001836FC4EC2DF07DD0D60E26
:1003E8000001806F000E0001816FE20E0001826F34
:1003F800FF0E0001836FC4EC2DF06ED0D60E000105
:10040800806F000E0001816FF20E0001826FFF0EF7
:100418000001836FC4EC2DF05FD0D60E0001806F11
:10042800000E0001816FF60E0001826FFF0E0001C1
:10043800836FC4EC2DF050D0D60E0001806F000EF3
:100448000001816FCE0E0001826FFF0E0001836FE5
:10045800C4EC2DF041D0D60E0001806F000E0001D3
:10046800816FEE0E0001826FFF0E0001836FC4ECF6
:100478002DF032D021EE0AF0DECFC4F0DDCFC5F08A
:100488000001C551000AD8A4E6D70001C451010AE9
:10049800D8B42DD7030AD8B439D7010AD8B445D768
:1004A800070AD8B451D7010AD8B45DD7030AD8B41B
:1004B80069D7010AD8B475D70F0AD8B481D7010A09
:1004C800D8B48DD7030AD8B499D7010AD8B4A5D718
:1004D800070AD8B4B1D7BFD7C20E00018E6FFA0E83
:1004E80000018F6F08C190F009C191F0D60E00018C
:1004F800926F000E0001936F04C194F005C195F04E
:1005080002C196F003C197F000C198F001C199F0BB
:10051800E9EC0EF0000E0001CC6F630E0001CC6513
:1005280001D00CD0680E0001C46FE40EE82EFED78F
:10053800C42FFCD700F00001CC2BEFD70001F851F5
:100548000001F911D8B41200000E0001CD6F630E3E
:100558000001CD6501D00CD0680E0001C46FE40E17
:10056800E82EFED7C42FFCD700F00001CD2BEFD723
:100578000001F8510001F911D8B41200010E66EC1F
:1005880030F0680E0001C46FE40EE82EFED7C42FC9
:10059800FCD700F0800E66EC30F09A0E00018E6FEA
:1005A800FF0E00018F6FE9EC0EF0C00E66EC30F024
:1005B8000E0E0001836F100E826FF6C080F0F7C038
:1005C80081F044EC28F080C0C6F081C0C7F0480E26
:1005D80000018E6FFF0E00018F6F0E0E0001836FFA
:1005E800100E826FF6C080F0F7C081F044EC28F05E
:1005F80080C086F081C087F0000E0001896F3C0E34
:10060800886F32EC27F086C090F087C091F0C6C0A2
:1006180080F0C7C081F0000E0001836F3C0E826F2E
:1006280044EC28F080C092F081C093F0E9EC0EF021
:10063800000E0001CE6F630E0001CE6501D00CD014
:10064800680E0001C46FE40EE82EFED7C42FFCD755
:1006580000F00001CE2BEFD70001F8510001F9118D
:10066800D8B41200000E0001CF6F630E0001CF65F1
:1006780001D00CD0680E0001C46FE40EE82EFED73E
:10068800C42FFCD700F00001CF2BEFD70001F851A1
:100698000001F911D8B41200010E66EC30F0680EB2
:1006A8000001C46FE40EE82EFED7C42FFCD700F07B
:1006B800800E66EC30F04B0E00018E6FFD0E0001CF
:1006C8008F6FE9EC0EF0C00E66EC30F0280E0001DA
:1006D8008E6FFE0E00018F6FF4C090F0F5C091F0A0
:1006E80043C192F044C193F0E9EC0EF0000E000112
:1006F800D06F630E0001D06501D00CD0680E0001E8
:10070800C46FE40EE82EFED7C42FFCD700F000011A
:10071800D02BEFD70001F8510001F911D8B412001D
:10072800000E0001D16F630E0001D16501D00CD01D
:10073800680E0001C46FE40EE82EFED7C42FFCD764
:1007480000F00001D12BEFD70001F8510001F91199
:10075800D8B41200010E66EC30F0680E0001C46FC8
:10076800E40EE82EFED7C42FFCD700F0800E66EC0E
:1007780030F05C0E00018E6FFD0E00018F6FE9EC0A
:100788000EF0C00E66EC30F0170E00018E6FFE0EF4
:1007980000018F6F3FC190F040C191F041C192F0CC
:1007A80042C193F0E9EC0EF0000E0001D26F630E27
:1007B8000001D26501D00CD0680E0001C46FE40EB0
:1007C800E82EFED7C42FFCD700F00001D22BEFD7BC
:1007D8000001F8510001F911D8B41200000E00010F
:1007E800D36F630E0001D36501D00CD0680E0001F1
:1007F800C46FE40EE82EFED7C42FFCD700F000012A
:10080800D32BEFD70001F8510001F911D8B4120029
:10081800010E66EC30F0680E0001C46FE40EE82E9D
:10082800FED7C42FFCD700F0800E66EC30F06D0EBA
:1008380000018E6FFD0E00018F6FE9EC0EF0C00E07
:1008480066EC30F0250E00018E6FFE0E00018F6FF2
:1008580045C190F046C191F0E9EC0EF0000E0001A0
:10086800D46F630E0001D46501D00CD0680E00016E
:10087800C46FE40EE82EFED7C42FFCD700F00001A9
:10088800D42BEFD70001F8510001F911D8B41200A8
:10089800000E0001D56F630E0001D56501D00CD0A4
:1008A800680E0001C46FE40EE82EFED7C42FFCD7F3
:1008B80000F00001D52BEFD70001F8510001F91124
:1008C800D8B412000001F8510001F911D8B412008F
:1008D8004AD4000E0001C56F000EC46FF28E010EDF
:1008E80066EC30F0680E0001AB6FE40EE82EFED720
:1008F800AB2FFCD700F0800E66EC30F0900E0001B4
:100908008E6FFF0E00018F6FE9EC0EF0C00E66ECE3
:1009180030F03A0E00018E6FFF0E00018F6FE9EC88
:100928000EF0050E0001AC6F0F0E0001AB6FF10E5B
:10093800E82EFED7AB2FFCD7AC2FFAD781A2FED773
:1009480081B2FED7010E66EC30F0680E0001AB6F85
:10095800E40EE82EFED7AB2FFCD700F0800E66EC35
:1009680030F0F20E00018E6FFE0E00018F6FE9EC81
:100978000EF0C00E66EC30F0100E00018E6FFF0E08
:1009880000018F6FE9EC0EF08A84000E0001C56F3C
:10099800000EC46F0001C5BF08D00001C55123E196
:1009A800050E0001C45DD8B01ED0000E0001AD6F69
:1009B800630E0001AD6501D00CD0680E0001AB6F6D
:1009C800E40EE82EFED7AB2FFCD700F00001AD2BCC
:1009D800EFD70001C44BC52B0001C5BFE6D7000106
:1009E800C55101E1DDD78A94010E66EC30F0680E3E
:1009F8000001AB6FE40EE82EFED7AB2FFCD700F05A
:100A0800800E66EC30F06E0E00018E6FFC0E000159
:100A18008F6FE9EC0EF0C00E66EC30F0700E00013E
:100A28008E6FFF0E00018F6FE9EC0EF0000E0001D3
:100A3800C56F000EC46F0001C5BF08D00001C551C5
:100A48002CE1050E0001C45DD8B027D08B8E0D0EA9
:100A58000001AC6F2D0E0001AB6FD70EE82EFED74C
:100A6800AB2FFCD7AC2FFAD700D08B9E1D0E000100
:100A7800AC6F690E0001AB6FA50EE82EFED7AB2F49
:100A8800FCD7AC2FFAD70001C44BC52B0001C5BF5A
:100A9800DDD70001C55101E1D4D78B9E010E66EC6C
:100AA80030F0680E0001AB6FE40EE82EFED7AB2FD6
:100AB800FCD700F0800E66EC30F07F0E00018E6FE0
:100AC800FC0E00018F6FE9EC0EF0C00E66EC30F002
:100AD8007B0E00018E6FFF0E00018F6FE9EC0EF0A8
:100AE800000E0001C56F000EC46F0001C5BF08D01D
:100AF8000001C5512CE1050E0001C45DD8B027D016
:100B080089880D0E0001AC6F2D0E0001AB6FD70E5A
:100B1800E82EFED7AB2FFCD7AC2FFAD700D0899898
:100B28001D0E0001AC6F690E0001AB6FA50EE82E1B
:100B3800FED7AB2FFCD7AC2FFAD70001C44BC52B7F
:100B48000001C5BFDDD70001C55101E1D4D789989F
:100B5800010E66EC30F0680E0001AB6FE40EE82E73
:100B6800FED7AB2FFCD700F0800E66EC30F0010EFC
:100B78000001FC6F000E786E000E776E000E786E26
:100B8800000E776ED40E00018E6FFE0E00018F6F7F
:100B9800E9EC0EF0C00E66EC30F0E60E00018E6F48
:100BA800FB0E00018F6FE9EC0EF0040E0001816F5F
:100BB800B00E806F000E0001836F010E826FEDECA6
:100BC80029F0CD80000E0001AE6F630E0001AE6506
:100BD80001D00CD0680E0001AB6FE40EE82EFED7F2
:100BE800AB2FFCD700F00001AE2BEFD7000E0001B1
:100BF800AF6F630E0001AF6501D00CD0680E000125
:100C0800AB6FE40EE82EFED7AB2FFCD700F0000147
:100C1800AF2BEFD7800E66EC30F0C00E66EC30F0EC
:100C2800D50E00018E6FFB0E00018F6FE9EC0EF000
:100C3800010E0001816F900E806F000E0001836F1E
:100C4800010E826FEDEC29F0000E0001B06F630E0B
:100C58000001B06501D00CD0680E0001AB6FE40E46
:100C6800E82EFED7AB2FFCD700F00001B02BEFD752
:100C7800000E0001B16F630E0001B16501D00CD008
:100C8800680E0001AB6FE40EE82EFED7AB2FFCD741
:100C980000F00001B12BEFD7800E66EC30F0C00EEB
:100CA80066EC30F0B30E00018E6FFB0E00018F6F03
:100CB800E9EC0EF0090E0001816FC40E806F000E82
:100CC8000001836F010E826FEDEC29F0000E000128
:100CD800B26F630E0001B26501D00CD0680E00013E
:100CE800AB6FE40EE82EFED7AB2FFCD700F0000167
:100CF800B22BEFD7000E0001B36F630E0001B3658E
:100D080001D00CD0680E0001AB6FE40EE82EFED7C0
:100D1800AB2FFCD700F00001B32BEFD7800E66ECA9
:100D280030F0C00E66EC30F03B0E00018E6FFC0E0A
:100D380000018F6FE9EC0EF0060E0001816F0E0EB8
:100D4800806F000E0001836F010E826FEDEC29F0B9
:100D5800000E0001B46F630E0001B46501D00CD021
:100D6800680E0001AB6FE40EE82EFED7AB2FFCD760
:100D780000F00001B42BEFD7000E0001B56F630E31
:100D88000001B56501D00CD0680E0001AB6FE40E10
:100D9800E82EFED7AB2FFCD700F00001B52BEFD71C
:100DA800800E66EC30F0C00E66EC30F04C0E0001A0
:100DB8008E6FFC0E00018F6FE9EC0EF0030E000140
:100DC800816F520E806F000E0001836F010E826FDB
:100DD800EDEC29F0000E0001B66F630E0001B66558
:100DE80001D00CD0680E0001AB6FE40EE82EFED7E0
:100DF800AB2FFCD700F00001B62BEFD7000E000197
:100E0800B76F630E0001B76501D00CD0680E000102
:100E1800AB6FE40EE82EFED7AB2FFCD700F0000135
:100E2800B72BEFD7800E66EC30F0C00E66EC30F0D2
:100E3800910E00018E6FFB0E00018F6FE9EC0EF032
:100E4800040E0001816FB00E806F000E0001836FE9
:100E5800010E826FEDEC29F0000E0001B86F630EF1
:100E68000001B86501D00CD0680E0001AB6FE40E2C
:100E7800E82EFED7AB2FFCD700F00001B82BEFD738
:100E8800000E0001B96F630E0001B96501D00CD0E6
:100E9800680E0001AB6FE40EE82EFED7AB2FFCD72F
:100EA80000F00001B92BEFD7CD90490E00018E6FED
:100EB800FE0E00018F6FE9EC0EF0C00E66EC30F00C
:100EC800C40E00018E6FFB0E00018F6FE9EC0EF06F
:100ED800040E0001816F1A0E806F000E0001836FEF
:100EE800030E826FEDEC29F0B180000E0001BA6F9D
:100EF800630E0001BA6501D00CD0680E0001AB6F1B
:100F0800E40EE82EFED7AB2FFCD700F00001BA2B79
:100F1800EFD7000E0001BB6F630E0001BB6501D067
:100F28000CD0680E0001AB6FE40EE82EFED7AB2F95
:100F3800FCD700F00001BB2BEFD7800E66EC30F039
:100F4800C00E66EC30F0A20E00018E6FFB0E0001A1
:100F58008F6FE9EC0EF0040E0001816FEC0E806FCC
:100F6800000E0001836F030E826FEDEC29F0000E76
:100F78000001BC6F630E0001BC6501D00CD0680E87
:100F88000001AB6FE40EE82EFED7AB2FFCD700F0C4
:100F98000001BC2BEFD7000E0001BD6F630E0001EE
:100FA800BD6501D00CD0680E0001AB6FE40EE82ED1
:100FB800FED7AB2FFCD700F00001BD2BEFD7800E7A
:100FC80066EC30F0C00E66EC30F0C40E00018E6F97
:100FD800FB0E00018F6FE9EC0EF0040E0001816F2B
:100FE8001A0E806F000E0001836F030E826FEDEC06
:100FF80029F0000E0001BE6F630E0001BE6501D02E
:101008000CD0680E0001AB6FE40EE82EFED7AB2FB4
:10101800FCD700F00001BE2BEFD7000E0001BF6F18
:10102800630E0001BF6501D00CD0680E0001AB6FE4
:10103800E40EE82EFED7AB2FFCD700F00001BF2B43
:10104800EFD7B190F29E010E66EC30F0680E000109
:10105800AB6FE40EE82EFED7AB2FFCD700F0800E66
:1010680066EC30F0C50E00018E6FFE0E00018F6F2A
:10107800E9EC0EF0C00E66EC30F0A70E00018E6FA2
:10108800FE0E00018F6FE9EC0EF08B80000E000160
:10109800C06F630E0001C06501D00CD0680E00015E
:1010A800AB6FE40EE82EFED7AB2FFCD700F00001A3
:1010B800C02BEFD7000E0001C16F630E0001C165A0
:1010C80001D00CD0680E0001AB6FE40EE82EFED7FD
:1010D800AB2FFCD700F00001C12BEFD7800E66ECD8
:1010E80030F0C00E66EC30F0980E00018E6FFE0EE8
:1010F80000018F6FE9EC0EF0000E0001C56F000EC5
:10110800C46F0001C5BF08D0100E0001C45D270ED2
:101118000001C559D8B00DD08B801A0EE82EFED725
:1011280000D08B90F00EE82EFED70001C44BC52BE3
:10113800E8D7000E0001C26F630E0001C26501D03E
:101148000CD0680E0001AB6FE40EE82EFED7AB2F73
:10115800FCD700F00001C22BEFD7000E0001C36FCF
:10116800630E0001C36501D00CD0680E0001AB6F9F
:10117800E40EE82EFED7AB2FFCD700F00001C32BFE
:10118800EFD7030E0001FC6F12000101315101017C
:101198003211D8B412001F0E00019C6F710E0001AD
:1011A8009B6F1E0EE82EFED79B2FFCD79C2FFAD7DD
:1011B80000F0000E0001EB6F000EEA6F0001DA513B
:1011C8000001DB11D8B431D0000E0001836F030E8B
:1011D800826F95EC28F0E2C0DCF0E3C0DDF0680E29
:1011E80000019B6FE40EE82EFED79B2FFCD700F082
:1011F800000E0001836F030E826F95EC28F0010E3C
:101208000001A46F0001DC510001DD11D8A409D050
:101218000001E2510001E311D8A403D0000E00013F
:10122800A46FA4C0DCF00001DD6BE0C09DF0E1C05C
:101238009EF08B8E000E0001BF6F0A0EBE6F00017C
:10124800DA510001DB11D8A4E3D0020E0001876F48
:10125800580E866FBEC088F0BFC089F032EC27F008
:10126800000186510001B16F000E0001B36F000E3E
:10127800B26F000E0001B56F000EB46F000E0001D2
:10128800AA6F000EA96F0001BE510001A95D0001FF
:10129800AA51800A00019B6F0001BF51800A00011A
:1012A8009B59D8B012D00001B1518AEC2FF0BDEC97
:1012B8002CF00001DE510001B2270001DF510001CE
:1012C800B3230001A94BAA2BDED78B9E090E000180
:1012D8009C6F1E0E00019B6FE40EE82EFED79B2F1D
:1012E800FCD79C2FFAD700F08B8E000E0001AC6F54
:1012F800000EAB6F0001BE510001AB5D0001AC51A7
:10130800800A00019B6F0001BF51800A00019B59B0
:10131800D8B012D00001B1518AEC2FF0BDEC2CF0FE
:101328000001DE510001B4270001DF510001B5239F
:101338000001AB4BAC2BDED78B9E9A0E0001926F4F
:10134800990E0001936F3E0E0001946FBEC088F0A5
:10135800BFC089F0B2C086F0B3C087F032EC27F086
:1013680086C08EF087C08FF02CEC2DF08EC095F0E3
:101378008FC096F090C097F0CEEC26F00001D8B060
:1013880002D0010E01D0000E0001B26FB36B9A0EAD
:101398000001926F990E0001936F3E0E0001946F49
:1013A800BEC088F0BFC089F0B4C086F0B5C087F071
:1013B80032EC27F086C08EF087C08FF02CEC2DF031
:1013C8008EC095F08FC096F090C097F0CEEC26F0C6
:1013D8000001D8B002D0010E01D0000E0001B46F98
:1013E800B56B010E0001A56F0001B2510001B311E8
:1013F800D8A409D00001B4510001B511D8A403D074
:10140800000E0001A56FA5C0DCF00001DD6BE3D084
:10141800010E0001876F900E866FBEC088F0BFC0B6
:1014280089F032EC27F0000186510001A36F000E0D
:101438000001BD6F000EBC6F0001BDBF0AD00001E6
:10144800BD5106E1020E0001BC5DD8B0C4D001D088
:10145800C2D08B8E000E0001AE6F000EAD6F000182
:10146800BE510001AD5D0001AE51800A00019B6FC5
:101478000001BF51800A00019B59D8B01AD0000161
:10148800A3518AEC2FF0BDEC2CF0D8900001BC35AC
:10149800D96E0001BD35DA6EB60ED926000EDA22F5
:1014A8000001DE51DE26DF51DD220001AD4BAE2BFF
:1014B800D6D78B9E090E00019C6F1E0E00019B6FF4
:1014C800E40EE82EFED79B2FFCD79C2FFAD700F00E
:1014D8009A0E0001926F990E0001936F3E0E000163
:1014E800946FBEC088F0BFC089F0D8900001BC35A9
:1014F800D96E0001BD35DA6EB60ED926000EDA2295
:10150800DECF86F0DDCF87F032EC27F086C08EF094
:1015180087C08FF02CEC2DF08EC095F08FC096F020
:1015280090C097F0CEEC26F00001D8B002D0010EA2
:1015380001D0000E00019B6F9C6BD8900001BC3558
:10154800D96E0001BD35DA6EB60ED926000EDA2244
:101558009BC0DEFF9CC0DDFF0001BC510001BD1136
:10156800D8A410D0D8900001BC35D96E0001BD3583
:10157800DA6EB60ED926000EDA22DECFDCF0DDCF29
:10158800DDF01FD0010E0001A66F0001DC51000143
:10159800DD11D8A412D0D8900001BC35D96E000155
:1015A800BD35DA6EB60ED926000EDA22DE50DE1010
:1015B800D8A403D0000E0001A66FA6C0DCF000017D
:1015C800DD6B0001BC4BBD2B0001BDBF42D7000144
:1015D800BD5101E137D7DCC09FF0DDC0A0F00001AC
:1015E800DA510001DB11D8B443D0000E0001836F3B
:1015F800030E826F95EC28F0010E0001A76F000121
:10160800DC510001DD11D8A409D00001E25100012C
:10161800E311D8A403D0000E0001A76FA7C0DCF027
:101628000001DD6B680E00019B6FE40EE82EFED70B
:101638009B2FFCD700F0000E0001836F030E826F12
:1016480095EC28F0010E0001A86F0001DC510001A3
:10165800DD11D8A409D00001E2510001E311D8A49A
:1016680003D0000E0001A86FA8C0DCF00001DD6BFC
:10167800E0C0A1F0E1C0A2F00001DA510001DB11E5
:10168800D8A416D00001DC510001DD11D8A408D07F
:101698000101274B282B000E01012C6F000E07D0EB
:1016A8000101294B2A2B000E01012C6F010E2B6F13
:1016B8000001DA510001DB11D8B416D00001DC5169
:1016C8000001DD11D8A408D00101254B262B000EFE
:1016D80001012C6F020E07D00101234B242B000EB1
:1016E80001012C6F030E2B6F0101355101013611D9
:1016F800D8B4FAD7000E0001B06F000EAF6F00012A
:10170800B0BF08D0100E0001AF5D270E0001B05920
:10171800D8B00DD08B801A0EE82EFED700D08B9053
:10172800F00EE82EFED70001AF4BB02BE8D78B9018
:10173800000E0101346F010E336F150E00019C6F0E
:101748004B0E00019B6FBE0EE82EFED79B2FFCD7D9
:101758009C2FFAD700F08B800001EC510001ED11AD
:10176800D8A432D0000E0001BB6F000EBA6F000182
:10177800BBBF08D00001BB5126E12E0E0001BA5DA7
:10178800D8B021D08AB404D000019B6B9B2B02D027
:1017980000019B6B00019B479B478A5000019B19E6
:1017A800FB0B9B198A6E0001BA5100082D0F8AECB9
:1017B8002FF00001BA4BBB2B0001BBBFE3D70001E0
:1017C800BB5101E1DAD78A84000E0101326F000EA5
:1017D800316F12000101395101013A11D8B46AD0B0
:1017E8009D809D82A08226EC25F0010E66EC30F0EB
:1017F800680E0001B16FE40EE82EFED7B12FFCD7BA
:1018080000F0EFEC27F08B8A8B8C000E0001816FC3
:10181800000E806F29EC30F00001FD6F0001FD51D2
:101828000B0D010EF3240001B36F000EF42000012C
:10183800B46F7F0E0001B56FB3C0ABF0B4C0ACF0AD
:10184800B5C0ADF041EC24F08A94000E0001C26FDF
:10185800000EC16F0001C2BF08D00001C25126E1CD
:101868002E0E0001C15DD8B021D08AB404D0000189
:10187800B16BB12B02D00001B16B0001B147B14788
:101888008A500001B119FB0BB1198A6E0001C151D0
:1018980000082D0F8AEC2FF00001C14BC22B00016C
:1018A800C2BFE3D70001C25101E1DAD78A842CEC28
:1018B8002AF012000001EE510001EF11D8A41DD04A
:1018C800000E0001876F000E866FACEC29F0000156
:1018D800EE510001EF11D8B412000001FE4BFF2BAE
:1018E8000C0E0001FE190001FF11D8A41200000E11
:1018F8000001ED6F010EEC6F120001012F51010183
:101908003011D8B41200000E0101386F010E376F84
:10191800000E0001EF6F000EEE6F290E0001B26F8E
:10192800960E0001B16F7F0EE82EFED7B12FFCD7BF
:10193800B22FFAD78A94000E0001EB6F010EEA6FFE
:10194800EE0E8AEC2FF013EC2EF0E4C0DAF0E5C0CE
:10195800DBF09D920001DA510001DB11D8B41DD0F3
:10196800000E0001B86F000EB76F0001B8BF08D0B5
:10197800B80E0001B75D0B0E0001B859D8B02AD0D7
:101988008988C80EE82EFED78998420EE82EFED721
:1019980000D00001B74BB82BE8D7000E0001BA6F92
:1019A800000EB96F0001BABF08D0B80E0001B95DCA
:1019B8000B0E0001BA59D8B00DD089889A0EE82EBE
:1019C800FED700D08998700EE82EFED70001B94BDB
:1019D800BA2BE8D79D820F0E0001B26F350E0001B9
:1019E800B16F510EE82EFED7B12FFCD7B22FFAD720
:1019F800000E0001836F000E826F95EC28F0000145
:101A0800E2050001E311D8A4DAD1050E0001B26F96
:101A18000F0E0001B16FF10EE82EFED7B12FFCD7E3
:101A2800B22FFAD7000E0001836F000E826F95EC7B
:101A380028F00001E2050001E311D8A458D013EC06
:101A48002EF0010E0001B66F0001DA510001DB1122
:101A5800D8A409D00001E4510001E511D8A403D0AD
:101A6800000E0001B66FB6C0DAF00001DB6B0001B2
:101A7800DA510001DB11D8B41DD0000E0001BC6F93
:101A8800000EBB6F0001BCBF08D0B80E0001BB5DE3
:101A98000B0E0001BC59D8B02AD08988C80EE82E90
:101AA800FED78998420EE82EFED700D00001BB4B26
:101AB800BC2BE8D7000E0001BE6F000EBD6F000101
:101AC800BEBF08D0B80E0001BD5D0B0E0001BE59A7
:101AD800D8B00DD089889A0EE82EFED700D0899804
:101AE800700EE82EFED70001BD4BBE2BE8D7110EB5
:101AF8000001B26F3C0E0001B16FCB0EE82EFED78D
:101B0800B12FFCD7B22FFAD7000E0001C46F000E18
:101B1800C36F4ED1000E0001836F000E826F95ECEB
:101B280028F0030E0001C3190001C411D8B407D06E
:101B3800040E0001C3190001C411D8A406D0000E78
:101B48000001EB6F000EEA6F6DD0050E0001C3199E
:101B58000001C411D8B407D0060E0001C319000152
:101B6800C411D8A402D08A845DD0070E0001C3191D
:101B78000001C411D8B415D0080E0001C319000122
:101B8800C411D8B40ED0090E0001C3190001C41144
:101B9800D8B407D00A0E0001C3190001C411D8A493
:101BA80013D0000E0001EB6F010EEA6F090E000161
:101BB800B26F1E0E0001B16FE40EE82EFED7B12FF2
:101BC800FCD7B22FFAD72DD00001C3B12BD08AB4DD
:101BD80004D00001B16BB12B02D00001B16B000140
:101BE800B147B1478A500001B119FB0BB1198A6E90
:101BF8000001EA510001EB11D8A402D0010E01D076
:101C0800000E0001EA6FEB6B090E0001B26F1E0EA9
:101C18000001B16FE40EE82EFED7B12FFCD7B22F2A
:101C2800FAD700F00001E2050001E311D8A49FD023
:101C38000F0E0001B26F350E0001B16F510EE82E84
:101C4800FED7B12FFCD7B22FFAD7000E0001836F51
:101C5800000E826F95EC28F00001E2050001E31107
:101C6800D8A481D00001DA510001DB11D8B411D019
:101C780089880D0E0001B26F2D0E0001B16FD70ECD
:101C8800E82EFED7B12FFCD7B22FFAD700D089980B
:101C98006AD09D92000E0001C06F000EBF6F000158
:101CA800C0BF41D0B80E0001BF5D0B0E0001C05986
:101CB800D8B058D038D08988C80EE82EFED7899871
:101CC800420EE82EFED71CD08988D50EE82EFED706
:101CD80000F08998350EE82EFED71DD08988E20ECF
:101CE800E82EFED700D08998280EE82EFED736D0E9
:101CF8008988F00EE82EFED789981A0EE82EFED7AE
:101D080000D02CD08988FD0EE82EFED700F08998E7
:101D1800850EE82EFED700F021D08988A00E00D0CD
:101D2800E82EFDD71BD0C3C0B1F0C4C0B2F000018B
:101D3800B251000AD8A4F1D70001B151000AD8B4B1
:101D4800BAD7010AD8B4C0D7030AD8B4C7D7010A8A
:101D5800D8B4CED7070AD8B4D5D7DFD70001BF4B40
:101D6800C02B9DD79D8289980001C34BC42B0001CD
:101D7800E2510001E311D8A41BD01F0E0001B26F7D
:101D8800710E0001B16F1E0EE82EFED7B12FFCD7E1
:101D9800B22FFAD700F0000E0001836F000E826F99
:101DA80095EC28F00001E2050001E311D8A406D063
:101DB8000001E2050001E311D8B4ACD68A94000E04
:101DC8000101326F010E316F1200900E0001A16FF8
:101DD800000E0001A26F05D2250E0001A819D8B483
:101DE80005D00001A8515EEC30F0FBD1000E0001D7
:101DF800AA6F000EA96F000E0001A76F05D00001A1
:101E0800A78500018E4B8F2B8EC0F6FF8FC0F7FF82
:101E1800F86A0800F550300AD8B4F1D78EC0F6FF3A
:101E28008FC0F7FFF86A0800F55075EC2FF0D8A0BE
:101E3800D2D0000E0001AA6F000EA96FA9C080F0D1
:101E4800AAC081F0000E0001836F0A0E826FDFECDA
:101E58002DF080C0A9F081C0AAF0D00E00019A6FC1
:101E6800FF0E00019B6F8EC0F6FF8FC0F7FFF86A68
:101E78000800F55000019C6F9D6B00019A5100010C
:101E88009C2700019B5100019D2300019C510001EA
:101E9800A92700019D510001AA2300018E4B8F2B19
:101EA8008EC0F6FF8FC0F7FFF86A0800F55075EC92
:101EB8002FF0D8A090D0C2D7A1C0D9FFA2C0DAFF16
:101EC800DECF9FF0DDCFA0F0020E0001A127000EAB
:101ED800A22300019F510001A011D8A406D0B50E7D
:101EE80000019F6FFF0E0001A06F000E0001A46F9C
:101EF800000EA36F03D00001A34BA42B0001A35134
:101F080000019F2500019A6F0001A4510001A02142
:101F180000019B6F9AC0F6FF9BC0F7FF000EF86E9A
:101F28000F0EF76403D00800F55005D0F6CFE9FF8F
:101F3800F7CFEAFFEF500009D8A4DDD70001A95177
:101F48000001A35D0001AA510001A459D8B009D02D
:101F58000001A3510001A95F0001A4510001AA5B7F
:101F680009D0000E0001AA6F000EA96F03D0200E41
:101F78005EEC30F00001A907D8A0AA070001A92942
:101F8800F6E10001AA29D8B417D0F1D79FC0F6FF0F
:101F9800A0C0F7FF000EF86E0F0EF76403D008001C
:101FA800F55005D0F6CFE9FFF7CFEAFFEF505EEC2A
:101FB80030F000019F4BA02B0001A307D8A0A40775
:101FC8000001A329E3E10001A429D8B40AD1DED78E
:101FD8000001A78D1DD08EC0F6FF8FC0F7FF00014E
:101FE8008E4B8F2BF86A0800F5CFA8F00001A85196
:101FF800000AD8B41200640AD8B40AD00D0AD8B4BA
:1020080007D01A0AD8B458D7060AD8B4E1D7E9D005
:102018000001A7BD19D0A1C0D9FFA2C0DAFFDECF49
:10202800A5F0DDCFA6F0020E0001A127000EA22325
:102038000001A6AF16D0030E0001A7130001A56D7D
:10204800A61FD8B0A62B0DD0A1C0D9FFA2C0DAFF19
:10205800DECFA5F0DDCFA6F0020E0001A127000E0D
:10206800A223010E0001A86F050E0001A819D8B41B
:1020780019D00001A851020DB80EF324F66EFA0E1D
:10208800F420F76EF86A000EF8220900F5500001F6
:10209800A55D0900F5500001A659D8A003D000019C
:1020A800A82BE2D70001A9510001AA11D8B40BD07E
:1020B800A7C09AF0030E00019A17D8B404D0000103
:1020C800A907D8A0AA07800E0001A8BF7F0E0001AB
:1020D8009A6F0001A9510001A85D0001AA51800A68
:1020E80000019A59D8B00BD00001A8510001A95F8E
:1020F800000E0001A8BFFF0E0001AA5B05D0000E6C
:102108000001AA6F000EA96F0001A7A518D0A7C0EB
:102118009AF0030E00019A17D8B403D02D0E5EEC86
:1021280030F00001A9510001AA11D8B425D0300E11
:102138005EEC30F00001A907D8A0AA07F2D7000189
:10214800A9510001AA11D8B40DD0200E5EEC30F0D0
:102158000001A907D8A0AA070001A9510001AA11E6
:10216800D8A4F3D7A7C09AF0030E00019A17D8B4E1
:1021780003D02D0E5EEC30F0A8C09EF02CD00001EC
:102188009E51020DB80EF324F66EFA0EF420F76E87
:10219800F86A000EF8220900F5CF82F00A00F5CFA0
:1021A80083F0A5C080F0A6C081F068EC2AF080C05A
:1021B80087F081C088F0000E00018A6F0A0E896FCF
:1021C800B1EC2BF000018751300F0001A86F00011E
:1021D800A8515EEC30F000019E0700019E29D8A4AA
:1021E800CED78EC0F6FF8FC0F7FF00018E4B8F2B26
:1021F800F86A0800F5CFA8F00001A851D8B4120079
:10220800EBD5010E66EC30F0680E0001AB6FE40E02
:10221800E82EFED7AB2FFCD700F0800E66EC30F02E
:10222800C30E00018E6FFC0E00018F6FE9EC0EF0FB
:10223800CD80B180010E0001FC6F000E786E000E9B
:10224800776E000E7C6E000E7B6E2CEC2AF03D0E35
:102258000001AC6FE10E0001AB6F3F0EE82EFED718
:10226800AB2FFCD7AC2FFAD700D0010E0001816F3D
:10227800900E806F000E0001836F010E826FEDECEF
:1022880029F0040E0001816F1A0E806F000E000104
:10229800836F030E826FEDEC29F01F0E0001AC6F07
:1022A800710E0001AB6F1E0EE82EFED7AB2FFCD7C8
:1022B800AC2FFAD700F0040E0001816FEC0E806F8E
:1022C800000E0001836F030E826FEDEC29F01D0EE6
:1022D8000001AC6F690E0001AB6FA50EE82EFED7AA
:1022E800AB2FFCD7AC2FFAD7040E0001816F1A0E62
:1022F800806F000E0001836F030E826FEDEC29F0F2
:102308001F0E0001AC6F710E0001AB6F1E0EE82EA0
:10231800FED7AB2FFCD7AC2FFAD700F0030E000185
:10232800816F520E806F000E0001836F010E826F65
:10233800EDEC29F0040E0001816F1A0E806F000E7B
:102348000001836F030E826FEDEC29F01F0E000170
:10235800AC6F710E0001AB6F1E0EE82EFED7AB2FCF
:10236800FCD7AC2FFAD700F0040E0001816FEC0EF9
:10237800806F000E0001836F030E826FEDEC29F071
:102388001D0E0001AC6F690E0001AB6FA50EE82EA3
:10239800FED7AB2FFCD7AC2FFAD7040E0001816F04
:1023A8001A0E806F000E0001836F030E826FEDEC32
:1023B80029F01F0E0001AC6F710E0001AB6F1E0EED
:1023C800E82EFED7AB2FFCD7AC2FFAD700F0010EC2
:1023D8000001816F900E806F000E0001836F010E67
:1023E800826FEDEC29F0040E0001816F1A0E806FE8
:1023F800000E0001836F030E826FEDEC29F01F0EB3
:102408000001AC6F710E0001AB6F1E0EE82EFED7F7
:10241800AB2FFCD7AC2FFAD700F0040E0001816F68
:10242800EC0E806F000E0001836F030E826FEDECDF
:1024380029F01D0E0001AC6F690E0001AB6FA50EEF
:10244800E82EFED7AB2FFCD7AC2FFAD7040E00012D
:10245800816F1A0E806F000E0001836F030E826F6A
:10246800EDEC29F03D0E0001AC6FE10E0001AB6F01
:102478003F0EE82EFED7AB2FFCD7AC2FFAD700D0F3
:10248800060E0001816F0E0E806F000E0001836F33
:10249800010E826FEDEC29F0040E0001816F1A0E17
:1024A800806F000E0001836F030E826FEDEC29F040
:1024B8001F0E0001AC6F710E0001AB6F1E0EE82EEF
:1024C800FED7AB2FFCD7AC2FFAD700F0050E0001D2
:1024D800816F6E0E806F000E0001836F030E826F96
:1024E800EDEC29F01D0E0001AC6F690E0001AB6F19
:1024F800A50EE82EFED7AB2FFCD7AC2FFAD7040ECB
:102508000001816F1A0E806F000E0001836F030EA9
:10251800826FEDEC29F01F0E0001AC6F710E000107
:10252800AB6F1E0EE82EFED7AB2FFCD7AC2FFAD719
:1025380000F0090E0001816FC40E806F000E0001CB
:10254800836F010E826FEDEC29F0040E0001816F9C
:102558001A0E806F000E0001836F030E826FEDEC80
:1025680029F01F0E0001AC6F710E0001AB6F1E0E3B
:10257800E82EFED7AB2FFCD7AC2FFAD700F0050E0C
:102588000001816F6E0E806F000E0001836F030ED5
:10259800826FEDEC29F01D0E0001AC6F690E000191
:1025A800AB6FA50EE82EFED7AB2FFCD7AC2FFAD712
:1025B800040E0001816F1A0E806F000E0001836FF8
:1025C800030E826FEDEC29F01F0E0001AC6F710E47
:1025D8000001AB6F1E0EE82EFED7AB2FFCD7AC2F39
:1025E800FAD700F01BEC30F0030E0001FC6F12006C
:1025F800010E66EC30F0680E0001AB6FE40EE82EB9
:10260800FED7AB2FFCD700F0800E66EC30F0AD0E95
:1026180000018E6FFF0E00018F6FE9EC0EF0C00E07
:1026280066EC30F03A0E00018E6FFF0E00018F6FDE
:10263800E9EC0EF0050E0001AC6F0F0E0001AB6F58
:10264800F10EE82EFED7AB2FFCD7AC2FFAD781A21C
:10265800FED781B2FED7010E66EC30F0680E00019D
:10266800AB6FE40EE82EFED7AB2FFCD700F0800E40
:1026780066EC30F08B8A5CD0000E5FEC2FF0C35014
:10268800C4CFABF00001AC6BABC0ACF00001AB6BDE
:102698000001AB110001AD6F0001AC510001AE6F3C
:1026A8000001AEBF0AD0BD0E0001AD5D020E0001F3
:1026B800AE59D8A002D0010E01D0000E0001E26F81
:1026C800E36B010E66EC30F0680E0001AB6FE40EB0
:1026D800E82EFED7AB2FFCD700F0800E66EC30F06A
:1026E800250E00018E6FFB0E00018F6FE2C090F087
:1026F800E3C091F0E9EC0EF0C00E66EC30F0250E68
:1027080000018E6FFE0E00018F6FADC090F0AEC05D
:1027180091F0E9EC0EF0050E0001AC6F0F0E000110
:10272800AB6FF10EE82EFED7AB2FFCD7AC2FFAD744
:1027380081A2A2D78B9A81B2FED78B8C5CD0030E74
:102748005FEC2FF0C350C4CFABF00001AC6BABC053
:10275800ACF00001AB6B0001AB110001AF6F0001E1
:10276800AC510001B06F0001B0BF0AD00001B051F8
:1027780005E1FB0E0001AF5DD8A002D0010E01D02B
:10278800000E0001E26FE36B010E66EC30F0680E9C
:102798000001AB6FE40EE82EFED7AB2FFCD700F09C
:1027A800800E66EC30F0130E00018E6FFB0E0001F8
:1027B8008F6FE2C090F0E3C091F0E9EC0EF0C00E2C
:1027C80066EC30F0250E00018E6FFE0E00018F6F53
:1027D800AFC090F0B0C091F0E9EC0EF0050E00012A
:1027E800AC6F0F0E0001AB6FF10EE82EFED7AB2FCA
:1027F800FCD7AC2FFAD781A2A2D781380F0B0F0ACA
:10280800D8B41DD081CFABF00001AB3B0F0EAB1796
:10281800D8A412D08BBC04D00001AB6BAB2B02D078
:102828000001AB6B0001AB3BAB47AB478B500001E2
:10283800AB19BF0BAB198B6E81A2DDD7FDD78B9C73
:1028480081B2FED7010E66EC30F0680E0001AB6F66
:10285800E40EE82EFED7AB2FFCD700F0800E66EC16
:1028680030F0B60E00018E6FFE0E00018F6FE9EC9E
:102878000EF0050E0001AC6F0F0E0001AB6FF10EEC
:10288800E82EFED7AB2FFCD7AC2FFAD721D0E3EC3C
:102898002CF0800E66EC30F0C00E66EC30F0390E8D
:1028A80000018E6FFE0E00018F6FE4C090F0E5C04E
:1028B80091F0E9EC0EF0050E0001AC6F0F0E00016F
:1028C800AB6FF10EE82EFED7AB2FFCD7AC2FFAD7A3
:1028D80081A2DDD781B2FED7010E66EC30F0680E1A
:1028E8000001AB6FE40EE82EFED7AB2FFCD700F04B
:1028F800800E66EC30F0860E00018E6FFF0E000130
:102908008F6FE9EC0EF0050E0001AC6F0F0E0001A1
:10291800AB6FF10EE82EFED7AB2FFCD7AC2FFAD752
:10292800010E66EC30F0680E0001AB6FE40EE82E85
:10293800FED7AB2FFCD700F0800E66EC30F0860E89
:1029480000018E6FFF0E00018F6FE9EC0EF01BD0B7
:10295800800E66EC30F0C00E66EC30F0A40E00017C
:102968008E6FFF0E00018F6F80A404D00001AB6B47
:10297800AB2B02D00001AB6B0001AB510001906F93
:10298800916BE9EC0EF081A2E3D781380F0B0F0AA7
:10299800D8B412008B8E1BD0800E66EC30F0C00EBF
:1029A80066EC30F0A40E00018E6FFF0E00018F6FF1
:1029B80080A404D00001AB6BAB2B02D00001AB6B41
:1029C8000001AB510001906F916BE9EC0EF081B200
:1029D800E3D78B9EA5D7A4EC2AF0000E486E000E14
:1029E800476E48BE06D0485031E1070E475CD8B064
:1029F8002DD01C0E4724D96E010E4820DA6EDF5008
:102A08002A6E2A3A0F0E2A160F0E2A162A500A0D77
:102A18001C0E4724D96E010E4820DA6EDF500F0BCA
:102A28002B6E2C6AF3502B26F4502C22D890473466
:102A3800D96E4834DA6E2D0ED926000EDA222BC054
:102A4800DEFF2CC0DDFF474A482ACBD710C101F072
:102A580011C102F0000E046E3C0E036EB2EC2FF0B2
:102A680001C02AF002C02BF012C101F013C102F01C
:102A78000E0E046E100E036EB2EC2FF001502A26D3
:102A880002502B2201010E512A243B6E01010F51E5
:102A98002B203C6E2FC001F030C002F0000E046EF7
:102AA8003C0E036EB2EC2FF001C02AF002C02BF0EE
:102AB80031C001F032C002F00E0E046E100E036E2B
:102AC800B2EC2FF001502A2602502B222D502A2436
:102AD8003D6E2E502B203E6E3BC02AF03CC02BF0A2
:102AE8002A1E2B1E2A4A2B2A3D502A24456E3E5068
:102AF8002B20466E45C0FAF046C0FBF00101375165
:102B080001013811D8B409D0FAC047F1FBC048F127
:102B1800000E0101386F000E376F0001FBBF36D081
:102B28000001FB5105E1140E0001FA5DD8A02ED07A
:102B38008AB411D00101494B4A2B020E01014919EF
:102B480001014A11D8A422D0000E01014A6F000EDB
:102B5800496F8A841BD0FAC001F0FBC002F0000E56
:102B6800046E140E036EDDEC2AF001500210D8A496
:102B78000DD08AB403D02A6A2A2A01D02A6A2A46A2
:102B88002A468A502A18FB0B2A188A6E0001FBBFB6
:102B980027D00001FB5105E1140E0001FA5DD8A011
:102BA8001FD00001FBBF08D00001FB5119E1190E2D
:102BB8000001FA5DD8B014D00001FE510001FF11E8
:102BC800D8A40ED08A80614A622A050E6118621064
:102BD800D8A45FD0000E626E000E616E8A9059D044
:102BE8000001FBBF56D00001FB5105E11E0E00019C
:102BF800FA5DD8A04ED0FAC001F0FBC002F0000E7A
:102C0800046E1E0E036EDDEC2AF001500210D8A4EB
:102C18000CD08AB003D02A6A2A2A01D02A6A8A509C
:102C28002A18FE0B2A188A6E16D08AA019D0614A73
:102C3800622A040E61186210D8A406D08A90FAC0DD
:102C48004BF1FBC04CF125D00001EE510001EF1112
:102C5800D8B41FD08A90000E626E000E616E19D033
:102C68004BC12AF04CC12BF02A1E2B1E2A4A2B2AB4
:102C78000001FA512A260001FB512B220A0E2A18BC
:102C88002B10D8A406D00001EE510001EF11D8B4E2
:102C98008A8047C12AF048C12BF02A1E2B1E2A4AD7
:102CA8002B2A0001FA512A260001FB512B222A0E59
:102CB8002A182B10D8B407D0B30E0001FA19000156
:102CC800FB11D8A403D0020E0001FC6F0E0E046E97
:102CD800100E036E45C001F046C002F04EEC2DF018
:102CE80001C006F002C007F0000E096E3C0E086E27
:102CF8006DEC2CF006C03FF007C040F00E0E046EDD
:102D0800100E036E45C001F046C002F04EEC2DF0E7
:102D180001C043F002C044F043C001F044C002F0D7
:102D2800000E046E3C0E036E4EEC2DF001C041F017
:102D380002C042F0800E74EC30F0590E0D6EFE0E9B
:102D48000E6EB9EC16F0C00E74EC30F0690E0D6E14
:102D5800FE0E0E6E3FC00FF040C010F041C011F0E3
:102D680042C012F0B9EC16F012000F0E206E000EE1
:102D7800216EA4D1250E2718D8B404D027506EECA4
:102D880030F09CD1000E296E000E286E000E266EC3
:102D980003D026840D4A0E2A0DC0F6FF0EC0F7FF99
:102DA800F86A0800F550300AD8B4F3D70DC0F6FF1A
:102DB8000EC0F7FFF86A0800F5500CEC30F0D8A008
:102DC800A6D0000E296E000E286E28C001F029C07A
:102DD80002F0000E046E0A0E036EB2EC2FF001C072
:102DE80028F002C029F0D00E196EFF0E1A6E0DC021
:102DF800F6FF0EC0F7FFF86A0800F5501B6E1C6A54
:102E080019501B261A501C221B5028261C502922F8
:102E18000D4A0E2A0DC0F6FF0EC0F7FFF86A08002B
:102E2800F5500CEC30F0D8A072D0CFD720C0D9FF25
:102E380021C0DAFFDECF1EF0DDCF1FF0020E202604
:102E4800000E21221E501F10D8A404D0B50E1E6EED
:102E5800FF0E1F6E000E236E000E226E02D0224A55
:102E6800232A22501E24196E23501F201A6E19C0BF
:102E7800F6FF1AC0F7FF000EF86E0F0EF76403D0C6
:102E88000800F55005D0F6CFE9FFF7CFEAFFEF507D
:102E98000009D8A4E4D72850225C29502358D8B078
:102EA80005D02250285E2350295A08D0000E296EDA
:102EB800000E286E03D0200E6EEC30F02806D8A045
:102EC80029062828F8E12928D8B416D0F4D71EC036
:102ED800F6FF1FC0F7FF000EF86E0F0EF76403D061
:102EE8000800F55005D0F6CFE9FFF7CFEAFFEF501D
:102EF8006EEC30F01E4A1F2A2206D8A0230622288C
:102F0800E6E12328D8B4DAD0E2D7268C1BD00DC04E
:102F1800F6FF0EC0F7FF0D4A0E2AF86A0800F5CF33
:102F280027F02750000AD8B41200640AD8B40AD08F
:102F38000D0AD8B407D01A0AD8B478D7060AD8B474
:102F4800E4D7BCD026BC15D020C0D9FF21C0DAFFF9
:102F5800DECF24F0DDCF25F0020E2026000E212240
:102F680025AE13D0030E2612246C251ED8B0252AB0
:102F78000CD020C0D9FF21C0DAFFDECF24F0DDCF8E
:102F880025F0020E2026000E2122010E276E050EC6
:102F98002718D8B415D02750020DB80EF324F66EB2
:102FA800FA0EF420F76EF86A000EF8220900F550C0
:102FB800245C0900F5502558D8A002D0272AE7D765
:102FC80028502910D8B409D026C019F0030E1916B4
:102FD800D8B403D02806D8A02906800E27BE7F0EB5
:102FE800196E2850275C2950800A1958D8B007D084
:102FF8002750285E000E27BEFF0E295A04D0000E67
:10300800296E000E286E26A414D026C019F0030ECF
:103018001916D8B403D02D0E6EEC30F028502910B4
:10302800D8B41ED0300E6EEC30F02806D8A0290691
:10303800F5D728502910D8B40AD0200E6EEC30F0FD
:103048002806D8A0290628502910D8A4F6D726C0C3
:1030580019F0030E1916D8B403D02D0E6EEC30F00B
:1030680027C01DF027D01D50020DB80EF324F66EB0
:10307800FA0EF420F76EF86A000EF8220900F5CF70
:1030880008F00A00F5CF09F024C006F025C007F0C3
:103098006DEC2CF006C001F007C002F0000E046EC3
:1030A8000A0E036E4EEC2DF00150300F276E27509C
:1030B8006EEC30F01D061D28D8A4D5D70DC0F6FF3C
:1030C8000EC0F7FF0D4A0E2AF86A0800F5CF27F060
:1030D8002750D8B412004ED68B8AF28E010E00010A
:1030E800FC6F000E0001EB6F000EEA6F000E746EAD
:1030F800000E736E8A969D82CA84000E7A6E000E48
:10310800796E000E0001B66F010EB56F010E66EC08
:1031180030F0680E0001AB6FE40EE82EFED7AB2F3F
:10312800FCD700F0800E66EC30F02A0E00018E6F9E
:10313800FC0E00018F6FE9EC0EF058D0000E5FEC2A
:103148002FF0C350C4CFABF00001AC6BABC0ACF0F8
:103158000001AB6B0001AB110001AD6F0001AC5178
:103168000001AE6F0001AEBF0AD0BD0E0001AD5D1B
:10317800020E0001AE59D8A002D0010E01D0000EF7
:103188000001E26FE36B010E66EC30F0680E00019F
:10319800AB6FE40EE82EFED7AB2FFCD700F0800E05
:1031A80066EC30F02A0E00018E6FFC0E00018F6F66
:1031B800E9EC0EF0C00E66EC30F0190E00018E6FCF
:1031C800FC0E00018F6FADC090F0AEC091F0E9EC3D
:1031D8000EF0050E0001AC6F0F0E0001AB6FF10E83
:1031E800E82EFED7AB2FFCD7AC2FFAD781B259D037
:1031F800A5D7000E5FEC2FF0C350C4CFABF0000191
:10320800AC6BABC0ACF00001AB6B0001AB110001C3
:10321800AF6F0001AC510001B06F0001B0BF0AD020
:10322800BD0E0001AF5D020E0001B059D8A002D05A
:10323800010E01D0000E0001E26FE36B010E66EC97
:1032480030F0680E0001AB6FE40EE82EFED7AB2F0E
:10325800FCD700F0800E66EC30F02A0E00018E6F6D
:10326800FC0E00018F6FE9EC0EF0C00E66EC30F03A
:10327800190E00018E6FFC0E00018F6FAFC090F029
:10328800B0C091F0E9EC0EF0050E0001AC6F0F0E26
:103298000001AB6FF10EE82EFED7AB2FFCD7AC2F99
:1032A800FAD781A2A6D781380F0B0F0AD8B48FD0CE
:1032B80081CFABF00001AB3B0F0EAB17D8A412D0F7
:1032C8008AB404D00001AB6BAB2B02D00001AB6B0E
:1032D8000001AB47AB478A500001AB19FB0BAB1998
:1032E8008A6E72D081380F0B030AD8A420D000014F
:1032F800B5510001B611D8B410D0000E0001EB6F23
:10330800010E0FD00001B5510001B611D8A40DD09F
:103318000AD00001B56FB66B57D0000E0001EB6FF5
:10332800000EEA6FEFD7010EF4D7000EF2D78138FE
:103338000F0B050AD8A422D0F29E9D92000E000120
:10334800B26F000EB16F0001B2BF08D0B80E000115
:10335800B15D0B0E0001B259D8B00DD08988C80EE6
:10336800E82EFED78998420EE82EFED700D000013D
:10337800B14BB22BE8D79D82F28E26D081380F0B45
:10338800060AD8A421D0F29E9D92000E0001B46FC7
:10339800000EB36F0001B4BF08D0B80E0001B35DD2
:1033A8000B0E0001B459D8B00DD089889A0EE82EBA
:1033B800FED700D08998700EE82EFED70001B34BD7
:1033C800B42BE8D7F28E9D8281A26BD7FDD78B9A5A
:1033D8001BEC30F0030E0001FC6F120027EC29F003
:1033E80053C1BEF054C1BFF055C1C0F056C1C1F0C1
:1033F800000E0001C36F000EC26F0001C3BF08D0EA
:103408000001C35146E1070E0001C25DD8B041D0AA
:103418001C0E0001C225D96E010E0001C321DA6E0F
:10342800DF500001AB6F0001AB3B0F0EAB170F0E67
:103438000001AB170001AB510A0D1C0E0001C2259B
:10344800D96E010E0001C321DA6EDF500F0B0001A7
:10345800AC6FAD6BF3500001AC27F4500001AD2305
:10346800D8900001C235D96E0001C335DA6EAE0EB0
:10347800D926000EDA22ACC0DEFFADC0DDFF0001A8
:10348800C24BC32B0001C3BFC3D70001C35101E125
:10349800BAD7B8C0BCF0B9C0BDF0B4D0BE0E0001F8
:1034A800806F000E0001816FDA0E0001826FFF0E3F
:1034B8000001836FC4EC2DF0D4D0BE0E0001806FE4
:1034C800000E0001816FCA0E0001826FFF0E00011D
:1034D800836FC4EC2DF0C5D0BE0E0001806F000EC6
:1034E8000001816FE60E0001826FFF0E0001836FFD
:1034F800C4EC2DF0B6D0BE0E0001806F000E0001A6
:10350800816FEA0E0001826FFF0E0001836FC4EC29
:103518002DF0A7D0BE0E0001806F000E0001816F54
:10352800FA0E0001826FFF0E0001836FC4EC2DF0CC
:1035380098D0BE0E0001806F000E0001816FDE0E74
:103548000001826FFF0E0001836FC4EC2DF089D05B
:10355800BE0E0001806F000E0001816FD60E0001C3
:10356800826FFF0E0001836FC4EC2DF07AD0BE0E7F
:103578000001806F000E0001816FD20E0001826F82
:10358800FF0E0001836FC4EC2DF06BD0BE0E00015E
:10359800806F000E0001816FE20E0001826FFF0E46
:1035A8000001836FC4EC2DF05CD0BE0E0001806F6B
:1035B800000E0001816FF20E0001826FFF0E000104
:1035C800836FC4EC2DF04DD0BE0E0001806F000E4D
:1035D8000001816FF60E0001826FFF0E0001836FFC
:1035E800C4EC2DF03ED0BE0E0001806F000E00012D
:1035F800816FCE0E0001826FFF0E0001836FC4EC55
:103608002DF02FD0BCC0ABF0BDC0ACF00001AC5168
:10361800000AD8A426D00001AB51010AD8B43ED77D
:10362800030AD8B44AD7010AD8B456D7070AD8B477
:1036380062D7010AD8B46ED7030AD8B47AD7010A78
:10364800D8B486D70F0AD8B492D7010AD8B49ED76F
:10365800030AD8B4AAD7010AD8B4B6D7070AD8B487
:10366800C2D7800E66EC30F0C20E00018E6FFA0EE3
:1036780000018F6FB6C090F0B7C091F0BE0E000188
:10368800926F000E0001936FB2C094F0B3C095F032
:10369800B0C096F0B1C097F0AEC098F0AFC099F046
:1036A800E9EC0EF01200000E766E000E756E000E3C
:1036B800666E000E656E000E686E000E676E000E78
:1036C800646E000E636EF29ED2EC1DF02A502B1031
:1036D800D8A412D146D18BEC2EF043D17550761078
:1036E800D8B403D073EC2EF03CD165506610D8B432
:1036F80003D05BEC2EF035D167506810D8B431D1C7
:103708009EEC2FF02ED175507610D8B403D08BECE8
:103718002EF027D165506610D8B411D073EC2EF076
:1037280020D175507610D8B403D08BEC2EF019D177
:1037380065506610D8B403D073EC2EF012D16750E0
:103748006810D8B40ED1010E0001FC6F0AD1755073
:103758007610D8B403D043EC2EF003D16550661030
:10376800D8B403D08BEC2EF0FCD067506810D8B4D6
:10377800F8D003EC2FF0F5D075507610D8B403D0FC
:10378800A3EC2EF0EED065506610D8B403D0EBEC65
:103798002EF0E7D067506810D8B407D0000E136E2B
:1037A800010E126ED8EC2FF0DCD063506410D8B440
:1037B800D8D073EC2EF0D5D075507610D8B403D08D
:1037C80003EC2FF0CED065506610D8B403D032EC9D
:1037D8002FF0C7D067506810D8B407D0000E136E0A
:1037E800020E126ED8EC2FF0BCD063506410D8B41F
:1037F800B8D073EC2EF0B5D075507610D8B403D08D
:1038080003EC2FF0AED065506610D8B403D032EC7C
:103818002FF0A7D067506810D8B407D0000E136EE9
:10382800020E126ED8EC2FF09CD063506410D8B4FE
:1038380098D073EC2EF095D075507610D8B403D08C
:10384800D3EC2EF08ED065506610D8B403D0A3EC1C
:103858002EF087D067506810D8B407D0000E136ECA
:10386800030E126ED8EC2FF07CD063506410D8B4DD
:1038780078D073EC2EF075D075507610D8B403D08C
:10388800D3EC2EF06ED065506610D8B403D0A3ECFC
:103898002EF067D067506810D8B407D0000E136EAA
:1038A800030E126ED8EC2FF05CD063506410D8B4BD
:1038B80058D073EC2EF055D075507610D8B403D08C
:1038C800BBEC2EF04ED065506610D8B403D003EC94
:1038D8002FF047D067506810D8B407D0000E136E89
:1038E800040E126ED8EC2FF03CD063506410D8B49C
:1038F80038D073EC2EF035D0E8C043F0E9C044F07E
:103908004450000AD8B407D0030AD8B415D0070A1F
:10391800D8B420D026D04350000AD8B4DCD60B0A3D
:10392800D8B4DCD6070AD8B4EED61A0AD8B4F9D671
:10393800010AD8B40CD715D04350F30AD8B41CD711
:10394800070AD8B439D70A0AD8B456D7010AD8B45E
:1039580073D707D04350090AD8B48ED7030AD8B40E
:10396800ABD7F28E1200A4EC2AF053C13DF054C13B
:103978003EF055C13FF056C140F0000E426E000EB9
:10398800416E42BE06D0425035E1070E415CD8B0C8
:1039980031D01C0E4124D96E010E4220DA6EDF5060
:1039A8002A6E2A3A0F0E2A160F0E2A162A500A0DC8
:1039B8001C0E4124D96E010E4220DA6EDF500F0B27
:1039C8002B6E2C6AF3502B26F4502C22D8904134BD
:1039D800D96E4234DA6E2D0ED926000EDA222BC0AB
:1039E800DEFF2CC0DDFF414A422A42BED2D74250F8
:1039F80001E1CBD737C03BF038C03CF084D03D0E56
:103A0800016E000E026EDA0E036EFF0E046EFAEC03
:103A18002DF0A6D03D0E016E000E026ECA0E036E8A
:103A2800FF0E046EFAEC2DF09BD03D0E016E000ED9
:103A3800026EE60E036EFF0E046EFAEC2DF090D0C7
:103A48003D0E016E000E026EEA0E036EFF0E046E4E
:103A5800FAEC2DF085D03D0E016E000E026EFA0EC6
:103A6800036EFF0E046EFAEC2DF07AD03D0E016E57
:103A7800000E026EDE0E036EFF0E046EFAEC2DF0E1
:103A88006FD03D0E016E000E026ED60E036EFF0E55
:103A9800046EFAEC2DF064D03D0E016E000E026E3D
:103AA800D20E036EFF0E046EFAEC2DF059D03D0EC7
:103AB800016E000E026EE20E036EFF0E046EFAEC4B
:103AC8002DF04ED03D0E016E000E026EF20E036E0A
:103AD800FF0E046EFAEC2DF043D03D0E016E000E81
:103AE800026EF60E036EFF0E046EFAEC2DF038D05F
:103AF8003D0E016E000E026ECE0E036EFF0E046EBA
:103B0800FAEC2DF02DD03BC02AF03CC02BF02B5006
:103B1800000AD8A425D02A50010AD8B470D7030ABD
:103B2800D8B478D7010AD8B480D7070AD8B488D7C8
:103B3800010AD8B490D7030AD8B498D7010AD8B4E0
:103B4800A0D70F0AD8B4A8D7010AD8B4B0D7030AA7
:103B5800D8B4B8D7010AD8B4C0D7070AD8B4C8D7D8
:103B6800800E74EC30F0C20E0D6EFA0E0E6E35C07B
:103B78000FF036C010F03D0E116E000E126E31C0FF
:103B880013F032C014F02FC015F030C016F02DC05D
:103B980017F02EC018F0B9EC16F0120001013B51D5
:103BA80001013C11D8B40CD08BEC2EF0000E0101B1
:103BB8003C6F000E3B6F000E2B6E000E2A6E12003B
:103BC8000001F8510001F911D8B4C7D0430E7D188F
:103BD800D8A412D081B209D00FD0680E2C6EE40E92
:103BE800E82EFED72C2EFCD700D081B2F6D7000ED7
:103BF8002B6E000E2A6E1200440E7D18D8A4F7D73B
:103C0800000E0001F96F000EF86F12D003EC2FF0D0
:103C1800EED7EBEC2EF0EBD7D3EC2EF0E8D732EC66
:103C28002FF0E5D7BBEC2EF0E2D7A3EC2EF0DFD7D0
:103C3800E8C02CF0E9C02DF02D50030AD8B404D008
:103C4800070AD8B40FD0D3D72C50F30AD8B4DED78C
:103C5800070AD8B4DED70A0AD8B4DED7010AD8B41E
:103C6800DED7C5D72C50090AD8B4DCD7030AD8B494
:103C7800DCD7BDD70B0E0001E8190001E911D8A463
:103C880005D0000E2B6E000E2A6E12008BEC2EF063
:103C9800000E2B6E000E2A6E1200160E0001E81997
:103CA8000001E911D8B407D00C0E0001E819000191
:103CB800E911D8A405D0000E2B6E000E2A6E120052
:103CC800170E0001E8190001E911D8A403D043EC4C
:103CD8002EF002D05BEC2EF0000E2B6E000E2A6E3A
:103CE8001200170E0001E8190001E911D8A405D047
:103CF800000E2B6E000E2A6E120073EC2EF0000ED2
:103D08002B6E000E2A6E1200000E766E010E756E76
:103D1800000E2B6E010E2A6E1200000E666E010E4A
:103D2800656E000E2B6E010E2A6E1200000E686E74
:103D3800010E676E000E2B6E010E2A6E1200000E29
:103D4800646E010E636E000E2B6E010E2A6E120059
:103D5800000E2B6E010E2A6E12007D50310AD8B467
:103D680089D7030AD8B499D7010AD8B4BAD7720A3E
:103D7800D8B4CAD7030AD8B4D0D7010AD8B4D6D78A
:103D8800070AD8B4DCD7E4D70600FACF4BF0FBCF4C
:103D98004CF0E9CF4DF0EACF4EF0E1CF4FF0E2CF53
:103DA80050F0D9CF51F0DACF52F0F3CF53F0F4CF2F
:103DB80054F0F6CF55F0F7CF56F0F8CF57F0F5CFCF
:103DC80058F0F0A034D0F09081380F0B0F0B496EEB
:103DD8004A6AA70E4924F66EFA0E4A20F76EF86A68
:103DE800000EF8220800F5CF7DF02A0E7D18D8B411
:103DF8000DD018D0030E07D0000E0001FC6F9EEC0A
:103E08002FF015D0020E0001FC6F11D00001FC51FB
:103E1800000AD8B4EFD7010AD8B4F4D7020AD8B444
:103E2800EBD705D00001FC51D8B457EC1BF0F2A435
:103E38000CD0F2940001FC05D8A407D0EFEC14F0E4
:103E4800850ED76EEE0ED66ED58E9EA028D09E908B
:103E5800CD900001FC05D8A422D077507810D8B4B2
:103E68000AD08B82000E786E000E776E59C0CFFF95
:103E78005BC0CEFF0DD08B92000E786E010E776E70
:103E880059500008200FCF6E5B500008200FCE6EEF
:103E9800CD800A0E6D26000E6E22BDEC1FF09EA28C
:103EA80026D09E92CA94734A742A0001FC05D8A4AD
:103EB8001ED079507A10D8B40AD0020E7318741034
:103EC800D8A405D08A86000E7A6E000E08D07950E4
:103ED8007A10D8A409D08A96000E7A6E010E796EEF
:103EE800000E746E000E736E6FEC2DF0CA84A1A2E2
:103EF80022D0A192B1900001FC05D8A41CD07B501F
:103F08007C10D8B40AD08B84000E7C6E000E7B6EB9
:103F18005DC0B3FF5FC0B2FF0DD08B94000E7C6E06
:103F2800010E7B6E5D500008200FB36E5F500008D5
:103F3800200FB26EB18058C0F5FF57C0F8FF56C0C9
:103F4800F7FF55C0F6FF54C0F4FF53C0F3FF52C04B
:103F5800DAFF51C0D9FF50C0E2FF4FC0E1FF4EC0A9
:103F6800EAFF4DC0E9FF4CC0FBFF4BC0FAFF7E9251
:103F780011006F506D5C6E50800A096E7050800A97
:103F88000958D8A0120069506A10D8A436D05FD05A
:103F9800040E026EEC0E016E000E046E030E036E2C
:103FA8004BEC2BF025D0020E706EBC0E6F6E4AD013
:103FB800040E026EEC0E016E000E046E030E036E0C
:103FC8004BEC2BF015D0050E026E6E0E016E000E36
:103FD800046E030E036E4BEC2BF00AD0050E026E36
:103FE8006E0E016E000E046E030E036E4BEC2BF08A
:103FF800000E6E6E000E6D6ED6D76BC009F06CC0E9
:104008000AF00A50010AD8B40AD0020AD8B40CD06F
:10401800050AD8B40ED00F0AD8B410D013D009505E
:10402800900AD8B4B5D70ED00950520AD8B4C0D720
:1040380009D009500E0AD8B4C6D704D00950C40A0A
:10404800D8B4CCD7000E6A6E000E696E1200B00E9E
:104058006B185AE1040E6C18D8A456D0000E6E6E78
:10406800000E6D6E1200040E026E1A0E016E000E26
:10407800046E030E036E4BEC2BF0000E6E6E000EFA
:104088006D6E020E706EEE0E6F6E1200040E026EF2
:104098001A0E016E000E046E030E036E4BEC2BF02D
:1040A800000E6E6E000E6D6E020E706EEE0E6F6E6E
:1040B8001200040E026EB00E016E000E046E010EA8
:1040C800036E4BEC2BF0040E026E1A0E016E000EFE
:1040D800046E030E036E4BEC2BF0000E6E6E000E9A
:1040E8006D6E270E706E0F0E6F6E000E0101366F2B
:1040F800010E356F0001EC050001ED11D8A4120086
:10410800020E0001FC6F120071C009F072C00AF0C3
:104118000A50040AD8B404D0010AD8A4120008D05E
:1041280009501A0AD8B4C5D7F60AD8A412009BD7E2
:1041380009506E0AD8A41200A9D7020E5FEC2FF01E
:10414800C350C4CFABF00001AC6BABC0ACF0000106
:10415800AB6B0001AB110001AF6F0001AC51000166
:10416800B06F010E66EC30F0680E0001AB6FE40E24
:10417800E82EFED7AB2FFCD700F0800E66EC30F0AF
:10418800890E00018E6FFE0E00018F6FAFC090F098
:10419800B0C091F0E9EC0EF0C00E66EC30F0490EBC
:1041A80000018E6FFB0E00018F6FE9EC0EF0000E20
:1041B8000001B26F010EB16F000E0001B46F000E66
:1041C800B36F23D0020E5FEC2FF0C350C4CFABF017
:1041D8000001AC6BABC0ACF00001AB6B0001AB11E4
:1041E8000001AF6F0001AC510001B06F800E66ECAA
:1041F80030F0890E00018E6FFE0E00018F6FAFC088
:1042080090F0B0C091F0E9EC0EF081A2DBD78138D4
:104218000F0B0F0AD8B4120081380F0BE806D8A488
:1042280016D00001B3510001B411D8B407D08B8E59
:1042380006D0010E0001B36FB46B5FD08B9E0001F6
:10424800B3510001B411D8B4F4D7000EF3D700016C
:10425800B1510001B211D8B407D08B8023D0010E20
:104268000001B16FB26B49D0000E0001AE6F000EB5
:10427800AD6F0001AEBF08D0880E0001AD5D130E12
:104288000001AE59D8B00DD08B801A0EE82EFED79B
:1042980000D08B90F00EE82EFED70001AD4BAE2B70
:1042A800E8D78B900001B1510001B211D8B4D7D72B
:1042B800000ED6D7020E5FEC2FF0C350C4CFABF080
:1042C8000001AC6BABC0ACF00001AB6B0001AB11F3
:1042D8000001AF6F0001AC510001B06F800E66ECB9
:1042E80030F0890E00018E6FFE0E00018F6FAFC097
:1042F80090F0B0C091F0E9EC0EF081A286D7DAD741
:10430800000E0001816F000E806F29EC30F0000173
:10431800FD6F0001FD510B0D010EF3240001B96F73
:10432800000EF4200001BA6F030E0001FD610ED0EB
:104338000001FD290001B16F000E0001AC6F000EF5
:10434800AB6FB1C0ADF041EC24F00AD0000E000113
:10435800AC6F000EAB6F000E0001AD6F41EC24F0A6
:104368000001FE5180090001B26FB9C0ABF0BAC0BC
:10437800ACF0B2C0ADF041EC24F00001B94BBA2B5F
:1043880001012739F00B010129110001B36FB9C0F0
:10439800ABF0BAC0ACF0B3C0ADF041EC24F0000112
:1043A800B94BBA2B01012539F00B0101231100018A
:1043B800B46FB9C0ABF0BAC0ACF0B4C0ADF041EC6A
:1043C80024F00001B94BBA2B000E0001B86F000EA3
:1043D800B76F0001B8BF08D00001B85128E1070E37
:1043E8000001B75DD8B023D0D8900001B735D96E99
:1043F8000001B835DA6E0E0ED926010EDA22DF502A
:104408000001B56FB9C0ABF0BAC0ACF0B5C0ADF043
:1044180041EC24F00001B94BBA2B0001B74BB82B83
:104428000001B8BFE1D70001B85101E1D8D7FAC0FF
:10443800B6F0B9C0ABF0BAC0ACF0B6C0ADF041EC64
:1044480024F0120007C001F008C002F0000E046E4C
:104458000B0E036EB2EC2FF0010E0124106E000E4D
:104468000220116E10C001F011C002F040EC30F0D3
:104478000B6E0BC009F0800E091609500001F26F8F
:10448800F36B0BC009F00F0E091609500101456FB7
:10449800466B104A112A10C001F011C002F040EC1E
:1044A80030F00C6E0CC009F0093A0F0E09160F0E09
:1044B800091609500001F46FF56B0CC009F00F0ED6
:1044C800091609500101436F446B104A112A10C0A4
:1044D80001F011C002F040EC30F00D6E0DC009F093
:1044E800093A0F0E09160F0E091609500101416FFE
:1044F800426B0DC009F00F0E0916095001013F6FFC
:10450800406B104A112A000E0F6E000E0E6E0FBE81
:1045180006D00F501EE1070E0E5CD8B01AD010C09E
:1045280001F011C002F040EC30F0096E0A6AD89030
:104538000E34D96E0F34DA6E000ED926010EDA2247
:1045480009C0DEFF0AC0DDFF104A112A0E4A0F2AF1
:10455800DED710C001F011C002F040EC30F0096E57
:1045680009500001F66FF76B12000001835100013A
:10457800D8B408D0000180510001811100018211D6
:10458800D8A411D0000E0001806F000E0001816FC9
:10459800000E0001826F12000001832B0001D890E9
:1045A800823381338033000E000180150001856F4E
:1045B800000E000181150001866FFE0E00018215B4
:1045C8000001876F000185510001861100018711E4
:1045D800D8B411D0E1D70001832B010E0001802748
:1045E800000E00018123000E000182230001D890F3
:1045F800823381338033000E000180150001856FFE
:10460800000E000181150001866FFF0E0001821562
:104618000001876F00018551000186110001871193
:10462800D8B408D0D8D7000183070001D8908037C4
:1046380081378237000181BF04D0020E00018361F7
:10464800F2D7000183B102D00001819F0001D89008
:10465800833300018351000182130001845100015A
:10466800D8B402D00001828F80C080F081C081F070
:1046780082C082F012007CD0010E66EC30F0680E29
:104688000001C66FE40EE82EFED7C62FFCD700F057
:10469800800E66EC30F0900E00018E6FFC0E00016B
:1046A8008F6FE9EC0EF0C00E66EC30F0A10E000141
:1046B8008E6FFC0E00018F6FE9EC0EF081A2FED721
:1046C80081CFC6F00001C63B0F0EC6170001C651C8
:1046D80001014D6F4E6B01014D4B4E2B81A21FD036
:1046E800FDD794EC25F044D0FCEC12F041D06DECF1
:1046F80004F03ED0C2EC23F03BD0FFEC25F038D0DC
:104708006AEC29F035D012EC2CF032D070EC18F0AD
:104718002FD005EC11F02CD0A1EC20F029D04DC100
:10472800C6F04EC1C7F00001C751000AD8A420D076
:104738000001C651010AD8B4D4D7030AD8B4D4D7D3
:10474800010AD8B4D4D7070AD8B4D4D7010AD8B440
:10475800D4D7030AD8B4D4D7010AD8B4D4D70F0A07
:10476800D8B4D4D7020AD8B4D4D7010AD8B4D4D785
:10477800030E0001FC19D8A412007ED7010E66ECC6
:1047880030F0680E0001AB6FE40EE82EFED7AB2FB9
:10479800FCD700F0800E66EC30F0080E00018E6F3A
:1047A800FC0E00018F6FE9EC0EF0C00E66EC30F0E5
:1047B800B20E00018E6FFC0E00018F6FE9EC0EF057
:1047C800F28E010E0001FC6F000E0001EB6F010E6E
:1047D800EA6F000E746E000E736E8A86CA84000E2D
:1047E8007A6E000E796E000E0001AD6F000EAC6F90
:1047F8000001AC510001AD11D8B41CD00001AC517E
:104808000001AD11D8A402D0010E01D0000E0001A4
:10481800AC6FAD6B05D0000E0001EB6F000EEA6FB8
:1048280081A2F9D781380F0B0F0AD8B41FD081A203
:10483800DFD7FDD70001AC510001AD11D8A402D0DB
:10484800010E01D0000E0001AC6FAD6B05D0000E5B
:104858000001EB6F010EEA6F81A2F9D781380F0BC7
:104868000F0AD8B403D081A2C3D7FDD7F29E1BECA0
:1048780030F0030E0001FC6F1200A6840001AC5159
:10488800AA6EABC0A9FFADC0A8FFA69EA69CF29ECB
:10489800550EA76EAA0EA76EA682F28EA1A8FED705
:1048A800A198A69401012D5101012E11D8B412002E
:1048B800010E66EC30F0680E0001AE6FE40EE82ED3
:1048C800FED7AE2FFCD700F0800E66EC30F0ABC000
:1048D80080F0ACC081F029EC30F00001AD19D8A40B
:1048E80024D0DA0E00018E6FFA0E00018F6FADC072
:1048F80090F00001916BABC092F0ACC093F0E9EC82
:104908000EF0000E0001AF6F630E0001AF6501D01D
:104918001200680E0001AE6FE40EE82EFED7AE2F2F
:10492800FCD700F00001AF2BEFD7BC0E00018E6F53
:10493800FF0E00018F6FE9EC0EF0000E0001B06F62
:10494800630E0001B06501D01200680E0001AE6F61
:10495800E40EE82EFED7AE2FFCD700F00001B02BF6
:10496800EFD70101335101013411D8B41200000E00
:104978000101366F000E356F34D0010E0001816FD2
:10498800900E806F000E0001836F010E826FEDECB8
:1049980029F03ED0030E0001816F520E806F000E89
:1049A8000001836F010E826FEDEC29F031D0060E05
:1049B8000001816F0E0E806F000E0001836F010EE3
:1049C800826FEDEC29F024D0090E0001816FC40E2E
:1049D800806F000E0001836F010E826FEDEC29F0ED
:1049E80017D02BC188F02CC189F000018951000A29
:1049F800D8A40ED000018851000AD8B4BED7010A45
:104A0800D8B4C8D7030AD8B4D2D7010AD8B4DCD7E7
:104A1800040E0001816F1A0E806F000E0001836F73
:104A2800030E826FEDEC29F0020E706EEE0E6F6EC3
:104A3800000E6A6E010E696E000E0101346F000EE1
:104A4800336F1200000E01013A6F000E396F000E2D
:104A58000001EF6F000EEE6F000E0001ED6F000E0B
:104A6800EC6F000E0101306F010E2F6F000E010177
:104A7800326F000E316F000E0101346F000E336F7C
:104A8800000E0101366F010E356F000E0101386FFF
:104A9800000E376F000E0001FF6F000EFE6F000E54
:104AA8000101286F000E276F000E01012A6F000E0A
:104AB800296F000E0101266F000E256F000E0101FF
:104AC800246F000E236F030E0101486FE70E476F36
:104AD800000E0001816F000E806F000E01014A6F09
:104AE800000E496F000E626E000E616E000E6E6E53
:104AF800000E6D6E270E706E0F0E6F6E000E746EC8
:104B0800000E736E000E0001EB6F000EEA6F6B680B
:104B18006C6871687268000E6A6E000E696E120029
:104B2800010E66EC30F0680E0001AB6FE40EE82E63
:104B3800FED7AB2FFCD700F0800E66EC30F0010EEC
:104B480000018E6FFF0E00018F6FE9EC0EF0C00EB2
:104B580066EC30F03A0E00018E6FFF0E00018F6F89
:104B6800E9EC0EF0050E0001AC6F0F0E0001AB6F03
:104B7800F10EE82EFED7AB2FFCD7AC2FFAD781A2C7
:104B8800FED781B2FED7010E66EC30F0680E000148
:104B9800AB6FE40EE82EFED7AB2FFCD700F0800EEB
:104BA80066EC30F05D0E00018E6FFC0E00018F6F19
:104BB800E9EC0EF01E0E00018E6FFF0E00018F6FE4
:104BC800E9EC0EF0640E00018E6FFF0E00018F6F8E
:104BD800E9EC0EF0E30E00018E6FFE0E00018F6F00
:104BE800E9EC0EF02C0E00018E6FFF0E00018F6FA6
:104BF800E9EC0EF01200010E66EC30F0680E0001D0
:104C0800AB6FE40EE82EFED7AB2FFCD700F0800E7A
:104C180066EC30F0EF0E00018E6FFA0E00018F6F18
:104C2800E9EC0EF0C00E66EC30F0F70E00018E6F66
:104C3800FB0E00018F6FE9EC0EF081A2FED78138E0
:104C48000F0B0F0AD8B4120081CFABF00001AB3BB9
:104C58000F0EAB17D8A410D08AB404D00001AB6BE8
:104C6800AB2B02D00001AB6B0001AB47AB478A50BE
:104C78000001AB19FB0B11D081380F0BE806D8A443
:104C88000FD08AB004D00001AB6BAB2B02D000016F
:104C9800AB6B8A500001AB19FE0BAB198A6E13D0AF
:104CA80081380F0B040AD8A405D08A8481B2FED7B4
:104CB8008A9409D081380F0B050AD8A404D08A80B9
:104CC80081B2FED78A9081A2B8D7FDD77FEC2BF0AE
:104CD80009EC2DF0000E0001E76F000EE66F0001F1
:104CE800E6510001E711D8B416D0470E0001806FD5
:104CF800170E0001816F070E0001826F080E000178
:104D0800836F040E0001846F170E0001856F420E39
:104D1800FBEC2FF00BD0100E00018D6F270E8E6F5D
:104D2800000E8F6F000E906FE2EC2BF02BEC2EF044
:104D3800000E01013A6F010E396F35EC30F018D0D2
:104D480009EC00F015D0EAEC2FF012D01BEC30F093
:104D580084EC21F0000E01013A6F010E396F09EC65
:104D680000F006D03FEC23F003D01BEC30F0FFD767
:104D78000001FC51000AD8B4E3D7010AD8B4E3D73C
:104D8800030AD8B4E3D7010AD8B4ECD7070AD8B4D1
:104D9800ECD7EED7000194AF1DD092C098F093C025
:104DA80099F094C09AF00001981F991F9A1F982BA8
:104DB800000E99239A23000E000198250001926F96
:104DC800000E000199210001936F800E00019A21C5
:104DD8000001946F000197AF1DD095C098F096C060
:104DE80099F097C09AF00001981F991F9A1F982B65
:104DF800000E99239A23000E000198250001956F53
:104E0800000E000199210001966F800E00019A2181
:104E18000001976F000E0001921B000E0001931B0A
:104E2800800E0001941B000E0001951B000E00016E
:104E3800961B800E0001971B000195510001925DA1
:104E480000019651000193590001975100019459AE
:104E5800D8B002D0D8901200D8801200000E0001FD
:104E68008B6F000189AF08D00001886D891FD8B009
:104E7800892B010E00018B6F000187AF08D000015C
:104E8800866D871FD8B0872B010E00018B1B000E83
:104E980000018D6F000E8C6F00018851000189118F
:104EA800D8B42CD0010E00018A6F06D00001D8902A
:104EB8008837893700018A2B000189AFF7D70001AD
:104EC800D8908C378D37000188510001865D00012C
:104ED800895100018759D8A00AD0000188510001E2
:104EE800865F000189510001875B00018C81000108
:104EF800D8908933883300018A2FE1D700018B517C
:104F08000001D8B405D000018C6D8D1FD8B08D2B51
:104F18008CC086F08DC087F01200000E0001886FEB
:104F2800000E896F000E8A6F000E8B6F000184518E
:104F3800000185110001861100018711D8B442D003
:104F4800010E00018C6F08D00001D8908437853796
:104F58008637873700018C2B000187AFF5D7000112
:104F6800D890883789378A378B37000184510001F8
:104F7800805D0001855100018159000186510001C1
:104F880082590001875100018359D8A012D000012D
:104F980084510001805F000185510001815B00019F
:104FA80086510001825B000187510001835B00018B
:104FB80088810001D8908733863385338433000194
:104FC8008C2FCDD788C080F089C081F08AC082F04C
:104FD8008BC083F0120027EC29F0000E0001896FC6
:104FE800000E886F000189BF08D00001895140E197
:104FF800070E0001885DD8B03BD01C0E0001882543
:10500800D96E010E00018921DA6EDF500001856F2B
:105018000001853B0F0E85170F0E00018517000153
:1050280085510A0D1C0E00018825D96E010E00015C
:105038008921DA6EDF500F0B0001866F876BF35002
:1050480000018627F45000018723D8900001883595
:10505800D96E00018935DA6E0E0ED926010EDA22D4
:1050680086C0DEFF87C0DDFF0001884B892BBAD7D9
:10507800170ED56E850ED76EEE0ED66ED58E120033
:10508800000E0001856F000181AF08D00001806D1E
:10509800811FD8B0812B010E0001856F000183AFFD
:1050A80005D00001826D831FD8B0832B0001825187
:1050B80000018311D8B426D0010E0001846F06D0F8
:1050C8000001D890823783370001842B000183AF19
:1050D800F7D7000182510001805D00018351000172
:1050E8008159D8A008D0000182510001805F0001D9
:1050F80083510001815B0001D89083338233000122
:10510800842FE7D7000185510001D8B405D00001EC
:10511800806D811FD8B0812B80C080F081C081F064
:105128001200000182515FEC2FF0C350C4CF84F00D
:105138000001856B84C085F00001846B0001841137
:105148000001E06F000185510001E16F24D00001EA
:10515800E1BF0AD0BD0E0001E05D020E0001E15979
:10516800D8A002D0010E01D0000E0001E26FE36B5F
:1051780012000001E1BF0AD00001E15105E1FB0E78
:105188000001E05DD8A002D0010E01D0000E0001A0
:10519800E26FE36B120082C084F083C085F00001E7
:1051A8008551000AD8A4120000018451000AD8B41D
:1051B800CED7030AD8A41200DCD7100E00018D6FD9
:1051C800270E8E6F000E8F6F000E906FE2EC2BF0A3
:1051D800F29E8CEC30F0000E0001826FD00E816FD1
:1051E8007AEC30F0000E0001826F000E816F7AECCD
:1051F80030F0000E0001976F000E966F000197BF08
:1052080008D0000197511BE1070E0001965DD8B048
:1052180016D01C0E00019625D96E010E00019721AB
:10522800DA6EDF500001956F000195510001816F22
:10523800826B7AEC30F00001964B972BDFD788EC25
:1052480030F0F28E12008CEC30F0000E0001826F0C
:10525800D00E816F7AEC30F0000E0001826F000EE4
:10526800816F7AEC30F088EC30F08CEC30F0000E86
:105278000001826FD10E816F7AEC30F0000E0001D0
:10528800846F000E836F000184BF08D00001845131
:1052980015E1060E0001835DD8B010D01C0E000188
:1052A8008325D96E010E00018421DA6E010E1BECF4
:1052B8002FF0DF6E0001834B842BE5D7000E1BEC2B
:1052C8002FF00101226F88EC30F01200010E66EC1D
:1052D80030F0680E0001AB6FE40EE82EFED7AB2F5E
:1052E800FCD700F0800E66EC30F0370E00018E6FB0
:1052F800FB0E00018F6FE9EC0EF0C00E66EC30F08B
:10530800010E00018E6FFB0E00018F6FE9EC0EF0AD
:1053180081A2FED781380F0B0F0AD8B4120014D01F
:105328008A84340E0001AB6FF10EE82EFED7AB2F46
:10533800FCD700D08A94340E0001AB6FF10EE82E32
:10534800FED7AB2FFCD700D081B2EAD78A94E0D73A
:1053580086C082F087C083F095EC28F0000E00012B
:105368008A6F000E896F00018ABF08D000018A5138
:105378001EE1960E0001895DD8B019D0060E000115
:10538800886F300EE82EFED7882FFCD700F086C035
:1053980082F087C083F095EC28F00001E25100010B
:1053A800E311D8B404D00001894B8A2BDCD7000163
:1053B800E2050001E311D8A406D0000E0001EF6F4A
:1053C800010EEE6F1200000E0001EF6F000EEE6F7F
:1053D800120080C084F081C085F00001841F851F01
:1053E800844B852BFF0E000184250001866FFF0E7C
:1053F800000185210001876F19D000018751596E7E
:105408005A6A000186515B6E5C6A80C06BF081C08D
:105418006CF0000187515D6E5E6A000186515F6E17
:10542800606A80C071F081C072F0120082C084F09E
:1054380083C085F000018551000AD8A4120000013C
:105448008451010AD8B4D9D7020AD8A41200E1D7E6
:10545800040E0001816FB00E806F000E0001836F93
:10546800010E826FEDEC29F0040E0001816F1A0E17
:10547800806F000E0001836F030E826FEDEC29F040
:10548800CD80000E786E000E776E340E0001886FA6
:10549800F10EE82EFED7882FFCD700D0B180000E81
:1054A8007C6E000E7B6E0B0E0001886F620EE82E7C
:1054B800FED7882FFCD700F08A96CA84000E7A6E31
:1054C800000E796E8B801200000E0001856F000EB1
:1054D800846F0001825100018311D8B42CD0010ED1
:1054E8000001866F06D00001D8908237833700010B
:1054F800862B000183AFF7D70001D8908437853712
:10550800000182510001805D000183510001815931
:10551800D8A00AD0000182510001805F00018351A8
:105528000001815B000184810001D89083338233BC
:105538000001862FE1D784C080F085C081F0120079
:1055480094EC30F0000E036ED00E026E7FEC30F05B
:10555800000E036E000E026E7FEC30F090EC30F01F
:1055680094EC30F0000E036ED10E026E7FEC30F03A
:10557800000E056E000E046E05BE06D0055011E142
:10558800060E045CD8B00DD01C0E0424D96E010E92
:105598000520DA6E010EC5EC2FF0DF6E044A052AED
:1055A800EBD7000EC5EC2FF00101226F90EC30F024
:1055B8001200000E066E02AE06D0016C021ED8B0B4
:1055C800022A010E066E04AE04D0036C041ED8B085
:1055D800042A03500410D8B418D0010E056E04D064
:1055E800D89003360436052A04AEFAD70350015C76
:1055F80004500258D8A004D00350015E0450025A47
:10560800D89004320332052EF1D70650D8B404D00E
:10561800016C021ED8B0022A01C001F002C002F0DB
:1056280012000001816FF29E00018151F00B000110
:10563800806F8C500F0B8C6E000180518C108C6E1B
:105648008C86420EE82EFED700D08C96420EE82EAD
:10565800FED700D000018139F00B0001816F0001F5
:105668008151F00B0001806F8C500F0B8C6E000184
:1056780080518C108C6E8C86420EE82EFED700D09E
:105688008C96420EE82EFED700D0F28E120001C092
:1056980005F002C006F0051E061E054A062AFF0E82
:1056A8000524076EFF0E0620086E15D00850596EA7
:1056B8005A6A07505B6E5C6A01C06BF002C06CF0FE
:1056C80008505D6E5E6A07505F6E606A01C071F0D7
:1056D80002C072F0120003C005F004C006F00650C4
:1056E800000AD8A412000550010AD8B4DFD7020A6C
:1056F800D8A41200E5D7F00ED36E9B8C0F0E926ED5
:10570800F20E936E000E946E000E956E000E966E5D
:10571800000E896E000E8A6E000E8B6E000E8C6E67
:10572800000E8D6EF19E000EC26E0B0EC16E000E45
:10573800B56EB496B10EC06EF086F28A9D809D82D9
:10574800A082B00ECD6E7B0ECA6E220ECB6EB00E4E
:10575800B16EF28C9D9CF29E1200000189510001ED
:105768008A11D8B426D0010E00018B6F06D0000133
:10577800D89089378A3700018B2B00018AAFF7D779
:10578800000189510001875D00018A510001885993
:10579800D8A008D0000189510001875F00018A5113
:1057A8000001885B0001D8908A33893300018B2F70
:1057B800E7D787C087F088C088F01200000EC76E50
:1057C800280EC66E000EC56E000E0001806F480ED2
:1057D800816FE80E826F010E836F8DC091F08EC0CD
:1057E80092F08FC093F090C094F0020ED890000110
:1057F8009137923793379437E82EF8D791C084F0D1
:1058080092C085F093C086F094C087F091EC27F0A1
:1058180000018005C86E948694881200010E66EC1B
:1058280030F0680E0001AB6FE40EE82EFED7AB2F08
:10583800FCD700F0800E66EC30F0EF0E00018E6FA2
:10584800FA0E00018F6FE9EC0EF0C00E66EC30F036
:105858005B0E00018E6FFB0E00018F6FE9EC0EF0FE
:1058680081A2FED781380F0B0F0AD8B4120089889D
:1058780081B2FED78998F4D7026EF29E0250F00BDF
:10588800016E8C500F0B8C6E01508C108C6E8C86B8
:10589800420EE82EFED700D08C96420EE82EFED798
:1058A80000D00238F00B026E0250F00B016E8C50E3
:1058B8000F0B8C6E01508C108C6E8C86420EE82E6D
:1058C800FED700D08C96420EE82EFED700D0F28E7E
:1058D8001200000E0B6E000E0A6E08500910D8B4A4
:1058E8001CD0010E0C6E04D0D890083609360C2A4C
:1058F80009AEFAD7D8900A360B360850065C09501C
:105908000758D8A005D00850065E0950075A0A80E3
:10591800D890093208320C2EEDD70AC006F00BC019
:1059280007F01200080EF66E610EF76E000EF86EA4
:1059380001EE4FF010EE08F00900F5CFEEFFE5504C
:10594800E150FAE101EE00F04F0EEE6AE806FDE1E3
:1059580000EEDAF0260EEE6AE806FDE100EE59F0F8
:10596800250EEE6AE806FDE17E907E9200016AEF60
:1059780026F0020E5FEC2FF0C350C4CF82F0000176
:10598800836B82C083F00001826B000182110001E9
:10599800846F000183510001856F000185BF0AD023
:1059A8002D0E0001845D010E00018559D8A002D09A
:1059B800010E01D0000E0001DE6FDF6B1200010E38
:1059C8005FEC2FF0C350C4CF82F00001836B82C01C
:1059D80083F00001826B000182110001846F0001D5
:1059E80083510001856F000185BF08D000018551F2
:1059F80007E1960E0001845DD8B002D0010E01D0F7
:105A0800000E0001E46FE56B12009C0E0001836F2D
:105A1800D70EE82EFED7832FFCD7330E66EC30F076
:105A2800320E66EC30F0280E66EC30F00C0E66ECA8
:105A380030F0060E66EC30F0010E66EC30F09C0E8D
:105A48000001836FD70EE82EFED7832FFCD71200F4
:105A5800000E0001916F00018FAF08D000018E6D1C
:105A68008F1FD8B08F2B010E0001916F8EC080F070
:105A78008FC081F00001826B8E0E0001836F91C090
:105A880084F0B9EC22F080C08EF081C08FF082C023
:105A980090F0120003500410D8B418D0010E056E0F
:105AA80004D0D89003360436052A04AEFAD703503A
:105AB800015C04500258D8A004D00350015E045081
:105AC800025AD89004320332052EF1D701C001F0F2
:105AD80002C002F0120079507A10D8B407D016D05C
