:0400000007EF00F016
:100008007E8228ED1EF0F2EF2BF0020E0001FC19A3
:10001800D8A486D0010ED1EC2FF0680E0001C46F71
:10002800E40EE82EFED7C42FFCD700F0800ED1ECEA
:100038002FF07F0E00018E6FFB0E00018F6F010EF7
:100048000001FD250001906F0001916B000E9123C6
:1000580067EC0EF0C00ED1EC2FF00E0E0001836F8E
:10006800100E826FFAC080F0FBC081F0A0EC27F080
:1000780080C0C6F081C0C7F0560E00018E6FFF0E1B
:1000880000018F6F0E0E0001836F100E826FFAC091
:1000980080F0FBC081F0A0EC27F080C086F081C022
:1000A80087F0000E0001896F3C0E886F8EEC26F0F9
:1000B80086C090F087C091F0C6C080F0C7C081F0BC
:1000C800000E0001836F3C0E826FA0EC27F080C009
:1000D80092F081C093F067EC0EF081B2FED781A256
:1000E800FED70C0E0001E6190001E711D8A403D0D1
:1000F80004EC2DF002D0E8EC2CF081B2FED7050E0E
:100108000001C56F0F0E0001C46FF10EE82EFED777
:10011800C42FFCD7C52FFAD7000E0001FC6FD2D32D
:100128000001E6510001E711D8A4CCD3000E00016C
:10013800C86F630E0001C86501D00CD0680E0001BD
:10014800C46FE40EE82EFED7C42FFCD700F00001E0
:10015800C82BEFD70001E6510001E711D8A4B2D3AC
:1001680052EC19F0AFD30001F0510001F111D8A4FD
:1001780041D0010ED1EC2FF0680E0001C46FE40EDF
:10018800E82EFED7C42FFCD700F0800ED1EC2FF05C
:100198006D0E00018E6FFB0E00018F6FEEC090F0A8
:1001A800EFC091F067EC0EF0C00ED1EC2FF0790E95
:1001B80000018E6FFE0E00018F6F67EC0EF0000ECF
:1001C8000001C96F630E0001C96501D00CD0680E2B
:1001D8000001C46FE40EE82EFED7C42FFCD700F050
:1001E8000001C92BEFD70001F8510001F911D8B46B
:1001F8001200E5D7010ED1EC2FF0680E0001C46F94
:10020800E40EE82EFED7C42FFCD700F0800ED1EC08
:100218002FF06D0E00018E6FFB0E00018F6FEEC088
:1002280090F0EFC091F067EC0EF0C00ED1EC2FF01B
:10023800F50E00018E6FFD0E00018F6F67EC0EF05A
:10024800000E0001CA6F630E0001CA6501D00CD010
:10025800680E0001C46FE40EE82EFED7C42FFCD749
:1002680000F00001CA2BEFD70001F8510001F91185
:10027800D8B41200000E0001CB6F630E0001CB65ED
:1002880001D00CD0680E0001C46FE40EE82EFED732
:10029800C42FFCD700F00001CB2BEFD70001F85199
:1002A8000001F911D8B41200010ED1EC2FF0680E3C
:1002B8000001C46FE40EE82EFED7C42FFCD700F06F
:1002C800800ED1EC2FF0C30E00018E6FFF0E0001DF
:1002D8008F6F67EC0EF0C00ED1EC2FF04DC1D6F049
:1002E8004EC1D7F04FC1D8F050C1D9F0C3D0D60E07
:1002F8000001806F000E0001816FDA0E0001826F2D
:10030800FF0E0001836F20EC2DF0E6D0D60E000121
:10031800806F000E0001816FCA0E0001826FFF0E10
:100328000001836F20EC2DF0D7D0D60E0001806F2E
:10033800000E0001816FE60E0001826FFF0E0001C2
:10034800836F20EC2DF0C8D0D60E0001806F000E10
:100358000001816FEA0E0001826FFF0E0001836FBA
:1003680020EC2DF0B9D0D60E0001806F000E0001F0
:10037800816FFA0E0001826FFF0E0001836F20EC7F
:100388002DF0AAD0D60E0001806F000E0001816FFB
:10039800DE0E0001826FFF0E0001836F20EC2DF04E
:1003A8009BD0D60E0001806F000E0001816FD60E23
:1003B8000001826FFF0E0001836F20EC2DF08CD0BE
:1003C800D60E0001806F000E0001816FD20E000171
:1003D800826FFF0E0001836F20EC2DF07DD0D60ECA
:1003E8000001806F000E0001816FE20E0001826F34
:1003F800FF0E0001836F20EC2DF06ED0D60E0001A9
:10040800806F000E0001816FF20E0001826FFF0EF7
:100418000001836F20EC2DF05FD0D60E0001806FB5
:10042800000E0001816FF60E0001826FFF0E0001C1
:10043800836F20EC2DF050D0D60E0001806F000E97
:100448000001816FCE0E0001826FFF0E0001836FE5
:1004580020EC2DF041D0D60E0001806F000E000177
:10046800816FEE0E0001826FFF0E0001836F20EC9A
:100478002DF032D021EE0AF0DECFC4F0DDCFC5F08A
:100488000001C551000AD8A4E6D70001C451010AE9
:10049800D8B42DD7030AD8B439D7010AD8B445D768
:1004A800070AD8B451D7010AD8B45DD7030AD8B41B
:1004B80069D7010AD8B475D70F0AD8B481D7010A09
:1004C800D8B48DD7030AD8B499D7010AD8B4A5D718
:1004D800070AD8B4B1D7BFD7C20E00018E6FFA0E83
:1004E80000018F6F08C190F009C191F0D60E00018C
:1004F800926F000E0001936F04C194F005C195F04E
:1005080002C196F003C197F000C198F001C199F0BB
:1005180067EC0EF0000E0001CC6F630E0001CC6595
:1005280001D00CD0680E0001C46FE40EE82EFED78F
:10053800C42FFCD700F00001CC2BEFD70001F851F5
:100548000001F911D8B41200000E0001CD6F630E3E
:100558000001CD6501D00CD0680E0001C46FE40E17
:10056800E82EFED7C42FFCD700F00001CD2BEFD723
:100578000001F8510001F911D8B41200010ED1ECB4
:100588002FF0680E0001C46FE40EE82EFED7C42FCA
:10059800FCD700F0800ED1EC2FF09A0E00018E6F80
:1005A800FF0E00018F6F67EC0EF0C00ED1EC2FF03C
:1005B8000E0E0001836F100E826FF6C080F0F7C038
:1005C80081F0A0EC27F080C0C6F081C0C7F0480ECB
:1005D80000018E6FFF0E00018F6F0E0E0001836FFA
:1005E800100E826FF6C080F0F7C081F0A0EC27F003
:1005F80080C086F081C087F0000E0001896F3C0E34
:10060800886F8EEC26F086C090F087C091F0C6C047
:1006180080F0C7C081F0000E0001836F3C0E826F2E
:10062800A0EC27F080C092F081C093F067EC0EF048
:10063800000E0001CE6F630E0001CE6501D00CD014
:10064800680E0001C46FE40EE82EFED7C42FFCD755
:1006580000F00001CE2BEFD70001F8510001F9118D
:10066800D8B41200000E0001CF6F630E0001CF65F1
:1006780001D00CD0680E0001C46FE40EE82EFED73E
:10068800C42FFCD700F00001CF2BEFD70001F851A1
:100698000001F911D8B41200010ED1EC2FF0680E48
:1006A8000001C46FE40EE82EFED7C42FFCD700F07B
:1006B800800ED1EC2FF04B0E00018E6FFD0E000165
:1006C8008F6F67EC0EF0C00ED1EC2FF0280E0001F2
:1006D8008E6FFE0E00018F6FF2C090F0F3C091F0A4
:1006E800F4C092F0F5C093F067EC0EF0000E000134
:1006F800D06F630E0001D06501D00CD0680E0001E8
:10070800C46FE40EE82EFED7C42FFCD700F000011A
:10071800D02BEFD70001F8510001F911D8B412001D
:10072800000E0001D16F630E0001D16501D00CD01D
:10073800680E0001C46FE40EE82EFED7C42FFCD764
:1007480000F00001D12BEFD70001F8510001F91199
:10075800D8B41200010ED1EC2FF0680E0001C46F5E
:10076800E40EE82EFED7C42FFCD700F0800ED1ECA3
:100778002FF05C0E00018E6FFD0E00018F6F67EC8D
:100788000EF0C00ED1EC2FF0170E00018E6FFE0E8A
:1007980000018F6F41C190F042C191F043C192F0C6
:1007A80044C193F067EC0EF0000E0001D26F630EA7
:1007B8000001D26501D00CD0680E0001C46FE40EB0
:1007C800E82EFED7C42FFCD700F00001D22BEFD7BC
:1007D8000001F8510001F911D8B41200000E00010F
:1007E800D36F630E0001D36501D00CD0680E0001F1
:1007F800C46FE40EE82EFED7C42FFCD700F000012A
:10080800D32BEFD70001F8510001F911D8B4120029
:10081800010ED1EC2FF0680E0001C46FE40EE82E33
:10082800FED7C42FFCD700F0800ED1EC2FF06D0E50
:1008380000018E6FFD0E00018F6F67EC0EF0C00E89
:10084800D1EC2FF0250E00018E6FFE0E00018F6F88
:1008580045C190F046C191F067EC0EF0000E000122
:10086800D46F630E0001D46501D00CD0680E00016E
:10087800C46FE40EE82EFED7C42FFCD700F00001A9
:10088800D42BEFD70001F8510001F911D8B41200A8
:10089800000E0001D56F630E0001D56501D00CD0A4
:1008A800680E0001C46FE40EE82EFED7C42FFCD7F3
:1008B80000F00001D52BEFD70001F8510001F91124
:1008C800D8B412000001F8510001F911D8B412008F
:1008D8004AD4000E0001C56F000EC46FF28E010EDF
:1008E800D1EC2FF0680E0001AB6FE40EE82EFED7B6
:1008F800AB2FFCD700F0800ED1EC2FF0900E00014A
:100908008E6FFF0E00018F6F67EC0EF0C00ED1ECFA
:100918002FF03A0E00018E6FFF0E00018F6F67EC0B
:100928000EF0050E0001AC6F0F0E0001AB6FF10E5B
:10093800E82EFED7AB2FFCD7AC2FFAD781A2FED773
:1009480081B2FED7010ED1EC2FF0680E0001AB6F1B
:10095800E40EE82EFED7AB2FFCD700F0800ED1ECCA
:100968002FF0F20E00018E6FFE0E00018F6F67EC04
:100978000EF0C00ED1EC2FF0100E00018E6FFF0E9E
:1009880000018F6F67EC0EF08A84000E0001C56FBE
:10099800000EC46F0001C5BF08D00001C55123E196
:1009A800050E0001C45DD8B01ED0000E0001AD6F69
:1009B800630E0001AD6501D00CD0680E0001AB6F6D
:1009C800E40EE82EFED7AB2FFCD700F00001AD2BCC
:1009D800EFD70001C44BC52B0001C5BFE6D7000106
:1009E800C55101E1DDD78A94010ED1EC2FF0680ED4
:1009F8000001AB6FE40EE82EFED7AB2FFCD700F05A
:100A0800800ED1EC2FF06E0E00018E6FFC0E0001EF
:100A18008F6F67EC0EF0C00ED1EC2FF0700E000156
:100A28008E6FFF0E00018F6F67EC0EF0000E000155
:100A3800C56F000EC46F0001C5BF08D00001C551C5
:100A48002CE1050E0001C45DD8B027D08B8E0D0EA9
:100A58000001AC6F2D0E0001AB6FD70EE82EFED74C
:100A6800AB2FFCD7AC2FFAD700D08B9E1D0E000100
:100A7800AC6F690E0001AB6FA50EE82EFED7AB2F49
:100A8800FCD7AC2FFAD70001C44BC52B0001C5BF5A
:100A9800DDD70001C55101E1D4D78B9E010ED1EC01
:100AA8002FF0680E0001AB6FE40EE82EFED7AB2FD7
:100AB800FCD700F0800ED1EC2FF07F0E00018E6F76
:100AC800FC0E00018F6F67EC0EF0C00ED1EC2FF01A
:100AD8007B0E00018E6FFF0E00018F6F67EC0EF02A
:100AE800000E0001C56F000EC46F0001C5BF08D01D
:100AF8000001C5512CE1050E0001C45DD8B027D016
:100B080089880D0E0001AC6F2D0E0001AB6FD70E5A
:100B1800E82EFED7AB2FFCD7AC2FFAD700D0899898
:100B28001D0E0001AC6F690E0001AB6FA50EE82E1B
:100B3800FED7AB2FFCD7AC2FFAD70001C44BC52B7F
:100B48000001C5BFDDD70001C55101E1D4D789989F
:100B5800010ED1EC2FF0680E0001AB6FE40EE82E09
:100B6800FED7AB2FFCD700F0800ED1EC2FF0010E92
:100B78000001FC6F000E786E000E776E000E786E26
:100B8800000E776ED40E00018E6FFE0E00018F6F7F
:100B980067EC0EF0C00ED1EC2FF0E60E00018E6F60
:100BA800FB0E00018F6F67EC0EF0040E0001816FE1
:100BB800B00E806F000E0001836F010E826F49EC4A
:100BC80029F0CD80000E0001AE6F630E0001AE6506
:100BD80001D00CD0680E0001AB6FE40EE82EFED7F2
:100BE800AB2FFCD700F00001AE2BEFD7000E0001B1
:100BF800AF6F630E0001AF6501D00CD0680E000125
:100C0800AB6FE40EE82EFED7AB2FFCD700F0000147
:100C1800AF2BEFD7800ED1EC2FF0C00ED1EC2FF018
:100C2800D50E00018E6FFB0E00018F6F67EC0EF082
:100C3800010E0001816FF40E806F000E0001836FBA
:100C4800010E826F49EC29F0000E0001B06F630EAF
:100C58000001B06501D00CD0680E0001AB6FE40E46
:100C6800E82EFED7AB2FFCD700F00001B02BEFD752
:100C7800000E0001B16F630E0001B16501D00CD008
:100C8800680E0001AB6FE40EE82EFED7AB2FFCD741
:100C980000F00001B12BEFD7800ED1EC2FF0C00E81
:100CA800D1EC2FF0B30E00018E6FFB0E00018F6F99
:100CB80067EC0EF0090E0001816F600E806F000E68
:100CC8000001836F010E826F49EC29F0000E0001CC
:100CD800B26F630E0001B26501D00CD0680E00013E
:100CE800AB6FE40EE82EFED7AB2FFCD700F0000167
:100CF800B22BEFD7000E0001B36F630E0001B3658E
:100D080001D00CD0680E0001AB6FE40EE82EFED7C0
:100D1800AB2FFCD700F00001B32BEFD7800ED1EC3E
:100D28002FF0C00ED1EC2FF03B0E00018E6FFC0EA1
:100D380000018F6F67EC0EF0060E0001816F860EC2
:100D4800806F000E0001836F010E826F49EC29F05D
:100D5800000E0001B46F630E0001B46501D00CD021
:100D6800680E0001AB6FE40EE82EFED7AB2FFCD760
:100D780000F00001B42BEFD7000E0001B56F630E31
:100D88000001B56501D00CD0680E0001AB6FE40E10
:100D9800E82EFED7AB2FFCD700F00001B52BEFD71C
:100DA800800ED1EC2FF0C00ED1EC2FF04C0E0001CC
:100DB8008E6FFC0E00018F6F67EC0EF0030E0001C2
:100DC800816F520E806F000E0001836F010E826FDB
:100DD80049EC29F0000E0001B66F630E0001B665FC
:100DE80001D00CD0680E0001AB6FE40EE82EFED7E0
:100DF800AB2FFCD700F00001B62BEFD7000E000197
:100E0800B76F630E0001B76501D00CD0680E000102
:100E1800AB6FE40EE82EFED7AB2FFCD700F0000135
:100E2800B72BEFD7800ED1EC2FF0C00ED1EC2FF0FE
:100E3800910E00018E6FFB0E00018F6F67EC0EF0B4
:100E4800040E0001816FB00E806F000E0001836FE9
:100E5800010E826F49EC29F0000E0001B86F630E95
:100E68000001B86501D00CD0680E0001AB6FE40E2C
:100E7800E82EFED7AB2FFCD700F00001B82BEFD738
:100E8800000E0001B96F630E0001B96501D00CD0E6
:100E9800680E0001AB6FE40EE82EFED7AB2FFCD72F
:100EA80000F00001B92BEFD7CD90490E00018E6FED
:100EB800FE0E00018F6F67EC0EF0C00ED1EC2FF024
:100EC800C40E00018E6FFB0E00018F6F67EC0EF0F1
:100ED800040E0001816F1A0E806F000E0001836FEF
:100EE800030E826F49EC29F0B180000E0001BA6F41
:100EF800630E0001BA6501D00CD0680E0001AB6F1B
:100F0800E40EE82EFED7AB2FFCD700F00001BA2B79
:100F1800EFD7000E0001BB6F630E0001BB6501D067
:100F28000CD0680E0001AB6FE40EE82EFED7AB2F95
:100F3800FCD700F00001BB2BEFD7800ED1EC2FF0CF
:100F4800C00ED1EC2FF0A20E00018E6FFB0E000137
:100F58008F6F67EC0EF0040E0001816FEC0E806F4E
:100F6800000E0001836F030E826F49EC29F0000E1A
:100F78000001BC6F630E0001BC6501D00CD0680E87
:100F88000001AB6FE40EE82EFED7AB2FFCD700F0C4
:100F98000001BC2BEFD7000E0001BD6F630E0001EE
:100FA800BD6501D00CD0680E0001AB6FE40EE82ED1
:100FB800FED7AB2FFCD700F00001BD2BEFD7800E7A
:100FC800D1EC2FF0C00ED1EC2FF0C40E00018E6FC3
:100FD800FB0E00018F6F67EC0EF0040E0001816FAD
:100FE8001A0E806F000E0001836F030E826F49ECAA
:100FF80029F0000E0001BE6F630E0001BE6501D02E
:101008000CD0680E0001AB6FE40EE82EFED7AB2FB4
:10101800FCD700F00001BE2BEFD7000E0001BF6F18
:10102800630E0001BF6501D00CD0680E0001AB6FE4
:10103800E40EE82EFED7AB2FFCD700F00001BF2B43
:10104800EFD7B190F29E010ED1EC2FF0680E00019F
:10105800AB6FE40EE82EFED7AB2FFCD700F0800E66
:10106800D1EC2FF0C50E00018E6FFE0E00018F6FC0
:1010780067EC0EF0C00ED1EC2FF0A70E00018E6FBA
:10108800FE0E00018F6F67EC0EF08B80000E0001E2
:10109800C06F630E0001C06501D00CD0680E00015E
:1010A800AB6FE40EE82EFED7AB2FFCD700F00001A3
:1010B800C02BEFD7000E0001C16F630E0001C165A0
:1010C80001D00CD0680E0001AB6FE40EE82EFED7FD
:1010D800AB2FFCD700F00001C12BEFD7800ED1EC6D
:1010E8002FF0C00ED1EC2FF0980E00018E6FFE0E7F
:1010F80000018F6F67EC0EF0000E0001C56F000E47
:10110800C46F0001C5BF08D0100E0001C45D270ED2
:101118000001C559D8B00DD08B801A0EE82EFED725
:1011280000D08B90F00EE82EFED70001C44BC52BE3
:10113800E8D7000E0001C26F630E0001C26501D03E
:101148000CD0680E0001AB6FE40EE82EFED7AB2F73
:10115800FCD700F00001C22BEFD7000E0001C36FCF
:10116800630E0001C36501D00CD0680E0001AB6F9F
:10117800E40EE82EFED7AB2FFCD700F00001C32BFE
:10118800EFD7030E0001FC6F12000101335101017A
:101198003411D8B41200290E00019C6F960E00017C
:1011A8009B6F7F0EE82EFED79B2FFCD79C2FFAD77C
:1011B800000E0001E96F000EE86F0001DA5100012E
:1011C800DB11D8B436D0000E0001836F030E826F96
:1011D800F1EC27F0E0C0DCF0E1C0DDF0090E000121
:1011E8009C6F1E0E00019B6FE40EE82EFED79B2F0E
:1011F800FCD79C2FFAD700F0000E0001836F030E76
:10120800826FF1EC27F0010E00019E6F0001DC51A6
:101218000001DD11D8A409D00001E0510001E1115D
:10122800D8A403D0000E00019E6F9EC0DCF0000120
:10123800DD6B8B8E000E0001B76F0A0EB66F0001D2
:10124800DA510001DB11D8A4E3D0020E0001876F48
:10125800580E866FB6C088F0B7C089F08EEC26F0BD
:10126800000186510001A96F000E0001AB6F000E4E
:10127800AA6F000E0001AD6F000EAC6F000E0001EA
:10128800A26F000EA16F0001B6510001A15D00011F
:10129800A251800A00019B6F0001B751800A00012A
:1012A8009B59D8B012D00001A951E7EC2EF019ECE7
:1012B8002CF00001DE510001AA270001DF510001D6
:1012C800AB230001A14BA22BDED78B9E090E000198
:1012D8009C6F1E0E00019B6FE40EE82EFED79B2F1D
:1012E800FCD79C2FFAD700F08B8E000E0001A46F5C
:1012F800000EA36F0001B6510001A35D0001A451C7
:10130800800A00019B6F0001B751800A00019B59B8
:10131800D8B012D00001A951E7EC2EF019EC2CF04E
:101328000001DE510001AC270001DF510001AD23AF
:101338000001A34BA42BDED78B9E9A0E0001926F5F
:10134800990E0001936F3E0E0001946FB6C088F0AD
:10135800B7C089F0AAC086F0ABC087F08EEC26F043
:1013680086C08EF087C08FF088EC2CF08EC095F088
:101378008FC096F090C097F02AEC26F00001D8B004
:1013880002D0010E01D0000E0001AA6FAB6B9A0EBD
:101398000001926F990E0001936F3E0E0001946F49
:1013A800B6C088F0B7C089F0ACC086F0ADC087F091
:1013B8008EEC26F086C08EF087C08FF088EC2CF07B
:1013C8008EC095F08FC096F090C097F02AEC26F06A
:1013D8000001D8B002D0010E01D0000E0001AC6FA0
:1013E800AD6B010E00019F6F0001AA510001AB1106
:1013F800D8A409D00001AC510001AD11D8A403D084
:10140800000E00019F6F9FC0DCF00001DD6BE3D090
:10141800010E0001876F900E866FB6C088F0B7C0C6
:1014280089F08EEC26F00001865100019D6F000EB8
:101438000001B56F000EB46F0001B5BF0AD00001FE
:10144800B55106E1020E0001B45DD8B0C4D001D098
:10145800C2D08B8E000E0001A66F000EA56F000192
:10146800B6510001A55D0001A651800A00019B6FDD
:101478000001B751800A00019B59D8B01AD0000169
:101488009D51E7EC2EF019EC2CF0D8900001B43502
:10149800D96E0001B535DA6EAE0ED926000EDA2205
:1014A8000001DE51DE26DF51DD220001A54BA62B0F
:1014B800D6D78B9E090E00019C6F1E0E00019B6FF4
:1014C800E40EE82EFED79B2FFCD79C2FFAD700F00E
:1014D8009A0E0001926F990E0001936F3E0E000163
:1014E800946FB6C088F0B7C089F0D8900001B435C1
:1014F800D96E0001B535DA6EAE0ED926000EDA22A5
:10150800DECF86F0DDCF87F08EEC26F086C08EF039
:1015180087C08FF088EC2CF08EC095F08FC096F0C5
:1015280090C097F02AEC26F00001D8B002D0010E46
:1015380001D0000E00019B6F9C6BD8900001B43560
:10154800D96E0001B535DA6EAE0ED926000EDA2254
:101558009BC0DEFF9CC0DDFF0001B4510001B51146
:10156800D8A410D0D8900001B435D96E0001B53593
:10157800DA6EAE0ED926000EDA22DECFDCF0DDCF31
:10158800DDF01FD0010E0001A06F0001DC51000149
:10159800DD11D8A412D0D8900001B435D96E00015D
:1015A800B535DA6EAE0ED926000EDA22DE50DE1020
:1015B800D8A403D0000E0001A06FA0C0DCF0000189
:1015C800DD6B0001B44BB52B0001B5BF42D700015C
:1015D800B55101E137D70001DA510001DB11D8A478
:1015E80016D00001DC510001DD11D8A408D001019A
:1015F800294B2A2B000E01012E6F000E07D0010186
:101608002B4B2C2B000E01012E6F010E2D6F0001AC
:10161800DA510001DB11D8B416D00001DC51000109
:10162800DD11D8A408D00101274B282B000E010199
:101638002E6F020E07D00101254B262B000E01014B
:101648002E6F030E2D6F0101375101013811D8B4E7
:10165800FAD7000E0001A86F000EA76F0001A8BFFF
:1016680008D0100E0001A75D270E0001A859D8B0B8
:101678000DD08B801A0EE82EFED700D08B90F00E7E
:10168800E82EFED70001A74BA82BE8D78B90000EB9
:101698000101366F010E356F1F0E00019C6F710E30
:1016A80000019B6F1E0EE82EFED79B2FFCD79C2FA8
:1016B800FAD700F08B800001EA510001EB11D8A4A1
:1016C80032D0000E0001B36F000EB26F0001B3BF3D
:1016D80008D00001B35126E12E0E0001B25DD8B04A
:1016E80021D08AB404D000019B6B9B2B02D000014F
:1016F8009B6B00019B479B478A5000019B19FB0B82
:101708009B198A6E0001B25100082D0FE7EC2EF0EC
:101718000001B24BB32B0001B3BFE3D70001B351B3
:1017280001E1DAD78A84000E0101346F000E336FAD
:10173800120001013B5101013C11D8B46AD09D80CF
:101748009D82A0825CEC25F0010ED1EC2FF0680E92
:101758000001B16FE40EE82EFED7B12FFCD700F0E0
:101768004BEC27F08B8A8B8C000E0001816F000EEA
:10177800806F94EC2FF00001FD6F0001FD510B0DFF
:10178800010EF3240001B36F000EF4200001B46FC2
:101798007F0E0001B56FB3C0ABF0B4C0ACF0B5C0FC
:1017A800ADF0A1EC23F08A94000E0001C16F000E89
:1017B800C06F0001C1BF08D00001C15126E12E0E43
:1017C8000001C05DD8B021D08AB404D00001B16B4B
:1017D800B12B02D00001B16B0001B147B1478A506B
:1017E8000001B119FB0BB1198A6E0001C051000844
:1017F8002D0FE7EC2EF00001C04BC12B0001C1BF3B
:10180800E3D70001C15101E1DAD78A8488EC29F0D5
:1018180012000001EC510001ED11D8A41DD0000EFA
:101828000001896F000E886F08EC29F00001EC5167
:101838000001ED11D8B412000001FE4BFF2B0C0E75
:101848000001FE190001FF11D8A41200000E0001CA
:10185800EB6F010EEA6F12000101315101013211E3
:10186800D8B41200000E01013A6F010E396F000E54
:101878000001ED6F000EEC6F110E0001B26F3C0E0F
:101888000001B16FCB0EE82EFED7B12FFCD7B22FD7
:10189800FAD78A94000E0001E96F010EE86FEE0E88
:1018A800E7EC2EF056EC2DF0E2C0DAF0E3C0DBF006
:1018B8009D920001DA510001DB11D8B41DD0000E51
:1018C8000001B76F000EB66F0001B7BF08D0C40E95
:1018D8000001B65D090E0001B759D8B02BD0898830
:1018E800C80EE82EFED78998420EE82EFED700D003
:1018F8000001B64BB72BE8D7000E0001B96F000EF8
:10190800B86F0001B9BF08D0C40E0001B85D090E58
:101918000001B959D8B00ED08988850EE82EFED7B7
:1019280000F08998850EE82EFED700F00001B84B2C
:10193800B92BE7D79D820F0E0001B26F350E00015B
:10194800B16F510EE82EFED7B12FFCD7B22FFAD7C0
:10195800000E0001836F000E826FF1EC27F000018A
:10196800E0050001E111D8A4A8D1030E0001B26F6F
:10197800D80E0001B16F410EE82EFED7B12FFCD76B
:10198800B22FFAD700D0000E0001836F000E826FCD
:10199800F1EC27F00001E0050001E111D8A441D0E5
:1019A8000001DA510001DB11D8B41DD0000E00018E
:1019B800BB6F000EBA6F0001BBBF08D0C40E000198
:1019C800BA5D090E0001BB59D8B02BD08988C80E62
:1019D800E82EFED78998420EE82EFED700D00001E7
:1019E800BA4BBB2BE8D7000E0001BD6F000EBC6FD1
:1019F8000001BDBF08D0C40E0001BC5D090E000186
:101A0800BD59D8B00ED08988850EE82EFED700F0D3
:101A18008998850EE82EFED700F00001BC4BBD2B3F
:101A2800E7D70F0E0001B26F350E0001B16F510EEE
:101A3800E82EFED7B12FFCD7B22FFAD7000E00013F
:101A4800C36F000EC26F32D1000E0001836F000E0B
:101A5800826FF1EC27F0030E0001C2190001C311D7
:101A6800D8B407D0040E0001C2190001C311D8A4CC
:101A780005D0000E0001E96F000E30D0050E000100
:101A8800C2190001C311D8B407D0060E0001C2194B
:101A98000001C311D8A402D08A8442D0070E0001E5
:101AA800C2190001C311D8B415D0080E0001C2191B
:101AB8000001C311D8B40ED0090E0001C2190001EB
:101AC800C311D8B407D00A0E0001C2190001C3110E
:101AD800D8A406D0000E0001E96F010EE86F20D0EF
:101AE8000001C2B11DD08AB404D00001B16BB12B82
:101AF80002D00001B16B0001B147B1478A50000123
:101B0800B119FB0BB1198A6E0001E8510001E91106
:101B1800D8A402D0010E01D0000E0001E86FE96BD5
:101B28000001E0050001E111D8A49FD00F0E0001CB
:101B3800B26F350E0001B16F510EE82EFED7B12FEE
:101B4800FCD7B22FFAD7000E0001836F000E826F08
:101B5800F1EC27F00001E0050001E111D8A481D0E3
:101B68000001DA510001DB11D8B411D089880B0EBD
:101B78000001B26F260E0001B16F5D0EE82EFED790
:101B8800B12FFCD7B22FFAD700D089986AD09D928E
:101B9800000E0001BF6F000EBE6F0001BFBF41D035
:101BA800C40E0001BE5D090E0001BF59D8B058D05F
:101BB80038D08988C80EE82EFED78998420EE82EBC
:101BC800FED71CD08988D50EE82EFED700F089985C
:101BD800350EE82EFED71DD08988E20EE82EFED7F6
:101BE80000D08998280EE82EFED736D08988F00EC6
:101BF800E82EFED789981A0EE82EFED700D02CD0F2
:101C08008988FD0EE82EFED700F08998850EE82E0B
:101C1800FED700F021D08988A00E00D0E82EFDD78D
:101C28001BD0C2C0B1F0C3C0B2F00001B251000A6B
:101C3800D8A4F1D70001B151000AD8B4BAD7010A23
:101C4800D8B4C0D7030AD8B4C7D7010AD8B4CED7F6
:101C5800070AD8B4D5D7DFD70001BE4BBF2B9DD715
:101C68009D8289980001C24BC32B0001E0510001FD
:101C7800E111D8A41BD0150E0001B26F4B0E000164
:101C8800B16FBE0EE82EFED7B12FFCD7B22FFAD710
:101C980000F0000E0001836F000E826FF1EC27F058
:101CA8000001E0050001E111D8A406D00001E0051B
:101CB8000001E111D8B4C8D68A94000E0101346F2E
:101CC800010E336F1200900E0001A16F000E00018B
:101CD800A26F05D2250E0001A819D8B405D00001BD
:101CE800A851C9EC2FF0FBD1000E0001AA6F000E1D
:101CF800A96F000E0001A76F05D00001A78500019C
:101D08008E4B8F2B8EC0F6FF8FC0F7FFF86A080046
:101D1800F550300AD8B4F1D78EC0F6FF8FC0F7FF60
:101D2800F86A0800F550D2EC2EF0D8A0D2D0000EF8
:101D38000001AA6F000EA96FA9C080F0AAC081F0A7
:101D4800000E0001836F0A0E826F3BEC2DF080C0FD
:101D5800A9F081C0AAF0D00E00019A6FFF0E000111
:101D68009B6F8EC0F6FF8FC0F7FFF86A0800F5502A
:101D780000019C6F9D6B00019A5100019C27000196
:101D88009B5100019D2300019C510001A9270001DE
:101D98009D510001AA2300018E4B8F2B8EC0F6FFA8
:101DA8008FC0F7FFF86A0800F550D2EC2EF0D8A0E3
:101DB80090D0C2D7A1C0D9FFA2C0DAFFDECF9FF072
:101DC800DDCFA0F0020E0001A127000EA223000122
:101DD8009F510001A011D8A406D0B50E00019F6F35
:101DE800FF0E0001A06F000E0001A46F000EA36F8C
:101DF80003D00001A34BA42B0001A35100019F2590
:101E080000019A6F0001A4510001A02100019B6FFD
:101E18009AC0F6FF9BC0F7FF000EF86E0F0EF7642E
:101E280003D00800F55005D0F6CFE9FFF7CFEAFF59
:101E3800EF500009D8A4DDD70001A9510001A35D26
:101E48000001AA510001A459D8B009D00001A3513A
:101E58000001A95F0001A4510001AA5B09D0000E8E
:101E68000001AA6F000EA96F03D0200EC9EC2FF055
:101E78000001A907D8A0AA070001A929F6E10001D5
:101E8800AA29D8B417D0F1D79FC0F6FFA0C0F7FF92
:101E9800000EF86E0F0EF76403D00800F55005D059
:101EA800F6CFE9FFF7CFEAFFEF50C9EC2FF00001BA
:101EB8009F4BA02B0001A307D8A0A4070001A329CA
:101EC800E3E10001A429D8B40AD1DED70001A78D27
:101ED8001DD08EC0F6FF8FC0F7FF00018E4B8F2BF1
:101EE800F86A0800F5CFA8F00001A851000AD8B494
:101EF8001200640AD8B40AD00D0AD8B407D01A0A56
:101F0800D8B458D7060AD8B4E1D7E9D00001A7BD9C
:101F180019D0A1C0D9FFA2C0DAFFDECFA5F0DDCF6E
:101F2800A6F0020E0001A127000EA2230001A6AF11
:101F380016D0030E0001A7130001A56DA61FD8B087
:101F4800A62B0DD0A1C0D9FFA2C0DAFFDECFA5F025
:101F5800DDCFA6F0020E0001A127000EA223010E7C
:101F68000001A86F050E0001A819D8B419D0000106
:101F7800A851020DB80EF324F66EFA0EF420F76E8F
:101F8800F86A000EF8220900F5500001A55D090065
:101F9800F5500001A659D8A003D00001A82BE2D71C
:101FA8000001A9510001AA11D8B40BD0A7C09AF01A
:101FB800030E00019A17D8B404D00001A907D8A0CD
:101FC800AA07800E0001A8BF7F0E00019A6F0001CA
:101FD800A9510001A85D0001AA51800A00019A597F
:101FE800D8B00BD00001A8510001A95F000E000174
:101FF800A8BFFF0E0001AA5B05D0000E0001AA6F62
:10200800000EA96F0001A7A518D0A7C09AF0030E6B
:1020180000019A17D8B403D02D0EC9EC2FF0000197
:10202800A9510001AA11D8B425D0300EC9EC2FF05F
:102038000001A907D8A0AA07F2D70001A9510001F9
:10204800AA11D8B40DD0200EC9EC2FF00001A907B1
:10205800D8A0AA070001A9510001AA11D8A4F3D752
:10206800A7C09AF0030E00019A17D8B403D02D0E1A
:10207800C9EC2FF0A8C09EF02CD000019E51020D93
:10208800B80EF324F66EFA0EF420F76EF86A000E16
:10209800F8220900F5CF82F00A00F5CF83F0A5C039
:1020A80080F0A6C081F0C4EC29F080C087F081C020
:1020B80088F0000E00018A6F0A0E896F0DEC2BF074
:1020C80000018751300F0001A86F0001A851C9EC29
:1020D8002FF000019E0700019E29D8A4CED78EC0FC
:1020E800F6FF8FC0F7FF00018E4B8F2BF86A0800B0
:1020F800F5CFA8F00001A851D8B41200EBD5010E15
:10210800D1EC2FF0680E0001AB6FE40EE82EFED77D
:10211800AB2FFCD700F0800ED1EC2FF0C30E0001DE
:102128008E6FFC0E00018F6F67EC0EF0CD80B180D2
:10213800010E0001FC6F000E786E000E776E000E27
:102148007C6E000E7B6E88EC29F03D0E0001AC6FB2
:10215800E10E0001AB6F3F0EE82EFED7AB2FFCD788
:10216800AC2FFAD700D0010E0001816FF40E806FFA
:10217800000E0001836F010E826F49EC29F0040EF6
:102188000001816F1A0E806F000E0001836F030E2D
:10219800826F49EC29F01F0E0001AC6F710E00012F
:1021A800AB6F1E0EE82EFED7AB2FFCD7AC2FFAD79D
:1021B80000F0040E0001816FEC0E806F000E00012C
:1021C800836F030E826F49EC29F01D0E0001AC6F7E
:1021D800690E0001AB6FA50EE82EFED7AB2FFCD71A
:1021E800AC2FFAD7040E0001816F1A0E806F000E13
:1021F8000001836F030E826F49EC29F01F0E000166
:10220800AC6F710E0001AB6F1E0EE82EFED7AB2F20
:10221800FCD7AC2FFAD700F0030E0001816F520EE5
:10222800806F000E0001836F010E826F49EC29F068
:10223800040E0001816F1A0E806F000E0001836F7B
:10224800030E826F49EC29F01F0E0001AC6F710E6E
:102258000001AB6F1E0EE82EFED7AB2FFCD7AC2FBC
:10226800FAD700F0040E0001816FEC0E806F000EAB
:102278000001836F030E826F49EC29F01D0E0001E7
:10228800AC6F690E0001AB6FA50EE82EFED7AB2F21
:10229800FCD7AC2FFAD7040E0001816F1A0E806F9D
:1022A800000E0001836F030E826F49EC29F01F0EA8
:1022B8000001AC6F710E0001AB6F1E0EE82EFED749
:1022C800AB2FFCD7AC2FFAD700F0010E0001816FBD
:1022D800F40E806F000E0001836F010E826F49ECCF
:1022E80029F0040E0001816F1A0E806F000E0001A4
:1022F800836F030E826F49EC29F01F0E0001AC6F4B
:10230800710E0001AB6F1E0EE82EFED7AB2FFCD767
:10231800AC2FFAD700F0040E0001816FEC0E806F2D
:10232800000E0001836F030E826F49EC29F01D0E29
:102338000001AC6F690E0001AB6FA50EE82EFED749
:10234800AB2FFCD7AC2FFAD7040E0001816F1A0E01
:10235800806F000E0001836F030E826F49EC29F035
:102368003D0E0001AC6FE10E0001AB6F3F0EE82E91
:10237800FED7AB2FFCD7AC2FFAD700D0060E000142
:10238800816F860E806F000E0001836F010E826FD1
:1023980049EC29F0040E0001816F1A0E806F000EBF
:1023A8000001836F030E826F49EC29F01F0E0001B4
:1023B800AC6F710E0001AB6F1E0EE82EFED7AB2F6F
:1023C800FCD7AC2FFAD700F0050E0001816F6E0E16
:1023D800806F000E0001836F030E826F49EC29F0B5
:1023E8001D0E0001AC6F690E0001AB6FA50EE82E43
:1023F800FED7AB2FFCD7AC2FFAD7040E0001816FA4
:102408001A0E806F000E0001836F030E826F49EC75
:1024180029F01F0E0001AC6F710E0001AB6F1E0E8C
:10242800E82EFED7AB2FFCD7AC2FFAD700F0090E59
:102438000001816F600E806F000E0001836F010E36
:10244800826F49EC29F0040E0001816F1A0E806F2B
:10245800000E0001836F030E826F49EC29F01F0EF6
:102468000001AC6F710E0001AB6F1E0EE82EFED797
:10247800AB2FFCD7AC2FFAD700F0050E0001816F07
:102488006E0E806F000E0001836F030E826F49ECA1
:1024980029F01D0E0001AC6F690E0001AB6FA50E8F
:1024A800E82EFED7AB2FFCD7AC2FFAD7040E0001CD
:1024B800816F1A0E806F000E0001836F030E826F0A
:1024C80049EC29F01F0E0001AC6F710E0001AB6FD3
:1024D8001E0EE82EFED7AB2FFCD7AC2FFAD700F094
:1024E80078EC2FF0030E0001FC6F1200010ED1EC06
:1024F8002FF0680E0001AB6FE40EE82EFED7AB2F6D
:10250800FCD700F0800ED1EC2FF0AD0E00018E6FDD
:10251800FF0E00018F6F67EC0EF0C00ED1EC2FF0AC
:102528003A0E00018E6FFF0E00018F6F67EC0EF000
:10253800050E0001AC6F0F0E0001AB6FF10EE82E17
:10254800FED7AB2FFCD7AC2FFAD781A2FED781B22A
:10255800FED7010ED1EC2FF0680E0001AB6FE40E30
:10256800E82EFED7AB2FFCD700F0800ED1EC2FF071
:102578008B8A5CD0000EBCEC2EF0C350C4CFABF0FD
:102588000001AC6BABC0ACF00001AB6B0001AB1150
:102598000001AD6F0001AC510001AE6F0001AEBF8C
:1025A8000AD0210E0001AD5D030E0001AE59D8A07E
:1025B80002D0010E01D0000E0001E06FE16B010EA8
:1025C800D1EC2FF0680E0001AB6FE40EE82EFED7B9
:1025D800AB2FFCD700F0800ED1EC2FF0250E0001B8
:1025E8008E6FFB0E00018F6FE0C090F0E1C091F09C
:1025F80067EC0EF0C00ED1EC2FF0250E00018E6FA7
:10260800FE0E00018F6FADC090F0AEC091F067EC88
:102618000EF0050E0001AC6F0F0E0001AB6FF10E4E
:10262800E82EFED7AB2FFCD7AC2FFAD781A2A2D7C2
:102638008B9A81B2FED78B8C5CD0030EBCEC2EF04B
:10264800C350C4CFABF00001AC6BABC0ACF0000121
:10265800AB6B0001AB110001AF6F0001AC51000181
:10266800B06F0001B0BF0AD0F50E0001AF5D010EDA
:102678000001B059D8A002D0010E01D0000E00010F
:10268800E06FE16B010ED1EC2FF0680E0001AB6F2B
:10269800E40EE82EFED7AB2FFCD700F0800ED1EC6D
:1026A8002FF0130E00018E6FFB0E00018F6FE0C03C
:1026B80090F0E1C091F067EC0EF0C00ED1EC2FF075
:1026C800250E00018E6FFE0E00018F6FAFC090F0D7
:1026D800B0C091F067EC0EF0050E0001AC6F0F0E64
:1026E8000001AB6FF10EE82EFED7AB2FFCD7AC2F55
:1026F800FAD781A2A2D781380F0B0F0AD8B41DD000
:1027080081CFABF00001AB3B0F0EAB17D8A412D0B2
:102718008BBC04D00001AB6BAB2B02D00001AB6BC0
:102728000001AB3BAB47AB478B500001AB19BF0B6C
:10273800AB198B6E81A2DDD7FDD78B9C81B2FED7FA
:10274800010ED1EC2FF0680E0001AB6FE40EE82EFD
:10275800FED7AB2FFCD700F0800ED1EC2FF0B60ED1
:1027680000018E6FFE0E00018F6F67EC0EF0050EF4
:102778000001AC6F0F0E0001AB6FF10EE82EFED713
:10278800AB2FFCD7AC2FFAD721D03FEC2CF0800E22
:10279800D1EC2FF0C00ED1EC2FF0390E00018E6F66
:1027A800FE0E00018F6FE2C090F0E3C091F067EC7D
:1027B8000EF0050E0001AC6F0F0E0001AB6FF10EAD
:1027C800E82EFED7AB2FFCD7AC2FFAD781A2DDD7E6
:1027D80081B2FED7010ED1EC2FF0680E0001AB6F6D
:1027E800E40EE82EFED7AB2FFCD700F0800ED1EC1C
:1027F8002FF0860E00018E6FFF0E00018F6F67ECC1
:102808000EF0050E0001AC6F0F0E0001AB6FF10E5C
:10281800E82EFED7AB2FFCD7AC2FFAD7010ED1ECA0
:102828002FF0680E0001AB6FE40EE82EFED7AB2F39
:10283800FCD700F0800ED1EC2FF0860E00018E6FD1
:10284800FF0E00018F6F67EC0EF01BD0800ED1ECED
:102858002FF0C00ED1EC2FF0A40E00018E6FFF0EEA
:1028680000018F6F80A404D00001AB6BAB2B02D0AA
:102878000001AB6B0001AB510001906F916B67ECED
:102888000EF081A2E3D781380F0B0F0AD8B41200DB
:102898008B8E1BD0800ED1EC2FF0C00ED1EC2FF018
:1028A800A40E00018E6FFF0E00018F6F80A404D06C
:1028B8000001AB6BAB2B02D00001AB6B0001AB513D
:1028C8000001906F916B67EC0EF081B2E3D78B9E9D
:1028D800A5D70F0E206E000E216EA4D1250E271845
:1028E800D8B404D02750D9EC2FF09CD1000E296E13
:1028F800000E286E000E266E03D026840D4A0E2A7E
:102908000DC0F6FF0EC0F7FFF86A0800F550300A50
:10291800D8B4F3D70DC0F6FF0EC0F7FFF86A080069
:10292800F55069EC2FF0D8A0A6D0000E296E000E45
:10293800286E28C001F029C002F0000E046E0A0EAD
:10294800036E0FEC2FF001C028F002C029F0D00E62
:10295800196EFF0E1A6E0DC0F6FF0EC0F7FFF86A6B
:102968000800F5501B6E1C6A19501B261A501C22B1
:102978001B5028261C5029220D4A0E2A0DC0F6FF8E
:102988000EC0F7FFF86A0800F55069EC2FF0D8A0E0
:1029980072D0CFD720C0D9FF21C0DAFFDECF1EF01A
:1029A800DDCF1FF0020E2026000E21221E501F1020
:1029B800D8A404D0B50E1E6EFF0E1F6E000E236E37
:1029C800000E226E02D0224A232A22501E24196E9B
:1029D80023501F201A6E19C0F6FF1AC0F7FF000E09
:1029E800F86E0F0EF76403D00800F55005D0F6CF47
:1029F800E9FFF7CFEAFFEF500009D8A4E4D7285041
:102A0800225C29502358D8B005D02250285E235084
:102A1800295A08D0000E296E000E286E03D0200E09
:102A2800D9EC2FF02806D8A029062828F8E129286B
:102A3800D8B416D0F4D71EC0F6FF1FC0F7FF000E9B
:102A4800F86E0F0EF76403D00800F55005D0F6CFE6
:102A5800E9FFF7CFEAFFEF50D9EC2FF01E4A1F2A03
:102A68002206D8A023062228E6E12328D8B4DAD003
:102A7800E2D7268C1BD00DC0F6FF0EC0F7FF0D4A1B
:102A88000E2AF86A0800F5CF27F02750000AD8B4B4
:102A98001200640AD8B40AD00D0AD8B407D01A0AAA
:102AA800D8B478D7060AD8B4E4D7BCD026BC15D099
:102AB80020C0D9FF21C0DAFFDECF24F0DDCF25F01A
:102AC800020E2026000E212225AE13D0030E261258
:102AD800246C251ED8B0252A0CD020C0D9FF21C0CF
:102AE800DAFFDECF24F0DDCF25F0020E2026000E1F
:102AF8002122010E276E050E2718D8B415D02750AD
:102B0800020DB80EF324F66EFA0EF420F76EF86A8A
:102B1800000EF8220900F550245C0900F5502558EC
:102B2800D8A002D0272AE7D728502910D8B409D02E
:102B380026C019F0030E1916D8B403D02806D8A059
:102B48002906800E27BE7F0E196E2850275C295053
:102B5800800A1958D8B007D02750285E000E27BE23
:102B6800FF0E295A04D0000E296E000E286E26A4E6
:102B780014D026C019F0030E1916D8B403D02D0EA0
:102B8800D9EC2FF028502910D8B41ED0300ED9EC2B
:102B98002FF02806D8A02906F5D728502910D8B430
:102BA8000AD0200ED9EC2FF02806D8A029062850E4
:102BB8002910D8A4F6D726C019F0030E1916D8B4D0
:102BC80003D02D0ED9EC2FF027C01DF027D01D50B3
:102BD800020DB80EF324F66EFA0EF420F76EF86ABA
:102BE800000EF8220900F5CF08F00A00F5CF09F029
:102BF80024C006F025C007F0C9EC2BF006C001F090
:102C080007C002F0000E046E0A0E036EAAEC2CF048
:102C18000150300F276E2750D9EC2FF01D061D28C4
:102C2800D8A4D5D70DC0F6FF0EC0F7FF0D4A0E2A5F
:102C3800F86A0800F5CF27F02750D8B412004ED60E
:102C480000EC2AF0000E4A6E000E496E4ABE06D00D
:102C58004A5031E1070E495CD8B02DD01C0E4924EA
:102C6800D96E010E4A20DA6EDF502A6E2A3A0F0E0C
:102C78002A160F0E2A162A500A0D1C0E4924D96E40
:102C8800010E4A20DA6EDF500F0B2B6E2C6AF350C0
:102C98002B26F4502C22D8904934D96E4A34DA6E57
:102CA8002D0ED926000EDA222BC0DEFF2CC0DDFF48
:102CB800494A4A2ACBD710C101F011C102F0000ECF
:102CC800046E3C0E036E0FEC2FF001C02AF002C018
:102CD8002BF012C101F013C102F00E0E046E100E9B
:102CE800036E0FEC2FF001502A2602502B2201010F
:102CF8000E512A243B6E01010F512B203C6E2FC030
:102D080001F030C002F0000E046E3C0E036E0FECB2
:102D18002FF001C02AF002C02BF031C001F032C000
:102D280002F00E0E046E100E036E0FEC2FF0015021
:102D38002A2602502B222D502A243D6E2E502B205D
:102D48003E6E3BC02AF03CC02BF02A1E2B1E2A4A9E
:102D58002B2A3D502A24456E3E502B20466E45C0F6
:102D6800FAF046C0FBF00101395101013A11D8B41B
:102D780009D0FAC047F1FBC048F1000E01013A6FD3
:102D8800000E396F0001FBBF5BD00001FB5105E16C
:102D9800140E0001FA5DD8A053D08AB436D00101D0
:102DA800494B4A2B020E0101491901014A11D8A4C5
:102DB80047D0000E01014A6F000E496F000E486EA1
:102DC800000E476E48BE06D048501DE12E0E475CE7
:102DD800D8B019D08AB403D02A6A2A2A01D02A6A1C
:102DE8002A462A468A502A18FB0B2A188A6E475008
:102DF80000082D0F86EC2FF0474A482A48BEEAD72C
:102E0800485001E1E3D78A841BD0FAC001F0FBC027
:102E180002F0000E046E140E036E39EC2AF0015015
:102E28000210D8A40DD08AB403D02A6A2A2A01D065
:102E38002A6A2A462A468A502A18FB0B2A188A6EBA
:102E48000001FBBF34D00001FB5105E11E0E00015B
:102E5800FA5DD8A02CD08AA011D00101234B242BD5
:102E6800020E0101231901012411D8A420D0000E5B
:102E78000101246F000E236F8A9019D0FAC001F067
:102E8800FBC002F0000E046E1E0E036E39EC2AF031
:102E980001500210D8A40BD08AB003D02A6A2A2A7B
:102EA80001D02A6A8A502A18FE0B2A188A6E47C14E
:102EB8002AF048C12BF02A1E2B1E2A4A2B2A000171
:102EC800FA512A260001FB512B222A0E2A182B1010
:102ED800D8B407D0B30E0001FA190001FB11D8A429
:102EE80003D0020E0001FC6F0E0E046E100E036E6E
:102EF80045C001F046C002F0AAEC2CF001C006F073
:102F080002C007F0000E096E3C0E086EC9EC2BF0EB
:102F180006C03FF007C040F00E0E046E100E036EA0
:102F280045C001F046C002F0AAEC2CF001C043F005
:102F380002C044F043C001F044C002F0000E046E29
:102F48003C0E036EAAEC2CF001C041F002C042F026
:102F5800800EDFEC2FF0590E0D6EFE0E0E6E6DEC2E
:102F680014F0C00EDFEC2FF0690E0D6EFE0E0E6E23
:102F78003FC00FF040C010F041C011F042C012F045
:102F88006DEC14F012008B8A010E0001FC6F000E2C
:102F98000001E96F000EE86F000E746E000E736E8C
:102FA8008A96CA84000E7A6E000E796E000E0001B1
:102FB800B66F010EB56F010ED1EC2FF0680E00014F
:102FC800AB6FE40EE82EFED7AB2FFCD700F0800ED7
:102FD800D1EC2FF02A0E00018E6FFC0E00018F6FCE
:102FE80067EC0EF058D0000EBCEC2EF0C350C4CFE6
:102FF800ABF00001AC6BABC0ACF00001AB6B0001F7
:10300800AB110001AD6F0001AC510001AE6F0001C2
:10301800AEBF0AD0210E0001AD5D030E0001AE590E
:10302800D8A002D0010E01D0000E0001E06FE16BC4
:10303800010ED1EC2FF0680E0001AB6FE40EE82E04
:10304800FED7AB2FFCD700F0800ED1EC2FF02A0E64
:1030580000018E6FFC0E00018F6F67EC0EF0C00E42
:10306800D1EC2FF0190E00018E6FFC0E00018F6F4E
:10307800ADC090F0AEC091F067EC0EF0050E000107
:10308800AC6F0F0E0001AB6FF10EE82EFED7AB2F21
:10309800FCD7AC2FFAD781B259D0A5D7000EBCEC1B
:1030A8002EF0C350C4CFABF00001AC6BABC0ACF09A
:1030B8000001AB6B0001AB110001AF6F0001AC5117
:1030C8000001B06F0001B0BF0AD0210E0001AF5D52
:1030D800030E0001B059D8A002D0010E01D0000E95
:1030E8000001E06FE16B010ED1EC2FF0680E0001DA
:1030F800AB6FE40EE82EFED7AB2FFCD700F0800EA6
:10310800D1EC2FF02A0E00018E6FFC0E00018F6F9C
:1031180067EC0EF0C00ED1EC2FF0190E00018E6F87
:10312800FC0E00018F6FAFC090F0B0C091F067EC5B
:103138000EF0050E0001AC6F0F0E0001AB6FF10E23
:10314800E82EFED7AB2FFCD7AC2FFAD781A2A6D793
:1031580081380F0B0F0AD8B49AD081CFABF0000199
:10316800AB3B0F0EAB17D8A412D08AB404D0000121
:10317800AB6BAB2B02D00001AB6B0001AB47AB478D
:103188008A500001AB19FB0BAB198A6E7DD08138D0
:103198000F0B030AD8A420D00001B5510001B611C5
:1031A800D8B410D0000E0001E96F010E0FD0000155
:1031B800B5510001B611D8A40DD00AD00001B56FE1
:1031C800B66B62D0000E0001E96F000EE86FEFD712
:1031D800010EF4D7000EF2D781380F0B050AD8A4D8
:1031E80027D0000E0001B26F000EB16F0001B2BF10
:1031F80008D00001B25148E11E0E0001B15DD8B0FF
:1032080043D089884E0E0001AB6FEB0EE82EFED737
:10321800AB2FFCD789981A0E0001AB6FF80EE82E79
:10322800FED7AB2FFCD700F00001B14BB22BDED795
:1032380081380F0B060AD8A427D0000E0001B46FFE
:10324800000EB36F0001B4BF08D00001B4511CE1F7
:103258001E0E0001B35DD8B017D089883D0E00015D
:10326800AB6F410EE82EFED7AB2FFCD789982C0EFA
:103278000001AB6FA10EE82EFED7AB2FFCD700D014
:103288000001B34BB42BDED781A260D7FDD78B9A50
:1032980078EC2FF0030E0001FC6F120083EC28F08D
:1032A80051C1BEF052C1BFF053C1C0F054C1C1F00A
:1032B800000E0001C36F000EC26F0001C3BF08D02B
:1032C8000001C35146E1070E0001C25DD8B041D0EC
:1032D8001C0E0001C225D96E010E0001C321DA6E51
:1032E800DF500001AB6F0001AB3B0F0EAB170F0EA9
:1032F8000001AB170001AB510A0D1C0E0001C225DD
:10330800D96E010E0001C321DA6EDF500F0B0001E8
:10331800AC6FAD6BF3500001AC27F4500001AD2346
:10332800D8900001C235D96E0001C335DA6EAE0EF1
:10333800D926000EDA22ACC0DEFFADC0DDFF0001E9
:10334800C24BC32B0001C3BFC3D70001C35101E166
:10335800BAD7B8C0BCF0B9C0BDF0B4D0BE0E000139
:10336800806F000E0001816FDA0E0001826FFF0E80
:103378000001836F20EC2DF0D4D0BE0E0001806FC9
:10338800000E0001816FCA0E0001826FFF0E00015E
:10339800836F20EC2DF0C5D0BE0E0001806F000EAB
:1033A8000001816FE60E0001826FFF0E0001836F3E
:1033B80020EC2DF0B6D0BE0E0001806F000E00018B
:1033C800816FEA0E0001826FFF0E0001836F20EC0F
:1033D8002DF0A7D0BE0E0001806F000E0001816F96
:1033E800FA0E0001826FFF0E0001836F20EC2DF0B2
:1033F80098D0BE0E0001806F000E0001816FDE0EB6
:103408000001826FFF0E0001836F20EC2DF089D040
:10341800BE0E0001806F000E0001816FD60E000104
:10342800826FFF0E0001836F20EC2DF07AD0BE0E64
:103438000001806F000E0001816FD20E0001826FC3
:10344800FF0E0001836F20EC2DF06BD0BE0E000143
:10345800806F000E0001816FE20E0001826FFF0E87
:103468000001836F20EC2DF05CD0BE0E0001806F50
:10347800000E0001816FF20E0001826FFF0E000145
:10348800836F20EC2DF04DD0BE0E0001806F000E32
:103498000001816FF60E0001826FFF0E0001836F3D
:1034A80020EC2DF03ED0BE0E0001806F000E000112
:1034B800816FCE0E0001826FFF0E0001836F20EC3A
:1034C8002DF02FD0BCC0ABF0BDC0ACF00001AC51AA
:1034D800000AD8A426D00001AB51010AD8B43ED7BF
:1034E800030AD8B44AD7010AD8B456D7070AD8B4B9
:1034F80062D7010AD8B46ED7030AD8B47AD7010ABA
:10350800D8B486D70F0AD8B492D7010AD8B49ED7B0
:10351800030AD8B4AAD7010AD8B4B6D7070AD8B4C8
:10352800C2D7800ED1EC2FF0C20E00018E6FFA0EBA
:1035380000018F6FB6C090F0B7C091F0BE0E0001C9
:10354800926F000E0001936FB2C094F0B3C095F073
:10355800B0C096F0B1C097F0AEC098F0AFC099F087
:1035680067EC0EF01200000E766E000E756E000EFF
:10357800666E000E656E000E686E000E676E000EB9
:10358800646E000E636EF29E32EC1DF02A502B1012
:10359800D8A412D146D1E8EC2DF043D1755076105D
:1035A800D8B403D0D0EC2DF03CD165506610D8B417
:1035B80003D0B8EC2DF035D167506810D8B431D1AC
:1035C800FBEC2EF02ED175507610D8B403D0E8EC71
:1035D8002DF027D165506610D8B411D0D0EC2DF05D
:1035E80020D175507610D8B403D0E8EC2DF019D15D
:1035F80065506610D8B403D0D0EC2DF012D16750C6
:103608006810D8B40ED1010E0001FC6F0AD17550B4
:103618007610D8B403D0A0EC2DF003D16550661015
:10362800D8B403D0E8EC2DF0FCD067506810D8B4BB
:10363800F8D060EC2EF0F5D075507610D8B403D0E1
:1036480000EC2EF0EED065506610D8B403D048ECEC
:103658002EF0E7D067506810D8B407D0000E136E6C
:10366800010E126E35EC2FF0DCD063506410D8B424
:10367800D8D0D0EC2DF0D5D075507610D8B403D072
:1036880060EC2EF0CED065506610D8B403D08FEC25
:103698002EF0C7D067506810D8B407D0000E136E4C
:1036A800020E126E35EC2FF0BCD063506410D8B403
:1036B800B8D0D0EC2DF0B5D075507610D8B403D072
:1036C80060EC2EF0AED065506610D8B403D08FEC05
:1036D8002EF0A7D067506810D8B407D0000E136E2C
:1036E800020E126E35EC2FF09CD063506410D8B4E3
:1036F80098D0D0EC2DF095D075507610D8B403D072
:1037080030EC2EF08ED065506610D8B403D000ECA3
:103718002EF087D067506810D8B407D0000E136E0B
:10372800030E126E35EC2FF07CD063506410D8B4C1
:1037380078D0D0EC2DF075D075507610D8B403D071
:1037480030EC2EF06ED065506610D8B403D000EC83
:103758002EF067D067506810D8B407D0000E136EEB
:10376800030E126E35EC2FF05CD063506410D8B4A1
:1037780058D0D0EC2DF055D075507610D8B403D071
:1037880018EC2EF04ED065506610D8B403D060EC1B
:103798002EF047D067506810D8B407D0000E136ECB
:1037A800040E126E35EC2FF03CD063506410D8B480
:1037B80038D0D0EC2DF035D0E6C043F0E7C044F067
:1037C8004450000AD8B407D0030AD8B415D0070A61
:1037D800D8B420D026D04350000AD8B4DCD60B0A7F
:1037E800D8B4DCD6070AD8B4EED61A0AD8B4F9D6B3
:1037F800010AD8B40CD715D04350F30AD8B41CD753
:10380800070AD8B439D70A0AD8B456D7010AD8B49F
:1038180073D707D04350090AD8B48ED7030AD8B44F
:10382800ABD7F28E120000EC2AF051C13DF052C124
:103838003EF053C13FF054C140F0000E426E000EFE
:10384800416E42BE06D0425035E1070E415CD8B009
:1038580031D01C0E4124D96E010E4220DA6EDF50A1
:103868002A6E2A3A0F0E2A160F0E2A162A500A0D09
:103878001C0E4124D96E010E4220DA6EDF500F0B68
:103888002B6E2C6AF3502B26F4502C22D8904134FE
:10389800D96E4234DA6E2D0ED926000EDA222BC0EC
:1038A800DEFF2CC0DDFF414A422A42BED2D7425039
:1038B80001E1CBD737C03BF038C03CF084D03D0E97
:1038C800016E000E026EDA0E036EFF0E046E6FECD0
:1038D8002DF0A6D03D0E016E000E026ECA0E036ECC
:1038E800FF0E046E6FEC2DF09BD03D0E016E000EA6
:1038F800026EE60E036EFF0E046E6FEC2DF090D094
:103908003D0E016E000E026EEA0E036EFF0E046E8F
:103918006FEC2DF085D03D0E016E000E026EFA0E92
:10392800036EFF0E046E6FEC2DF07AD03D0E016E23
:10393800000E026EDE0E036EFF0E046E6FEC2DF0AD
:103948006FD03D0E016E000E026ED60E036EFF0E96
:10395800046E6FEC2DF064D03D0E016E000E026E09
:10396800D20E036EFF0E046E6FEC2DF059D03D0E93
:10397800016E000E026EE20E036EFF0E046E6FEC17
:103988002DF04ED03D0E016E000E026EF20E036E4B
:10399800FF0E046E6FEC2DF043D03D0E016E000E4D
:1039A800026EF60E036EFF0E046E6FEC2DF038D02B
:1039B8003D0E016E000E026ECE0E036EFF0E046EFB
:1039C8006FEC2DF02DD03BC02AF03CC02BF02B50D3
:1039D800000AD8A425D02A50010AD8B470D7030AFF
:1039E800D8B478D7010AD8B480D7070AD8B488D70A
:1039F800010AD8B490D7030AD8B498D7010AD8B422
:103A0800A0D70F0AD8B4A8D7010AD8B4B0D7030AE8
:103A1800D8B4B8D7010AD8B4C0D7070AD8B4C8D719
:103A2800800EDFEC2FF0C20E0D6EFA0E0E6E35C052
:103A38000FF036C010F03D0E116E000E126E31C040
:103A480013F032C014F02FC015F030C016F02DC09E
:103A580017F02EC018F06DEC14F0120001013D5162
:103A680001013E11D8B40CD0E8EC2DF0000E010194
:103A78003E6F000E3D6F000E2B6E000E2A6E120078
:103A88000001F8510001F911D8B4C7D0430E7D18D0
:103A9800D8A412D081B209D00FD0680E2C6EE40ED3
:103AA800E82EFED72C2EFCD700D081B2F6D7000E18
:103AB8002B6E000E2A6E1200440E7D18D8A4F7D77C
:103AC800000E0001F96F000EF86F12D060EC2EF0B6
:103AD800EED748EC2EF0EBD730EC2EF0E8D78FEC91
:103AE8002EF0E5D718EC2EF0E2D700EC2EF0DFD759
:103AF800E6C02CF0E7C02DF02D50030AD8B404D04E
:103B0800070AD8B40FD0D3D72C50F30AD8B4DED7CD
:103B1800070AD8B4DED70A0AD8B4DED7010AD8B45F
:103B2800DED7C5D72C50090AD8B4DCD7030AD8B4D5
:103B3800DCD7BDD70B0E0001E6190001E711D8A4A8
:103B480005D0000E2B6E000E2A6E1200E8EC2DF048
:103B5800000E2B6E000E2A6E1200160E0001E619DA
:103B68000001E711D8B407D00C0E0001E6190001D6
:103B7800E711D8A405D0000E2B6E000E2A6E120095
:103B8800170E0001E6190001E711D8A403D0A0EC34
:103B98002DF002D0B8EC2DF0000E2B6E000E2A6E20
:103BA8001200170E0001E6190001E711D8A405D08C
:103BB800000E2B6E000E2A6E1200D0EC2DF0000EB7
:103BC8002B6E000E2A6E1200000E766E010E756EB8
:103BD800000E2B6E010E2A6E1200000E666E010E8C
:103BE800656E000E2B6E010E2A6E1200000E686EB6
:103BF800010E676E000E2B6E010E2A6E1200000E6B
:103C0800646E010E636E000E2B6E010E2A6E12009A
:103C1800000E2B6E010E2A6E12007D50310AD8B4A8
:103C280089D7030AD8B499D7010AD8B4BAD7720A7F
:103C3800D8B4CAD7030AD8B4D0D7010AD8B4D6D7CB
:103C4800070AD8B4DCD7E4D70600FACF4DF0FBCF8B
:103C58004EF0E9CF4FF0EACF50F0E1CF51F0E2CF8C
:103C680052F0D9CF53F0DACF54F0F3CF55F0F4CF68
:103C780056F0F6CF57F0F7CF58F0F8CF59F0F5CF08
:103C88005AF0F0A034D0F09081380F0B0F0B4B6E28
:103C98004C6AA70E4B24F66EFA0E4C20F76EF86AA3
:103CA800000EF8220800F5CF7DF02A0E7D18D8B452
:103CB8000DD018D0030E07D0000E0001FC6FFBECEE
:103CC8002EF015D0020E0001FC6F11D00001FC513E
:103CD800000AD8B4EFD7010AD8B4F4D7020AD8B486
:103CE800EBD705D00001FC51D8B4B7EC1AF0F2A418
:103CF8000CD0F2940001FC05D8A407D024EC16F0EF
:103D0800850ED76EEE0ED66ED58E9EA028D09E90CC
:103D1800CD900001FC05D8A422D077507810D8B4F3
:103D28000AD08B82000E786E000E776E5BC0CFFFD4
:103D38005DC0CEFF0DD08B92000E786E010E776EAF
:103D48005B500008200FCF6E5D500008200FCE6E2C
:103D5800CD800A0E6D26000E6E221DEC1FF09EA26D
:103D680026D09E92CA94734A742A0001FC05D8A4EE
:103D78001ED079507A10D8B40AD0020E7318741075
:103D8800D8A405D08A86000E7A6E000E08D0795025
:103D98007A10D8A409D08A96000E7A6E010E796E30
:103DA800000E746E000E736ECBEC2CF0CA84A1A2C8
:103DB80022D0A192B1900001FC05D8A41CD07B5060
:103DC8007C10D8B40AD08B84000E7C6E000E7B6EFB
:103DD8005FC0B3FF61C0B2FF0DD08B94000E7C6E44
:103DE800010E7B6E5F500008200FB36E6150000813
:103DF800200FB26EB1805AC0F5FF59C0F8FF58C005
:103E0800F7FF57C0F6FF56C0F4FF55C0F3FF54C084
:103E1800DAFF53C0D9FF52C0E2FF51C0E1FF50C0E2
:103E2800EAFF4FC0E9FF4EC0FBFF4DC0FAFF7E928C
:103E380011006F506D5C6E50800A096E7050800AD8
:103E48000958D8A0120069506A10D8A436D05FD09B
:103E5800040E026EEC0E016E000E046E030E036E6D
:103E6800A7EC2AF025D0020E706EBC0E6F6E4AD0F9
:103E7800040E026EEC0E016E000E046E030E036E4D
:103E8800A7EC2AF015D0050E026E6E0E016E000E1C
:103E9800046E030E036EA7EC2AF00AD0050E026E1C
:103EA8006E0E016E000E046E030E036EA7EC2AF070
:103EB800000E6E6E000E6D6ED6D76BC009F06CC02A
:103EC8000AF00A50010AD8B40AD0020AD8B40CD0B1
:103ED800050AD8B40ED00F0AD8B410D013D00950A0
:103EE800F40AD8B4B5D70ED00950520AD8B4C0D7FE
:103EF80009D00950860AD8B4C6D704D00950600A38
:103F0800D8B4CCD7000E6A6E000E696E1200B00EDF
:103F18006B185AE1040E6C18D8A456D0000E6E6EB9
:103F2800000E6D6E1200040E026E1A0E016E000E67
:103F3800046E030E036EA7EC2AF0000E6E6E000EE0
:103F48006D6E020E706EEE0E6F6E1200040E026E33
:103F58001A0E016E000E046E030E036EA7EC2AF013
:103F6800000E6E6E000E6D6E020E706EEE0E6F6EAF
:103F78001200040E026EB00E016E000E046E010EE9
:103F8800036EA7EC2AF0040E026E1A0E016E000EE4
:103F9800046E030E036EA7EC2AF0000E6E6E000E80
:103FA8006D6E270E706E0F0E6F6E000E0101386F6A
:103FB800010E376F0001EA050001EB11D8A41200C9
:103FC800020E0001FC6F120071C009F072C00AF005
:103FD8000A50040AD8B404D0010AD8A4120008D0A0
:103FE80009501A0AD8B4C5D7F60AD8A412009BD724
:103FF80009506E0AD8A41200A9D7020EBCEC2EF004
:10400800C350C4CFABF00001AC6BABC0ACF0000147
:10401800AB6B0001AB110001AF6F0001AC510001A7
:10402800B06F010ED1EC2FF0680E0001AB6FE40EFB
:10403800E82EFED7AB2FFCD700F0800ED1EC2FF086
:10404800890E00018E6FFE0E00018F6FAFC090F0D9
:10405800B0C091F067EC0EF0C00ED1EC2FF0490E15
:1040680000018E6FFB0E00018F6F67EC0EF0000EE3
:104078000001B26F010EB16F000E0001B46F000EA7
:10408800B36F23D0020EBCEC2EF0C350C4CFABF0FC
:104098000001AC6BABC0ACF00001AB6B0001AB1125
:1040A8000001AF6F0001AC510001B06F800ED1EC80
:1040B8002FF0890E00018E6FFE0E00018F6FAFC0CA
:1040C80090F0B0C091F067EC0EF081A2DBD7813898
:1040D8000F0B0F0AD8B4120081380F0BE806D8A4CA
:1040E80016D00001B3510001B411D8B407D08B8E9B
:1040F80006D0010E0001B36FB46B5FD08B9E000138
:10410800B3510001B411D8B4F4D7000EF3D70001AD
:10411800B1510001B211D8B407D08B8023D0010E61
:104128000001B16FB26B49D0000E0001AE6F000EF6
:10413800AD6F0001AEBF08D0880E0001AD5D130E53
:104148000001AE59D8B00DD08B801A0EE82EFED7DC
:1041580000D08B90F00EE82EFED70001AD4BAE2BB1
:10416800E8D78B900001B1510001B211D8B4D7D76C
:10417800000ED6D7020EBCEC2EF0C350C4CFABF065
:104188000001AC6BABC0ACF00001AB6B0001AB1134
:104198000001AF6F0001AC510001B06F800ED1EC8F
:1041A8002FF0890E00018E6FFE0E00018F6FAFC0D9
:1041B80090F0B0C091F067EC0EF081A286D7DAD704
:1041C800000E0001816F000E806F94EC2FF000014B
:1041D800FD6F0001FD510B0D010EF3240001B96FB5
:1041E800000EF4200001BA6F030E0001FD610ED02D
:1041F8000001FD290001B16F000E0001AC6F000E37
:10420800AB6FB1C0ADF0A1EC23F00AD0000E0001F5
:10421800AC6F000EAB6F000E0001AD6FA1EC23F088
:104228000001FE5180090001B26FB9C0ABF0BAC0FD
:10423800ACF0B2C0ADF0A1EC23F00001B94BBA2B41
:1042480001012939F00B01012B110001B36FB9C02D
:10425800ABF0BAC0ACF0B3C0ADF0A1EC23F00001F4
:10426800B94BBA2B01012739F00B010125110001C7
:10427800B46FB9C0ABF0BAC0ACF0B4C0ADF0A1EC4B
:1042880023F00001B94BBA2B000E0001B86F000EE5
:10429800B76F0001B8BF08D00001B85128E1070E78
:1042A8000001B75DD8B023D0D8900001B735D96EDA
:1042B8000001B835DA6E0E0ED926010EDA22DF506B
:1042C8000001B56FB9C0ABF0BAC0ACF0B5C0ADF085
:1042D800A1EC23F00001B94BBA2B0001B74BB82B66
:1042E8000001B8BFE1D70001B85101E1D8D7FAC041
:1042F800B6F0B9C0ABF0BAC0ACF0B6C0ADF0A1EC46
:1043080023F0120007C001F008C002F0000E046E8E
:104318000B0E036E0FEC2FF0010E0124106E000E31
:104328000220116E10C001F011C002F0ABEC2FF0AA
:104338000B6E0BC009F0800E091609500001F06FD2
:10434800F16B0BC009F00F0E091609500101456FFA
:10435800466B104A112A10C001F011C002F0ABECF4
:104368002FF00C6E0CC009F0093A0F0E09160F0E4B
:10437800091609500001F26FF36B0CC009F00F0E1B
:10438800091609500001F46FF56B104A112A10C084
:1043980001F011C002F0ABEC2FF00D6E0DC009F06A
:1043A800093A0F0E09160F0E091609500101436F3D
:1043B800446B0DC009F00F0E091609500101416F39
:1043C800426B104A112A000E0F6E000E0E6E0FBEC1
:1043D80006D00F501EE1070E0E5CD8B01AD010C0E0
:1043E80001F011C002F0ABEC2FF0096E0A6AD89008
:1043F8000E34D96E0F34DA6E000ED926010EDA2289
:1044080009C0DEFF0AC0DDFF104A112A0E4A0F2A32
:10441800DED710C001F011C002F0ABEC2FF0096E2E
:1044280009500001F66FF76B12000001835100017B
:10443800D8B408D000018051000181110001821117
:10444800D8A411D0000E0001806F000E0001816F0A
:10445800000E0001826F12000001832B0001D8902A
:10446800823381338033000E000180150001856F8F
:10447800000E000181150001866FFE0E00018215F5
:104488000001876F00018551000186110001871125
:10449800D8B411D0E1D70001832B010E0001802789
:1044A800000E00018123000E000182230001D89034
:1044B800823381338033000E000180150001856F3F
:1044C800000E000181150001866FFF0E00018215A4
:1044D8000001876F000185510001861100018711D5
:1044E800D8B408D0D8D7000183070001D890803706
:1044F80081378237000181BF04D0020E0001836139
:10450800F2D7000183B102D00001819F0001D89049
:10451800833300018351000182130001845100019B
:10452800D8B402D00001828F80C080F081C081F0B1
:1045380082C082F012007CD0010ED1EC2FF0680E00
:104548000001C66FE40EE82EFED7C62FFCD700F098
:10455800800ED1EC2FF0900E00018E6FFC0E000142
:104568008F6F67EC0EF0C00ED1EC2FF0A10E00019A
:104578008E6FFC0E00018F6F67EC0EF081A2FED7E4
:1045880081CFC6F00001C63B0F0EC6170001C65109
:1045980001014B6F4C6B01014B4B4C2B81A21FD07F
:1045A800FDD786EC24F044D07AEC12F041D06DECC3
:1045B80004F03ED022EC23F03BD0F1EC24F038D0CC
:1045C800C6EC28F035D06EEC2BF032D0C7EC17F0E3
:1045D8002FD083EC10F02CD001EC20F029D04BC167
:1045E800C6F04CC1C7F00001C751000AD8A420D0BA
:1045F8000001C651010AD8B4D4D7030AD8B4D4D715
:10460800010AD8B4D4D7070AD8B4D4D7010AD8B481
:10461800D4D7030AD8B4D4D7010AD8B4D4D70F0A48
:10462800D8B4D4D7020AD8B4D4D7010AD8B4D4D7C6
:10463800030E0001FC19D8A412007ED7010ED1EC9C
:104648002FF0680E0001AB6FE40EE82EFED7AB2FFB
:10465800FCD700F0800ED1EC2FF0080E00018E6F11
:10466800FC0E00018F6F67EC0EF0C00ED1EC2FF03E
:10467800B20E00018E6FFC0E00018F6F67EC0EF01A
:10468800F28E010E0001FC6F000E0001E96F020EB0
:10469800E86F000E746E000E736E8A86CA84000E70
:1046A8007A6E000E796E000E0001AD6F000EAC6FD1
:1046B8000001AC510001AD11D8B41CD00001AC51BF
:1046C8000001AD11D8A402D0010E01D0000E0001E6
:1046D800AC6FAD6B05D0000E0001E96F000EE86FFE
:1046E80081A2F9D781380F0B0F0AD8B41FD081A245
:1046F800DFD7FDD70001AC510001AD11D8A402D01D
:10470800010E01D0000E0001AC6FAD6B05D0000E9C
:104718000001E96F010EE86F81A2F9D781380F0B0C
:104728000F0AD8B403D081A2C3D7FDD7F29E78EC84
:104738002FF0030E0001FC6F1200A6840001AC519B
:10474800AA6EABC0A9FFADC0A8FFA69EA69CF29E0C
:10475800550EA76EAA0EA76EA682F28EA1A8FED746
:10476800A198A69401012F5101013011D8B412006B
:10477800010ED1EC2FF0680E0001AE6FE40EE82EAA
:10478800FED7AE2FFCD700F0800ED1EC2FF0ABC0D7
:1047980080F0ACC081F094EC2FF00001AD19D8A4E2
:1047A80024D0DA0E00018E6FFA0E00018F6FADC0B3
:1047B80090F00001916BABC092F0ACC093F067EC45
:1047C8000EF0000E0001AF6F630E0001AF6501D05F
:1047D8001200680E0001AE6FE40EE82EFED7AE2F71
:1047E800FCD700F00001AF2BEFD7BC0E00018E6F95
:1047F800FF0E00018F6F67EC0EF0000E0001B06F26
:10480800630E0001B06501D01200680E0001AE6FA2
:10481800E40EE82EFED7AE2FFCD700F00001B02B37
:10482800EFD70101355101013611D8B41200000E3D
:104838000101386F000E376F34D0010E0001816F0F
:10484800F40E806F000E0001836F010E826F49EC39
:1048580029F03ED0030E0001816F520E806F000ECA
:104868000001836F010E826F49EC29F031D0060EEA
:104878000001816F860E806F000E0001836F010EAC
:10488800826F49EC29F024D0090E0001816F600E77
:10489800806F000E0001836F010E826F49EC29F0D2
:1048A80017D02DC188F02EC189F000018951000A66
:1048B800D8A40ED000018851000AD8B4BED7010A86
:1048C800D8B4C8D7030AD8B4D2D7010AD8B4DCD729
:1048D800040E0001816F1A0E806F000E0001836FB5
:1048E800030E826F49EC29F0020E706EEE0E6F6EA9
:1048F800000E6A6E010E696E000E0101366F000E21
:10490800356F1200010ED1EC2FF0680E0001AB6F6D
:10491800E40EE82EFED7AB2FFCD700F0800ED1ECCA
:104928002FF0010E00018E6FFF0E00018F6F67ECF4
:104938000EF0C00ED1EC2FF03A0E00018E6FFF0E74
:1049480000018F6F67EC0EF0050E0001AC6F0F0EC3
:104958000001AB6FF10EE82EFED7AB2FFCD7AC2FC2
:10496800FAD781A2FED781B2FED7010ED1EC2FF083
:10497800680E0001AB6FE40EE82EFED7AB2FFCD714
:1049880000F0800ED1EC2FF05D0E00018E6FFC0E52
:1049980000018F6F67EC0EF01E0E00018E6FFF0E88
:1049A80000018F6F67EC0EF0640E00018E6FFF0E32
:1049B80000018F6F67EC0EF0E30E00018E6FFE0EA4
:1049C80000018F6F67EC0EF02C0E00018E6FFF0E4A
:1049D80000018F6F67EC0EF01200010ED1EC2FF082
:1049E800680E0001AB6FE40EE82EFED7AB2FFCD7A4
:1049F80000F0800ED1EC2FF0EF0E00018E6FFA0E52
:104A080000018F6F67EC0EF0C00ED1EC2FF0F70E9F
:104A180000018E6FFB0E00018F6F67EC0EF081A214
:104A2800FED781380F0B0F0AD8B4120081CFABF034
:104A38000001AB3B0F0EAB17D8A410D08AB404D03A
:104A48000001AB6BAB2B02D00001AB6B0001AB4795
:104A5800AB478A500001AB19FB0B11D081380F0B03
:104A6800E806D8A40FD08AB004D00001AB6BAB2BFA
:104A780002D00001AB6B8A500001AB19FE0BAB19D9
:104A88008A6E13D081380F0B040AD8A405D08A8403
:104A980081B2FED78A9409D081380F0B050AD8A4B1
:104AA80004D08A8081B2FED78A9081A2B8D7FDD778
:104AB800000E01013C6F000E3B6F000E0001ED6F10
:104AC800000EEC6F000E0001EB6F000EEA6F000E97
:104AD8000101326F010E316F000E0101346F000EBB
:104AE800336F000E0101366F000E356F000E0101A5
:104AF800386F010E376F000E01013A6F000E396FE3
:104B0800000E0001FF6F000EFE6F000E01012A6FFC
:104B1800000E296F000E01012C6F000E2B6F000E86
:104B28000101286F000E276F000E0101266F000E8D
:104B3800256F030E0101486FE70E476F000E010154
:104B48004A6F000E496F000E0101246F000E236F9B
:104B5800000E6E6E000E6D6E270E706E0F0E6F6E6D
:104B6800000E746E000E736E000E0001E96F000EE9
:104B7800E86F6B686C6871687268000E6A6E000E88
:104B8800696E1200DBEC2AF065EC2CF0000E0001D7
:104B9800E56F000EE46F0001E4510001E511D8B49F
:104BA80016D0470E0001806F170E0001816F070EA7
:104BB8000001826F080E0001836F040E0001846FEC
:104BC800170E0001856F420E58EC2FF00BD0100E17
:104BD80000018D6F270E8E6F000E8F6F000E906F85
:104BE8003EEC2BF088EC2DF0000E01013C6F010E1D
:104BF8003B6FA0EC2FF018D009EC00F015D047EC73
:104C08002FF012D078EC2FF0E4EC20F0000E010128
:104C18003C6F010E3B6F09EC00F006D09FEC22F0D0
:104C280003D078EC2FF0FFD70001FC51000AD8B46C
:104C3800E3D7010AD8B4E3D7030AD8B4E3D7010A03
:104C4800D8B4ECD7070AD8B4ECD7EED7000194AFA4
:104C58001DD092C098F093C099F094C09AF00001CA
:104C6800981F991F9A1F982B000E99239A23000EBC
:104C7800000198250001926F000E000199210001A2
:104C8800936F800E00019A210001946F000197AF85
:104C98001DD095C098F096C099F097C09AF0000181
:104CA800981F991F9A1F982B000E99239A23000E7C
:104CB800000198250001956F000E0001992100015F
:104CC800966F800E00019A210001976F000E000177
:104CD800921B000E0001931B800E0001941B000E16
:104CE8000001951B000E0001961B800E0001971B0A
:104CF800000195510001925D000196510001935900
:104D08000001975100019459D8B002D0D8901200F0
:104D1800D8801200000E00018B6F000189AF08D007
:104D28000001886D891FD8B0892B010E00018B6F97
:104D3800000187AF08D00001866D871FD8B0872B88
:104D4800010E00018B1B000E00018D6F000E8C6F91
:104D58000001885100018911D8B42CD0010E00013E
:104D68008A6F06D00001D8908837893700018A2BCE
:104D7800000189AFF7D70001D8908C378D37000133
:104D880088510001865D0001895100018759D8A02A
:104D98000AD0000188510001865F00018951000195
:104DA800875B00018C810001D8908933883300012A
:104DB8008A2FE1D700018B510001D8B405D000013A
:104DC8008C6D8D1FD8B08D2B8CC086F08DC087F070
:104DD8001200000E0001886F000E896F000E8A6FA6
:104DE800000E8B6F000184510001851100018611AE
:104DF80000018711D8B442D0010E00018C6F08D091
:104E08000001D890843785378637873700018C2B87
:104E1800000187AFF5D70001D890883789378A37DE
:104E28008B37000184510001805D0001855100012C
:104E38008159000186510001825900018751000102
:104E48008359D8A012D0000184510001805F00016D
:104E580085510001815B000186510001825B0001E0
:104E680087510001835B000188810001D890873356
:104E780086338533843300018C2FCDD788C080F0EA
:104E880089C081F08AC082F08BC083F0120083EC65
:104E980028F0000E0001896F000E886F000189BF9D
:104EA80008D00001895140E1070E0001885DD8B0A3
:104EB8003BD01C0E00018825D96E010E0001892106
:104EC800DA6EDF500001856F0001853B0F0E8517F4
:104ED8000F0E00018517000185510A0D1C0E0001F7
:104EE8008825D96E010E00018921DA6EDF500F0B7B
:104EF8000001866F876BF35000018627F45000018C
:104F08008723D89000018835D96E00018935DA6E7B
:104F18000E0ED926010EDA2286C0DEFF87C0DDFF1D
:104F28000001884B892BBAD7170ED56E850ED76E20
:104F3800EE0ED66ED58E1200000E0001856F0001B0
:104F480081AF08D00001806D811FD8B0812B010E80
:104F58000001856F000183AF05D00001826D831FBA
:104F6800D8B0832B0001825100018311D8B426D018
:104F7800010E0001846F06D00001D8908237833774
:104F88000001842B000183AFF7D700018251000193
:104F9800805D0001835100018159D8A008D000012B
:104FA80082510001805F000183510001815B000193
:104FB800D890833382330001842FE7D700018551CD
:104FC8000001D8B405D00001806D811FD8B0812BB5
:104FD80080C080F081C081F0120000018251BCECD9
:104FE8002EF0C350C4CF84F00001856B84C085F0D7
:104FF8000001846B000184110001866F0001855156
:105008000001876F24D0000187BF0AD0210E00015C
:10501800865D030E00018759D8A002D0010E01D089
:10502800000E0001E06FE16B1200000187BF0AD09B
:10503800F50E0001865D010E00018759D8A002D047
:10504800010E01D0000E0001E06FE16B120082C07A
:1050580084F083C085F000018551000AD8A41200AD
:1050680000018451000AD8B4CED7030AD8A412008C
:10507800DCD7100E00018D6F270E8E6F000E8F6F1C
:10508800000E906F3EEC2BF0F29EF7EC2FF0000E26
:105098000001826FD00E816FE5EC2FF0000E000149
:1050A800826F000E816FE5EC2FF0000E0001976F04
:1050B800000E966F000197BF08D0000197511BE1C1
:1050C800070E0001965DD8B016D01C0E000196257B
:1050D800D96E010E00019721DA6EDF500001956F3D
:1050E800000195510001816F826BE5EC2FF0000102
:1050F800964B972BDFD7F3EC2FF0F28E1200F7ECDC
:105108002FF0000E0001826FD00E816FE5EC2FF0BA
:10511800000E0001826F000E816FE5EC2FF0F3ECBA
:105128002FF0F7EC2FF0000E0001826FD10E816F87
:10513800E5EC2FF0000E0001846F000E836F000174
:1051480084BF08D00001845115E1060E0001835D7B
:10515800D8B010D01C0E00018325D96E010E0001B5
:105168008421DA6E010E78EC2EF0DF6E0001834B9D
:10517800842BE5D7000E78EC2EF00101226FF3ECBA
:105188002FF01200010ED1EC2FF0680E0001AB6F6A
:10519800E40EE82EFED7AB2FFCD700F0800ED1EC42
:1051A8002FF0370E00018E6FFB0E00018F6F67EC3A
:1051B8000EF0C00ED1EC2FF0010E00018E6FFB0E29
:1051C80000018F6F67EC0EF081A2FED781380F0BBC
:1051D8000F0AD8B4120014D08A84340E0001AB6FC1
:1051E800F10EE82EFED7AB2FFCD700D08A94340EF0
:1051F8000001AB6FF10EE82EFED7AB2FFCD700D025
:1052080081B2EAD78A94E0D788C082F089C083F057
:10521800F1EC27F0000E00018C6F000E8B6F00017F
:105228008CBF08D000018C511EE1960E00018B5DE9
:10523800D8B019D0060E00018A6F300EE82EFED7BE
:105248008A2FFCD700F088C082F089C083F0F1EC87
:1052580027F00001E0510001E111D8B404D00001A9
:105268008B4B8C2BDCD70001E0050001E111D8A4A1
:1052780006D0000E0001ED6F010EEC6F1200000E5B
:105288000001ED6F000EEC6F120080C084F081C049
:1052980085F00001841F851F844B852BFF0E0001BC
:1052A80084250001866FFF0E000185210001876FAC
:1052B80019D0000187515B6E5C6A000186515D6EF2
:1052C8005E6A80C06BF081C06CF0000187515F6E30
:1052D800606A00018651616E626A80C071F081C0A7
:1052E80072F0120082C084F083C085F000018551FD
:1052F800000AD8A4120000018451010AD8B4D9D7F1
:10530800020AD8A41200E1D7040E0001816FB00E82
:10531800806F000E0001836F010E826F49EC29F047
:10532800040E0001816F1A0E806F000E0001836F5A
:10533800030E826F49EC29F0CD80000E786E000EC6
:10534800776E340E0001886FF10EE82EFED7882F95
:10535800FCD700D0B180000E7C6E000E7B6E0B0E69
:105368000001886F620EE82EFED7882FFCD700F068
:105378008A96CA84000E7A6E000E796E8B801200AF
:10538800000E0001856F000E846F0001825100013C
:105398008311D8B42CD0010E0001866F06D000010D
:1053A800D890823783370001862B000183AFF7D767
:1053B8000001D89084378537000182510001805D53
:1053C8000001835100018159D8A00AD000018251FF
:1053D8000001805F000183510001815B000184812D
:1053E8000001D890833382330001862FE1D784C02F
:1053F80080F085C081F01200FFEC2FF0000E036EE4
:10540800D00E026EEAEC2FF0000E036E000E026E54
:10541800EAEC2FF0FBEC2FF0FFEC2FF0000E036E00
:10542800D10E026EEAEC2FF0000E056E000E046E2F
:1054380005BE06D0055011E1060E045CD8B00DD0AB
:105448001C0E0424D96E010E0520DA6E010E22EC22
:105458002FF0DF6E044A052AEBD7000E22EC2FF05E
:105468000101226FFBEC2FF01200000E066E02AE57
:1054780006D0016C021ED8B0022A010E066E04AED8
:1054880004D0036C041ED8B0042A03500410D8B406
:1054980018D0010E056E04D0D89003360436052ABC
:1054A80004AEFAD70350015C04500258D8A004D0C7
:1054B8000350015E0450025AD89004320332052E7C
:1054C800F1D70650D8B404D0016C021ED8B0022A15
:1054D80001C001F002C002F012000001816FF29ECB
:1054E80000018151F00B0001806F8C500F0B8C6E06
:1054F800000180518C108C6E8C86420EE82EFED7EF
:1055080000D08C96420EE82EFED700D000018139DB
:10551800F00B0001816F00018151F00B0001806FD9
:105528008C500F0B8C6E000180518C108C6E8C8609
:10553800420EE82EFED700D08C96420EE82EFED7FB
:1055480000D0F28E120001C005F002C006F0051E60
:10555800061E054A062AFF0E0524076EFF0E0620C2
:10556800086E15D008505B6E5C6A07505D6E5E6A07
:1055780001C06BF002C06CF008505F6E606A0750A3
:10558800616E626A01C071F002C072F0120003C05D
:1055980005F004C006F00650000AD8A41200055011
:1055A800010AD8B4DFD7020AD8A41200E5D7F00E52
:1055B800D36E9B8C0F0E926EF20E936E000E946E4D
:1055C800000E956E000E966E000E896E000E8A6EA5
:1055D800000E8B6E000E8C6E000E8D6EF19E000E0E
:1055E800C26E0B0EC16E000EB56EB496B10EC06ED3
:1055F800F086F28A9D809D82A082B00ECD6E7B0ED1
:10560800CA6E220ECB6EB00EB16EF28C9D9CF29ECD
:1056180012000001895100018A11D8B426D0010E68
:1056280000018B6F06D00001D89089378A370001B6
:105638008B2B00018AAFF7D7000189510001875DE4
:1056480000018A5100018859D8A008D00001895169
:105658000001875F00018A510001885B0001D89032
:105668008A33893300018B2FE7D787C087F088C03A
:1056780088F01200000EC76E280EC66E000EC56EAA
:10568800000E0001806F480E816FE80E826F010ED8
:10569800836F8DC091F08EC092F08FC093F090C050
:1056A80094F0020ED89000019137923793379437CF
:1056B800E82EF8D791C084F092C085F093C086F0A8
:1056C80094C087F0EDEC26F000018005C86E948642
:1056D80094881200010ED1EC2FF0680E0001AB6F18
:1056E800E40EE82EFED7AB2FFCD700F0800ED1ECED
:1056F8002FF0EF0E00018E6FFA0E00018F6F67EC2E
:105708000EF0C00ED1EC2FF05B0E00018E6FFB0E79
:1057180000018F6F67EC0EF081A2FED781380F0B66
:105728000F0AD8B41200898881B2FED78998F4D7B5
:10573800026EF29E0250F00B016E8C500F0B8C6EB5
:1057480001508C108C6E8C86420EE82EFED700D04D
:105758008C96420EE82EFED700D00238F00B026E6F
:105768000250F00B016E8C500F0B8C6E01508C1098
:105778008C6E8C86420EE82EFED700D08C96420E98
:10578800E82EFED700D0F28E1200000E0B6E000E2F
:105798000A6E08500910D8B41CD0010E0C6E04D043
:1057A800D890083609360C2A09AEFAD7D8900A36A6
:1057B8000B360850065C09500758D8A005D0085089
:1057C800065E0950075A0A80D890093208320C2E12
:1057D800EDD70AC006F00BC007F01200DE0EF66E19
:1057E8005F0EF76E000EF86E01EE4DF010EE08F049
:1057F8000900F5CFEEFFE550E150FAE101EE00F0C7
:105808004D0EEE6AE806FDE100EEDAF0260EEE6ACD
:10581800E806FDE100EE5BF0230EEE6AE806FDE126
:105828007E907E920001C6EF25F0020EBCEC2EF0B1
:10583800C350C4CF82F00001836B82C083F00001A3
:10584800826B000182110001846F00018351000105
:10585800856F000185BF0AD02D0E0001845D010E01
:1058680000018559D8A002D0010E01D0000E000118
:10587800DE6FDF6B1200010EBCEC2EF0C350C4CFFC
:1058880082F00001836B82C083F00001826B00010B
:1058980082110001846F000183510001856F0001AE
:1058A80085BF08D00001855107E1960E0001845D8F
:1058B800D8B002D0010E01D0000E0001E26FE36BF8
:1058C80012009C0E0001836FD70EE82EFED7832F9F
:1058D800FCD7330ED1EC2FF0320ED1EC2FF0280E7E
:1058E800D1EC2FF00C0ED1EC2FF0060ED1EC2FF0EE
:1058F800010ED1EC2FF09C0E0001836FD70EE82E1D
:10590800FED7832FFCD71200000E0001916F000113
:105918008FAF08D000018E6D8F1FD8B08F2B010E6E
:105928000001916F8EC080F08FC081F00001826B02
:105938008E0E0001836F91C084F019EC22F080C0B4
:105948008EF081C08FF082C090F0120003500410D6
:10595800D8B418D0010E056E04D0D890033604369A
:10596800052A04AEFAD70350015C04500258D8A0A7
:1059780004D00350015E0450025AD8900432033216
:10598800052EF1D701C001F002C002F012007950D3
:105998007A10D8B407D016D0200ECB6E1200400E65
:1059A800CB6E1200E8C001F0E9C002F00250000A14
:1059B800D8A412000150000AD8B4EED7010AD8A41E
:1059C8001200EDD7CB681200000E0001E76F160E2B
:1059D800E66F800ED1EC2FF0D30E00018E6FFD0E16
:1059E80000018F6F67EC0EF0C00ED1EC2FF0180E8F
:1059F80000018E6FFD0E00018F6F67EC0EF0120034
:105A0800000E0001E76F0C0EE66F800ED1EC2FF050
:105A18003A0E00018E6FFD0E00018F6F67EC0EF0DD
:105A2800C00ED1EC2FF0D30E00018E6FFD0E0001D9
:105A38008F6F67EC0EF0120080C084F081C085F093
:105A480006D00001844B852B0001824B832B82C03A
:105A5800F6FF83C0F7FFF86A84C0D9FF85C0DAFF74
:105A68000800F5CFDFFFDF50D8B41200EAD70001F5
:105A7800805100018203F3CF84F0F4CF85F0000158
:105A8800805100018303F3500001852700018151F3
:105A980000018203F3500001852784C080F085C08F
:105AA80081F012003FEC2CF00001E2050001E31147
:105AB800D8A41200150E0001876F4B0E0001866FE7
:105AC800BE0EE82EFED7862FFCD7872FFAD700F018
:105AD8003FEC2CF0120001C005F002C006F004D023
