:0400000007EF00F016
:100008007E824EED15F04BEF20F0000E0001C56F1B
:10001800000EC46FF28E010EDCEC23F0680E0001B6
:10002800AB6FE40EE82EFED7AB2FFCD700F0800EA6
:10003800DCEC23F0910E00018E6FFF0E00018F6F34
:10004800B8EC08F0C00EDCEC23F0FF0E00018E6F58
:10005800FE0E00018F6FB8EC08F0050E0001AC6FC2
:100068000F0E0001AB6FF10EE82EFED7AB2FFCD7B9
:10007800AC2FFAD781A2FED781B2FED7010EDCECF5
:1000880023F0680E0001AB6FE40EE82EFED7AB2F0D
:10009800FCD700F0800EDCEC23F0B70E00018E6F69
:1000A800FE0E00018F6FB8EC08F0C00EDCEC23F0F8
:1000B800D50E00018E6FFE0E00018F6FB8EC08F0B0
:1000C800898A000E0001C56F000EC46F0001C5BF0C
:1000D80008D00001C55123E1050E0001C45DD8B068
:1000E8001ED0000E0001AD6F630E0001AD6501D09A
:1000F8000CD0680E0001AB6FE40EE82EFED7AB2FD4
:10010800FCD700F00001AD2BEFD70001C44BC52B85
:100118000001C5BFE6D70001C55101E1DDD7899AC5
:10012800010EDCEC23F0680E0001AB6FE40EE82E44
:10013800FED7AB2FFCD700F0800EDCEC23F0970E37
:1001480000018E6FFC0E00018F6FB8EC08F0C00E36
:10015800DCEC23F05C0E00018E6FFF0E00018F6F48
:10016800B8EC08F0000E0001C56F000EC46F000166
:10017800C5BF08D00001C5512CE1050E0001C45DC2
:10018800D8B027D089860D0E0001AC6F2D0E000166
:10019800AB6FD70EE82EFED7AB2FFCD7AC2FFAD714
:1001A80000D089961D0E0001AC6F690E0001AB6F7F
:1001B800A50EE82EFED7AB2FFCD7AC2FFAD700013F
:1001C800C44BC52B0001C5BFDDD70001C55101E1F6
:1001D800D4D78996010EDCEC23F0680E0001AB6FD2
:1001E800E40EE82EFED7AB2FFCD700F0800EDCEC37
:1001F80023F0A80E00018E6FFC0E00018F6FB8EC83
:1002080008F0C00EDCEC23F0670E00018E6FFF0EC5
:1002180000018F6FB8EC08F0000E0001C56F000EEA
:10022800C46F0001C5BF08D00001C5512CE1050EFF
:100238000001C45DD8B027D089880D0E0001AC6FCD
:100248002D0E0001AB6FD70EE82EFED7AB2FFCD7D3
:10025800AC2FFAD700D089981D0E0001AC6F690E3B
:100268000001AB6FA50EE82EFED7AB2FFCD7AC2F45
:10027800FAD70001C44BC52B0001C5BFDDD700016B
:10028800C55101E1D4D78998010EDCEC23F0680E42
:100298000001AB6FE40EE82EFED7AB2FFCD700F0C1
:1002A800800EDCEC23F0010E0001FC6F000E7A6E6C
:1002B800000E796E000E7A6E000E796E990E0001AE
:1002C8008E6FFE0E00018F6FB8EC08F0C00EDCECEC
:1002D80023F0200E00018E6FFC0E00018F6FB8EC2A
:1002E80008F0040E0001816FB00E806F000E00014F
:1002F800836F010E826F5FEC1EF0CD80000E00014F
:10030800AE6F630E0001AE6501D00CD0680E00011F
:10031800AB6FE40EE82EFED7AB2FFCD700F0000140
:10032800AE2BEFD7000E0001AF6F630E0001AF6573
:1003380001D00CD0680E0001AB6FE40EE82EFED79A
:10034800AB2FFCD700F00001AF2BEFD7800EDCEC11
:1003580023F0C00EDCEC23F00F0E00018E6FFC0EB4
:1003680000018F6FB8EC08F0010E0001816FF40EE8
:10037800806F000E0001836F010E826F5FEC1EF02C
:10038800000E0001B06F630E0001B06501D00CD003
:10039800680E0001AB6FE40EE82EFED7AB2FFCD73A
:1003A80000F00001B02BEFD7000E0001B16F630E13
:1003B8000001B16501D00CD0680E0001AB6FE40EEE
:1003C800E82EFED7AB2FFCD700F00001B12BEFD7FA
:1003D800800EDCEC23F0C00EDCEC23F0ED0E000107
:1003E8008E6FFB0E00018F6FB8EC08F0070E00014E
:1003F800816FD00E806F000E0001836F010E826F37
:100408005FEC1EF0000E0001B26F630E0001B265D2
:1004180001D00CD0680E0001AB6FE40EE82EFED7B9
:10042800AB2FFCD700F00001B22BEFD7000E000174
:10043800B36F630E0001B36501D00CD0680E0001E4
:10044800AB6FE40EE82EFED7AB2FFCD700F000010F
:10045800B32BEFD7800EDCEC23F0C00EDCEC23F0DE
:10046800420E00018E6FFC0E00018F6FB8EC08F091
:10047800060E0001816FA40E806F000E0001836FCD
:10048800010E826F5FEC1EF0000E0001B46F630E68
:100498000001B46501D00CD0680E0001AB6FE40E0A
:1004A800E82EFED7AB2FFCD700F00001B42BEFD716
:1004B800000E0001B56F630E0001B56501D00CD0C8
:1004C800680E0001AB6FE40EE82EFED7AB2FFCD709
:1004D80000F00001B52BEFD7800EDCEC23F0C00E46
:1004E800DCEC23F0530E00018E6FFC0E00018F6FC1
:1004F800B8EC08F0020E0001816FEE0E806F000E5E
:100508000001836F010E826F5FEC1EF0000E000188
:10051800B66F630E0001B66501D00CD0680E0001FD
:10052800AB6FE40EE82EFED7AB2FFCD700F000012E
:10053800B62BEFD7000E0001B76F630E0001B76549
:1005480001D00CD0680E0001AB6FE40EE82EFED788
:10055800AB2FFCD700F00001B72BEFD7800EDCECF7
:1005680023F0C00EDCEC23F0CB0E00018E6FFB0EE7
:1005780000018F6FB8EC08F0040E0001816FB00E17
:10058800806F000E0001836F010E826F5FEC1EF01A
:10059800000E0001B86F630E0001B86501D00CD0E1
:1005A800680E0001AB6FE40EE82EFED7AB2FFCD728
:1005B80000F00001B82BEFD7000E0001B96F630EF1
:1005C8000001B96501D00CD0680E0001AB6FE40ED4
:1005D800E82EFED7AB2FFCD700F00001B92BEFD7E0
:1005E800CD902E0E00018E6FFE0E00018F6FB8ECBD
:1005F80008F0C00EDCEC23F0FE0E00018E6FFB0E3F
:1006080000018F6FB8EC08F0040E0001816FA60E90
:10061800806F000E0001836F030E826F5FEC1EF087
:10062800B180000E0001BA6F630E0001BA6501D0F7
:100638000CD0680E0001AB6FE40EE82EFED7AB2F8E
:10064800FCD700F00001BA2BEFD7000E0001BB6FFA
:10065800630E0001BB6501D00CD0680E0001AB6FC2
:10066800E40EE82EFED7AB2FFCD700F00001BB2B21
:10067800EFD7800EDCEC23F0C00EDCEC23F0DC0EB0
:1006880000018E6FFB0E00018F6FB8EC08F0050EAD
:100698000001816F460E806F000E0001836F030E0C
:1006A800826F5FEC1EF0000E0001BC6F630E00014C
:1006B800BC6501D00CD0680E0001AB6FE40EE82ECB
:1006C800FED7AB2FFCD700F00001BC2BEFD7000EF4
:1006D8000001BD6F630E0001BD6501D00CD0680E2E
:1006E8000001AB6FE40EE82EFED7AB2FFCD700F06D
:1006F8000001BD2BEFD7800EDCEC23F0C00EDCEC44
:1007080023F0FE0E00018E6FFB0E00018F6FB8EC18
:1007180008F0040E0001816FA60E806F000E000124
:10072800836F030E826F5FEC1EF0000E0001BE6F38
:10073800630E0001BE6501D00CD0680E0001AB6FDE
:10074800E40EE82EFED7AB2FFCD700F00001BE2B3D
:10075800EFD7000E0001BF6F630E0001BF6501D027
:100768000CD0680E0001AB6FE40EE82EFED7AB2F5D
:10077800FCD700F00001BF2BEFD7B190F29E010E1D
:10078800DCEC23F0680E0001AB6FE40EE82EFED718
:10079800AB2FFCD700F0800EDCEC23F08A0E0001B2
:1007A8008E6FFE0E00018F6FB8EC08F0C00EDCEC07
:1007B80023F06C0E00018E6FFE0E00018F6FB8ECF7
:1007C80008F08B80000E0001C06F630E0001C06549
:1007D80001D00CD0680E0001AB6FE40EE82EFED7F6
:1007E800AB2FFCD700F00001C02BEFD7000E0001A3
:1007F800C16F630E0001C16501D00CD0680E000105
:10080800AB6FE40EE82EFED7AB2FFCD700F000014B
:10081800C12BEFD7800EDCEC23F0C00EDCEC23F00C
:100828005D0E00018E6FFE0E00018F6FB8EC08F0B0
:10083800000E0001C56F000EC46F0001C5BF08D0CF
:10084800100E0001C45D270E0001C559D8B00DD0A7
:100858008B801A0EE82EFED700D08B90F00EE82E73
:10086800FED70001C44BC52BE8D7000E0001C26FAC
:10087800630E0001C26501D00CD0680E0001AB6F99
:10088800E40EE82EFED7AB2FFCD700F00001C22BF8
:10089800EFD7000E0001C36F630E0001C36501D0DE
:1008A8000CD0680E0001AB6FE40EE82EFED7AB2F1C
:1008B800FCD700F00001C32BEFD7030E0001FC6F3B
:1008C8001200020E0001FC19D8A475D0010EDCEC50
:1008D80023F0680E0001C46FE40EE82EFED7C42F83
:1008E800FCD700F0800EDCEC23F0B90E00018E6F0F
:1008F800FB0E00018F6F010E0001FD250001906FB6
:100908000001916B000E9123B8EC08F0C00EDCECEE
:1009180023F00E0E0001836F100E826FF8C080F076
:10092800F9C081F078EC1CF080C0C6F081C0C7F037
:100938001B0E00018E6FFF0E00018F6F0E0E00015F
:10094800836F100E826FF8C080F0F9C081F078ECE8
:100958001CF080C086F081C087F0000E0001896F0E
:100968003C0E886F66EC1BF086C090F087C091F053
:10097800C6C080F0C7C081F0000E0001836F3C0E36
:10098800826F78EC1CF080C092F081C093F0B8ECD4
:1009980008F0000E0001FC6F81A2FED70C0E0001CA
:1009A800E0190001E111D8A403D045EC21F0D5D31A
:1009B80029EC21F0D2D30001E0510001E111D8A4C3
:1009C800CCD3000E0001C86F630E0001C86501D0CA
:1009D8000CD0680E0001C46FE40EE82EFED7C42FB9
:1009E800FCD700F00001C82BEFD70001E05100014F
:1009F800E111D8A4B2D382EC0FF0AFD30001E851D3
:100A08000001E911D8A441D0010EDCEC23F0680EF6
:100A18000001C46FE40EE82EFED7C42FFCD700F007
:100A2800800EDCEC23F0A70E00018E6FFB0E000198
:100A38008F6FE6C090F0E7C091F0B8EC08F0C00EF8
:100A4800DCEC23F03E0E00018E6FFE0E00018F6F6E
:100A5800B8EC08F0000E0001C96F630E0001C9650B
:100A680001D00CD0680E0001C46FE40EE82EFED74A
:100A7800C42FFCD700F00001C92BEFD70001F651B5
:100A88000001F711D8B41200E5D7010EDCEC23F011
:100A9800680E0001C46FE40EE82EFED7C42FFCD701
:100AA80000F0800EDCEC23F0A70E00018E6FFB0E29
:100AB80000018F6FE6C090F0E7C091F0B8EC08F045
:100AC800C00EDCEC23F0FC0E00018E6FFD0E000161
:100AD8008F6FB8EC08F0000E0001CA6F630E0001BA
:100AE800CA6501D00CD0680E0001C46FE40EE82E70
:100AF800FED7C42FFCD700F00001CA2BEFD70001A6
:100B0800F6510001F711D8B41200000E0001CB6FA6
:100B1800630E0001CB6501D00CD0680E0001C46FD4
:100B2800E40EE82EFED7C42FFCD700F00001CB2B33
:100B3800EFD70001F6510001F711D8B41200010EE9
:100B4800DCEC23F0680E0001C46FE40EE82EFED73B
:100B5800C42FFCD700F0800EDCEC23F0C40E00019B
:100B68008E6FFF0E00018F6FB8EC08F0C00EDCEC42
:100B780023F02FC1D6F030C1D7F031C1D8F032C13F
:100B8800D9F0C3D0D60E0001806F000E0001816F2E
:100B9800DB0E0001826FFF0E0001836F61EC21F014
:100BA800E6D0D60E0001806F000E0001816FCB0EDB
:100BB8000001826FFF0E0001836F61EC21F0D7D036
:100BC800D60E0001806F000E0001816FE70E000154
:100BD800826FFF0E0001836F61EC21F0C8D0D60E42
:100BE8000001806F000E0001816FEB0E0001826F23
:100BF800FF0E0001836F61EC21F0B9D0D60E000121
:100C0800806F000E0001816FFB0E0001826FFF0EE6
:100C18000001836F61EC21F0AAD0D60E0001806F2D
:100C2800000E0001816FDF0E0001826FFF0E0001D0
:100C3800836F61EC21F09BD0D60E0001806F000E0F
:100C48000001816FD70E0001826FFF0E0001836FD4
:100C580061EC21F08CD0D60E0001806F000E0001EF
:100C6800816FD30E0001826FFF0E0001836F61EC6C
:100C780021F07DD0D60E0001806F000E0001816F3B
:100C8800E30E0001826FFF0E0001836F61EC21F01B
:100C98006ED0D60E0001806F000E0001816FF30E3A
:100CA8000001826FFF0E0001836F61EC21F05FD0BD
:100CB800D60E0001806F000E0001816FF70E000153
:100CC800826FFF0E0001836F61EC21F050D0D60EC9
:100CD8000001806F000E0001816FCF0E0001826F4E
:100CE800FF0E0001836F61EC21F041D0D60E0001A8
:100CF800806F000E0001816FEF0E0001826FFF0E02
:100D08000001836F61EC21F032D021EE0AF0DECFD2
:100D1800C4F0DDCFC5F00001C551000AD8A4E6D75C
:100D28000001C451010AD8B42DD7030AD8B439D761
:100D3800010AD8B445D7070AD8B451D7010AD8B49C
:100D48005DD7030AD8B469D7010AD8B475D70F0A92
:100D5800D8B481D7010AD8B48DD7030AD8B499D7A3
:100D6800010AD8B4A5D7070AD8B4B1D7BFD7300E6F
:100D780000018E6FFB0E00018F6F08C190F009C152
:100D880091F0D60E0001926F000E0001936F04C11E
:100D980094F005C195F002C196F003C197F000C127
:100DA80098F001C199F0B8EC08F0000E0001CC6F82
:100DB800630E0001CC6501D00CD0680E0001C46F31
:100DC800E40EE82EFED7C42FFCD700F00001CC2B90
:100DD800EFD70001F6510001F711D8B41200000E48
:100DE8000001CD6F630E0001CD6501D00CD0680EF7
:100DF8000001C46FE40EE82EFED7C42FFCD700F024
:100E08000001CD2BEFD70001F6510001F711D8B43E
:100E18001200010EDCEC23F0680E0001C46FE40E32
:100E2800E82EFED7C42FFCD700F0800EDCEC23F0B0
:100E38009B0E00018E6FFF0E00018F6FB8EC08F05B
:100E4800C00EDCEC23F00E0E0001836F100E826FD3
:100E5800F4C080F0F5C081F078EC1CF080C0C6F0DA
:100E680081C0C7F00D0E00018E6FFF0E00018F6F5D
:100E78000E0E0001836F100E826FF4C080F0F5C073
:100E880081F078EC1CF080C086F081C087F0000EFD
:100E98000001896F3C0E886F66EC1BF086C090F0ED
:100EA80087C091F0C6C080F0C7C081F0000E000175
:100EB800836F3C0E826F78EC1CF080C092F081C08A
:100EC80093F0B8EC08F0000E0001CE6F630E00013D
:100ED800CE6501D00CD0680E0001C46FE40EE82E78
:100EE800FED7C42FFCD700F00001CE2BEFD70001AE
:100EF800F6510001F711D8B41200000E0001CF6FAF
:100F0800630E0001CF6501D00CD0680E0001C46FDC
:100F1800E40EE82EFED7C42FFCD700F00001CF2B3B
:100F2800EFD70001F6510001F711D8B41200010EF5
:100F3800DCEC23F0680E0001C46FE40EE82EFED747
:100F4800C42FFCD700F0800EDCEC23F0520E000119
:100F58008E6FFD0E00018F6FB8EC08F0C00EDCEC50
:100F680023F0700E00018E6FFB0E00018F6FEEC034
:100F780090F0EFC091F0F0C092F0F1C093F0B8ECAF
:100F880008F0000E0001D06F630E0001D06501D09B
:100F98000CD0680E0001C46FE40EE82EFED7C42FF3
:100FA800FCD700F00001D02BEFD70001F65100016B
:100FB800F711D8B41200000E0001D16F630E0001C2
:100FC800D16501D00CD0680E0001C46FE40EE82E84
:100FD800FED7C42FFCD700F00001D12BEFD70001BA
:100FE800F6510001F711D8B41200010EDCEC23F021
:100FF800680E0001C46FE40EE82EFED7C42FFCD79C
:1010080000F0800EDCEC23F0630E00018E6FFD0E05
:1010180000018F6FB8EC08F0C00EDCEC23F05D0E19
:1010280000018E6FFB0E00018F6FEAC090F0EBC0DD
:1010380091F0ECC092F0EDC093F0B8EC08F0000E1F
:101048000001D26F630E0001D26501D00CD0680E8A
:101058000001C46FE40EE82EFED7C42FFCD700F0C1
:101068000001D22BEFD70001F6510001F711D8B4D7
:101078001200000E0001D36F630E0001D36501D08A
:101088000CD0680E0001C46FE40EE82EFED7C42F02
:10109800FCD700F00001D32BEFD70001F651000177
:1010A800F711D8B41200010EDCEC23F0680E000131
:1010B800C46FE40EE82EFED7C42FFCD700F0800ED4
:1010C800DCEC23F0740E00018E6FFD0E00018F6FB3
:1010D800B8EC08F0C00EDCEC23F06D0E00018E6F4A
:1010E800FB0E00018F6FF2C090F0F3C091F0B8ECE6
:1010F80008F0000E0001D46F630E0001D46501D022
:101108000CD0680E0001C46FE40EE82EFED7C42F81
:10111800FCD700F00001D42BEFD70001F6510001F5
:10112800F711D8B41200000E0001D56F630E00014C
:10113800D56501D00CD0680E0001C46FE40EE82E0E
:10114800FED7C42FFCD700F00001D52BEFD7000144
:10115800F6510001F711D8B412000001F651000150
:10116800F711D8B412004AD4900E0001A16F000EF6
:101178000001A26F05D2250E0001A819D8B405D028
:101188000001A851D4EC23F0FBD1000E0001AA6F96
:10119800000EA96F000E0001A76F05D00001A785FA
:1011A80000018E4B8F2B8EC0F6FF8FC0F7FFF86AB9
:1011B8000800F550300AD8B4F1D78EC0F6FF8FC0BA
:1011C800F7FFF86A0800F550F9EC22F0D8A0D2D061
:1011D800000E0001AA6F000EA96FA9C080F0AAC076
:1011E80081F0000E0001836F0A0E826F7CEC21F003
:1011F80080C0A9F081C0AAF0D00E00019A6FFF0E3E
:1012080000019B6F8EC0F6FF8FC0F7FFF86A0800D9
:10121800F55000019C6F9D6B00019A5100019C27BD
:1012280000019B5100019D2300019C510001A92749
:1012380000019D510001AA2300018E4B8F2B8EC007
:10124800F6FF8FC0F7FFF86A0800F550F9EC22F0B6
:10125800D8A090D0C2D7A1C0D9FFA2C0DAFFDECFF4
:101268009FF0DDCFA0F0020E0001A127000EA223FF
:1012780000019F510001A011D8A406D0B60E0001AC
:101288009F6FFF0E0001A06F000E0001A46F000EFB
:10129800A36F03D00001A34BA42B0001A3510001AD
:1012A8009F2500019A6F0001A4510001A0210001AF
:1012B8009B6F9AC0F6FF9BC0F7FF000EF86E0F0EEB
:1012C800F76403D00800F55005D0F6CFE9FFF7CF53
:1012D800EAFFEF500009D8A4DDD70001A9510001A9
:1012E800A35D0001AA510001A459D8B009D000019A
:1012F800A3510001A95F0001A4510001AA5B09D014
:10130800000E0001AA6F000EA96F03D0200ED4ECC6
:1013180023F00001A907D8A0AA070001A929F6E12E
:101328000001AA29D8B417D0F1D79FC0F6FFA0C0F2
:10133800F7FF000EF86E0F0EF76403D00800F550A3
:1013480005D0F6CFE9FFF7CFEAFFEF50D4EC23F052
:1013580000019F4BA02B0001A307D8A0A407000100
:10136800A329E3E10001A429D8B40AD1DED70001FA
:10137800A78D1DD08EC0F6FF8FC0F7FF00018E4BE2
:101388008F2BF86A0800F5CFA8F00001A851000AD1
:10139800D8B41200640AD8B40AD00D0AD8B407D059
:1013A8001A0AD8B458D7060AD8B4E1D7E9D0000148
:1013B800A7BD19D0A1C0D9FFA2C0DAFFDECFA5F022
:1013C800DDCFA6F0020E0001A127000EA223000126
:1013D800A6AF16D0030E0001A7130001A56DA61F26
:1013E800D8B0A62B0DD0A1C0D9FFA2C0DAFFDECF9E
:1013F800A5F0DDCFA6F0020E0001A127000EA22362
:10140800010E0001A86F050E0001A819D8B419D063
:101418000001A851020D260EF324F66EFB0EF420EF
:10142800F76EF86A000EF8220900F5500001A55D74
:101438000900F5500001A659D8A003D00001A82B37
:10144800E2D70001A9510001AA11D8B40BD0A7C056
:101458009AF0030E00019A17D8B404D00001A90726
:10146800D8A0AA07800E0001A8BF7F0E00019A6FBE
:101478000001A9510001A85D0001AA51800A0001DC
:101488009A59D8B00BD00001A8510001A95F000EED
:101498000001A8BFFF0E0001AA5B05D0000E0001E5
:1014A800AA6F000EA96F0001A7A518D0A7C09AF0CF
:1014B800030E00019A17D8B403D02D0ED4EC23F0F4
:1014C8000001A9510001AA11D8B425D0300ED4ECDE
:1014D80023F00001A907D8A0AA07F2D70001A95153
:1014E8000001AA11D8B40DD0200ED4EC23F00001CD
:1014F800A907D8A0AA070001A9510001AA11D8A4D8
:10150800F3D7A7C09AF0030E00019A17D8B403D0F6
:101518002D0ED4EC23F0A8C09EF02CD000019E51D3
:10152800020D260EF324F66EFB0EF420F76EF86A11
:10153800000EF8220900F5CF82F00A00F5CF83F0FB
:10154800A5C080F0A6C081F023EC1EF080C087F013
:1015580081C088F0000E00018A6F0A0E896F3BEC8B
:101568001FF000018751300F0001A86F0001A8513A
:10157800D4EC23F000019E0700019E29D8A4CED701
:101588008EC0F6FF8FC0F7FF00018E4B8F2BF86AD5
:101598000800F5CFA8F00001A851D8B41200EBD587
:1015A8000F0E206E000E216EA4D1250E2718D8B478
:1015B80004D02750E4EC23F09CD1000E296E000ED5
:1015C800286E000E266E03D026840D4A0E2A0DC002
:1015D800F6FF0EC0F7FFF86A0800F550300AD8B4D5
:1015E800F3D70DC0F6FF0EC0F7FFF86A0800F550F4
:1015F80090EC23F0D8A0A6D0000E296E000E286E1D
:1016080028C001F029C002F0000E046E0A0E036E15
:1016180036EC23F001C028F002C029F0D00E196E74
:10162800FF0E1A6E0DC0F6FF0EC0F7FFF86A08002D
:10163800F5501B6E1C6A19501B261A501C221B5091
:1016480028261C5029220D4A0E2A0DC0F6FF0EC06E
:10165800F7FFF86A0800F55090EC23F0D8A072D094
:10166800CFD720C0D9FF21C0DAFFDECF1EF0DDCFF3
:101678001FF0020E2026000E21221E501F10D8A493
:1016880004D0B60E1E6EFF0E1F6E000E236E000EE7
:10169800226E02D0224A232A22501E24196E235079
:1016A8001F201A6E19C0F6FF1AC0F7FF000EF86E59
:1016B8000F0EF76403D00800F55005D0F6CFE9FF08
:1016C800F7CFEAFFEF500009D8A4E4D72850225CEE
:1016D80029502358D8B005D02250285E2350295AC3
:1016E80008D0000E296E000E286E03D0200EE4EC00
:1016F80023F02806D8A029062828F8E12928D8B4F4
:1017080016D0F4D71EC0F6FF1FC0F7FF000EF86E04
:101718000F0EF76403D00800F55005D0F6CFE9FFA7
:10172800F7CFEAFFEF50E4EC23F01E4A1F2A220607
:10173800D8A023062228E6E12328D8B4DAD0E2D7B5
:10174800268C1BD00DC0F6FF0EC0F7FF0D4A0E2ADF
:10175800F86A0800F5CF27F02750000AD8B412001D
:10176800640AD8B40AD00D0AD8B407D01A0AD8B473
:1017780078D7060AD8B4E4D7BCD026BC15D020C088
:10178800D9FF21C0DAFFDECF24F0DDCF25F0020E2D
:101798002026000E212225AE13D0030E2612246C1B
:1017A800251ED8B0252A0CD020C0D9FF21C0DAFFC9
:1017B800DECF24F0DDCF25F0020E2026000E2122F8
:1017C800010E276E050E2718D8B415D02750020D24
:1017D800260EF324F66EFB0EF420F76EF86A000E60
:1017E800F8220900F550245C0900F5502558D8A0C6
:1017F80002D0272AE7D728502910D8B409D026C004
:1018080019F0030E1916D8B403D02806D8A0290653
:10181800800E27BE7F0E196E2850275C2950800A3B
:101828001958D8B007D02750285E000E27BEFF0EE3
:10183800295A04D0000E296E000E286E26A414D052
:1018480026C019F0030E1916D8B403D02D0EE4ECF7
:1018580023F028502910D8B41ED0300EE4EC23F021
:101868002806D8A02906F5D728502910D8B40AD0B8
:10187800200EE4EC23F02806D8A0290628502910C9
:10188800D8A4F6D726C019F0030E1916D8B403D079
:101898002D0EE4EC23F027C01DF027D01D50020DBB
:1018A800260EF324F66EFB0EF420F76EF86A000E8F
:1018B800F8220900F5CF08F00A00F5CF09F024C096
:1018C80006F025C007F022EC20F006C001F007C0A2
:1018D80002F0000E046E0A0E036E08EC21F00150AF
:1018E800300F276E2750E4EC23F01D061D28D8A4DE
:1018F800D5D70DC0F6FF0EC0F7FF0D4A0E2AF86ABD
:101908000800F5CF27F02750D8B412004ED6010EA4
:10191800DCEC23F0680E0001AB6FE40EE82EFED776
:10192800AB2FFCD700F0800EDCEC23F0AE0E0001EC
:101938008E6FFF0E00018F6FB8EC08F0C00EDCEC64
:1019480023F0FF0E00018E6FFE0E00018F6FB8ECC2
:1019580008F0050E0001AC6F0F0E0001AB6FF10E21
:10196800E82EFED7AB2FFCD7AC2FFAD781A2FED733
:1019780081B2FED7010EDCEC23F0680E0001AB6FDC
:10198800E40EE82EFED7AB2FFCD700F0800EDCEC7F
:1019980023F0290E00018E6FFF0E00018F6FB8EC47
:1019A80008F0050E0001AC6F0F0E0001AB6FF10ED1
:1019B800E82EFED7AB2FFCD7AC2FFAD78B8A5CD09A
:1019C800000EE3EC22F0C350C4CFABF00001AC6BC7
:1019D800ABC0ACF00001AB6B0001AB110001AD6F07
:1019E8000001AC510001AE6F0001AEBF0AD0850EF8
:1019F8000001AD5D030E0001AE59D8A002D0010E62
:101A080001D0000E0001DA6FDB6B010EDCEC23F075
:101A1800680E0001AB6FE40EE82EFED7AB2FFCD7A3
:101A280000F0800EDCEC23F04E0E00018E6FFE0EEF
:101A380000018F6FDAC090F0DBC091F0B8EC08F0CD
:101A4800C00EDCEC23F06D0E00018E6FFB0E000162
:101A58008F6FADC090F0AEC091F0B8EC08F0050EF5
:101A68000001AC6F0F0E0001AB6FF10EE82EFED730
:101A7800AB2FFCD7AC2FFAD781A2A2D78B9A010E35
:101A8800DCEC23F0680E0001AB6FE40EE82EFED705
:101A9800AB2FFCD700F0800EDCEC23F07B0E0001AE
:101AA8008E6FFE0E00018F6FB8EC08F0050E000176
:101AB800AC6F0F0E0001AB6FF10EE82EFED7AB2F07
:101AC800FCD7AC2FFAD721D0BFEC20F0800EDCEC8D
:101AD80023F0C00EDCEC23F01E0E00018E6FFE0E0C
:101AE80000018F6FDCC090F0DDC091F0B8EC08F019
:101AF800050E0001AC6F0F0E0001AB6FF10EE82E62
:101B0800FED7AB2FFCD7AC2FFAD781A2DDD7010EB9
:101B1800DCEC23F0680E0001AB6FE40EE82EFED774
:101B2800AB2FFCD700F0800EDCEC23F07D0E00011B
:101B38008E6FFF0E00018F6FB8EC08F0050E0001E4
:101B4800AC6F0F0E0001AB6FF10EE82EFED7AB2F76
:101B5800FCD7AC2FFAD7010EDCEC23F0680E00019D
:101B6800AB6FE40EE82EFED7AB2FFCD700F0800E4B
:101B7800DCEC23F07D0E00018E6FFF0E00018F6FED
:101B8800B8EC08F01BD0800EDCEC23F0C00EDCECC7
:101B980023F0A50E00018E6FFF0E00018F6F80A449
:101BA80004D00001AB6BAB2B02D00001AB6B000182
:101BB800AB510001906F916BB8EC08F081A2E3D7AC
:101BC80081380F0B0F0AD8B4120089861BD0800EFB
:101BD800DCEC23F0C00EDCEC23F0A50E00018E6FC8
:101BE800FF0E00018F6F80A404D00001AB6BAB2BFC
:101BF80002D00001AB6B0001AB510001906F916BFB
:101C0800B8EC08F081B2E3D78996A5D7010EDCECD1
:101C180023F0680E0001AB6FE40EE82EFED7AB2F61
:101C2800FCD700F0800EDCEC23F0CA0E00018E6FAA
:101C3800FC0E00018F6FB8EC08F0CD80B180010E6A
:101C48000001FC6F000E7A6E000E796E000E7A6E3F
:101C5800000E796ECAEC1FF03D0E0001AC6FE10E6C
:101C68000001AB6F3F0EE82EFED7AB2FFCD7AC2F91
:101C7800FAD700D0010E0001816FF40E806F000EBC
:101C88000001836F010E826F5FEC1EF0050E0001EC
:101C9800816F460E806F000E0001836F030E826F06
:101CA8005FEC1EF03D0E0001AC6FE10E0001AB6F62
:101CB8003F0EE82EFED7AB2FFCD7AC2FFAD700D0BB
:101CC800040E0001816FA60E806F000E0001836F65
:101CD800030E826F5FEC1EF01F0E0001AC6F710ED9
:101CE8000001AB6F1E0EE82EFED7AB2FFCD7AC2F32
:101CF800FAD700F0020E0001816FEE0E806F000E21
:101D08000001836F010E826F5FEC1EF0050E00016B
:101D1800816F460E806F000E0001836F030E826F85
:101D28005FEC1EF03D0E0001AC6FE10E0001AB6FE1
:101D38003F0EE82EFED7AB2FFCD7AC2FFAD700D03A
:101D4800040E0001816FA60E806F000E0001836FE4
:101D5800030E826F5FEC1EF01F0E0001AC6F710E58
:101D68000001AB6F1E0EE82EFED7AB2FFCD7AC2FB1
:101D7800FAD700F0040E0001816FB00E806F000EDC
:101D88000001836F010E826F5FEC1EF0050E0001EB
:101D9800816F460E806F000E0001836F030E826F05
:101DA8005FEC1EF03D0E0001AC6FE10E0001AB6F61
:101DB8003F0EE82EFED7AB2FFCD7AC2FFAD700D0BA
:101DC800040E0001816FA60E806F000E0001836F64
:101DD800030E826F5FEC1EF01F0E0001AC6F710ED8
:101DE8000001AB6F1E0EE82EFED7AB2FFCD7AC2F31
:101DF800FAD700F0060E0001816FA40E806F000E66
:101E08000001836F010E826F5FEC1EF0050E00016A
:101E1800816F460E806F000E0001836F030E826F84
:101E28005FEC1EF03D0E0001AC6FE10E0001AB6FE0
:101E38003F0EE82EFED7AB2FFCD7AC2FFAD700D039
:101E4800040E0001816FA60E806F000E0001836FE3
:101E5800030E826F5FEC1EF01F0E0001AC6F710E57
:101E68000001AB6F1E0EE82EFED7AB2FFCD7AC2FB0
:101E7800FAD700F0070E0001816FD00E806F000EB8
:101E88000001836F010E826F5FEC1EF0050E0001EA
:101E9800816F460E806F000E0001836F030E826F04
:101EA8005FEC1EF03D0E0001AC6FE10E0001AB6F60
:101EB8003F0EE82EFED7AB2FFCD7AC2FFAD700D0B9
:101EC800040E0001816FA60E806F000E0001836F63
:101ED800030E826F5FEC1EF01F0E0001AC6F710ED7
:101EE8000001AB6F1E0EE82EFED7AB2FFCD7AC2F30
:101EF800FAD700F0CD90B190F29E12009EEC1DF042
:101F080033C1BEF034C1BFF035C1C0F036C1C1F035
:101F1800000E0001C36F000EC26F0001C3BF08D0DE
:101F28000001C35146E1070E0001C25DD8B041D09F
:101F3800240E0001C225D96E010E0001C321DA6EFC
:101F4800DF500001AB6F0001AB3B0F0EAB170F0E5C
:101F58000001AB170001AB510A0D240E0001C22588
:101F6800D96E010E0001C321DA6EDF500F0B00019C
:101F7800AC6FAD6BF3500001AC27F4500001AD23FA
:101F8800D8900001C235D96E0001C335DA6EAE0EA5
:101F9800D926000EDA22ACC0DEFFADC0DDFF00019D
:101FA800C24BC32B0001C3BFC3D70001C35101E11A
:101FB800BAD7B8C0BCF0B9C0BDF0B4D0BE0E0001ED
:101FC800806F000E0001816FDB0E0001826FFF0E33
:101FD8000001836F61EC21F0D4D0BE0E0001806F48
:101FE800000E0001816FCB0E0001826FFF0E000111
:101FF800836F61EC21F0C5D0BE0E0001806F000E2A
:102008000001816FE70E0001826FFF0E0001836FF0
:1020180061EC21F0B6D0BE0E0001806F000E000109
:10202800816FEB0E0001826FFF0E0001836F61EC80
:1020380021F0A7D0BE0E0001806F000E0001816F55
:10204800FB0E0001826FFF0E0001836F61EC21F02F
:1020580098D0BE0E0001806F000E0001816FDF0E68
:102068000001826FFF0E0001836F61EC21F089D0BF
:10207800BE0E0001806F000E0001816FD70E0001B7
:10208800826FFF0E0001836F61EC21F07AD0BE0EE3
:102098000001806F000E0001816FD30E0001826F76
:1020A800FF0E0001836F61EC21F06BD0BE0E0001C2
:1020B800806F000E0001816FE30E0001826FFF0E3A
:1020C8000001836F61EC21F05CD0BE0E0001806FCF
:1020D800000E0001816FF30E0001826FFF0E0001F8
:1020E800836F61EC21F04DD0BE0E0001806F000EB1
:1020F8000001816FF70E0001826FFF0E0001836FF0
:1021080061EC21F03ED0BE0E0001806F000E000190
:10211800816FCF0E0001826FFF0E0001836F61ECAB
:1021280021F02FD0BCC0ABF0BDC0ACF00001AC5169
:10213800000AD8A426D00001AB51010AD8B43ED772
:10214800030AD8B44AD7010AD8B456D7070AD8B46C
:1021580062D7010AD8B46ED7030AD8B47AD7010A6D
:10216800D8B486D70F0AD8B492D7010AD8B49ED764
:10217800030AD8B4AAD7010AD8B4B6D7070AD8B47C
:10218800C2D7800EDCEC23F0300E00018E6FFB0E00
:1021980000018F6FB6C090F0B7C091F0BE0E00017D
:1021A800926F000E0001936FB2C094F0B3C095F027
:1021B800B0C096F0B1C097F0AEC098F0AFC099F03B
:1021C800B8EC08F01200000E786E000E776E000E64
:1021D800686E000E676E000E6A6E000E696E000E65
:1021E8005C6E000E5B6EF29E5BEC14F02A502B10B6
:1021F800D8A412D146D1F8EC21F043D17750781009
:10220800D8B403D0E0EC21F03CD167506810D8B4C2
:1022180003D0C8EC21F035D169506A10D8B431D157
:1022280022EC23F02ED177507810D8B403D0F8ECF4
:1022380021F027D167506810D8B411D0E0EC21F014
:1022480020D177507810D8B403D0F8EC21F019D108
:1022580067506810D8B403D0E0EC21F012D169506F
:102268006A10D8B40ED1010E0001FC6F0AD1775064
:102278007810D8B403D0B0EC21F003D167506810BF
:10228800D8B403D0F8EC21F0FCD069506A10D8B467
:10229800F8D070EC22F0F5D077507810D8B403D08D
:1022A80010EC22F0EED067506810D8B403D058EC88
:1022B80022F0E7D069506A10D8B407D0000E136E28
:1022C800010E126E5CEC23F0DCD05B505C10D8B4CD
:1022D800D8D0E0EC21F0D5D077507810D8B403D01E
:1022E80070EC22F0CED067506810D8B403D0B6ECAA
:1022F80022F0C7D069506A10D8B407D0000E136E08
:10230800020E126E5CEC23F0BCD05B505C10D8B4AB
:10231800B8D0E0EC21F0B5D077507810D8B403D01D
:1023280070EC22F0AED067506810D8B403D0B6EC89
:1023380022F0A7D069506A10D8B407D0000E136EE7
:10234800020E126E5CEC23F09CD05B505C10D8B48B
:1023580098D0E0EC21F095D077507810D8B403D01D
:1023680040EC22F08ED067506810D8B403D010EC3F
:1023780022F087D069506A10D8B407D0000E136EC7
:10238800030E126E5CEC23F07CD05B505C10D8B46A
:1023980078D0E0EC21F075D077507810D8B403D01D
:1023A80040EC22F06ED067506810D8B403D010EC1F
:1023B80022F067D069506A10D8B407D0000E136EA7
:1023C800030E126E5CEC23F05CD05B505C10D8B44A
:1023D80058D0E0EC21F055D077507810D8B403D01D
:1023E80028EC22F04ED067506810D8B403D070ECB7
:1023F80022F047D069506A10D8B407D0000E136E87
:10240800040E126E5CEC23F03CD05B505C10D8B428
:1024180038D0E0EC21F035D0E0C043F0E1C044F022
:102428004450000AD8B407D0030AD8B415D0070A14
:10243800D8B420D026D04350000AD8B4DCD60B0A32
:10244800D8B4DCD6070AD8B4EED61A0AD8B4F9D666
:10245800010AD8B40CD715D04350F30AD8B41CD706
:10246800070AD8B439D70A0AD8B456D7010AD8B453
:1024780073D707D04350090AD8B48ED7030AD8B403
:10248800ABD7F28E12009AEC1EF033C13DF034C186
:102498003EF035C13FF036C140F0000E426E000EEE
:1024A800416E42BE06D0425035E1070E415CD8B0BD
:1024B80031D0240E4124D96E010E4220DA6EDF504D
:1024C8002A6E2A3A0F0E2A160F0E2A162A500A0DBD
:1024D800240E4124D96E010E4220DA6EDF500F0B14
:1024E8002B6E2C6AF3502B26F4502C22D8904134B2
:1024F800D96E4234DA6E2D0ED926000EDA222BC0A0
:10250800DEFF2CC0DDFF414A422A42BED2D74250EC
:1025180001E1CBD737C03BF038C03CF084D03D0E4A
:10252800016E000E026EDB0E036EFF0E046E97EC5A
:1025380021F0A6D03D0E016E000E026ECB0E036E8A
:10254800FF0E046E97EC21F09BD03D0E016E000E3D
:10255800026EE70E036EFF0E046E97EC21F090D02A
:102568003D0E016E000E026EEB0E036EFF0E046E42
:1025780097EC21F085D03D0E016E000E026EFB0E29
:10258800036EFF0E046E97EC21F07AD03D0E016EBB
:10259800000E026EDF0E036EFF0E046E97EC21F044
:1025A8006FD03D0E016E000E026ED70E036EFF0E49
:1025B800046E97EC21F064D03D0E016E000E026EA1
:1025C800D30E036EFF0E046E97EC21F059D03D0E2A
:1025D800016E000E026EE30E036EFF0E046E97ECA2
:1025E80021F04ED03D0E016E000E026EF30E036E0A
:1025F800FF0E046E97EC21F043D03D0E016E000EE5
:10260800026EF70E036EFF0E046E97EC21F038D0C1
:102618003D0E016E000E026ECF0E036EFF0E046EAD
:1026280097EC21F02DD03BC02AF03CC02BF02B506A
:10263800000AD8A425D02A50010AD8B470D7030AB2
:10264800D8B478D7010AD8B480D7070AD8B488D7BD
:10265800010AD8B490D7030AD8B498D7010AD8B4D5
:10266800A0D70F0AD8B4A8D7010AD8B4B0D7030A9C
:10267800D8B4B8D7010AD8B4C0D7070AD8B4C8D7CD
:10268800800EEAEC23F0300E0D6EFB0E0E6E35C098
:102698000FF036C010F03D0E116E000E126E31C0F4
:1026A80013F032C014F02FC015F030C016F02DC052
:1026B80017F02EC018F0D4EC0AF012009AEC1EF0B5
:1026C800000E4A6E000E496E4ABE06D04A5031E1ED
:1026D800070E495CD8B02DD0240E4924D96E010EBE
:1026E8004A20DA6EDF502A6E2A3A0F0E2A160F0E8B
:1026F8002A162A500A0D240E4924D96E010E4A20A2
:10270800DA6EDF500F0B2B6E2C6AF3502B26F45029
:102718002C22D8904934D96E4A34DA6E2F0ED92635
:10272800000EDA222BC0DEFF2CC0DDFF494A4A2A00
:10273800CBD710C101F011C102F0000E046E3C0E9F
:10274800036E36EC23F001C02AF002C02BF012C150
:1027580001F013C102F00E0E046E100E036E36EC7B
:1027680023F001502A2602502B2201010E512A245F
:102778003D6E01010F512B203E6E31C001F032C079
:1027880002F0000E046E3C0E036E36EC23F001C01E
:102798002AF002C02BF033C001F034C002F00E0E54
:1027A800046E100E036E36EC23F001502A260250F8
:1027B8002B222F502A243F6E30502B20406E3DC0D4
:1027C8002AF03EC02BF02A1E2B1E2A4A2B2A3F50E5
:1027D8002A24476E40502B20486E47C0F8F048C066
:1027E800F9F0485004E10A0E475CD8A003D0020E65
:1027F8000001FC6F47C006F048C007F00E0E096ED6
:10280800100E086E22EC20F006C02DF007C02EF046
:102818000E0E046E100E036E47C001F048C002F0A1
:1028280008EC21F001C006F002C007F0000E096EA6
:102838003C0E086E22EC20F006C041F007C042F0C2
:102848000E0E046E100E036E47C001F048C002F071
:1028580008EC21F001C045F002C046F045C001F087
:1028680046C002F0000E046E3C0E036E08EC21F028
:1028780001C043F002C044F0800EEAEC23F0720E6F
:102888000D6EFF0E0E6ED4EC0AF0C00EEAEC23F0CB
:10289800430E0D6EFF0E0E6E41C00FF042C010F0D9
:1028A80043C011F044C012F0D4EC0AF01200755085
:1028B8007610D8B40BD0F8EC21F0000E766E000E2E
:1028C800756E000E2B6E000E2A6E12000001F65176
:1028D8000001F711D8B4C7D0430E7D18D8A412D080
:1028E80081B209D00FD0680E2C6EE40EE82EFED708
:1028F8002C2EFCD700D081B2F6D7000E2B6E000E1E
:102908002A6E1200440E7D18D8A4F7D7000E0001D5
:10291800F76F000EF66F12D070EC22F0EED758EC7D
:1029280022F0EBD740EC22F0E8D7B6EC22F0E5D75E
:1029380028EC22F0E2D710EC22F0DFD7E0C02CF030
:10294800E1C02DF02D50030AD8B404D0070AD8B43A
:102958000FD0D3D72C50F30AD8B4DED7070AD8B48F
:10296800DED70A0AD8B4DED7010AD8B4DED7C5D76D
:102978002C50090AD8B4DCD7030AD8B4DCD7BDD7A1
:102988000B0E0001E0190001E111D8A405D0000EDA
:102998002B6E000E2A6E1200F8EC21F0000E2B6E42
:1029A800000E2A6E1200160E0001E0190001E11156
:1029B800D8B407D00C0E0001E0190001E111D8A429
:1029C80005D0000E2B6E000E2A6E1200170E0001A5
:1029D800E0190001E111D8A403D0B0EC21F002D035
:1029E800C8EC21F0000E2B6E000E2A6E1200170E96
:1029F8000001E0190001E111D8A405D0000E2B6EEA
:102A0800000E2A6E1200E0EC21F0000E2B6E000E74
:102A18002A6E1200000E786E010E776E000E2B6E75
:102A2800010E2A6E1200000E686E010E676E000E0F
:102A38002B6E010E2A6E1200000E6A6E010E696E70
:102A4800000E2B6E010E2A6E1200000E5C6E010E37
:102A58005B6E000E2B6E010E2A6E1200000E2B6E9E
:102A6800010E2A6E12007D50310AD8B489D7030AA4
:102A7800D8B499D7010AD8B4BAD7720AD8B4CAD781
:102A8800030AD8B4D0D7010AD8B4D6D7070AD8B41D
:102A9800DCD7E4D70600FACF4DF0FBCF4EF0E9CFF4
:102AA8004FF0EACF50F0E1CF51F0E2CF52F0D9CF5A
:102AB80053F0DACF54F0F3CF55F0F4CF56F0F6CF09
:102AC80057F0F7CF58F0F8CF59F0F5CF5AF0F0A0FB
:102AD80020D0F0900001FC51D8A41BD081380F0BF6
:102AE8000F0B4B6E4C6A150E4B24F66EFB0E4C20EA
:102AF800F76EF86A000EF8220800F5CF7DF02A0E6E
:102B08007D18D8A404D0030E0001FC6F02D0E7ECB6
:102B180010F0F2A40CD0F2940001FC05D8A407D060
:102B280062EC13F0850ED76EEE0ED66ED58E9EA093
:102B380024D09E90CD900001FC05D8A41ED07950D9
:102B48007A10D8B40AD08B82000E7A6E000E796E95
:102B58001CC1CFFF1EC1CEFF0FD08B92000E7A6E24
:102B6800010E796E01011C510008200FCF6E010182
:102B78001E510008200FCE6ECD80A1A224D0A192B4
:102B8800B1900001FC05D8A41ED07B507C10D8B4AD
:102B98000AD08B84000E7C6E000E7B6E20C1B3FFC2
:102BA80022C1B2FF0FD08B94000E7C6E010E7B6E9B
:102BB800010120510008200FB36E010122510008C5
:102BC800200FB26EB1805AC0F5FF59C0F8FF58C047
:102BD800F7FF57C0F6FF56C0F4FF55C0F3FF54C0C7
:102BE800DAFF53C0D9FF52C0E2FF51C0E1FF50C025
:102BF800EAFF4FC0E9FF4EC0FBFF4DC0FAFF7E92CF
:102C080011006D506E10D8B41200150E0001876FB8
:102C18004B0E0001866FBE0EE82EFED7862FFCD71E
:102C2800872FFAD700F080A404D00001866B862B8A
:102C380002D00001866B0001865100018A6F8B6B00
:102C480000018A5100018B11D8A429D0BFEC20F0D3
:102C5800DCC08CF0DDC08DF000018C5100018D11BD
:102C6800D8A41DD089860D0E0001876F2D0E000196
:102C7800866FD70EE82EFED7862FFCD7872FFAD778
:102C880000D080A404D00001866B862B02D00001FE
:102C9800866B0001865100018E6F8F6B899600014B
:102CA8008A5100018B11D8A421D000018C51000158
:102CB8008D11D8A414D000018E5100018F11D8A411
:102CC80007D0614A622A000E01012C6F000E14D051
:102CD800634A642A000E01012C6F010E0DD05F4A71
:102CE800602A000E01012C6F020E06D05D4A5E2A92
:102CF800000E01012C6F030E2B6F000E0001896F6F
:102D0800000E886F000189BF08D0100E0001885D91
:102D1800270E00018959D8B00DD08B801A0EE82EE5
:102D2800FED700D08B90F00EE82EFED70001884B1E
:102D3800892BE8D7000E706E010E6F6E150E00011C
:102D4800876F4B0E0001866FBE0EE82EFED7862FCA
:102D5800FCD7872FFAD700F08B80000E6E6E000E1E
:102D68006D6E120073507410D8B466D0D3EC1EF098
:102D7800010EDCEC23F0680E0001B16FE40EE82EC2
:102D8800FED7B12FFCD700F023EC1CF08B8A000E85
:102D98000001816F000E806F9FEC23F00001FD6F32
:102DA8000001FD510B0D010EF3240001B36F000E5D
:102DB800F4200001B46F7F0E0001B56FB3C0ABF013
:102DC800B4C0ACF0B5C0ADF029EC1AF0899A000E89
:102DD8000001B76F000EB66F0001B7BF08D0000141
:102DE800B75126E12E0E0001B65DD8B021D089BAC0
:102DF80004D00001B16BB12B02D00001B16B00010E
:102E0800B13BB14789500001B119DF0BB119896E87
:102E18000001B65100082D0F0EEC23F00001B64B4F
:102E2800B72B0001B7BFE3D70001B75101E1DAD7EB
:102E3800898ACAEC1FF012000001E2510001E31177
:102E4800D8A417D072EC20F00001E2510001E31180
:102E5800D8B412000001FE4BFF2B0C0E0001FE1926
:102E68000001FF11D8A41200000E726E010E716EDF
:102E780012006B506C10D8B41200000E0001E36F02
:102E8800000EE26F8988000E6E6E010E6D6E0D0EDB
:102E98000001B26F2D0E0001B16FD70EE82EFED7DC
:102EA800B12FFCD7B22FFAD700D0899812006F50F3
:102EB8007010D8B4120034D0010E0001816FF40EE6
:102EC800806F000E0001836F010E826F5FEC1EF0B1
:102ED8003ED0020E0001816FEE0E806F000E0001E1
:102EE800836F010E826F5FEC1EF031D0060E000179
:102EF800816FA40E806F000E0001836F010E826F38
:102F08005FEC1EF024D0070E0001816FD00E806F99
:102F1800000E0001836F010E826F5FEC1EF017D068
:102F28002BC188F02CC189F000018951000AD8A46E
:102F38000ED000018851000AD8B4BED7010AD8B40F
:102F4800C8D7030AD8B4D2D7010AD8B4DCD7290E17
:102F58000001896F960E0001886F7F0EE82EFED75C
:102F6800882FFCD7892FFAD7050E0001816F460EEE
:102F7800806F000E0001836F030E826F5FEC1EF0FE
:102F88003D0E0001896FE10E0001886F3F0EE82EAB
:102F9800FED7882FFCD7892FFAD700D0040E00015E
:102FA800816FB00E806F000E0001836F010E826F7B
:102FB8005FEC1EF0040E0001816FA60E806F000EFC
:102FC8000001836F030E826F5FEC1EF0000E706EBF
:102FD800000E6F6E000E01012E6F010E2D6F710431
:102FE8007210D8A41200020E0001FC6F1200000E2D
:102FF8000001816F000E806F9FEC23F00001FD6FD0
:103008000001FD510B0D010EF3240001B96F000EF4
:10301800F4200001BA6F030E0001FD610ED000011B
:10302800FD290001B16F000E0001AC6F000EAB6FFF
:10303800B1C0ADF029EC1AF00AD0000E0001AC6F57
:10304800000EAB6F000E0001AD6F29EC1AF0000105
:10305800FE5180090001B26FB9C0ABF0BAC0ACF044
:10306800B2C0ADF029EC1AF00001B94BBA2B6138A7
:10307800F00B63100001B36FB9C0ABF0BAC0ACF08D
:10308800B3C0ADF029EC1AF00001B94BBA2B5F3888
:10309800F00B5D100001B46FB9C0ABF0BAC0ACF072
:1030A800B4C0ADF029EC1AF00001B94BBA2B000EF0
:1030B8000001B86F000EB76F0001B8BF08D000015B
:1030C800B85128E1070E0001B75DD8B023D0D890D9
:1030D8000001B735D96E0001B835DA6E0E0ED92663
:1030E800010EDA22DF500001B56FB9C0ABF0BAC0EB
:1030F800ACF0B5C0ADF029EC1AF00001B94BBA2B11
:103108000001B74BB82B0001B8BFE1D70001B85197
:1031180001E1D8D7F8C0B6F0B9C0ABF0BAC0ACF08E
:10312800B6C0ADF029EC1AF0120007C001F008C0D3
:1031380002F0000E046E0B0E036E36EC23F0010E47
:103148000124106E000E0220116E10C001F011C093
:1031580002F0B6EC23F00B6E0BC009F0800E0916D6
:1031680009500001E86FE96B0BC009F00F0E091652
:1031780009500001F26FF36B104A112A10C001F0D8
:1031880011C002F0B6EC23F00C6E0CC009F0F00E82
:10319800091609500001EE6FEF6B0CC009F00F0E15
:1031A800091609500001F06FF16B104A112A10C07E
:1031B80001F011C002F0B6EC23F00D6E0DC009F05D
:1031C800F00E091609500001EC6FED6B0DC009F007
:1031D8000F0E091609500001EA6FEB6B104A112A0D
:1031E800000E0F6E000E0E6E0FBE06D00F501EE1C1
:1031F800070E0E5CD8B01AD010C001F011C002F052
:10320800B6EC23F0096E0A6AD8900E34D96E0F34E2
:10321800DA6E000ED926010EDA2209C0DEFF0AC0D6
:10322800DDFF104A112A0E4A0F2ADED710C001F01E
:1032380011C002F0B6EC23F0096E09500001F46FDA
:10324800F56B1200010EDCEC23F0680E0001C66F6E
:10325800E40EE82EFED7C62FFCD700F0800EDCEC7B
:1032680023F0860E00018E6FFC0E00018F6FB8EC04
:1032780008F0C00EDCEC23F0B90E00018E6FFC0ED6
:1032880000018F6FB8EC08F0050E0001C76F0F0E34
:103298000001C66FF10EE82EFED7C62FFCD7C72F48
:1032A800FAD781A2FED781CFC6F00001C63B0F0E28
:1032B800C6170001C6510001FA6FFB6B0001FA4BFB
:1032C800FB2B81A21CD0FDD79BEC1AF0BBD78BEC53
:1032D8000CF0B8D709EC00F0B5D7C9EC1CF0B2D7A0
:1032E8005AEC1DF0AFD70EEC24F0ACD7AAEC19F0CD
:1032F800A9D7E1EC1DF0A6D70AEC0EF0A3D7FAC0C7
:10330800C6F0FBC0C7F00001C751000AD8A49AD77D
:103318000001C651010AD8B4D7D7030AD8B4D7D701
:10332800010AD8B4D7D7060AD8B4D7D7030AD8B46D
:10333800D7D7010AD8B4D7D70F0AD8B4D7D7010A34
:10334800D8B4D7D7030AD8B4D7D77CD7010EDCECCA
:1033580023F0680E0001AB6FE40EE82EFED7AB2F0A
:10336800FCD700F0800EDCEC23F0360E00018E6FE7
:10337800FF0E00018F6FB8EC08F0C00EDCEC23F0F4
:1033880081A2FED7000E0001AE6F000EAD6F0001E6
:10339800AEBF08D00001AE512DE1030E0001AD5DB6
:1033A800D8B028D0000E0001AF6F630E0001AF65E2
:1033B80001D00CD0680E0001AB6FE40EE82EFED7EA
:1033C800AB2FFCD700F00001AF2BEFD7898A070E8F
:1033D8000001AC6F170E0001AB6F6A0EE82EFED726
:1033E800AB2FFCD7AC2FFAD700F0899A0001AD4B70
:1033F800AE2BCDD7010EDCEC23F0680E0001AB6FCD
:10340800E40EE82EFED7AB2FFCD700F0800EDCECE4
:1034180023F0870E00018E6FFF0E00018F6FB8EC4E
:1034280008F0000E0001B06F630E0001B06501D016
:103438008DD7680E0001AB6FE40EE82EFED7AB2FD8
:10344800FCD700F00001B02BEFD7A6840001AC51E7
:10345800AA6EABC0A9FFADC0A8FFA69EA69CF29E0F
:10346800550EA76EAA0EA76EA682F28EA1A8FED749
:10347800A198A69465506610D8B41200010EDCEC31
:1034880023F0680E0001AE6FE40EE82EFED7AE2FD3
:10349800FCD700F0800EDCEC23F0ABC080F0ACC0B1
:1034A80081F09FEC23F00001AD19D8A424D0480E78
:1034B80000018E6FFB0E00018F6FADC090F0000110
:1034C800916BABC092F0ACC093F0B8EC08F0000E72
:1034D8000001AF6F630E0001AF6501D01200680EE6
:1034E8000001AE6FE40EE82EFED7AE2FFCD700F039
:1034F8000001AF2BEFD7BD0E00018E6FFF0E00014C
:103508008F6FB8EC08F0000E0001B06F630E000179
:10351800B06501D01200680E0001AE6FE40EE82E0F
:10352800FED7AE2FFCD700F00001B02BEFD7010E6D
:10353800DCEC23F0680E0001AB6FE40EE82EFED73A
:10354800AB2FFCD700F0800EDCEC23F0C60E000198
:103558008E6FFE0E00018F6FB8EC08F0C00EDCEC29
:1035680023F0FF0E00018E6FFE0E00018F6FB8EC86
:1035780008F0050E0001AC6F0F0E0001AB6FF10EE5
:10358800E82EFED7AB2FFCD7AC2FFAD781A2FED7F7
:1035980081B2FED7010EDCEC23F0680E0001AB6FA0
:1035A800E40EE82EFED7AB2FFCD700F0800EDCEC43
:1035B80023F0750E00018E6FFC0E00018F6FB8ECC2
:1035C80008F0E30E00018E6FFE0E00018F6FB8EC5D
:1035D80008F0500E00018E6FFF0E00018F6FB8ECDF
:1035E80008F0A80E00018E6FFE0E00018F6FB8EC78
:1035F80008F0F10E00018E6FFE0E00018F6FB8EC1F
:1036080008F012009CEC1FF0E5EC20F0000E000121
:10361800DF6F000EDE6F0001DE510001DF11D8B44C
:1036280016D0200E0001806F150E0001816F040E68
:103638000001826F150E0001836F030E0001846F75
:10364800170E0001856F420E7FEC23F00BD0100E91
:1036580000018D6F270E8E6F000E8F6F000E906F1A
:103668006CEC1FF088EC22F0000E746E010E736E85
:1036780017D065EC04F014D06EEC23F011D0ABEC4D
:1036880023F0FBEC17F0000E746E010E736E65EC00
:1036980004F006D026EC19F003D0ABEC23F0FFD7EA
:1036A8000001FC51000AD8B4E4D7010AD8B4E4D721
:1036B800030AD8B4E4D7010AD8B4ECD7070AD8B4B7
:1036C800ECD7EED7000E00018B6F000189AF08D050
:1036D8000001886D891FD8B0892B010E00018B6FFE
:1036E800000187AF08D00001866D871FD8B0872BEF
:1036F800010E00018B1B000E00018D6F000E8C6FF8
:103708000001885100018911D8B42CD0010E0001A4
:103718008A6F06D00001D8908837893700018A2B34
:10372800000189AFF7D70001D8908C378D37000199
:1037380088510001865D0001895100018759D8A090
:103748000AD0000188510001865F000189510001FB
:10375800875B00018C810001D89089338833000190
:103768008A2FE1D700018B510001D8B405D00001A0
:103778008C6D8D1FD8B08D2B8CC086F08DC087F0D6
:103788001200000E0001886F000E896F000E8A6F0C
:10379800000E8B6F00018451000185110001861114
:1037A80000018711D8B442D0010E00018C6F08D0F7
:1037B8000001D890843785378637873700018C2BEE
:1037C800000187AFF5D70001D890883789378A3745
:1037D8008B37000184510001805D00018551000193
:1037E8008159000186510001825900018751000169
:1037F8008359D8A012D0000184510001805F0001D4
:1038080085510001815B000186510001825B000146
:1038180087510001835B000188810001D8908733BC
:1038280086338533843300018C2FCDD788C080F050
:1038380089C081F08AC082F08BC083F012009EECB0
:103848001DF0000E0001896F000E886F000189BF0E
:1038580008D00001895140E1070E0001885DD8B009
:103868003BD0240E00018825D96E010E0001892164
:10387800DA6EDF500001856F0001853B0F0E85175A
:103888000F0E00018517000185510A0D240E000155
:103898008825D96E010E00018921DA6EDF500F0BE1
:1038A8000001866F876BF35000018627F4500001F2
:1038B8008723D89000018835D96E00018935DA6EE2
:1038C8000E0ED926010EDA2286C0DEFF87C0DDFF84
:1038D8000001884B892BBAD7170ED56E850ED76E87
:1038E800EE0ED66ED58E1200000E0001856F000117
:1038F80081AF08D00001806D811FD8B0812B010EE7
:103908000001856F000183AF05D00001826D831F20
:10391800D8B0832B0001825100018311D8B426D07E
:10392800010E0001846F06D00001D89082378337DA
:103938000001842B000183AFF7D7000182510001F9
:10394800805D0001835100018159D8A008D0000191
:1039580082510001805F000183510001815B0001F9
:10396800D890833382330001842FE7D70001855133
:103978000001D8B405D00001806D811FD8B0812B1B
:1039880080C080F081C081F01200010EDCEC23F0D1
:10399800680E0001AB6FE40EE82EFED7AB2FFCD704
:1039A80000F0800EDCEC23F0830E00018E6FFB0E1E
:1039B80000018F6FB8EC08F0C00EDCEC23F0950E18
:1039C80000018E6FFB0E00018F6FB8EC08F081A22A
:1039D800FED781380F0B0F0AD8B41200898A81B23A
:1039E800FED7000E0001E56F000EE46F0001E5BF91
:1039F80008D0100E0001E45D270E0001E559D8B08B
:103A08000DD0898A1A0EE82EFED700D0899AF00EBA
:103A1800E82EFED70001E44BE52BE8D7899AD7D7E3
:103A2800100E00018D6F270E8E6F000E8F6F000E27
:103A3800906F6CEC1FF0F29E02EC24F0000E000177
:103A4800826FD00E816FF0EC23F0000E0001826FC0
:103A5800000E816FF0EC23F0000E0001976F000E4E
:103A6800966F000197BF08D0000197511BE1070E20
:103A78000001965DD8B016D0240E00019625D96EA7
:103A8800010E00019721DA6EDF500001956F0001E9
:103A980095510001816F826BF0EC23F00001964B89
:103AA800972BDFD7FEEC23F0F28E1200010EDCEC30
:103AB80023F0680E0001AB6FE40EE82EFED7AB2FA3
:103AC800FCD700F0800EDCEC23F0310E00018E6F85
:103AD800FC0E00018F6FB8EC08F0C00EDCEC23F090
:103AE800640E00018E6FFC0E00018F6FB8EC08F0B9
:103AF800000E0001AD6F000EAC6F81A2FED78138B9
:103B08000F0B0F0AD8B412000001AC510001AD111F
:103B1800D8A407D0000E0001AD6F010EAC6F898AE2
:103B280006D0000E0001AD6F000EAC6F899A81A21D
:103B3800E4D7FDD702EC24F0000E0001826FD00E0E
:103B4800816FF0EC23F0000E0001826F000E816F90
:103B5800F0EC23F0FEEC23F002EC24F0000E000160
:103B6800826FD10E816FF0EC23F0000E0001846F9C
:103B7800000E836F000184BF08D00001845115E155
:103B8800060E0001835DD8B010D0240E00018325F5
:103B9800D96E010E00018421DA6E010E9FEC22F02D
:103BA800DF6E0001834B842BE5D7000E9FEC22F0DB
:103BB80001012A6FFEEC23F0120081A2FED781CF0B
:103BC80080F00001803B0F0E80170001805100013A
:103BD800FA6FFB6B0CD08D8027D08D8225D08C801E
:103BE80023D0898621D089881FD0898A1DD0FAC020
:103BF80080F0FBC081F000018151000AD8A414D0E4
:103C080000018051000AD8B4E6D7010AD8B4E5D734
:103C1800030AD8B4E4D7010AD8B4E3D7070AD8B45A
:103C2800E2D7010AD8B4E1D781B2FED700F000F09C
:103C3800000E896E000E8D6E000E8C6EBED7000EC3
:103C48000001856F000E846F00018251000183110D
:103C5800D8B42CD0010E0001866F06D00001D89090
:103C6800823783370001862B000183AFF7D7000125
:103C7800D89084378537000182510001805D0001AA
:103C8800835100018159D8A00AD000018251000156
:103C9800805F000183510001815B00018481000184
:103CA800D890833382330001862FE1D784C080F017
:103CB80085C081F0120080C084F081C085F00001C9
:103CC800841F851F844B852BFF0E0001842500016E
:103CD800866FFF0E000185210001876F15D0000156
:103CE800875101011C6F1D6B0001865101011E6F78
:103CF8001F6B000187510101206F216B0001865164
:103D08000101226F236B120082C084F083C085F00A
:103D180000018551000AD8A4120000018451010A4B
:103D2800D8B4DDD7020AD8A41200E3D70AEC24F0ED
:103D3800000E036ED00E026EF5EC23F0000E036E3B
:103D4800000E026EF5EC23F006EC24F00AEC24F0E9
:103D5800000E036ED10E026EF5EC23F0000E056E18
:103D6800000E046E05BE06D0055011E1060E045C77
:103D7800D8B00DD0240E0424D96E010E0520DA6EB9
:103D8800010E49EC23F0DF6E044A052AEBD7000E3A
:103D980049EC23F001012A6F06EC24F01200000E12
:103DA800746E000E736E000E0001E36F000EE26F7A
:103DB800000E726E000E716E000E6C6E010E6B6E50
:103DC800000E6E6E000E6D6E000E706E000E6F6E41
:103DD800000E01012E6F000E2D6F000E0001FF6F07
:103DE800000EFE6F000E626E000E616E000E646EB5
:103DF800000E636E000E606E000E5F6E000E5E6E4B
:103E0800000E5D6E12000001816F00018151F00B00
:103E18000001806F8C500F0B8C6E000180518C104C
:103E28008C6E8C86420EE82EFED700D08C96420E01
:103E3800E82EFED700D000018139F00B0001816F18
:103E480000018151F00B0001806F8C500F0B8C6EBC
:103E5800000180518C108C6E8C86420EE82EFED7A5
:103E680000D08C96420EE82EFED700D0120000013A
:103E7800895100018A11D8B426D0010E00018B6F38
:103E880006D00001D89089378A3700018B2B0001B2
:103E98008AAFF7D7000189510001875D00018A5177
:103EA80000018859D8A008D0000189510001875F16
:103EB80000018A510001885B0001D8908A33893358
:103EC80000018B2FE7D787C087F088C088F01200E1
:103ED800000EC76E280EC66E000EC56E000E0001DD
:103EE800806F480E816FE80E826F010E836F8DC060
:103EF80091F08EC092F08FC093F090C094F0020EB3
:103F0800D89000019137923793379437E82EF8D735
:103F180091C084F092C085F093C086F094C087F079
:103F2800C5EC1BF000018005C86E948694881200C9
:103F3800F00ED36E9B8C070E926EF20E936E000EEF
:103F4800946E000E956E000E966E000E896E000E31
:103F58008A6E000E8B6E000E8C6E000E8D6EF19EBA
:103F6800000EC26E0D0EC16E000EB56EB496B10E87
:103F7800C06EF086F28A9D80B00ECD6EB00EB16E26
:103F88009D82A082F28C9D9CF29E1200040E00017C
:103F9800816FB00E806F000E0001836F010E826F7B
:103FA8005FEC1EF0040E0001816FA60E806F000EFC
:103FB8000001836F030E826F5FEC1EF0CD80000E50
:103FC8007A6E000E796E340E0001886FF10EE82EBD
:103FD800FED7882FFCD700D0B180000E7C6E000E73
:103FE8007B6E8B801200026E0250F00B016E8C50BB
:103FF8000F0B8C6E01508C108C6E8C86420EE82E46
:10400800FED700D08C96420EE82EFED700D002389C
:10401800F00B026E0250F00B016E8C500F0B8C6E81
:1040280001508C108C6E8C86420EE82EFED700D084
:104038008C96420EE82EFED700D01200000E0B6EB2
:10404800000E0A6E08500910D8B41CD0010E0C6E70
:1040580004D0D890083609360C2A09AEFAD7D89079
:104068000A360B360850065C09500758D8A005D008
:104078000850065E0950075A0A80D890093208325B
:104088000C2EEDD70AC006F00BC007F01200F40E94
:10409800F66E470EF76E000EF86E01EE2FF010EE7A
:1040A80008F00900F5CFEEFFE550E150FAE101EE26
:1040B80000F02F0EEE6AE806FDE100EEDAF0260EBB
:1040C800EE6AE806FDE100EE5BF0230EEE6AE80614
:1040D800FDE17E907E92000106EF1BF099EC20F046
:1040E8000001DA050001DB11D8A41200050E000159
:1040F800876F0F0E0001866FF10EE82EFED7862F10
:10410800FCD7872FFAD70001DA050001DB11D8A404
:1041180006D0000E0001E36F010EE26F1200000EE0
:104128000001E36F000EE26F1200000EE3EC22F0D4
:10413800C350C4CF82F00001836B82C083F00001BA
:10414800826B000182110001846F0001835100011C
:10415800856F000185BF0AD0850E0001845D030EBE
:1041680000018559D8A002D0010E01D0000E00012F
:10417800DA6FDB6B1200010EE3EC22F0C350C4CF00
:1041880082F00001836B82C083F00001826B000122
:1041980082110001846F000183510001856F0001C5
:1041A80085BF08D00001855107E1960E0001845DA6
:1041B800D8B002D0010E01D0000E0001DC6FDD6B1B
:1041C80012009C0E0001836FD70EE82EFED7832FB6
:1041D800FCD7330EDCEC23F0320EDCEC23F0280E97
:1041E800DCEC23F00C0EDCEC23F0060EDCEC23F008
:1041F800010EDCEC23F09C0E0001836FD70EE82E35
:10420800FED7832FFCD7120003500410D8B418D05F
:10421800010E056E04D0D89003360436052A04AE84
:10422800FAD70350015C04500258D8A004D00350B8
:10423800015E0450025AD89004320332052EF1D799
:1042480001C001F002C002F01200000E0001E16F8F
:10425800160EE06F800EDCEC23F0DA0E00018E6F94
:10426800FD0E00018F6FB8EC08F0C00EDCEC23F0F7
:104278001F0E00018E6FFD0E00018F6FB8EC08F065
:104288001200000E0001E16F0C0EE06F800EDCECF6
:1042980023F0410E00018E6FFD0E00018F6FB8EC08
:1042A80008F0C00EDCEC23F0DA0E00018E6FFD0E74
:1042B80000018F6FB8EC08F0120080C084F081C054
:1042C80085F006D00001844B852B0001824B832B9F
:1042D80082C0F6FF83C0F7FFF86A84C0D9FF85C0A3
:1042E800DAFF0800F5CFDFFFDF50D8B41200EAD7B5
:1042F8000001805100018203F3CF84F0F4CF85F0F0
:104308000001805100018303F3500001852700015B
:10431800815100018203F3500001852784C080F099
:1043280085C081F0120001C005F002C006F004D07B
:10433800054A062A034A042A03C0F6FF04C0F7FF09
:10434800F86A05C0D9FF06C0DAFF0800F5CFDFFF1D
:10435800DF50D8B41200ECD7000E0001E16F160E42
:10436800E06F800EEAEC23F0DA0E0D6EFD0E0E6E95
:10437800D4EC0AF0C00EEAEC23F01F0E0D6EFD0E11
:104388000E6ED4EC0AF01200000E0001E16F0C0E64
:10439800E06F800EEAEC23F0410E0D6EFD0E0E6EFE
:1043A800D4EC0AF0C00EEAEC23F0DA0E0D6EFD0E26
:1043B8000E6ED4EC0AF01200000E0001E16F170E29
:1043C800E06F800EEAEC23F0300E0D6EFD0E0E6EDF
:1043D800D4EC0AF0C00EEAEC23F0C90E0D6EFD0E07
:1043E8000E6ED4EC0AF01200000E0001E16F0B0E05
:1043F800E06F800EEAEC23F0EB0E0D6EFD0E0E6EF4
:10440800D4EC0AF0C00EEAEC23F0300E0D6EFD0E6F
:104418000E6ED4EC0AF01200040E0001E16F0A0ED1
:10442800E06F800EEAEC23F0FD0E0D6EFC0E0E6EB2
:10443800D4EC0AF0C00EEAEC23F0B80E0D6EFD0EB7
:104448000E6ED4EC0AF01200040E0001E16F090EA2
:10445800E06F800EEAEC23F0A70E0D6EFD0E0E6ED7
:10446800D4EC0AF0C00EEAEC23F00E0E0D6EFD0E31
:104478000E6ED4EC0AF01200030E0001E16FFE0E7E
:10448800E06F800EEAEC23F0960E0D6EFD0E0E6EB8
:10449800D4EC0AF0C00EEAEC23F0FD0E0D6EFC0E13
:1044A8000E6ED4EC0AF01200030E0001E16FF40E58
:1044B800E06F800EEAEC23F0DB0E0D6EFC0E0E6E44
:1044C800D4EC0AF0C00EEAEC23F0960E0D6EFD0E49
:1044D8000E6ED4EC0AF01200030E0001E16FF30E29
:1044E800E06F800EEAEC23F0850E0D6EFD0E0E6E69
:1044F800D4EC0AF0C00EEAEC23F0EC0E0D6EFC0EC4
:104508000E6ED4EC0AF01200F28E000E0001FC6F61
:10451800000E0001F76F000EF66F0001DE5100017A
:10452800DF11D8A414EC1DF0CDEC22F0000E766E4D
:10453800010E756E12000001816FC1EC23F0C58673
:10454800C1EC23F0C9CF82F0C1EC23F00001815106
:104558000001D8A402D0C58A01D0C59AC588000137
:1045680082511200030E0001E16FE069800EEAEC4F
:1045780023F0EC0E0D6EFC0E0E6ED4EC0AF0C00E9D
:10458800EAEC23F0A70E0D6EFD0E0E6ED4EC0AF0C9
:104598001200000E0001E16F000EE06F800EDCECEF
:1045A80023F082EC0FF0C00EDCEC23F00D0E0001BE
:1045B8008E6FFE0E00018F6FB8EC08F0120000013C
:1045C800816F00018145E846FC0BC26EC280C28241
:1045D80009D0340E0001806FF10EE82EFED7802F2F
:1045E800FCD700D0C2A21200F4D70001826F000EDF
:1045F8000001816F3A0E0001826107D02F0E000181
:10460800826503D0010E0001816F81C080F0000136
:10461800803112000001816F0BD0000181070B0E61
:104628000001806F470EE82EFED7802FFCD700D000
:10463800000181510001D8B41200EFD7000E00012B
:10464800E16F000EE06F800EEAEC23F047EC12F009
:10465800C00EEAEC23F00D0E0D6EFE0E0E6ED4ECBD
:104668000AF0120001500302F3CF05F0F4CF06F070
:1046780001500402F350062602500302F3500626A6
:1046880005C001F006C002F01200026ECBEC23F068
:10469800C586CBEC23F0C9CF03F0CBEC23F0025056
:1046A800D8A402D0C58A01D0C59AC5880350120083
:1046B800000E0001F76F010EF66F12C0E6F013C08E
:1046C800E7F0FF0E1224076EFF0E1320086E99EC18
:1046D80018F012000001FC05D8B4B6EC16F0000181
:1046E800FC05D8B405EC16F00001FC05D8A41200AE
:1046F8005BEC17F012000001866F86C024F180C0C1
:1047080025F181C026F182C027F183C028F184C039
:1047180029F185C02AF11200036E000E026E3A0ECE
:10472800036005D02F0E036402D0010E026E02C092
:1047380001F00130120000018151AA6E80C0A9FF6A
:10474800A69EA69CA680A6B0FED7A8501200000E72
:10475800896E000E8A6E000E8B6E000E8C6E000E37
:104768008D6E12000250AA6E01C0A9FFA69EA69CDB
:10477800A680A6B0FED7A8501200C7B4FED7C5CFF2
:1047880080F01F0E00018017D8B41200F6D7C7B406
:10479800FED7C5CF01F01F0E0116D8B41200F7D707
:1047A8000001826F8C840001825107EC1FF0120017
:1047B8000001826F8C940001825107EC1FF01200F7
:1047C800036E8C840350F7EC1FF01200036E8C9478
:1047D8000350F7EC1FF01200C1EC23F081C0C9FFB1
:1047E8001200CBEC23F002C0C9FF12004D4D4D0062
:1047F8004D4D4D00C1EC23F0C5841200C1EC23F0EF
:10480800C5801200CBEC23F0C5841200CBEC23F05A
:06481800C5801200120031
:10FB1400003132334134353642373839432A3023C1
:10FB2400440001000A006400E80310272530326411
:10FB34002573207C20253032643A253032643A25FE
:10FB44003032640028646174613A2025752C206188
:10FB54006464723A20257529004E4F204C41423A84
:10FB64002025647C4C41423A202564004E4F2054A9
:10FB740041423A2025647C5441423A2025640044A1
:10FB84002057494C4C2052455455524E2020202099
:10FB9400004F544845522053455453205241352078
:10FBA4002020002D2D204C4F47202532642048452D
:10FBB40052452D2D00524553554C545320494E2047
:10FBC4004C4F47202564004D4944202D2D2032738D
:10FBD400202020202020200044524F50202D2D2072
:10FBE4003273202020202020004C454654202D2D07
:10FBF400203273202020202020004C4556454C20E4
:10FC04002D2D2032732020202020005249474854B3
:10FC1400202D2D2032732020202020004D494444E3
:10FC24004C45202D2D2032732020202000442057C5
:10FC3400494C4C2052455455524E202020004D49E9
:10FC4400442D4C454654202D2D2032732020004D48
:10FC540049442D5249474854202D2D203273200009
:10FC6400454C534520544F47474C4553205241354A
:10FC740000414C47313A203920504F504E4F5441A7
:10FC84004200312E414C477C322E534E527C332E4F
:10FC94004143005453543A20434F4E4420534F4C55
:10FCA4004E2744005453543A205055534820534F40
:10FCB4004C4E274400342E48497C352E544F477C03
:10FCC400362E454550005453543A20424F54482050
:10FCD400534552564F53004C4F472031202020208B
:10FCE40020202020202020004C4F4720322020209C
:10FCF4002020202020202020004C4F47203320208B
:10FD0400202020202020202020004C4F4720342079
:10FD14002020202020202020202000332E204C4F83
:10FD2400475320202020202020202000322E205342
:10FD34004F525420202020202020202000312E202B
:10FD4400444154452F54494D452020202000202D66
:10FD54002D20504F50202043414E202D2D20002097
:10FD64002D2D20534F55502043414E202D2D200042
:10FD74002D2D20544F54414C2043414E53202D2DC2
:10FD8400004C4F47203120202020202020202020FC
:10FD94003C004C4F472032202020202020202020CF
:10FDA400203C004C4F4720332020202020202020BE
:10FDB40020203C004C4F47203420202020202020AD
:10FDC4002020203C00332E204C4F4753202020205D
:10FDD400202020203C00322E20534F52542020203B
:10FDE40020202020203C00312E20444154452F5413
:10FDF400494D452020203C005041555345203C208E
:10FE04007C204241434B203E005055534820544FE0
:10FE140020434F4E54494E5545004D41475F736949
:10FE2400676E616C3A20256420005453543A205480
:10FE3400494C5420534552564F004449444E27548C
:10FE440020434F4D504C4554450049525F736967F8
:10FE54006E616C3A202564200043414D2044574E86
:10FE6400207C5243303D300043414D2055502020EA
:10FE74007C5243303D31005453543A204D41474E57
:10FE8400455449534D005453543A2043414D205353
:10FE94004552564F005453543A2050414E20534536
:10FEA40052564F00414C47343A20414C4C20434178
:10FEB4004E53005453543A204443204D4F544F5210
:10FEC4005300414C474F524954484D2054455354D4
:10FED4000050494E2052413520484947482E0041A0
:10FEE4004C47323A2031322043414E5300414C4773
:10FEF400353A204E4F2043414E530050555348202D
:10FF0400544F205354415254002564204D494E20EF
:10FF14002564205345430054494D453A2025643A0D
:10FF240025303264005453543A20495220534E53DE
:10FF34005200534F4C454E4F49442054535400549F
:10FF4400494D452025643A2530326400414C4733FD
:10FF54003A20312043414E0050494E205241332E25
:10FF64002E2E0050494E205241342E2E2E00534F37
:10FF74005254494E472E2E2E005453543A20434F88
:10FF84004E44005055534820444F4E45004143547D
:10FF94005541544F5253004455524154494F4E3ADF
:10FFA40000434F4E443A2025640053454E534F526C
:10FFB4005300286E756C6C29004641494C45440039
:10FFC40053544152543A004645420044454300418B
:10FFD4005547004A554C004A414E004A554E00537D
:10FFE4004550004D41520041505200455252004F7D
:0CFFF4004354004E4F56004D4159000090
:020000040020DA
:08000000FFFFFFFFFFFFFFFF00
:020000040030CA
:0E000000FF081F1EFF8381FF0F400FE00F401F
:00000001FF
